Archive member included to satisfy reference by file (symbol)

d:/program/gcc-arm/gcc-arm-none-eabi-9-2020-q2-update-win32/bin/../lib/gcc/arm-none-eabi/9.3.1/../../../../arm-none-eabi/lib/thumb/v7-m/nofp\libm.a(lib_a-wf_asin.o)
                              CMakeFiles/mpu6050.elf.dir/Core/Src/mpu6050.cpp.obj (asinf)
d:/program/gcc-arm/gcc-arm-none-eabi-9-2020-q2-update-win32/bin/../lib/gcc/arm-none-eabi/9.3.1/../../../../arm-none-eabi/lib/thumb/v7-m/nofp\libm.a(lib_a-wf_atan2.o)
                              CMakeFiles/mpu6050.elf.dir/Core/Src/mpu6050.cpp.obj (atan2f)
d:/program/gcc-arm/gcc-arm-none-eabi-9-2020-q2-update-win32/bin/../lib/gcc/arm-none-eabi/9.3.1/../../../../arm-none-eabi/lib/thumb/v7-m/nofp\libm.a(lib_a-ef_asin.o)
                              d:/program/gcc-arm/gcc-arm-none-eabi-9-2020-q2-update-win32/bin/../lib/gcc/arm-none-eabi/9.3.1/../../../../arm-none-eabi/lib/thumb/v7-m/nofp\libm.a(lib_a-wf_asin.o) (__ieee754_asinf)
d:/program/gcc-arm/gcc-arm-none-eabi-9-2020-q2-update-win32/bin/../lib/gcc/arm-none-eabi/9.3.1/../../../../arm-none-eabi/lib/thumb/v7-m/nofp\libm.a(lib_a-ef_atan2.o)
                              d:/program/gcc-arm/gcc-arm-none-eabi-9-2020-q2-update-win32/bin/../lib/gcc/arm-none-eabi/9.3.1/../../../../arm-none-eabi/lib/thumb/v7-m/nofp\libm.a(lib_a-wf_atan2.o) (__ieee754_atan2f)
d:/program/gcc-arm/gcc-arm-none-eabi-9-2020-q2-update-win32/bin/../lib/gcc/arm-none-eabi/9.3.1/../../../../arm-none-eabi/lib/thumb/v7-m/nofp\libm.a(lib_a-ef_sqrt.o)
                              d:/program/gcc-arm/gcc-arm-none-eabi-9-2020-q2-update-win32/bin/../lib/gcc/arm-none-eabi/9.3.1/../../../../arm-none-eabi/lib/thumb/v7-m/nofp\libm.a(lib_a-ef_asin.o) (__ieee754_sqrtf)
d:/program/gcc-arm/gcc-arm-none-eabi-9-2020-q2-update-win32/bin/../lib/gcc/arm-none-eabi/9.3.1/../../../../arm-none-eabi/lib/thumb/v7-m/nofp\libm.a(lib_a-s_lib_ver.o)
                              d:/program/gcc-arm/gcc-arm-none-eabi-9-2020-q2-update-win32/bin/../lib/gcc/arm-none-eabi/9.3.1/../../../../arm-none-eabi/lib/thumb/v7-m/nofp\libm.a(lib_a-wf_asin.o) (__fdlib_version)
d:/program/gcc-arm/gcc-arm-none-eabi-9-2020-q2-update-win32/bin/../lib/gcc/arm-none-eabi/9.3.1/../../../../arm-none-eabi/lib/thumb/v7-m/nofp\libm.a(lib_a-sf_atan.o)
                              d:/program/gcc-arm/gcc-arm-none-eabi-9-2020-q2-update-win32/bin/../lib/gcc/arm-none-eabi/9.3.1/../../../../arm-none-eabi/lib/thumb/v7-m/nofp\libm.a(lib_a-ef_atan2.o) (atanf)
d:/program/gcc-arm/gcc-arm-none-eabi-9-2020-q2-update-win32/bin/../lib/gcc/arm-none-eabi/9.3.1/../../../../arm-none-eabi/lib/thumb/v7-m/nofp\libm.a(lib_a-sf_fabs.o)
                              d:/program/gcc-arm/gcc-arm-none-eabi-9-2020-q2-update-win32/bin/../lib/gcc/arm-none-eabi/9.3.1/../../../../arm-none-eabi/lib/thumb/v7-m/nofp\libm.a(lib_a-wf_asin.o) (fabsf)
d:/program/gcc-arm/gcc-arm-none-eabi-9-2020-q2-update-win32/bin/../lib/gcc/arm-none-eabi/9.3.1/../../../../arm-none-eabi/lib/thumb/v7-m/nofp\libm.a(lib_a-sf_nan.o)
                              d:/program/gcc-arm/gcc-arm-none-eabi-9-2020-q2-update-win32/bin/../lib/gcc/arm-none-eabi/9.3.1/../../../../arm-none-eabi/lib/thumb/v7-m/nofp\libm.a(lib_a-wf_asin.o) (nanf)
d:/program/gcc-arm/gcc-arm-none-eabi-9-2020-q2-update-win32/bin/../lib/gcc/arm-none-eabi/9.3.1/thumb/v7-m/nofp\libgcc.a(_arm_muldf3.o)
                              CMakeFiles/mpu6050.elf.dir/Core/Src/mpu6050.cpp.obj (__aeabi_dmul)
d:/program/gcc-arm/gcc-arm-none-eabi-9-2020-q2-update-win32/bin/../lib/gcc/arm-none-eabi/9.3.1/thumb/v7-m/nofp\libgcc.a(_arm_mulsf3.o)
                              CMakeFiles/mpu6050.elf.dir/Core/Src/mpu6050.cpp.obj (__aeabi_fmul)
d:/program/gcc-arm/gcc-arm-none-eabi-9-2020-q2-update-win32/bin/../lib/gcc/arm-none-eabi/9.3.1/thumb/v7-m/nofp\libgcc.a(_arm_addsubdf3.o)
                              CMakeFiles/mpu6050.elf.dir/Core/Src/mpu6050.cpp.obj (__aeabi_i2d)
d:/program/gcc-arm/gcc-arm-none-eabi-9-2020-q2-update-win32/bin/../lib/gcc/arm-none-eabi/9.3.1/thumb/v7-m/nofp\libgcc.a(_arm_muldivdf3.o)
                              CMakeFiles/mpu6050.elf.dir/Core/Src/mpu6050.cpp.obj (__aeabi_ddiv)
d:/program/gcc-arm/gcc-arm-none-eabi-9-2020-q2-update-win32/bin/../lib/gcc/arm-none-eabi/9.3.1/thumb/v7-m/nofp\libgcc.a(_arm_truncdfsf2.o)
                              CMakeFiles/mpu6050.elf.dir/Core/Src/mpu6050.cpp.obj (__aeabi_d2f)
d:/program/gcc-arm/gcc-arm-none-eabi-9-2020-q2-update-win32/bin/../lib/gcc/arm-none-eabi/9.3.1/thumb/v7-m/nofp\libgcc.a(_arm_addsubsf3.o)
                              CMakeFiles/mpu6050.elf.dir/Core/Src/mpu6050.cpp.obj (__aeabi_fsub)
d:/program/gcc-arm/gcc-arm-none-eabi-9-2020-q2-update-win32/bin/../lib/gcc/arm-none-eabi/9.3.1/thumb/v7-m/nofp\libgcc.a(_arm_muldivsf3.o)
                              CMakeFiles/mpu6050.elf.dir/dmp/Src/inv_mpu.cpp.obj (__aeabi_fdiv)
d:/program/gcc-arm/gcc-arm-none-eabi-9-2020-q2-update-win32/bin/../lib/gcc/arm-none-eabi/9.3.1/thumb/v7-m/nofp\libgcc.a(_arm_cmpsf2.o)
                              CMakeFiles/mpu6050.elf.dir/dmp/Src/inv_mpu.cpp.obj (__aeabi_fcmpeq)
d:/program/gcc-arm/gcc-arm-none-eabi-9-2020-q2-update-win32/bin/../lib/gcc/arm-none-eabi/9.3.1/thumb/v7-m/nofp\libgcc.a(_arm_unordsf2.o)
                              d:/program/gcc-arm/gcc-arm-none-eabi-9-2020-q2-update-win32/bin/../lib/gcc/arm-none-eabi/9.3.1/../../../../arm-none-eabi/lib/thumb/v7-m/nofp\libm.a(lib_a-wf_asin.o) (__aeabi_fcmpun)
d:/program/gcc-arm/gcc-arm-none-eabi-9-2020-q2-update-win32/bin/../lib/gcc/arm-none-eabi/9.3.1/thumb/v7-m/nofp\libgcc.a(_arm_fixsfsi.o)
                              CMakeFiles/mpu6050.elf.dir/Core/Src/mpu6050.cpp.obj (__aeabi_f2iz)
d:/program/gcc-arm/gcc-arm-none-eabi-9-2020-q2-update-win32/bin/../lib/gcc/arm-none-eabi/9.3.1/thumb/v7-m/nofp\libgcc.a(_arm_fixunssfsi.o)
                              CMakeFiles/mpu6050.elf.dir/dmp/Src/inv_mpu_dmp_motion_driver.cpp.obj (__aeabi_f2uiz)
d:/program/gcc-arm/gcc-arm-none-eabi-9-2020-q2-update-win32/bin/../lib/gcc/arm-none-eabi/9.3.1/thumb/v7-m/nofp\libgcc.a(_aeabi_ldivmod.o)
                              CMakeFiles/mpu6050.elf.dir/dmp/Src/inv_mpu.cpp.obj (__aeabi_ldivmod)
d:/program/gcc-arm/gcc-arm-none-eabi-9-2020-q2-update-win32/bin/../lib/gcc/arm-none-eabi/9.3.1/thumb/v7-m/nofp\libgcc.a(_udivmoddi4.o)
                              d:/program/gcc-arm/gcc-arm-none-eabi-9-2020-q2-update-win32/bin/../lib/gcc/arm-none-eabi/9.3.1/thumb/v7-m/nofp\libgcc.a(_aeabi_ldivmod.o) (__udivmoddi4)
d:/program/gcc-arm/gcc-arm-none-eabi-9-2020-q2-update-win32/bin/../lib/gcc/arm-none-eabi/9.3.1/thumb/v7-m/nofp\libgcc.a(unwind-arm.o)
                              CMakeFiles/mpu6050.elf.dir/Core/Src/main.cpp.obj (__aeabi_unwind_cpp_pr0)
d:/program/gcc-arm/gcc-arm-none-eabi-9-2020-q2-update-win32/bin/../lib/gcc/arm-none-eabi/9.3.1/thumb/v7-m/nofp\libgcc.a(libunwind.o)
                              d:/program/gcc-arm/gcc-arm-none-eabi-9-2020-q2-update-win32/bin/../lib/gcc/arm-none-eabi/9.3.1/thumb/v7-m/nofp\libgcc.a(unwind-arm.o) (restore_core_regs)
d:/program/gcc-arm/gcc-arm-none-eabi-9-2020-q2-update-win32/bin/../lib/gcc/arm-none-eabi/9.3.1/thumb/v7-m/nofp\libgcc.a(pr-support.o)
                              d:/program/gcc-arm/gcc-arm-none-eabi-9-2020-q2-update-win32/bin/../lib/gcc/arm-none-eabi/9.3.1/thumb/v7-m/nofp\libgcc.a(unwind-arm.o) (__gnu_unwind_execute)
d:/program/gcc-arm/gcc-arm-none-eabi-9-2020-q2-update-win32/bin/../lib/gcc/arm-none-eabi/9.3.1/thumb/v7-m/nofp\libgcc.a(_dvmd_tls.o)
                              d:/program/gcc-arm/gcc-arm-none-eabi-9-2020-q2-update-win32/bin/../lib/gcc/arm-none-eabi/9.3.1/thumb/v7-m/nofp\libgcc.a(_aeabi_ldivmod.o) (__aeabi_ldiv0)
d:/program/gcc-arm/gcc-arm-none-eabi-9-2020-q2-update-win32/bin/../lib/gcc/arm-none-eabi/9.3.1/../../../../arm-none-eabi/lib/thumb/v7-m/nofp\libg.a(lib_a-abort.o)
                              d:/program/gcc-arm/gcc-arm-none-eabi-9-2020-q2-update-win32/bin/../lib/gcc/arm-none-eabi/9.3.1/thumb/v7-m/nofp\libgcc.a(unwind-arm.o) (abort)
d:/program/gcc-arm/gcc-arm-none-eabi-9-2020-q2-update-win32/bin/../lib/gcc/arm-none-eabi/9.3.1/../../../../arm-none-eabi/lib/thumb/v7-m/nofp\libg.a(lib_a-errno.o)
                              CMakeFiles/mpu6050.elf.dir/Core/Src/retarget.c.obj (__errno)
d:/program/gcc-arm/gcc-arm-none-eabi-9-2020-q2-update-win32/bin/../lib/gcc/arm-none-eabi/9.3.1/../../../../arm-none-eabi/lib/thumb/v7-m/nofp\libg.a(lib_a-exit.o)
                              d:/program/gcc-arm/gcc-arm-none-eabi-9-2020-q2-update-win32/bin/../lib/gcc/arm-none-eabi/9.3.1/../../../../arm-none-eabi/lib/thumb/v7-m/nofp/crt0.o (exit)
d:/program/gcc-arm/gcc-arm-none-eabi-9-2020-q2-update-win32/bin/../lib/gcc/arm-none-eabi/9.3.1/../../../../arm-none-eabi/lib/thumb/v7-m/nofp\libg.a(lib_a-impure.o)
                              d:/program/gcc-arm/gcc-arm-none-eabi-9-2020-q2-update-win32/bin/../lib/gcc/arm-none-eabi/9.3.1/../../../../arm-none-eabi/lib/thumb/v7-m/nofp\libg.a(lib_a-exit.o) (_global_impure_ptr)
d:/program/gcc-arm/gcc-arm-none-eabi-9-2020-q2-update-win32/bin/../lib/gcc/arm-none-eabi/9.3.1/../../../../arm-none-eabi/lib/thumb/v7-m/nofp\libg.a(lib_a-init.o)
                              d:/program/gcc-arm/gcc-arm-none-eabi-9-2020-q2-update-win32/bin/../lib/gcc/arm-none-eabi/9.3.1/../../../../arm-none-eabi/lib/thumb/v7-m/nofp/crt0.o (__libc_init_array)
d:/program/gcc-arm/gcc-arm-none-eabi-9-2020-q2-update-win32/bin/../lib/gcc/arm-none-eabi/9.3.1/../../../../arm-none-eabi/lib/thumb/v7-m/nofp\libg.a(lib_a-memcmp.o)
                              CMakeFiles/mpu6050.elf.dir/dmp/Src/inv_mpu.cpp.obj (memcmp)
d:/program/gcc-arm/gcc-arm-none-eabi-9-2020-q2-update-win32/bin/../lib/gcc/arm-none-eabi/9.3.1/../../../../arm-none-eabi/lib/thumb/v7-m/nofp\libg.a(lib_a-memcpy.o)
                              d:/program/gcc-arm/gcc-arm-none-eabi-9-2020-q2-update-win32/bin/../lib/gcc/arm-none-eabi/9.3.1/thumb/v7-m/nofp\libgcc.a(unwind-arm.o) (memcpy)
d:/program/gcc-arm/gcc-arm-none-eabi-9-2020-q2-update-win32/bin/../lib/gcc/arm-none-eabi/9.3.1/../../../../arm-none-eabi/lib/thumb/v7-m/nofp\libg.a(lib_a-memset.o)
                              d:/program/gcc-arm/gcc-arm-none-eabi-9-2020-q2-update-win32/bin/../lib/gcc/arm-none-eabi/9.3.1/../../../../arm-none-eabi/lib/thumb/v7-m/nofp/crt0.o (memset)
d:/program/gcc-arm/gcc-arm-none-eabi-9-2020-q2-update-win32/bin/../lib/gcc/arm-none-eabi/9.3.1/../../../../arm-none-eabi/lib/thumb/v7-m/nofp\libg.a(lib_a-printf.o)
                              CMakeFiles/mpu6050.elf.dir/Core/Src/main.cpp.obj (printf)
d:/program/gcc-arm/gcc-arm-none-eabi-9-2020-q2-update-win32/bin/../lib/gcc/arm-none-eabi/9.3.1/../../../../arm-none-eabi/lib/thumb/v7-m/nofp\libg.a(lib_a-puts.o)
                              CMakeFiles/mpu6050.elf.dir/Core/Src/mpu6050.cpp.obj (puts)
d:/program/gcc-arm/gcc-arm-none-eabi-9-2020-q2-update-win32/bin/../lib/gcc/arm-none-eabi/9.3.1/../../../../arm-none-eabi/lib/thumb/v7-m/nofp\libg.a(lib_a-setvbuf.o)
                              CMakeFiles/mpu6050.elf.dir/Core/Src/retarget.c.obj (setvbuf)
d:/program/gcc-arm/gcc-arm-none-eabi-9-2020-q2-update-win32/bin/../lib/gcc/arm-none-eabi/9.3.1/../../../../arm-none-eabi/lib/thumb/v7-m/nofp\libg.a(lib_a-signal.o)
                              d:/program/gcc-arm/gcc-arm-none-eabi-9-2020-q2-update-win32/bin/../lib/gcc/arm-none-eabi/9.3.1/../../../../arm-none-eabi/lib/thumb/v7-m/nofp\libg.a(lib_a-abort.o) (raise)
d:/program/gcc-arm/gcc-arm-none-eabi-9-2020-q2-update-win32/bin/../lib/gcc/arm-none-eabi/9.3.1/../../../../arm-none-eabi/lib/thumb/v7-m/nofp\libg.a(lib_a-signalr.o)
                              d:/program/gcc-arm/gcc-arm-none-eabi-9-2020-q2-update-win32/bin/../lib/gcc/arm-none-eabi/9.3.1/../../../../arm-none-eabi/lib/thumb/v7-m/nofp\libg.a(lib_a-signal.o) (_kill_r)
d:/program/gcc-arm/gcc-arm-none-eabi-9-2020-q2-update-win32/bin/../lib/gcc/arm-none-eabi/9.3.1/../../../../arm-none-eabi/lib/thumb/v7-m/nofp\libg.a(lib_a-strlen-stub.o)
                              d:/program/gcc-arm/gcc-arm-none-eabi-9-2020-q2-update-win32/bin/../lib/gcc/arm-none-eabi/9.3.1/../../../../arm-none-eabi/lib/thumb/v7-m/nofp\libg.a(lib_a-puts.o) (strlen)
d:/program/gcc-arm/gcc-arm-none-eabi-9-2020-q2-update-win32/bin/../lib/gcc/arm-none-eabi/9.3.1/../../../../arm-none-eabi/lib/thumb/v7-m/nofp\libg.a(lib_a-vfprintf.o)
                              d:/program/gcc-arm/gcc-arm-none-eabi-9-2020-q2-update-win32/bin/../lib/gcc/arm-none-eabi/9.3.1/../../../../arm-none-eabi/lib/thumb/v7-m/nofp\libg.a(lib_a-printf.o) (_vfprintf_r)
d:/program/gcc-arm/gcc-arm-none-eabi-9-2020-q2-update-win32/bin/../lib/gcc/arm-none-eabi/9.3.1/../../../../arm-none-eabi/lib/thumb/v7-m/nofp\libg.a(lib_a-wsetup.o)
                              d:/program/gcc-arm/gcc-arm-none-eabi-9-2020-q2-update-win32/bin/../lib/gcc/arm-none-eabi/9.3.1/../../../../arm-none-eabi/lib/thumb/v7-m/nofp\libg.a(lib_a-vfprintf.o) (__swsetup_r)
d:/program/gcc-arm/gcc-arm-none-eabi-9-2020-q2-update-win32/bin/../lib/gcc/arm-none-eabi/9.3.1/../../../../arm-none-eabi/lib/thumb/v7-m/nofp\libg.a(lib_a-__call_atexit.o)
                              d:/program/gcc-arm/gcc-arm-none-eabi-9-2020-q2-update-win32/bin/../lib/gcc/arm-none-eabi/9.3.1/../../../../arm-none-eabi/lib/thumb/v7-m/nofp\libg.a(lib_a-exit.o) (__call_exitprocs)
d:/program/gcc-arm/gcc-arm-none-eabi-9-2020-q2-update-win32/bin/../lib/gcc/arm-none-eabi/9.3.1/../../../../arm-none-eabi/lib/thumb/v7-m/nofp\libg.a(lib_a-atexit.o)
                              d:/program/gcc-arm/gcc-arm-none-eabi-9-2020-q2-update-win32/bin/../lib/gcc/arm-none-eabi/9.3.1/../../../../arm-none-eabi/lib/thumb/v7-m/nofp\libg.a(lib_a-__call_atexit.o) (atexit)
d:/program/gcc-arm/gcc-arm-none-eabi-9-2020-q2-update-win32/bin/../lib/gcc/arm-none-eabi/9.3.1/../../../../arm-none-eabi/lib/thumb/v7-m/nofp\libg.a(lib_a-dtoa.o)
                              d:/program/gcc-arm/gcc-arm-none-eabi-9-2020-q2-update-win32/bin/../lib/gcc/arm-none-eabi/9.3.1/../../../../arm-none-eabi/lib/thumb/v7-m/nofp\libg.a(lib_a-vfprintf.o) (_dtoa_r)
d:/program/gcc-arm/gcc-arm-none-eabi-9-2020-q2-update-win32/bin/../lib/gcc/arm-none-eabi/9.3.1/../../../../arm-none-eabi/lib/thumb/v7-m/nofp\libg.a(lib_a-fflush.o)
                              d:/program/gcc-arm/gcc-arm-none-eabi-9-2020-q2-update-win32/bin/../lib/gcc/arm-none-eabi/9.3.1/../../../../arm-none-eabi/lib/thumb/v7-m/nofp\libg.a(lib_a-setvbuf.o) (_fflush_r)
d:/program/gcc-arm/gcc-arm-none-eabi-9-2020-q2-update-win32/bin/../lib/gcc/arm-none-eabi/9.3.1/../../../../arm-none-eabi/lib/thumb/v7-m/nofp\libg.a(lib_a-findfp.o)
                              d:/program/gcc-arm/gcc-arm-none-eabi-9-2020-q2-update-win32/bin/../lib/gcc/arm-none-eabi/9.3.1/../../../../arm-none-eabi/lib/thumb/v7-m/nofp\libg.a(lib_a-puts.o) (__sinit)
d:/program/gcc-arm/gcc-arm-none-eabi-9-2020-q2-update-win32/bin/../lib/gcc/arm-none-eabi/9.3.1/../../../../arm-none-eabi/lib/thumb/v7-m/nofp\libg.a(lib_a-fini.o)
                              d:/program/gcc-arm/gcc-arm-none-eabi-9-2020-q2-update-win32/bin/../lib/gcc/arm-none-eabi/9.3.1/../../../../arm-none-eabi/lib/thumb/v7-m/nofp\libg.a(lib_a-__call_atexit.o) (__libc_fini_array)
d:/program/gcc-arm/gcc-arm-none-eabi-9-2020-q2-update-win32/bin/../lib/gcc/arm-none-eabi/9.3.1/../../../../arm-none-eabi/lib/thumb/v7-m/nofp\libg.a(lib_a-freer.o)
                              d:/program/gcc-arm/gcc-arm-none-eabi-9-2020-q2-update-win32/bin/../lib/gcc/arm-none-eabi/9.3.1/../../../../arm-none-eabi/lib/thumb/v7-m/nofp\libg.a(lib_a-setvbuf.o) (_free_r)
d:/program/gcc-arm/gcc-arm-none-eabi-9-2020-q2-update-win32/bin/../lib/gcc/arm-none-eabi/9.3.1/../../../../arm-none-eabi/lib/thumb/v7-m/nofp\libg.a(lib_a-fvwrite.o)
                              d:/program/gcc-arm/gcc-arm-none-eabi-9-2020-q2-update-win32/bin/../lib/gcc/arm-none-eabi/9.3.1/../../../../arm-none-eabi/lib/thumb/v7-m/nofp\libg.a(lib_a-puts.o) (__sfvwrite_r)
d:/program/gcc-arm/gcc-arm-none-eabi-9-2020-q2-update-win32/bin/../lib/gcc/arm-none-eabi/9.3.1/../../../../arm-none-eabi/lib/thumb/v7-m/nofp\libg.a(lib_a-fwalk.o)
                              d:/program/gcc-arm/gcc-arm-none-eabi-9-2020-q2-update-win32/bin/../lib/gcc/arm-none-eabi/9.3.1/../../../../arm-none-eabi/lib/thumb/v7-m/nofp\libg.a(lib_a-findfp.o) (_fwalk)
d:/program/gcc-arm/gcc-arm-none-eabi-9-2020-q2-update-win32/bin/../lib/gcc/arm-none-eabi/9.3.1/../../../../arm-none-eabi/lib/thumb/v7-m/nofp\libg.a(lib_a-localeconv.o)
                              d:/program/gcc-arm/gcc-arm-none-eabi-9-2020-q2-update-win32/bin/../lib/gcc/arm-none-eabi/9.3.1/../../../../arm-none-eabi/lib/thumb/v7-m/nofp\libg.a(lib_a-vfprintf.o) (_localeconv_r)
d:/program/gcc-arm/gcc-arm-none-eabi-9-2020-q2-update-win32/bin/../lib/gcc/arm-none-eabi/9.3.1/../../../../arm-none-eabi/lib/thumb/v7-m/nofp\libg.a(lib_a-lock.o)
                              d:/program/gcc-arm/gcc-arm-none-eabi-9-2020-q2-update-win32/bin/../lib/gcc/arm-none-eabi/9.3.1/../../../../arm-none-eabi/lib/thumb/v7-m/nofp\libg.a(lib_a-vfprintf.o) (__retarget_lock_init_recursive)
d:/program/gcc-arm/gcc-arm-none-eabi-9-2020-q2-update-win32/bin/../lib/gcc/arm-none-eabi/9.3.1/../../../../arm-none-eabi/lib/thumb/v7-m/nofp\libg.a(lib_a-makebuf.o)
                              d:/program/gcc-arm/gcc-arm-none-eabi-9-2020-q2-update-win32/bin/../lib/gcc/arm-none-eabi/9.3.1/../../../../arm-none-eabi/lib/thumb/v7-m/nofp\libg.a(lib_a-setvbuf.o) (__swhatbuf_r)
d:/program/gcc-arm/gcc-arm-none-eabi-9-2020-q2-update-win32/bin/../lib/gcc/arm-none-eabi/9.3.1/../../../../arm-none-eabi/lib/thumb/v7-m/nofp\libg.a(lib_a-malloc.o)
                              d:/program/gcc-arm/gcc-arm-none-eabi-9-2020-q2-update-win32/bin/../lib/gcc/arm-none-eabi/9.3.1/../../../../arm-none-eabi/lib/thumb/v7-m/nofp\libg.a(lib_a-setvbuf.o) (malloc)
d:/program/gcc-arm/gcc-arm-none-eabi-9-2020-q2-update-win32/bin/../lib/gcc/arm-none-eabi/9.3.1/../../../../arm-none-eabi/lib/thumb/v7-m/nofp\libg.a(lib_a-mallocr.o)
                              d:/program/gcc-arm/gcc-arm-none-eabi-9-2020-q2-update-win32/bin/../lib/gcc/arm-none-eabi/9.3.1/../../../../arm-none-eabi/lib/thumb/v7-m/nofp\libg.a(lib_a-signal.o) (_malloc_r)
d:/program/gcc-arm/gcc-arm-none-eabi-9-2020-q2-update-win32/bin/../lib/gcc/arm-none-eabi/9.3.1/../../../../arm-none-eabi/lib/thumb/v7-m/nofp\libg.a(lib_a-memchr-stub.o)
                              d:/program/gcc-arm/gcc-arm-none-eabi-9-2020-q2-update-win32/bin/../lib/gcc/arm-none-eabi/9.3.1/../../../../arm-none-eabi/lib/thumb/v7-m/nofp\libg.a(lib_a-vfprintf.o) (memchr)
d:/program/gcc-arm/gcc-arm-none-eabi-9-2020-q2-update-win32/bin/../lib/gcc/arm-none-eabi/9.3.1/../../../../arm-none-eabi/lib/thumb/v7-m/nofp\libg.a(lib_a-memmove.o)
                              d:/program/gcc-arm/gcc-arm-none-eabi-9-2020-q2-update-win32/bin/../lib/gcc/arm-none-eabi/9.3.1/../../../../arm-none-eabi/lib/thumb/v7-m/nofp\libg.a(lib_a-fvwrite.o) (memmove)
d:/program/gcc-arm/gcc-arm-none-eabi-9-2020-q2-update-win32/bin/../lib/gcc/arm-none-eabi/9.3.1/../../../../arm-none-eabi/lib/thumb/v7-m/nofp\libg.a(lib_a-mlock.o)
                              d:/program/gcc-arm/gcc-arm-none-eabi-9-2020-q2-update-win32/bin/../lib/gcc/arm-none-eabi/9.3.1/../../../../arm-none-eabi/lib/thumb/v7-m/nofp\libg.a(lib_a-freer.o) (__malloc_lock)
d:/program/gcc-arm/gcc-arm-none-eabi-9-2020-q2-update-win32/bin/../lib/gcc/arm-none-eabi/9.3.1/../../../../arm-none-eabi/lib/thumb/v7-m/nofp\libg.a(lib_a-mprec.o)
                              d:/program/gcc-arm/gcc-arm-none-eabi-9-2020-q2-update-win32/bin/../lib/gcc/arm-none-eabi/9.3.1/../../../../arm-none-eabi/lib/thumb/v7-m/nofp\libg.a(lib_a-dtoa.o) (_Balloc)
d:/program/gcc-arm/gcc-arm-none-eabi-9-2020-q2-update-win32/bin/../lib/gcc/arm-none-eabi/9.3.1/../../../../arm-none-eabi/lib/thumb/v7-m/nofp\libg.a(lib_a-reallocr.o)
                              d:/program/gcc-arm/gcc-arm-none-eabi-9-2020-q2-update-win32/bin/../lib/gcc/arm-none-eabi/9.3.1/../../../../arm-none-eabi/lib/thumb/v7-m/nofp\libg.a(lib_a-fvwrite.o) (_realloc_r)
d:/program/gcc-arm/gcc-arm-none-eabi-9-2020-q2-update-win32/bin/../lib/gcc/arm-none-eabi/9.3.1/../../../../arm-none-eabi/lib/thumb/v7-m/nofp\libg.a(lib_a-reent.o)
                              d:/program/gcc-arm/gcc-arm-none-eabi-9-2020-q2-update-win32/bin/../lib/gcc/arm-none-eabi/9.3.1/../../../../arm-none-eabi/lib/thumb/v7-m/nofp\libg.a(lib_a-signalr.o) (errno)
d:/program/gcc-arm/gcc-arm-none-eabi-9-2020-q2-update-win32/bin/../lib/gcc/arm-none-eabi/9.3.1/../../../../arm-none-eabi/lib/thumb/v7-m/nofp\libg.a(lib_a-s_frexp.o)
                              d:/program/gcc-arm/gcc-arm-none-eabi-9-2020-q2-update-win32/bin/../lib/gcc/arm-none-eabi/9.3.1/../../../../arm-none-eabi/lib/thumb/v7-m/nofp\libg.a(lib_a-vfprintf.o) (frexp)
d:/program/gcc-arm/gcc-arm-none-eabi-9-2020-q2-update-win32/bin/../lib/gcc/arm-none-eabi/9.3.1/../../../../arm-none-eabi/lib/thumb/v7-m/nofp\libg.a(lib_a-sbrkr.o)
                              d:/program/gcc-arm/gcc-arm-none-eabi-9-2020-q2-update-win32/bin/../lib/gcc/arm-none-eabi/9.3.1/../../../../arm-none-eabi/lib/thumb/v7-m/nofp\libg.a(lib_a-freer.o) (_sbrk_r)
d:/program/gcc-arm/gcc-arm-none-eabi-9-2020-q2-update-win32/bin/../lib/gcc/arm-none-eabi/9.3.1/../../../../arm-none-eabi/lib/thumb/v7-m/nofp\libg.a(lib_a-stdio.o)
                              d:/program/gcc-arm/gcc-arm-none-eabi-9-2020-q2-update-win32/bin/../lib/gcc/arm-none-eabi/9.3.1/../../../../arm-none-eabi/lib/thumb/v7-m/nofp\libg.a(lib_a-findfp.o) (__sread)
d:/program/gcc-arm/gcc-arm-none-eabi-9-2020-q2-update-win32/bin/../lib/gcc/arm-none-eabi/9.3.1/../../../../arm-none-eabi/lib/thumb/v7-m/nofp\libg.a(lib_a-strncpy.o)
                              d:/program/gcc-arm/gcc-arm-none-eabi-9-2020-q2-update-win32/bin/../lib/gcc/arm-none-eabi/9.3.1/../../../../arm-none-eabi/lib/thumb/v7-m/nofp\libg.a(lib_a-vfprintf.o) (strncpy)
d:/program/gcc-arm/gcc-arm-none-eabi-9-2020-q2-update-win32/bin/../lib/gcc/arm-none-eabi/9.3.1/../../../../arm-none-eabi/lib/thumb/v7-m/nofp\libg.a(lib_a-vfiprintf.o)
                              d:/program/gcc-arm/gcc-arm-none-eabi-9-2020-q2-update-win32/bin/../lib/gcc/arm-none-eabi/9.3.1/../../../../arm-none-eabi/lib/thumb/v7-m/nofp\libg.a(lib_a-vfprintf.o) (__sprint_r)
d:/program/gcc-arm/gcc-arm-none-eabi-9-2020-q2-update-win32/bin/../lib/gcc/arm-none-eabi/9.3.1/../../../../arm-none-eabi/lib/thumb/v7-m/nofp\libg.a(lib_a-writer.o)
                              d:/program/gcc-arm/gcc-arm-none-eabi-9-2020-q2-update-win32/bin/../lib/gcc/arm-none-eabi/9.3.1/../../../../arm-none-eabi/lib/thumb/v7-m/nofp\libg.a(lib_a-stdio.o) (_write_r)
d:/program/gcc-arm/gcc-arm-none-eabi-9-2020-q2-update-win32/bin/../lib/gcc/arm-none-eabi/9.3.1/../../../../arm-none-eabi/lib/thumb/v7-m/nofp\libg.a(lib_a-__atexit.o)
                              d:/program/gcc-arm/gcc-arm-none-eabi-9-2020-q2-update-win32/bin/../lib/gcc/arm-none-eabi/9.3.1/../../../../arm-none-eabi/lib/thumb/v7-m/nofp\libg.a(lib_a-atexit.o) (__register_exitproc)
d:/program/gcc-arm/gcc-arm-none-eabi-9-2020-q2-update-win32/bin/../lib/gcc/arm-none-eabi/9.3.1/../../../../arm-none-eabi/lib/thumb/v7-m/nofp\libg.a(lib_a-assert.o)
                              d:/program/gcc-arm/gcc-arm-none-eabi-9-2020-q2-update-win32/bin/../lib/gcc/arm-none-eabi/9.3.1/../../../../arm-none-eabi/lib/thumb/v7-m/nofp\libg.a(lib_a-dtoa.o) (__assert_func)
d:/program/gcc-arm/gcc-arm-none-eabi-9-2020-q2-update-win32/bin/../lib/gcc/arm-none-eabi/9.3.1/../../../../arm-none-eabi/lib/thumb/v7-m/nofp\libg.a(lib_a-callocr.o)
                              d:/program/gcc-arm/gcc-arm-none-eabi-9-2020-q2-update-win32/bin/../lib/gcc/arm-none-eabi/9.3.1/../../../../arm-none-eabi/lib/thumb/v7-m/nofp\libg.a(lib_a-mprec.o) (_calloc_r)
d:/program/gcc-arm/gcc-arm-none-eabi-9-2020-q2-update-win32/bin/../lib/gcc/arm-none-eabi/9.3.1/../../../../arm-none-eabi/lib/thumb/v7-m/nofp\libg.a(lib_a-closer.o)
                              d:/program/gcc-arm/gcc-arm-none-eabi-9-2020-q2-update-win32/bin/../lib/gcc/arm-none-eabi/9.3.1/../../../../arm-none-eabi/lib/thumb/v7-m/nofp\libg.a(lib_a-stdio.o) (_close_r)
d:/program/gcc-arm/gcc-arm-none-eabi-9-2020-q2-update-win32/bin/../lib/gcc/arm-none-eabi/9.3.1/../../../../arm-none-eabi/lib/thumb/v7-m/nofp\libg.a(lib_a-fclose.o)
                              d:/program/gcc-arm/gcc-arm-none-eabi-9-2020-q2-update-win32/bin/../lib/gcc/arm-none-eabi/9.3.1/../../../../arm-none-eabi/lib/thumb/v7-m/nofp\libg.a(lib_a-findfp.o) (_fclose_r)
d:/program/gcc-arm/gcc-arm-none-eabi-9-2020-q2-update-win32/bin/../lib/gcc/arm-none-eabi/9.3.1/../../../../arm-none-eabi/lib/thumb/v7-m/nofp\libg.a(lib_a-fiprintf.o)
                              d:/program/gcc-arm/gcc-arm-none-eabi-9-2020-q2-update-win32/bin/../lib/gcc/arm-none-eabi/9.3.1/../../../../arm-none-eabi/lib/thumb/v7-m/nofp\libg.a(lib_a-assert.o) (fiprintf)
d:/program/gcc-arm/gcc-arm-none-eabi-9-2020-q2-update-win32/bin/../lib/gcc/arm-none-eabi/9.3.1/../../../../arm-none-eabi/lib/thumb/v7-m/nofp\libg.a(lib_a-fputwc.o)
                              d:/program/gcc-arm/gcc-arm-none-eabi-9-2020-q2-update-win32/bin/../lib/gcc/arm-none-eabi/9.3.1/../../../../arm-none-eabi/lib/thumb/v7-m/nofp\libg.a(lib_a-vfiprintf.o) (_fputwc_r)
d:/program/gcc-arm/gcc-arm-none-eabi-9-2020-q2-update-win32/bin/../lib/gcc/arm-none-eabi/9.3.1/../../../../arm-none-eabi/lib/thumb/v7-m/nofp\libg.a(lib_a-fstatr.o)
                              d:/program/gcc-arm/gcc-arm-none-eabi-9-2020-q2-update-win32/bin/../lib/gcc/arm-none-eabi/9.3.1/../../../../arm-none-eabi/lib/thumb/v7-m/nofp\libg.a(lib_a-makebuf.o) (_fstat_r)
d:/program/gcc-arm/gcc-arm-none-eabi-9-2020-q2-update-win32/bin/../lib/gcc/arm-none-eabi/9.3.1/../../../../arm-none-eabi/lib/thumb/v7-m/nofp\libg.a(lib_a-isattyr.o)
                              d:/program/gcc-arm/gcc-arm-none-eabi-9-2020-q2-update-win32/bin/../lib/gcc/arm-none-eabi/9.3.1/../../../../arm-none-eabi/lib/thumb/v7-m/nofp\libg.a(lib_a-makebuf.o) (_isatty_r)
d:/program/gcc-arm/gcc-arm-none-eabi-9-2020-q2-update-win32/bin/../lib/gcc/arm-none-eabi/9.3.1/../../../../arm-none-eabi/lib/thumb/v7-m/nofp\libg.a(lib_a-locale.o)
                              d:/program/gcc-arm/gcc-arm-none-eabi-9-2020-q2-update-win32/bin/../lib/gcc/arm-none-eabi/9.3.1/../../../../arm-none-eabi/lib/thumb/v7-m/nofp\libg.a(lib_a-fputwc.o) (__locale_mb_cur_max)
d:/program/gcc-arm/gcc-arm-none-eabi-9-2020-q2-update-win32/bin/../lib/gcc/arm-none-eabi/9.3.1/../../../../arm-none-eabi/lib/thumb/v7-m/nofp\libg.a(lib_a-lseekr.o)
                              d:/program/gcc-arm/gcc-arm-none-eabi-9-2020-q2-update-win32/bin/../lib/gcc/arm-none-eabi/9.3.1/../../../../arm-none-eabi/lib/thumb/v7-m/nofp\libg.a(lib_a-stdio.o) (_lseek_r)
d:/program/gcc-arm/gcc-arm-none-eabi-9-2020-q2-update-win32/bin/../lib/gcc/arm-none-eabi/9.3.1/../../../../arm-none-eabi/lib/thumb/v7-m/nofp\libg.a(lib_a-mbtowc_r.o)
                              d:/program/gcc-arm/gcc-arm-none-eabi-9-2020-q2-update-win32/bin/../lib/gcc/arm-none-eabi/9.3.1/../../../../arm-none-eabi/lib/thumb/v7-m/nofp\libg.a(lib_a-locale.o) (__ascii_mbtowc)
d:/program/gcc-arm/gcc-arm-none-eabi-9-2020-q2-update-win32/bin/../lib/gcc/arm-none-eabi/9.3.1/../../../../arm-none-eabi/lib/thumb/v7-m/nofp\libg.a(lib_a-readr.o)
                              d:/program/gcc-arm/gcc-arm-none-eabi-9-2020-q2-update-win32/bin/../lib/gcc/arm-none-eabi/9.3.1/../../../../arm-none-eabi/lib/thumb/v7-m/nofp\libg.a(lib_a-stdio.o) (_read_r)
d:/program/gcc-arm/gcc-arm-none-eabi-9-2020-q2-update-win32/bin/../lib/gcc/arm-none-eabi/9.3.1/../../../../arm-none-eabi/lib/thumb/v7-m/nofp\libg.a(lib_a-strcmp.o)
                              d:/program/gcc-arm/gcc-arm-none-eabi-9-2020-q2-update-win32/bin/../lib/gcc/arm-none-eabi/9.3.1/../../../../arm-none-eabi/lib/thumb/v7-m/nofp\libg.a(lib_a-locale.o) (strcmp)
d:/program/gcc-arm/gcc-arm-none-eabi-9-2020-q2-update-win32/bin/../lib/gcc/arm-none-eabi/9.3.1/../../../../arm-none-eabi/lib/thumb/v7-m/nofp\libg.a(lib_a-wbuf.o)
                              d:/program/gcc-arm/gcc-arm-none-eabi-9-2020-q2-update-win32/bin/../lib/gcc/arm-none-eabi/9.3.1/../../../../arm-none-eabi/lib/thumb/v7-m/nofp\libg.a(lib_a-fputwc.o) (__swbuf_r)
d:/program/gcc-arm/gcc-arm-none-eabi-9-2020-q2-update-win32/bin/../lib/gcc/arm-none-eabi/9.3.1/../../../../arm-none-eabi/lib/thumb/v7-m/nofp\libg.a(lib_a-wcrtomb.o)
                              d:/program/gcc-arm/gcc-arm-none-eabi-9-2020-q2-update-win32/bin/../lib/gcc/arm-none-eabi/9.3.1/../../../../arm-none-eabi/lib/thumb/v7-m/nofp\libg.a(lib_a-fputwc.o) (_wcrtomb_r)
d:/program/gcc-arm/gcc-arm-none-eabi-9-2020-q2-update-win32/bin/../lib/gcc/arm-none-eabi/9.3.1/../../../../arm-none-eabi/lib/thumb/v7-m/nofp\libg.a(lib_a-wctomb_r.o)
                              d:/program/gcc-arm/gcc-arm-none-eabi-9-2020-q2-update-win32/bin/../lib/gcc/arm-none-eabi/9.3.1/../../../../arm-none-eabi/lib/thumb/v7-m/nofp\libg.a(lib_a-locale.o) (__ascii_wctomb)
d:/program/gcc-arm/gcc-arm-none-eabi-9-2020-q2-update-win32/bin/../lib/gcc/arm-none-eabi/9.3.1/../../../../arm-none-eabi/lib/thumb/v7-m/nofp\libg.a(lib_a-ctype_.o)
                              d:/program/gcc-arm/gcc-arm-none-eabi-9-2020-q2-update-win32/bin/../lib/gcc/arm-none-eabi/9.3.1/../../../../arm-none-eabi/lib/thumb/v7-m/nofp\libg.a(lib_a-locale.o) (_ctype_)
d:/program/gcc-arm/gcc-arm-none-eabi-9-2020-q2-update-win32/bin/../lib/gcc/arm-none-eabi/9.3.1/thumb/v7-m/nofp\libgcc.a(_arm_cmpdf2.o)
                              d:/program/gcc-arm/gcc-arm-none-eabi-9-2020-q2-update-win32/bin/../lib/gcc/arm-none-eabi/9.3.1/../../../../arm-none-eabi/lib/thumb/v7-m/nofp\libg.a(lib_a-vfprintf.o) (__aeabi_dcmpeq)
d:/program/gcc-arm/gcc-arm-none-eabi-9-2020-q2-update-win32/bin/../lib/gcc/arm-none-eabi/9.3.1/thumb/v7-m/nofp\libgcc.a(_arm_unorddf2.o)
                              d:/program/gcc-arm/gcc-arm-none-eabi-9-2020-q2-update-win32/bin/../lib/gcc/arm-none-eabi/9.3.1/../../../../arm-none-eabi/lib/thumb/v7-m/nofp\libg.a(lib_a-vfprintf.o) (__aeabi_dcmpun)
d:/program/gcc-arm/gcc-arm-none-eabi-9-2020-q2-update-win32/bin/../lib/gcc/arm-none-eabi/9.3.1/thumb/v7-m/nofp\libgcc.a(_arm_fixdfsi.o)
                              d:/program/gcc-arm/gcc-arm-none-eabi-9-2020-q2-update-win32/bin/../lib/gcc/arm-none-eabi/9.3.1/../../../../arm-none-eabi/lib/thumb/v7-m/nofp\libg.a(lib_a-vfprintf.o) (__aeabi_d2iz)
d:/program/gcc-arm/gcc-arm-none-eabi-9-2020-q2-update-win32/bin/../lib/gcc/arm-none-eabi/9.3.1/thumb/v7-m/nofp\libgcc.a(_aeabi_uldivmod.o)
                              d:/program/gcc-arm/gcc-arm-none-eabi-9-2020-q2-update-win32/bin/../lib/gcc/arm-none-eabi/9.3.1/../../../../arm-none-eabi/lib/thumb/v7-m/nofp\libg.a(lib_a-vfprintf.o) (__aeabi_uldivmod)

Allocating common symbols
Common symbol       size              file

__lock___atexit_recursive_mutex
                    0x1               d:/program/gcc-arm/gcc-arm-none-eabi-9-2020-q2-update-win32/bin/../lib/gcc/arm-none-eabi/9.3.1/../../../../arm-none-eabi/lib/thumb/v7-m/nofp\libg.a(lib_a-lock.o)
__lock___arc4random_mutex
                    0x1               d:/program/gcc-arm/gcc-arm-none-eabi-9-2020-q2-update-win32/bin/../lib/gcc/arm-none-eabi/9.3.1/../../../../arm-none-eabi/lib/thumb/v7-m/nofp\libg.a(lib_a-lock.o)
errno               0x4               d:/program/gcc-arm/gcc-arm-none-eabi-9-2020-q2-update-win32/bin/../lib/gcc/arm-none-eabi/9.3.1/../../../../arm-none-eabi/lib/thumb/v7-m/nofp\libg.a(lib_a-reent.o)
__lock___env_recursive_mutex
                    0x1               d:/program/gcc-arm/gcc-arm-none-eabi-9-2020-q2-update-win32/bin/../lib/gcc/arm-none-eabi/9.3.1/../../../../arm-none-eabi/lib/thumb/v7-m/nofp\libg.a(lib_a-lock.o)
__lock___sinit_recursive_mutex
                    0x1               d:/program/gcc-arm/gcc-arm-none-eabi-9-2020-q2-update-win32/bin/../lib/gcc/arm-none-eabi/9.3.1/../../../../arm-none-eabi/lib/thumb/v7-m/nofp\libg.a(lib_a-lock.o)
__lock___malloc_recursive_mutex
                    0x1               d:/program/gcc-arm/gcc-arm-none-eabi-9-2020-q2-update-win32/bin/../lib/gcc/arm-none-eabi/9.3.1/../../../../arm-none-eabi/lib/thumb/v7-m/nofp\libg.a(lib_a-lock.o)
__lock___at_quick_exit_mutex
                    0x1               d:/program/gcc-arm/gcc-arm-none-eabi-9-2020-q2-update-win32/bin/../lib/gcc/arm-none-eabi/9.3.1/../../../../arm-none-eabi/lib/thumb/v7-m/nofp\libg.a(lib_a-lock.o)
__lock___dd_hash_mutex
                    0x1               d:/program/gcc-arm/gcc-arm-none-eabi-9-2020-q2-update-win32/bin/../lib/gcc/arm-none-eabi/9.3.1/../../../../arm-none-eabi/lib/thumb/v7-m/nofp\libg.a(lib_a-lock.o)
__lock___tz_mutex   0x1               d:/program/gcc-arm/gcc-arm-none-eabi-9-2020-q2-update-win32/bin/../lib/gcc/arm-none-eabi/9.3.1/../../../../arm-none-eabi/lib/thumb/v7-m/nofp\libg.a(lib_a-lock.o)
__lock___sfp_recursive_mutex
                    0x1               d:/program/gcc-arm/gcc-arm-none-eabi-9-2020-q2-update-win32/bin/../lib/gcc/arm-none-eabi/9.3.1/../../../../arm-none-eabi/lib/thumb/v7-m/nofp\libg.a(lib_a-lock.o)

Discarded input sections

 .text          0x00000000        0x0 d:/program/gcc-arm/gcc-arm-none-eabi-9-2020-q2-update-win32/bin/../lib/gcc/arm-none-eabi/9.3.1/thumb/v7-m/nofp/crti.o
 .data          0x00000000        0x0 d:/program/gcc-arm/gcc-arm-none-eabi-9-2020-q2-update-win32/bin/../lib/gcc/arm-none-eabi/9.3.1/thumb/v7-m/nofp/crti.o
 .bss           0x00000000        0x0 d:/program/gcc-arm/gcc-arm-none-eabi-9-2020-q2-update-win32/bin/../lib/gcc/arm-none-eabi/9.3.1/thumb/v7-m/nofp/crti.o
 .data          0x00000000        0x4 d:/program/gcc-arm/gcc-arm-none-eabi-9-2020-q2-update-win32/bin/../lib/gcc/arm-none-eabi/9.3.1/thumb/v7-m/nofp/crtbegin.o
 .text          0x00000000       0x7c d:/program/gcc-arm/gcc-arm-none-eabi-9-2020-q2-update-win32/bin/../lib/gcc/arm-none-eabi/9.3.1/../../../../arm-none-eabi/lib/thumb/v7-m/nofp/crt0.o
 .data          0x00000000        0x0 d:/program/gcc-arm/gcc-arm-none-eabi-9-2020-q2-update-win32/bin/../lib/gcc/arm-none-eabi/9.3.1/../../../../arm-none-eabi/lib/thumb/v7-m/nofp/crt0.o
 .bss           0x00000000        0x0 d:/program/gcc-arm/gcc-arm-none-eabi-9-2020-q2-update-win32/bin/../lib/gcc/arm-none-eabi/9.3.1/../../../../arm-none-eabi/lib/thumb/v7-m/nofp/crt0.o
 .ARM.extab     0x00000000        0x0 d:/program/gcc-arm/gcc-arm-none-eabi-9-2020-q2-update-win32/bin/../lib/gcc/arm-none-eabi/9.3.1/../../../../arm-none-eabi/lib/thumb/v7-m/nofp/crt0.o
 .ARM.exidx     0x00000000       0x10 d:/program/gcc-arm/gcc-arm-none-eabi-9-2020-q2-update-win32/bin/../lib/gcc/arm-none-eabi/9.3.1/../../../../arm-none-eabi/lib/thumb/v7-m/nofp/crt0.o
 .ARM.attributes
                0x00000000       0x1b d:/program/gcc-arm/gcc-arm-none-eabi-9-2020-q2-update-win32/bin/../lib/gcc/arm-none-eabi/9.3.1/../../../../arm-none-eabi/lib/thumb/v7-m/nofp/crt0.o
 .text          0x00000000        0x0 CMakeFiles/mpu6050.elf.dir/Core/Src/gpio.c.obj
 .data          0x00000000        0x0 CMakeFiles/mpu6050.elf.dir/Core/Src/gpio.c.obj
 .bss           0x00000000        0x0 CMakeFiles/mpu6050.elf.dir/Core/Src/gpio.c.obj
 .text          0x00000000        0x0 CMakeFiles/mpu6050.elf.dir/Core/Src/main.cpp.obj
 .data          0x00000000        0x0 CMakeFiles/mpu6050.elf.dir/Core/Src/main.cpp.obj
 .bss           0x00000000        0x0 CMakeFiles/mpu6050.elf.dir/Core/Src/main.cpp.obj
 .ARM.extab.text.Error_Handler
Memory Configuration

Name             Origin             Length             Attributes
RAM              0x20000000         0x00005000         xrw
FLASH            0x08000000         0x00010000         xr
*default*        0x00000000         0xffffffff

Linker script and memory map

LOAD d:/program/gcc-arm/gcc-arm-none-eabi-9-2020-q2-update-win32/bin/../lib/gcc/arm-none-eabi/9.3.1/thumb/v7-m/nofp/crti.o
LOAD d:/program/gcc-arm/gcc-arm-none-eabi-9-2020-q2-update-win32/bin/../lib/gcc/arm-none-eabi/9.3.1/thumb/v7-m/nofp/crtbegin.o
LOAD d:/program/gcc-arm/gcc-arm-none-eabi-9-2020-q2-update-win32/bin/../lib/gcc/arm-none-eabi/9.3.1/../../../../arm-none-eabi/lib/thumb/v7-m/nofp/crt0.o
LOAD CMakeFiles/mpu6050.elf.dir/Core/Src/gpio.c.obj
LOAD CMakeFiles/mpu6050.elf.dir/Core/Src/main.cpp.obj
LOAD CMakeFiles/mpu6050.elf.dir/Core/Src/mpu6050.cpp.obj
LOAD CMakeFiles/mpu6050.elf.dir/Core/Src/retarget.c.obj
LOAD CMakeFiles/mpu6050.elf.dir/Core/Src/stm32f1xx_hal_msp.c.obj
LOAD CMakeFiles/mpu6050.elf.dir/Core/Src/stm32f1xx_it.c.obj
LOAD CMakeFiles/mpu6050.elf.dir/Core/Src/syscalls.c.obj
LOAD CMakeFiles/mpu6050.elf.dir/Core/Src/system_stm32f1xx.c.obj
LOAD CMakeFiles/mpu6050.elf.dir/Core/Src/usart.c.obj
LOAD CMakeFiles/mpu6050.elf.dir/Drivers/STM32F1xx_HAL_Driver/Src/stm32f1xx_hal.c.obj
LOAD CMakeFiles/mpu6050.elf.dir/Drivers/STM32F1xx_HAL_Driver/Src/stm32f1xx_hal_cortex.c.obj
LOAD CMakeFiles/mpu6050.elf.dir/Drivers/STM32F1xx_HAL_Driver/Src/stm32f1xx_hal_dma.c.obj
LOAD CMakeFiles/mpu6050.elf.dir/Drivers/STM32F1xx_HAL_Driver/Src/stm32f1xx_hal_exti.c.obj
LOAD CMakeFiles/mpu6050.elf.dir/Drivers/STM32F1xx_HAL_Driver/Src/stm32f1xx_hal_flash.c.obj
LOAD CMakeFiles/mpu6050.elf.dir/Drivers/STM32F1xx_HAL_Driver/Src/stm32f1xx_hal_flash_ex.c.obj
LOAD CMakeFiles/mpu6050.elf.dir/Drivers/STM32F1xx_HAL_Driver/Src/stm32f1xx_hal_gpio.c.obj
LOAD CMakeFiles/mpu6050.elf.dir/Drivers/STM32F1xx_HAL_Driver/Src/stm32f1xx_hal_gpio_ex.c.obj
LOAD CMakeFiles/mpu6050.elf.dir/Drivers/STM32F1xx_HAL_Driver/Src/stm32f1xx_hal_pwr.c.obj
LOAD CMakeFiles/mpu6050.elf.dir/Drivers/STM32F1xx_HAL_Driver/Src/stm32f1xx_hal_rcc.c.obj
LOAD CMakeFiles/mpu6050.elf.dir/Drivers/STM32F1xx_HAL_Driver/Src/stm32f1xx_hal_rcc_ex.c.obj
LOAD CMakeFiles/mpu6050.elf.dir/Drivers/STM32F1xx_HAL_Driver/Src/stm32f1xx_hal_tim.c.obj
LOAD CMakeFiles/mpu6050.elf.dir/Drivers/STM32F1xx_HAL_Driver/Src/stm32f1xx_hal_tim_ex.c.obj
LOAD CMakeFiles/mpu6050.elf.dir/Drivers/STM32F1xx_HAL_Driver/Src/stm32f1xx_hal_uart.c.obj
LOAD CMakeFiles/mpu6050.elf.dir/IIC/Src/delay.cpp.obj
LOAD CMakeFiles/mpu6050.elf.dir/IIC/Src/iic_drv.cpp.obj
LOAD CMakeFiles/mpu6050.elf.dir/dmp/Src/inv_mpu.cpp.obj
LOAD CMakeFiles/mpu6050.elf.dir/dmp/Src/inv_mpu_dmp_motion_driver.cpp.obj
LOAD CMakeFiles/mpu6050.elf.dir/startup/startup_stm32f103xb.s.obj
LOAD d:/program/gcc-arm/gcc-arm-none-eabi-9-2020-q2-update-win32/bin/../lib/gcc/arm-none-eabi/9.3.1/../../../../arm-none-eabi/lib/thumb/v7-m/nofp\libstdc++.a
LOAD d:/program/gcc-arm/gcc-arm-none-eabi-9-2020-q2-update-win32/bin/../lib/gcc/arm-none-eabi/9.3.1/../../../../arm-none-eabi/lib/thumb/v7-m/nofp\libm.a
START GROUP
LOAD d:/program/gcc-arm/gcc-arm-none-eabi-9-2020-q2-update-win32/bin/../lib/gcc/arm-none-eabi/9.3.1/thumb/v7-m/nofp\libgcc.a
LOAD d:/program/gcc-arm/gcc-arm-none-eabi-9-2020-q2-update-win32/bin/../lib/gcc/arm-none-eabi/9.3.1/../../../../arm-none-eabi/lib/thumb/v7-m/nofp\libg.a
LOAD d:/program/gcc-arm/gcc-arm-none-eabi-9-2020-q2-update-win32/bin/../lib/gcc/arm-none-eabi/9.3.1/../../../../arm-none-eabi/lib/thumb/v7-m/nofp\libc.a
END GROUP
LOAD d:/program/gcc-arm/gcc-arm-none-eabi-9-2020-q2-update-win32/bin/../lib/gcc/arm-none-eabi/9.3.1/thumb/v7-m/nofp/crtend.o
LOAD d:/program/gcc-arm/gcc-arm-none-eabi-9-2020-q2-update-win32/bin/../lib/gcc/arm-none-eabi/9.3.1/thumb/v7-m/nofp/crtn.o
                0x20005000                _estack = 0x20005000
                0x00000200                _Min_Heap_Size = 0x200
                0x00000400                _Min_Stack_Size = 0x400

.isr_vector     0x08000000      0x10c
                0x08000000                . = ALIGN (0x4)
 *(.isr_vector)
 .isr_vector    0x08000000      0x10c CMakeFiles/mpu6050.elf.dir/startup/startup_stm32f103xb.s.obj
                0x08000000                g_pfnVectors
                0x0800010c                . = ALIGN (0x4)

.text           0x08000110     0xc69c
                0x08000110                . = ALIGN (0x4)
 *(.text)
 .text          0x08000110       0x40 d:/program/gcc-arm/gcc-arm-none-eabi-9-2020-q2-update-win32/bin/../lib/gcc/arm-none-eabi/9.3.1/thumb/v7-m/nofp/crtbegin.o
 .text          0x08000150      0x378 d:/program/gcc-arm/gcc-arm-none-eabi-9-2020-q2-update-win32/bin/../lib/gcc/arm-none-eabi/9.3.1/thumb/v7-m/nofp\libgcc.a(_arm_addsubdf3.o)
                0x08000150                __aeabi_drsub
                0x08000158                __aeabi_dsub
                0x08000158                __subdf3
                0x0800015c                __aeabi_dadd
                0x0800015c                __adddf3
                0x080003d4                __floatunsidf
                0x080003d4                __aeabi_ui2d
                0x080003f4                __floatsidf
                0x080003f4                __aeabi_i2d
                0x08000418                __aeabi_f2d
                0x08000418                __extendsfdf2
                0x0800045c                __floatundidf
                0x0800045c                __aeabi_ul2d
                0x0800046c                __floatdidf
                0x0800046c                __aeabi_l2d
 .text          0x080004c8      0x424 d:/program/gcc-arm/gcc-arm-none-eabi-9-2020-q2-update-win32/bin/../lib/gcc/arm-none-eabi/9.3.1/thumb/v7-m/nofp\libgcc.a(_arm_muldivdf3.o)
                0x080004c8                __aeabi_dmul
                0x080004c8                __muldf3
                0x0800071c                __divdf3
                0x0800071c                __aeabi_ddiv
 .text          0x080008ec       0xa0 d:/program/gcc-arm/gcc-arm-none-eabi-9-2020-q2-update-win32/bin/../lib/gcc/arm-none-eabi/9.3.1/thumb/v7-m/nofp\libgcc.a(_arm_truncdfsf2.o)
                0x080008ec                __truncdfsf2
                0x080008ec                __aeabi_d2f
 .text          0x0800098c      0x21c d:/program/gcc-arm/gcc-arm-none-eabi-9-2020-q2-update-win32/bin/../lib/gcc/arm-none-eabi/9.3.1/thumb/v7-m/nofp\libgcc.a(_arm_addsubsf3.o)
                0x0800098c                __aeabi_frsub
                0x08000994                __subsf3
                0x08000994                __aeabi_fsub
                0x08000998                __aeabi_fadd
                0x08000998                __addsf3
                0x08000af8                __aeabi_ui2f
                0x08000af8                __floatunsisf
                0x08000b00                __aeabi_i2f
                0x08000b00                __floatsisf
                0x08000b1c                __aeabi_ul2f
                0x08000b1c                __floatundisf
                0x08000b2c                __aeabi_l2f
                0x08000b2c                __floatdisf
 .text          0x08000ba8      0x2a0 d:/program/gcc-arm/gcc-arm-none-eabi-9-2020-q2-update-win32/bin/../lib/gcc/arm-none-eabi/9.3.1/thumb/v7-m/nofp\libgcc.a(_arm_muldivsf3.o)
                0x08000ba8                __mulsf3
                0x08000ba8                __aeabi_fmul
                0x08000d10                __aeabi_fdiv
                0x08000d10                __divsf3
 .text          0x08000e48       0xec d:/program/gcc-arm/gcc-arm-none-eabi-9-2020-q2-update-win32/bin/../lib/gcc/arm-none-eabi/9.3.1/thumb/v7-m/nofp\libgcc.a(_arm_cmpsf2.o)
                0x08000e48                __gesf2
                0x08000e48                __gtsf2
                0x08000e50                __lesf2
                0x08000e50                __ltsf2
                0x08000e58                __nesf2
                0x08000e58                __eqsf2
                0x08000e58                __cmpsf2
                0x08000eb8                __aeabi_cfrcmple
                0x08000ec0                __aeabi_cfcmpeq
                0x08000ec0                __aeabi_cfcmple
                0x08000ed0                __aeabi_fcmpeq
                0x08000ee4                __aeabi_fcmplt
                0x08000ef8                __aeabi_fcmple
                0x08000f0c                __aeabi_fcmpge
                0x08000f20                __aeabi_fcmpgt
 .text          0x08000f34       0x2c d:/program/gcc-arm/gcc-arm-none-eabi-9-2020-q2-update-win32/bin/../lib/gcc/arm-none-eabi/9.3.1/thumb/v7-m/nofp\libgcc.a(_arm_unordsf2.o)
                0x08000f34                __unordsf2
                0x08000f34                __aeabi_fcmpun
 .text          0x08000f60       0x4c d:/program/gcc-arm/gcc-arm-none-eabi-9-2020-q2-update-win32/bin/../lib/gcc/arm-none-eabi/9.3.1/thumb/v7-m/nofp\libgcc.a(_arm_fixsfsi.o)
                0x08000f60                __aeabi_f2iz
                0x08000f60                __fixsfsi
 .text          0x08000fac       0x40 d:/program/gcc-arm/gcc-arm-none-eabi-9-2020-q2-update-win32/bin/../lib/gcc/arm-none-eabi/9.3.1/thumb/v7-m/nofp\libgcc.a(_arm_fixunssfsi.o)
                0x08000fac                __fixunssfsi
                0x08000fac                __aeabi_f2uiz
 .text          0x08000fec       0xa0 d:/program/gcc-arm/gcc-arm-none-eabi-9-2020-q2-update-win32/bin/../lib/gcc/arm-none-eabi/9.3.1/thumb/v7-m/nofp\libgcc.a(_aeabi_ldivmod.o)
                0x08000fec                __aeabi_ldivmod
 .text          0x0800108c      0x2c4 d:/program/gcc-arm/gcc-arm-none-eabi-9-2020-q2-update-win32/bin/../lib/gcc/arm-none-eabi/9.3.1/thumb/v7-m/nofp\libgcc.a(_udivmoddi4.o)
                0x0800108c                __udivmoddi4
 .text          0x08001350      0x9a8 d:/program/gcc-arm/gcc-arm-none-eabi-9-2020-q2-update-win32/bin/../lib/gcc/arm-none-eabi/9.3.1/thumb/v7-m/nofp\libgcc.a(unwind-arm.o)
                0x080015f4                _Unwind_GetCFA
                0x080015f8                __gnu_Unwind_RaiseException
                0x08001658                __gnu_Unwind_ForcedUnwind
                0x0800166c                __gnu_Unwind_Resume
                0x080016b0                __gnu_Unwind_Resume_or_Rethrow
                0x080016c4                _Unwind_Complete
                0x080016c8                _Unwind_DeleteException
                0x080016d4                _Unwind_VRS_Get
                0x0800171c                _Unwind_VRS_Set
                0x08001768                __gnu_Unwind_Backtrace
                0x08001a84                __aeabi_unwind_cpp_pr0
                0x08001a88                __aeabi_unwind_cpp_pr1
                0x08001a8c                __aeabi_unwind_cpp_pr2
                0x08001a90                _Unwind_VRS_Pop
 .text          0x08001cf8      0x1ac d:/program/gcc-arm/gcc-arm-none-eabi-9-2020-q2-update-win32/bin/../lib/gcc/arm-none-eabi/9.3.1/thumb/v7-m/nofp\libgcc.a(libunwind.o)
                0x08001cf8                __restore_core_regs
                0x08001cf8                restore_core_regs
                0x08001d10                __gnu_Unwind_Restore_VFP
                0x08001d18                __gnu_Unwind_Save_VFP
                0x08001d20                __gnu_Unwind_Restore_VFP_D
                0x08001d28                __gnu_Unwind_Save_VFP_D
                0x08001d30                __gnu_Unwind_Restore_VFP_D_16_to_31
                0x08001d38                __gnu_Unwind_Save_VFP_D_16_to_31
                0x08001d40                __gnu_Unwind_Restore_WMMXD
                0x08001d84                __gnu_Unwind_Save_WMMXD
                0x08001dc8                __gnu_Unwind_Restore_WMMXC
                0x08001ddc                __gnu_Unwind_Save_WMMXC
                0x08001df0                ___Unwind_RaiseException
                0x08001df0                _Unwind_RaiseException
                0x08001e14                _Unwind_Resume
                0x08001e14                ___Unwind_Resume
                0x08001e38                _Unwind_Resume_or_Rethrow
                0x08001e38                ___Unwind_Resume_or_Rethrow
                0x08001e5c                _Unwind_ForcedUnwind
                0x08001e5c                ___Unwind_ForcedUnwind
                0x08001e80                ___Unwind_Backtrace
                0x08001e80                _Unwind_Backtrace
 .text          0x08001ea4      0x33c d:/program/gcc-arm/gcc-arm-none-eabi-9-2020-q2-update-win32/bin/../lib/gcc/arm-none-eabi/9.3.1/thumb/v7-m/nofp\libgcc.a(pr-support.o)
                0x08001efc                __gnu_unwind_execute
                0x08002198                __gnu_unwind_frame
                0x080021c0                _Unwind_GetRegionStart
                0x080021cc                _Unwind_GetLanguageSpecificData
 .text          0x080021e0        0x4 d:/program/gcc-arm/gcc-arm-none-eabi-9-2020-q2-update-win32/bin/../lib/gcc/arm-none-eabi/9.3.1/thumb/v7-m/nofp\libgcc.a(_dvmd_tls.o)
                0x080021e0                __aeabi_idiv0
                0x080021e0                __aeabi_ldiv0
 .text          0x080021e4       0xec d:/program/gcc-arm/gcc-arm-none-eabi-9-2020-q2-update-win32/bin/../lib/gcc/arm-none-eabi/9.3.1/../../../../arm-none-eabi/lib/thumb/v7-m/nofp\libg.a(lib_a-memcpy.o)
                0x080021e4                memcpy
 .text          0x080022d0      0x110 d:/program/gcc-arm/gcc-arm-none-eabi-9-2020-q2-update-win32/bin/../lib/gcc/arm-none-eabi/9.3.1/thumb/v7-m/nofp\libgcc.a(_arm_cmpdf2.o)
                0x080022d0                __gtdf2
                0x080022d0                __gedf2
                0x080022d8                __ltdf2
                0x080022d8                __ledf2
                0x080022e0                __nedf2
                0x080022e0                __eqdf2
                0x080022e0                __cmpdf2
                0x0800235c                __aeabi_cdrcmple
                0x0800236c                __aeabi_cdcmpeq
                0x0800236c                __aeabi_cdcmple
                0x0800237c                __aeabi_dcmpeq
                0x08002390                __aeabi_dcmplt
                0x080023a4                __aeabi_dcmple
                0x080023b8                __aeabi_dcmpge
                0x080023cc                __aeabi_dcmpgt
 .text          0x080023e0       0x2c d:/program/gcc-arm/gcc-arm-none-eabi-9-2020-q2-update-win32/bin/../lib/gcc/arm-none-eabi/9.3.1/thumb/v7-m/nofp\libgcc.a(_arm_unorddf2.o)
                0x080023e0                __unorddf2
                0x080023e0                __aeabi_dcmpun
 .text          0x0800240c       0x50 d:/program/gcc-arm/gcc-arm-none-eabi-9-2020-q2-update-win32/bin/../lib/gcc/arm-none-eabi/9.3.1/thumb/v7-m/nofp\libgcc.a(_arm_fixdfsi.o)
                0x0800240c                __aeabi_d2iz
                0x0800240c                __fixdfsi
 .text          0x0800245c       0x30 d:/program/gcc-arm/gcc-arm-none-eabi-9-2020-q2-update-win32/bin/../lib/gcc/arm-none-eabi/9.3.1/thumb/v7-m/nofp\libgcc.a(_aeabi_uldivmod.o)
                0x0800245c                __aeabi_uldivmod
 *(.text*)
 .text.MX_GPIO_Init
                0x0800248c       0x78 CMakeFiles/mpu6050.elf.dir/Core/Src/gpio.c.obj
                0x0800248c                MX_GPIO_Init
 .text.Error_Handler
                0x08002504        0x4 CMakeFiles/mpu6050.elf.dir/Core/Src/main.cpp.obj
                0x08002504                Error_Handler
 .text._Z18SystemClock_Configv
                0x08002508       0x62 CMakeFiles/mpu6050.elf.dir/Core/Src/main.cpp.obj
                0x08002508                SystemClock_Config()
 *fill*         0x0800256a        0x2 
 .text.main     0x0800256c       0xa4 CMakeFiles/mpu6050.elf.dir/Core/Src/main.cpp.obj
                0x0800256c                main
 .text._ZL15inv_row_2_scalePKa
                0x08002610       0x3a CMakeFiles/mpu6050.elf.dir/Core/Src/mpu6050.cpp.obj
 .text._ZL32inv_orientation_matrix_to_scalarPKa
                0x0800264a       0x24 CMakeFiles/mpu6050.elf.dir/Core/Src/mpu6050.cpp.obj
 *fill*         0x0800266e        0x2 
 .text._ZN13MPU6050Handle13run_self_testEv
                0x08002670       0x94 CMakeFiles/mpu6050.elf.dir/Core/Src/mpu6050.cpp.obj
                0x08002670                MPU6050Handle::run_self_test()
 .text._ZN13MPU6050Handle12mpu_dmp_initEv
                0x08002704       0x94 CMakeFiles/mpu6050.elf.dir/Core/Src/mpu6050.cpp.obj
                0x08002704                MPU6050Handle::mpu_dmp_init()
 .text._ZN13MPU6050Handle16mpu_dmp_get_dataEPfS0_S0_
                0x08002798      0x1cc CMakeFiles/mpu6050.elf.dir/Core/Src/mpu6050.cpp.obj
                0x08002798                MPU6050Handle::mpu_dmp_get_data(float*, float*, float*)
 .text.RetargetInit
                0x08002964       0x20 CMakeFiles/mpu6050.elf.dir/Core/Src/retarget.c.obj
                0x08002964                RetargetInit
 .text._isatty  0x08002984       0x16 CMakeFiles/mpu6050.elf.dir/Core/Src/retarget.c.obj
                0x08002984                _isatty
 *fill*         0x0800299a        0x2 
 .text._write   0x0800299c       0x34 CMakeFiles/mpu6050.elf.dir/Core/Src/retarget.c.obj
                0x0800299c                _write
 .text._close   0x080029d0       0x18 CMakeFiles/mpu6050.elf.dir/Core/Src/retarget.c.obj
                0x080029d0                _close
 .text._lseek   0x080029e8       0x10 CMakeFiles/mpu6050.elf.dir/Core/Src/retarget.c.obj
                0x080029e8                _lseek
 .text._read    0x080029f8       0x30 CMakeFiles/mpu6050.elf.dir/Core/Src/retarget.c.obj
                0x080029f8                _read
 .text._fstat   0x08002a28       0x1a CMakeFiles/mpu6050.elf.dir/Core/Src/retarget.c.obj
                0x08002a28                _fstat
 *fill*         0x08002a42        0x2 
 .text.HAL_MspInit
                0x08002a44       0x44 CMakeFiles/mpu6050.elf.dir/Core/Src/stm32f1xx_hal_msp.c.obj
                0x08002a44                HAL_MspInit
 .text.NMI_Handler
                0x08002a88        0x2 CMakeFiles/mpu6050.elf.dir/Core/Src/stm32f1xx_it.c.obj
                0x08002a88                NMI_Handler
 .text.HardFault_Handler
                0x08002a8a        0x2 CMakeFiles/mpu6050.elf.dir/Core/Src/stm32f1xx_it.c.obj
                0x08002a8a                HardFault_Handler
 .text.MemManage_Handler
                0x08002a8c        0x2 CMakeFiles/mpu6050.elf.dir/Core/Src/stm32f1xx_it.c.obj
                0x08002a8c                MemManage_Handler
 .text.BusFault_Handler
                0x08002a8e        0x2 CMakeFiles/mpu6050.elf.dir/Core/Src/stm32f1xx_it.c.obj
                0x08002a8e                BusFault_Handler
 .text.UsageFault_Handler
                0x08002a90        0x2 CMakeFiles/mpu6050.elf.dir/Core/Src/stm32f1xx_it.c.obj
                0x08002a90                UsageFault_Handler
 .text.SVC_Handler
                0x08002a92        0x2 CMakeFiles/mpu6050.elf.dir/Core/Src/stm32f1xx_it.c.obj
                0x08002a92                SVC_Handler
 .text.DebugMon_Handler
                0x08002a94        0x2 CMakeFiles/mpu6050.elf.dir/Core/Src/stm32f1xx_it.c.obj
                0x08002a94                DebugMon_Handler
 .text.PendSV_Handler
                0x08002a96        0x2 CMakeFiles/mpu6050.elf.dir/Core/Src/stm32f1xx_it.c.obj
                0x08002a96                PendSV_Handler
 .text.SysTick_Handler
                0x08002a98        0x8 CMakeFiles/mpu6050.elf.dir/Core/Src/stm32f1xx_it.c.obj
                0x08002a98                SysTick_Handler
 .text._getpid  0x08002aa0        0x4 CMakeFiles/mpu6050.elf.dir/Core/Src/syscalls.c.obj
                0x08002aa0                _getpid
 .text._kill    0x08002aa4       0x10 CMakeFiles/mpu6050.elf.dir/Core/Src/syscalls.c.obj
                0x08002aa4                _kill
 .text._exit    0x08002ab4        0xc CMakeFiles/mpu6050.elf.dir/Core/Src/syscalls.c.obj
                0x08002ab4                _exit
 .text._sbrk    0x08002ac0       0x3c CMakeFiles/mpu6050.elf.dir/Core/Src/syscalls.c.obj
                0x08002ac0                _sbrk
 .text.SystemInit
                0x08002afc        0x2 CMakeFiles/mpu6050.elf.dir/Core/Src/system_stm32f1xx.c.obj
                0x08002afc                SystemInit
 *fill*         0x08002afe        0x2 
 .text.MX_USART1_UART_Init
                0x08002b00       0x34 CMakeFiles/mpu6050.elf.dir/Core/Src/usart.c.obj
                0x08002b00                MX_USART1_UART_Init
 .text.HAL_UART_MspInit
                0x08002b34       0x88 CMakeFiles/mpu6050.elf.dir/Core/Src/usart.c.obj
                0x08002b34                HAL_UART_MspInit
 .text.HAL_InitTick
                0x08002bbc       0x4c CMakeFiles/mpu6050.elf.dir/Drivers/STM32F1xx_HAL_Driver/Src/stm32f1xx_hal.c.obj
                0x08002bbc                HAL_InitTick
 .text.HAL_Init
                0x08002c08       0x24 CMakeFiles/mpu6050.elf.dir/Drivers/STM32F1xx_HAL_Driver/Src/stm32f1xx_hal.c.obj
                0x08002c08                HAL_Init
 .text.HAL_IncTick
                0x08002c2c       0x18 CMakeFiles/mpu6050.elf.dir/Drivers/STM32F1xx_HAL_Driver/Src/stm32f1xx_hal.c.obj
                0x08002c2c                HAL_IncTick
 .text.HAL_GetTick
                0x08002c44        0xc CMakeFiles/mpu6050.elf.dir/Drivers/STM32F1xx_HAL_Driver/Src/stm32f1xx_hal.c.obj
                0x08002c44                HAL_GetTick
 .text.HAL_NVIC_SetPriorityGrouping
                0x08002c50       0x24 CMakeFiles/mpu6050.elf.dir/Drivers/STM32F1xx_HAL_Driver/Src/stm32f1xx_hal_cortex.c.obj
                0x08002c50                HAL_NVIC_SetPriorityGrouping
 .text.HAL_NVIC_SetPriority
                0x08002c74       0x68 CMakeFiles/mpu6050.elf.dir/Drivers/STM32F1xx_HAL_Driver/Src/stm32f1xx_hal_cortex.c.obj
                0x08002c74                HAL_NVIC_SetPriority
 .text.HAL_SYSTICK_Config
                0x08002cdc       0x2c CMakeFiles/mpu6050.elf.dir/Drivers/STM32F1xx_HAL_Driver/Src/stm32f1xx_hal_cortex.c.obj
                0x08002cdc                HAL_SYSTICK_Config
 .text.HAL_GPIO_Init
                0x08002d08      0x220 CMakeFiles/mpu6050.elf.dir/Drivers/STM32F1xx_HAL_Driver/Src/stm32f1xx_hal_gpio.c.obj
                0x08002d08                HAL_GPIO_Init
 .text.HAL_GPIO_ReadPin
                0x08002f28        0xe CMakeFiles/mpu6050.elf.dir/Drivers/STM32F1xx_HAL_Driver/Src/stm32f1xx_hal_gpio.c.obj
                0x08002f28                HAL_GPIO_ReadPin
 .text.HAL_GPIO_WritePin
                0x08002f36        0xc CMakeFiles/mpu6050.elf.dir/Drivers/STM32F1xx_HAL_Driver/Src/stm32f1xx_hal_gpio.c.obj
                0x08002f36                HAL_GPIO_WritePin
 *fill*         0x08002f42        0x2 
 .text.RCC_Delay
                0x08002f44       0x2c CMakeFiles/mpu6050.elf.dir/Drivers/STM32F1xx_HAL_Driver/Src/stm32f1xx_hal_rcc.c.obj
 .text.HAL_RCC_OscConfig
                0x08002f70      0x410 CMakeFiles/mpu6050.elf.dir/Drivers/STM32F1xx_HAL_Driver/Src/stm32f1xx_hal_rcc.c.obj
                0x08002f70                HAL_RCC_OscConfig
 .text.HAL_RCC_GetSysClockFreq
                0x08003380       0x6c CMakeFiles/mpu6050.elf.dir/Drivers/STM32F1xx_HAL_Driver/Src/stm32f1xx_hal_rcc.c.obj
                0x08003380                HAL_RCC_GetSysClockFreq
 .text.HAL_RCC_ClockConfig
                0x080033ec      0x16c CMakeFiles/mpu6050.elf.dir/Drivers/STM32F1xx_HAL_Driver/Src/stm32f1xx_hal_rcc.c.obj
                0x080033ec                HAL_RCC_ClockConfig
 .text.HAL_RCC_GetHCLKFreq
                0x08003558        0xc CMakeFiles/mpu6050.elf.dir/Drivers/STM32F1xx_HAL_Driver/Src/stm32f1xx_hal_rcc.c.obj
                0x08003558                HAL_RCC_GetHCLKFreq
 .text.HAL_RCC_GetPCLK1Freq
                0x08003564       0x20 CMakeFiles/mpu6050.elf.dir/Drivers/STM32F1xx_HAL_Driver/Src/stm32f1xx_hal_rcc.c.obj
                0x08003564                HAL_RCC_GetPCLK1Freq
 .text.HAL_RCC_GetPCLK2Freq
                0x08003584       0x20 CMakeFiles/mpu6050.elf.dir/Drivers/STM32F1xx_HAL_Driver/Src/stm32f1xx_hal_rcc.c.obj
                0x08003584                HAL_RCC_GetPCLK2Freq
 .text.UART_SetConfig
                0x080035a4       0x90 CMakeFiles/mpu6050.elf.dir/Drivers/STM32F1xx_HAL_Driver/Src/stm32f1xx_hal_uart.c.obj
 .text.UART_WaitOnFlagUntilTimeout
                0x08003634       0x68 CMakeFiles/mpu6050.elf.dir/Drivers/STM32F1xx_HAL_Driver/Src/stm32f1xx_hal_uart.c.obj
 .text.HAL_UART_Init
                0x0800369c       0x5e CMakeFiles/mpu6050.elf.dir/Drivers/STM32F1xx_HAL_Driver/Src/stm32f1xx_hal_uart.c.obj
                0x0800369c                HAL_UART_Init
 .text.HAL_UART_Transmit
                0x080036fa       0xd8 CMakeFiles/mpu6050.elf.dir/Drivers/STM32F1xx_HAL_Driver/Src/stm32f1xx_hal_uart.c.obj
                0x080036fa                HAL_UART_Transmit
 .text.HAL_UART_Receive
                0x080037d2       0xe4 CMakeFiles/mpu6050.elf.dir/Drivers/STM32F1xx_HAL_Driver/Src/stm32f1xx_hal_uart.c.obj
                0x080037d2                HAL_UART_Receive
 *fill*         0x080038b6        0x2 
 .text._Z8delay_usm
                0x080038b8       0x2c CMakeFiles/mpu6050.elf.dir/IIC/Src/delay.cpp.obj
                0x080038b8                delay_us(unsigned long)
 .text._Z8delay_msm
                0x080038e4       0x18 CMakeFiles/mpu6050.elf.dir/IIC/Src/delay.cpp.obj
                0x080038e4                delay_ms(unsigned long)
 .text._Z9IIC_Startv
                0x080038fc       0x58 CMakeFiles/mpu6050.elf.dir/IIC/Src/iic_drv.cpp.obj
                0x080038fc                IIC_Start()
 .text._Z8IIC_Stopv
                0x08003954       0x58 CMakeFiles/mpu6050.elf.dir/IIC/Src/iic_drv.cpp.obj
                0x08003954                IIC_Stop()
 .text._Z12IIC_Wait_Ackv
                0x080039ac       0x6c CMakeFiles/mpu6050.elf.dir/IIC/Src/iic_drv.cpp.obj
                0x080039ac                IIC_Wait_Ack()
 .text._Z7IIC_Askv
                0x08003a18       0x58 CMakeFiles/mpu6050.elf.dir/IIC/Src/iic_drv.cpp.obj
                0x08003a18                IIC_Ask()
 .text._Z8IIC_NAckv
                0x08003a70       0x58 CMakeFiles/mpu6050.elf.dir/IIC/Src/iic_drv.cpp.obj
                0x08003a70                IIC_NAck()
 .text._Z13IIC_Send_Byteh
                0x08003ac8       0x84 CMakeFiles/mpu6050.elf.dir/IIC/Src/iic_drv.cpp.obj
                0x08003ac8                IIC_Send_Byte(unsigned char)
 .text._Z13IIC_Read_Bytev
                0x08003b4c       0x7c CMakeFiles/mpu6050.elf.dir/IIC/Src/iic_drv.cpp.obj
                0x08003b4c                IIC_Read_Byte()
 .text._Z14IIC_Read_nBytehhPht
                0x08003bc8       0x70 CMakeFiles/mpu6050.elf.dir/IIC/Src/iic_drv.cpp.obj
                0x08003bc8                IIC_Read_nByte(unsigned char, unsigned char, unsigned char*, unsigned short)
 .text._Z15IIC_Write_nBytehhPht
                0x08003c38       0x5e CMakeFiles/mpu6050.elf.dir/IIC/Src/iic_drv.cpp.obj
                0x08003c38                IIC_Write_nByte(unsigned char, unsigned char, unsigned char*, unsigned short)
 *fill*         0x08003c96        0x2 
 .text._ZL20get_accel_prod_shiftPf
                0x08003c98       0xbc CMakeFiles/mpu6050.elf.dir/dmp/Src/inv_mpu.cpp.obj
 .text._ZL15accel_self_testPlS_
                0x08003d54       0xa4 CMakeFiles/mpu6050.elf.dir/dmp/Src/inv_mpu.cpp.obj
 .text._ZL14gyro_self_testPlS_
                0x08003df8       0xfc CMakeFiles/mpu6050.elf.dir/dmp/Src/inv_mpu.cpp.obj
 .text._ZL14set_int_enableh
                0x08003ef4       0x98 CMakeFiles/mpu6050.elf.dir/dmp/Src/inv_mpu.cpp.obj
 .text._ZL13get_st_biasesPlS_h
                0x08003f8c      0x450 CMakeFiles/mpu6050.elf.dir/dmp/Src/inv_mpu.cpp.obj
 .text._Z14mpu_reset_fifov
                0x080043dc      0x1f8 CMakeFiles/mpu6050.elf.dir/dmp/Src/inv_mpu.cpp.obj
                0x080043dc                mpu_reset_fifo()
 .text._Z16mpu_get_gyro_fsrPt
                0x080045d4       0x3c CMakeFiles/mpu6050.elf.dir/dmp/Src/inv_mpu.cpp.obj
                0x080045d4                mpu_get_gyro_fsr(unsigned short*)
 .text._Z16mpu_set_gyro_fsrt
                0x08004610       0x98 CMakeFiles/mpu6050.elf.dir/dmp/Src/inv_mpu.cpp.obj
                0x08004610                mpu_set_gyro_fsr(unsigned short)
 .text._Z17mpu_get_accel_fsrPh
                0x080046a8       0x44 CMakeFiles/mpu6050.elf.dir/dmp/Src/inv_mpu.cpp.obj
                0x080046a8                mpu_get_accel_fsr(unsigned char*)
 .text._Z17mpu_set_accel_fsrh
                0x080046ec       0x94 CMakeFiles/mpu6050.elf.dir/dmp/Src/inv_mpu.cpp.obj
                0x080046ec                mpu_set_accel_fsr(unsigned char)
 .text._Z11mpu_get_lpfPt
                0x08004780       0x44 CMakeFiles/mpu6050.elf.dir/dmp/Src/inv_mpu.cpp.obj
                0x08004780                mpu_get_lpf(unsigned short*)
 .text._Z11mpu_set_lpft
                0x080047c4       0x94 CMakeFiles/mpu6050.elf.dir/dmp/Src/inv_mpu.cpp.obj
                0x080047c4                mpu_set_lpf(unsigned short)
 .text._Z19mpu_get_sample_ratePt
                0x08004858       0x1c CMakeFiles/mpu6050.elf.dir/dmp/Src/inv_mpu.cpp.obj
                0x08004858                mpu_get_sample_rate(unsigned short*)
 .text._Z17mpu_get_gyro_sensPf
                0x08004874       0x4c CMakeFiles/mpu6050.elf.dir/dmp/Src/inv_mpu.cpp.obj
                0x08004874                mpu_get_gyro_sens(float*)
 .text._Z18mpu_get_accel_sensPt
                0x080048c0       0x4c CMakeFiles/mpu6050.elf.dir/dmp/Src/inv_mpu.cpp.obj
                0x080048c0                mpu_get_accel_sens(unsigned short*)
 .text._Z19mpu_get_fifo_configPh
                0x0800490c       0x10 CMakeFiles/mpu6050.elf.dir/dmp/Src/inv_mpu.cpp.obj
                0x0800490c                mpu_get_fifo_config(unsigned char*)
 .text._Z18mpu_configure_fifoh
                0x0800491c       0x64 CMakeFiles/mpu6050.elf.dir/dmp/Src/inv_mpu.cpp.obj
                0x0800491c                mpu_configure_fifo(unsigned char)
 .text._Z20mpu_read_fifo_streamtPhS_
                0x08004980       0xc0 CMakeFiles/mpu6050.elf.dir/dmp/Src/inv_mpu.cpp.obj
                0x08004980                mpu_read_fifo_stream(unsigned short, unsigned char*, unsigned char*)
 .text._Z14mpu_set_bypassh
                0x08004a40      0x168 CMakeFiles/mpu6050.elf.dir/dmp/Src/inv_mpu.cpp.obj
                0x08004a40                mpu_set_bypass(unsigned char)
 .text._Z19mpu_set_int_latchedh
                0x08004ba8       0x74 CMakeFiles/mpu6050.elf.dir/dmp/Src/inv_mpu.cpp.obj
                0x08004ba8                mpu_set_int_latched(unsigned char)
 .text._Z17mpu_lp_accel_modet
                0x08004c1c       0xdc CMakeFiles/mpu6050.elf.dir/dmp/Src/inv_mpu.cpp.obj
                0x08004c1c                mpu_lp_accel_mode(unsigned short)
 .text._Z19mpu_set_sample_ratet
                0x08004cf8       0xa0 CMakeFiles/mpu6050.elf.dir/dmp/Src/inv_mpu.cpp.obj
                0x08004cf8                mpu_set_sample_rate(unsigned short)
 .text._Z15mpu_set_sensorsh
                0x08004d98       0xe4 CMakeFiles/mpu6050.elf.dir/dmp/Src/inv_mpu.cpp.obj
                0x08004d98                mpu_set_sensors(unsigned char)
 .text._Z8mpu_initP11int_param_s
                0x08004e7c       0xf0 CMakeFiles/mpu6050.elf.dir/dmp/Src/inv_mpu.cpp.obj
                0x08004e7c                mpu_init(int_param_s*)
 .text._Z13mpu_write_memttPh
                0x08004f6c       0x74 CMakeFiles/mpu6050.elf.dir/dmp/Src/inv_mpu.cpp.obj
                0x08004f6c                mpu_write_mem(unsigned short, unsigned short, unsigned char*)
 .text._Z12mpu_read_memttPh
                0x08004fe0       0x74 CMakeFiles/mpu6050.elf.dir/dmp/Src/inv_mpu.cpp.obj
                0x08004fe0                mpu_read_mem(unsigned short, unsigned short, unsigned char*)
 .text._Z17mpu_load_firmwaretPKhtt
                0x08005054       0xb8 CMakeFiles/mpu6050.elf.dir/dmp/Src/inv_mpu.cpp.obj
                0x08005054                mpu_load_firmware(unsigned short, unsigned char const*, unsigned short, unsigned short)
 .text._Z17mpu_set_dmp_stateh
                0x0800510c       0x94 CMakeFiles/mpu6050.elf.dir/dmp/Src/inv_mpu.cpp.obj
                0x0800510c                mpu_set_dmp_state(unsigned char)
 .text._Z17mpu_run_self_testPlS_
                0x080051a0      0x108 CMakeFiles/mpu6050.elf.dir/dmp/Src/inv_mpu.cpp.obj
                0x080051a0                mpu_run_self_test(long*, long*)
 .text._ZL14decode_gesturePh
                0x080052a8       0x40 CMakeFiles/mpu6050.elf.dir/dmp/Src/inv_mpu_dmp_motion_driver.cpp.obj
 .text._Z31dmp_load_motion_driver_firmwarev
                0x080052e8       0x18 CMakeFiles/mpu6050.elf.dir/dmp/Src/inv_mpu_dmp_motion_driver.cpp.obj
                0x080052e8                dmp_load_motion_driver_firmware()
 .text._Z19dmp_set_orientationt
                0x08005300      0x144 CMakeFiles/mpu6050.elf.dir/dmp/Src/inv_mpu_dmp_motion_driver.cpp.obj
                0x08005300                dmp_set_orientation(unsigned short)
 .text._Z17dmp_set_gyro_biasPl
                0x08005444      0x100 CMakeFiles/mpu6050.elf.dir/dmp/Src/inv_mpu_dmp_motion_driver.cpp.obj
                0x08005444                dmp_set_gyro_bias(long*)
 .text._Z18dmp_set_accel_biasPl
                0x08005544       0xe0 CMakeFiles/mpu6050.elf.dir/dmp/Src/inv_mpu_dmp_motion_driver.cpp.obj
                0x08005544                dmp_set_accel_bias(long*)
 .text._Z18dmp_set_tap_threshht
                0x08005624      0x1a0 CMakeFiles/mpu6050.elf.dir/dmp/Src/inv_mpu_dmp_motion_driver.cpp.obj
                0x08005624                dmp_set_tap_thresh(unsigned char, unsigned short)
 .text._Z16dmp_set_tap_axesh
                0x080057c4       0x4e CMakeFiles/mpu6050.elf.dir/dmp/Src/inv_mpu_dmp_motion_driver.cpp.obj
                0x080057c4                dmp_set_tap_axes(unsigned char)
 .text._Z17dmp_set_tap_counth
                0x08005812       0x2c CMakeFiles/mpu6050.elf.dir/dmp/Src/inv_mpu_dmp_motion_driver.cpp.obj
                0x08005812                dmp_set_tap_count(unsigned char)
 *fill*         0x0800583e        0x2 
 .text._Z16dmp_set_tap_timet
                0x08005840       0x2c CMakeFiles/mpu6050.elf.dir/dmp/Src/inv_mpu_dmp_motion_driver.cpp.obj
                0x08005840                dmp_set_tap_time(unsigned short)
 .text._Z22dmp_set_tap_time_multit
                0x0800586c       0x2c CMakeFiles/mpu6050.elf.dir/dmp/Src/inv_mpu_dmp_motion_driver.cpp.obj
                0x0800586c                dmp_set_tap_time_multi(unsigned short)
 .text._Z27dmp_set_shake_reject_threshlt
                0x08005898       0x40 CMakeFiles/mpu6050.elf.dir/dmp/Src/inv_mpu_dmp_motion_driver.cpp.obj
                0x08005898                dmp_set_shake_reject_thresh(long, unsigned short)
 .text._Z25dmp_set_shake_reject_timet
                0x080058d8       0x2c CMakeFiles/mpu6050.elf.dir/dmp/Src/inv_mpu_dmp_motion_driver.cpp.obj
                0x080058d8                dmp_set_shake_reject_time(unsigned short)
 .text._Z28dmp_set_shake_reject_timeoutt
                0x08005904       0x2c CMakeFiles/mpu6050.elf.dir/dmp/Src/inv_mpu_dmp_motion_driver.cpp.obj
                0x08005904                dmp_set_shake_reject_timeout(unsigned short)
 .text._Z19dmp_enable_gyro_calh
                0x08005930       0x44 CMakeFiles/mpu6050.elf.dir/dmp/Src/inv_mpu_dmp_motion_driver.cpp.obj
                0x08005930                dmp_enable_gyro_cal(unsigned char)
 .text._Z18dmp_enable_lp_quath
                0x08005974       0x3c CMakeFiles/mpu6050.elf.dir/dmp/Src/inv_mpu_dmp_motion_driver.cpp.obj
                0x08005974                dmp_enable_lp_quat(unsigned char)
 .text._Z21dmp_enable_6x_lp_quath
                0x080059b0       0x3c CMakeFiles/mpu6050.elf.dir/dmp/Src/inv_mpu_dmp_motion_driver.cpp.obj
                0x080059b0                dmp_enable_6x_lp_quat(unsigned char)
 .text._Z18dmp_enable_featuret
                0x080059ec      0x218 CMakeFiles/mpu6050.elf.dir/dmp/Src/inv_mpu_dmp_motion_driver.cpp.obj
                0x080059ec                dmp_enable_feature(unsigned short)
 .text._Z13dmp_read_fifoPsS_PlPmS_Ph
                0x08005c04      0x1dc CMakeFiles/mpu6050.elf.dir/dmp/Src/inv_mpu_dmp_motion_driver.cpp.obj
                0x08005c04                dmp_read_fifo(short*, short*, long*, unsigned long*, short*, unsigned char*)
 .text.Reset_Handler
                0x08005de0       0x48 CMakeFiles/mpu6050.elf.dir/startup/startup_stm32f103xb.s.obj
                0x08005de0                Reset_Handler
 .text.Default_Handler
                0x08005e28        0x2 CMakeFiles/mpu6050.elf.dir/startup/startup_stm32f103xb.s.obj
                0x08005e28                RTC_Alarm_IRQHandler
                0x08005e28                EXTI2_IRQHandler
                0x08005e28                TIM1_CC_IRQHandler
                0x08005e28                PVD_IRQHandler
                0x08005e28                EXTI3_IRQHandler
                0x08005e28                EXTI0_IRQHandler
                0x08005e28                I2C2_EV_IRQHandler
                0x08005e28                ADC1_2_IRQHandler
                0x08005e28                SPI1_IRQHandler
                0x08005e28                TAMPER_IRQHandler
                0x08005e28                DMA1_Channel4_IRQHandler
                0x08005e28                USART3_IRQHandler
                0x08005e28                RTC_IRQHandler
                0x08005e28                DMA1_Channel7_IRQHandler
                0x08005e28                CAN1_RX1_IRQHandler
                0x08005e28                TIM4_IRQHandler
                0x08005e28                I2C1_EV_IRQHandler
                0x08005e28                DMA1_Channel6_IRQHandler
                0x08005e28                TIM3_IRQHandler
                0x08005e28                RCC_IRQHandler
                0x08005e28                TIM1_TRG_COM_IRQHandler
                0x08005e28                DMA1_Channel1_IRQHandler
                0x08005e28                Default_Handler
                0x08005e28                EXTI15_10_IRQHandler
                0x08005e28                EXTI9_5_IRQHandler
                0x08005e28                SPI2_IRQHandler
                0x08005e28                DMA1_Channel5_IRQHandler
                0x08005e28                EXTI4_IRQHandler
                0x08005e28                USB_LP_CAN1_RX0_IRQHandler
                0x08005e28                USB_HP_CAN1_TX_IRQHandler
                0x08005e28                DMA1_Channel3_IRQHandler
                0x08005e28                TIM1_UP_IRQHandler
                0x08005e28                WWDG_IRQHandler
                0x08005e28                TIM2_IRQHandler
                0x08005e28                TIM1_BRK_IRQHandler
                0x08005e28                EXTI1_IRQHandler
                0x08005e28                USART2_IRQHandler
                0x08005e28                I2C2_ER_IRQHandler
                0x08005e28                DMA1_Channel2_IRQHandler
                0x08005e28                CAN1_SCE_IRQHandler
                0x08005e28                FLASH_IRQHandler
                0x08005e28                USART1_IRQHandler
                0x08005e28                I2C1_ER_IRQHandler
                0x08005e28                USBWakeUp_IRQHandler
 *fill*         0x08005e2a        0x2 
 .text.asinf    0x08005e2c       0x50 d:/program/gcc-arm/gcc-arm-none-eabi-9-2020-q2-update-win32/bin/../lib/gcc/arm-none-eabi/9.3.1/../../../../arm-none-eabi/lib/thumb/v7-m/nofp\libm.a(lib_a-wf_asin.o)
                0x08005e2c                asinf
 .text.atan2f   0x08005e7c        0x4 d:/program/gcc-arm/gcc-arm-none-eabi-9-2020-q2-update-win32/bin/../lib/gcc/arm-none-eabi/9.3.1/../../../../arm-none-eabi/lib/thumb/v7-m/nofp\libm.a(lib_a-wf_atan2.o)
                0x08005e7c                atan2f
 .text.__ieee754_asinf
                0x08005e80      0x298 d:/program/gcc-arm/gcc-arm-none-eabi-9-2020-q2-update-win32/bin/../lib/gcc/arm-none-eabi/9.3.1/../../../../arm-none-eabi/lib/thumb/v7-m/nofp\libm.a(lib_a-ef_asin.o)
                0x08005e80                __ieee754_asinf
 .text.__ieee754_atan2f
                0x08006118      0x110 d:/program/gcc-arm/gcc-arm-none-eabi-9-2020-q2-update-win32/bin/../lib/gcc/arm-none-eabi/9.3.1/../../../../arm-none-eabi/lib/thumb/v7-m/nofp\libm.a(lib_a-ef_atan2.o)
                0x08006118                __ieee754_atan2f
 .text.__ieee754_sqrtf
                0x08006228       0xa8 d:/program/gcc-arm/gcc-arm-none-eabi-9-2020-q2-update-win32/bin/../lib/gcc/arm-none-eabi/9.3.1/../../../../arm-none-eabi/lib/thumb/v7-m/nofp\libm.a(lib_a-ef_sqrt.o)
                0x08006228                __ieee754_sqrtf
 .text.atanf    0x080062d0      0x230 d:/program/gcc-arm/gcc-arm-none-eabi-9-2020-q2-update-win32/bin/../lib/gcc/arm-none-eabi/9.3.1/../../../../arm-none-eabi/lib/thumb/v7-m/nofp\libm.a(lib_a-sf_atan.o)
                0x080062d0                atanf
 .text.fabsf    0x08006500        0x8 d:/program/gcc-arm/gcc-arm-none-eabi-9-2020-q2-update-win32/bin/../lib/gcc/arm-none-eabi/9.3.1/../../../../arm-none-eabi/lib/thumb/v7-m/nofp\libm.a(lib_a-sf_fabs.o)
                0x08006500                fabsf
 .text.nanf     0x08006508        0x8 d:/program/gcc-arm/gcc-arm-none-eabi-9-2020-q2-update-win32/bin/../lib/gcc/arm-none-eabi/9.3.1/../../../../arm-none-eabi/lib/thumb/v7-m/nofp\libm.a(lib_a-sf_nan.o)
                0x08006508                nanf
 .text.abort    0x08006510       0x10 d:/program/gcc-arm/gcc-arm-none-eabi-9-2020-q2-update-win32/bin/../lib/gcc/arm-none-eabi/9.3.1/../../../../arm-none-eabi/lib/thumb/v7-m/nofp\libg.a(lib_a-abort.o)
                0x08006510                abort
 .text.__errno  0x08006520        0xc d:/program/gcc-arm/gcc-arm-none-eabi-9-2020-q2-update-win32/bin/../lib/gcc/arm-none-eabi/9.3.1/../../../../arm-none-eabi/lib/thumb/v7-m/nofp\libg.a(lib_a-errno.o)
                0x08006520                __errno
 .text.__libc_init_array
                0x0800652c       0x48 d:/program/gcc-arm/gcc-arm-none-eabi-9-2020-q2-update-win32/bin/../lib/gcc/arm-none-eabi/9.3.1/../../../../arm-none-eabi/lib/thumb/v7-m/nofp\libg.a(lib_a-init.o)
                0x0800652c                __libc_init_array
 .text.memcmp   0x08006574       0x5c d:/program/gcc-arm/gcc-arm-none-eabi-9-2020-q2-update-win32/bin/../lib/gcc/arm-none-eabi/9.3.1/../../../../arm-none-eabi/lib/thumb/v7-m/nofp\libg.a(lib_a-memcmp.o)
                0x08006574                memcmp
 .text.memset   0x080065d0       0xa0 d:/program/gcc-arm/gcc-arm-none-eabi-9-2020-q2-update-win32/bin/../lib/gcc/arm-none-eabi/9.3.1/../../../../arm-none-eabi/lib/thumb/v7-m/nofp\libg.a(lib_a-memset.o)
                0x080065d0                memset
 .text.printf   0x08006670       0x28 d:/program/gcc-arm/gcc-arm-none-eabi-9-2020-q2-update-win32/bin/../lib/gcc/arm-none-eabi/9.3.1/../../../../arm-none-eabi/lib/thumb/v7-m/nofp\libg.a(lib_a-printf.o)
                0x08006670                printf
 .text._puts_r  0x08006698       0x9c d:/program/gcc-arm/gcc-arm-none-eabi-9-2020-q2-update-win32/bin/../lib/gcc/arm-none-eabi/9.3.1/../../../../arm-none-eabi/lib/thumb/v7-m/nofp\libg.a(lib_a-puts.o)
                0x08006698                _puts_r
 .text.puts     0x08006734       0x10 d:/program/gcc-arm/gcc-arm-none-eabi-9-2020-q2-update-win32/bin/../lib/gcc/arm-none-eabi/9.3.1/../../../../arm-none-eabi/lib/thumb/v7-m/nofp\libg.a(lib_a-puts.o)
                0x08006734                puts
 .text.setvbuf  0x08006744      0x1a0 d:/program/gcc-arm/gcc-arm-none-eabi-9-2020-q2-update-win32/bin/../lib/gcc/arm-none-eabi/9.3.1/../../../../arm-none-eabi/lib/thumb/v7-m/nofp\libg.a(lib_a-setvbuf.o)
                0x08006744                setvbuf
 .text._raise_r
                0x080068e4       0x58 d:/program/gcc-arm/gcc-arm-none-eabi-9-2020-q2-update-win32/bin/../lib/gcc/arm-none-eabi/9.3.1/../../../../arm-none-eabi/lib/thumb/v7-m/nofp\libg.a(lib_a-signal.o)
                0x080068e4                _raise_r
 .text.raise    0x0800693c       0x10 d:/program/gcc-arm/gcc-arm-none-eabi-9-2020-q2-update-win32/bin/../lib/gcc/arm-none-eabi/9.3.1/../../../../arm-none-eabi/lib/thumb/v7-m/nofp\libg.a(lib_a-signal.o)
                0x0800693c                raise
 .text._kill_r  0x0800694c       0x2c d:/program/gcc-arm/gcc-arm-none-eabi-9-2020-q2-update-win32/bin/../lib/gcc/arm-none-eabi/9.3.1/../../../../arm-none-eabi/lib/thumb/v7-m/nofp\libg.a(lib_a-signalr.o)
                0x0800694c                _kill_r
 .text._getpid_r
                0x08006978        0x4 d:/program/gcc-arm/gcc-arm-none-eabi-9-2020-q2-update-win32/bin/../lib/gcc/arm-none-eabi/9.3.1/../../../../arm-none-eabi/lib/thumb/v7-m/nofp\libg.a(lib_a-signalr.o)
                0x08006978                _getpid_r
 .text.strlen   0x0800697c       0x5c d:/program/gcc-arm/gcc-arm-none-eabi-9-2020-q2-update-win32/bin/../lib/gcc/arm-none-eabi/9.3.1/../../../../arm-none-eabi/lib/thumb/v7-m/nofp\libg.a(lib_a-strlen-stub.o)
                0x0800697c                strlen
 .text._vfprintf_r
                0x080069d8     0x1c18 d:/program/gcc-arm/gcc-arm-none-eabi-9-2020-q2-update-win32/bin/../lib/gcc/arm-none-eabi/9.3.1/../../../../arm-none-eabi/lib/thumb/v7-m/nofp\libg.a(lib_a-vfprintf.o)
                0x080069d8                _vfprintf_r
 .text.__sbprintf
                0x080085f0       0x88 d:/program/gcc-arm/gcc-arm-none-eabi-9-2020-q2-update-win32/bin/../lib/gcc/arm-none-eabi/9.3.1/../../../../arm-none-eabi/lib/thumb/v7-m/nofp\libg.a(lib_a-vfprintf.o)
 .text.__swsetup_r
                0x08008678       0xd0 d:/program/gcc-arm/gcc-arm-none-eabi-9-2020-q2-update-win32/bin/../lib/gcc/arm-none-eabi/9.3.1/../../../../arm-none-eabi/lib/thumb/v7-m/nofp\libg.a(lib_a-wsetup.o)
                0x08008678                __swsetup_r
 .text.startup.register_fini
                0x08008748       0x14 d:/program/gcc-arm/gcc-arm-none-eabi-9-2020-q2-update-win32/bin/../lib/gcc/arm-none-eabi/9.3.1/../../../../arm-none-eabi/lib/thumb/v7-m/nofp\libg.a(lib_a-__call_atexit.o)
 .text.atexit   0x0800875c        0xc d:/program/gcc-arm/gcc-arm-none-eabi-9-2020-q2-update-win32/bin/../lib/gcc/arm-none-eabi/9.3.1/../../../../arm-none-eabi/lib/thumb/v7-m/nofp\libg.a(lib_a-atexit.o)
                0x0800875c                atexit
 .text.quorem   0x08008768      0x120 d:/program/gcc-arm/gcc-arm-none-eabi-9-2020-q2-update-win32/bin/../lib/gcc/arm-none-eabi/9.3.1/../../../../arm-none-eabi/lib/thumb/v7-m/nofp\libg.a(lib_a-dtoa.o)
 .text._dtoa_r  0x08008888      0xec8 d:/program/gcc-arm/gcc-arm-none-eabi-9-2020-q2-update-win32/bin/../lib/gcc/arm-none-eabi/9.3.1/../../../../arm-none-eabi/lib/thumb/v7-m/nofp\libg.a(lib_a-dtoa.o)
                0x08008888                _dtoa_r
 .text.__sflush_r
                0x08009750      0x130 d:/program/gcc-arm/gcc-arm-none-eabi-9-2020-q2-update-win32/bin/../lib/gcc/arm-none-eabi/9.3.1/../../../../arm-none-eabi/lib/thumb/v7-m/nofp\libg.a(lib_a-fflush.o)
                0x08009750                __sflush_r
 .text._fflush_r
                0x08009880       0x5c d:/program/gcc-arm/gcc-arm-none-eabi-9-2020-q2-update-win32/bin/../lib/gcc/arm-none-eabi/9.3.1/../../../../arm-none-eabi/lib/thumb/v7-m/nofp\libg.a(lib_a-fflush.o)
                0x08009880                _fflush_r
 .text.std      0x080098dc       0x50 d:/program/gcc-arm/gcc-arm-none-eabi-9-2020-q2-update-win32/bin/../lib/gcc/arm-none-eabi/9.3.1/../../../../arm-none-eabi/lib/thumb/v7-m/nofp\libg.a(lib_a-findfp.o)
 .text._cleanup_r
                0x0800992c        0xc d:/program/gcc-arm/gcc-arm-none-eabi-9-2020-q2-update-win32/bin/../lib/gcc/arm-none-eabi/9.3.1/../../../../arm-none-eabi/lib/thumb/v7-m/nofp\libg.a(lib_a-findfp.o)
                0x0800992c                _cleanup_r
 .text.__sinit  0x08009938       0x5c d:/program/gcc-arm/gcc-arm-none-eabi-9-2020-q2-update-win32/bin/../lib/gcc/arm-none-eabi/9.3.1/../../../../arm-none-eabi/lib/thumb/v7-m/nofp\libg.a(lib_a-findfp.o)
                0x08009938                __sinit
 .text.__sfp_lock_acquire
                0x08009994        0xc d:/program/gcc-arm/gcc-arm-none-eabi-9-2020-q2-update-win32/bin/../lib/gcc/arm-none-eabi/9.3.1/../../../../arm-none-eabi/lib/thumb/v7-m/nofp\libg.a(lib_a-findfp.o)
                0x08009994                __sfp_lock_acquire
 .text.__sfp_lock_release
                0x080099a0        0xc d:/program/gcc-arm/gcc-arm-none-eabi-9-2020-q2-update-win32/bin/../lib/gcc/arm-none-eabi/9.3.1/../../../../arm-none-eabi/lib/thumb/v7-m/nofp\libg.a(lib_a-findfp.o)
                0x080099a0                __sfp_lock_release
 .text.__libc_fini_array
                0x080099ac       0x2c d:/program/gcc-arm/gcc-arm-none-eabi-9-2020-q2-update-win32/bin/../lib/gcc/arm-none-eabi/9.3.1/../../../../arm-none-eabi/lib/thumb/v7-m/nofp\libg.a(lib_a-fini.o)
                0x080099ac                __libc_fini_array
 .text._malloc_trim_r
                0x080099d8       0xa0 d:/program/gcc-arm/gcc-arm-none-eabi-9-2020-q2-update-win32/bin/../lib/gcc/arm-none-eabi/9.3.1/../../../../arm-none-eabi/lib/thumb/v7-m/nofp\libg.a(lib_a-freer.o)
                0x080099d8                _malloc_trim_r
 .text._free_r  0x08009a78      0x20c d:/program/gcc-arm/gcc-arm-none-eabi-9-2020-q2-update-win32/bin/../lib/gcc/arm-none-eabi/9.3.1/../../../../arm-none-eabi/lib/thumb/v7-m/nofp\libg.a(lib_a-freer.o)
                0x08009a78                _free_r
 .text.__sfvwrite_r
                0x08009c84      0x2ec d:/program/gcc-arm/gcc-arm-none-eabi-9-2020-q2-update-win32/bin/../lib/gcc/arm-none-eabi/9.3.1/../../../../arm-none-eabi/lib/thumb/v7-m/nofp\libg.a(lib_a-fvwrite.o)
                0x08009c84                __sfvwrite_r
 .text._fwalk_reent
                0x08009f70       0x48 d:/program/gcc-arm/gcc-arm-none-eabi-9-2020-q2-update-win32/bin/../lib/gcc/arm-none-eabi/9.3.1/../../../../arm-none-eabi/lib/thumb/v7-m/nofp\libg.a(lib_a-fwalk.o)
                0x08009f70                _fwalk_reent
 .text._localeconv_r
                0x08009fb8        0x8 d:/program/gcc-arm/gcc-arm-none-eabi-9-2020-q2-update-win32/bin/../lib/gcc/arm-none-eabi/9.3.1/../../../../arm-none-eabi/lib/thumb/v7-m/nofp\libg.a(lib_a-localeconv.o)
                0x08009fb8                _localeconv_r
 .text.__retarget_lock_init_recursive
                0x08009fc0        0x4 d:/program/gcc-arm/gcc-arm-none-eabi-9-2020-q2-update-win32/bin/../lib/gcc/arm-none-eabi/9.3.1/../../../../arm-none-eabi/lib/thumb/v7-m/nofp\libg.a(lib_a-lock.o)
                0x08009fc0                __retarget_lock_init_recursive
 .text.__retarget_lock_close_recursive
                0x08009fc4        0x4 d:/program/gcc-arm/gcc-arm-none-eabi-9-2020-q2-update-win32/bin/../lib/gcc/arm-none-eabi/9.3.1/../../../../arm-none-eabi/lib/thumb/v7-m/nofp\libg.a(lib_a-lock.o)
                0x08009fc4                __retarget_lock_close_recursive
 .text.__retarget_lock_acquire_recursive
                0x08009fc8        0x4 d:/program/gcc-arm/gcc-arm-none-eabi-9-2020-q2-update-win32/bin/../lib/gcc/arm-none-eabi/9.3.1/../../../../arm-none-eabi/lib/thumb/v7-m/nofp\libg.a(lib_a-lock.o)
                0x08009fc8                __retarget_lock_acquire_recursive
 .text.__retarget_lock_release_recursive
                0x08009fcc        0x4 d:/program/gcc-arm/gcc-arm-none-eabi-9-2020-q2-update-win32/bin/../lib/gcc/arm-none-eabi/9.3.1/../../../../arm-none-eabi/lib/thumb/v7-m/nofp\libg.a(lib_a-lock.o)
                0x08009fcc                __retarget_lock_release_recursive
 .text.__swhatbuf_r
                0x08009fd0       0x5c d:/program/gcc-arm/gcc-arm-none-eabi-9-2020-q2-update-win32/bin/../lib/gcc/arm-none-eabi/9.3.1/../../../../arm-none-eabi/lib/thumb/v7-m/nofp\libg.a(lib_a-makebuf.o)
                0x08009fd0                __swhatbuf_r
 .text.__smakebuf_r
                0x0800a02c       0x94 d:/program/gcc-arm/gcc-arm-none-eabi-9-2020-q2-update-win32/bin/../lib/gcc/arm-none-eabi/9.3.1/../../../../arm-none-eabi/lib/thumb/v7-m/nofp\libg.a(lib_a-makebuf.o)
                0x0800a02c                __smakebuf_r
 .text.malloc   0x0800a0c0       0x10 d:/program/gcc-arm/gcc-arm-none-eabi-9-2020-q2-update-win32/bin/../lib/gcc/arm-none-eabi/9.3.1/../../../../arm-none-eabi/lib/thumb/v7-m/nofp\libg.a(lib_a-malloc.o)
                0x0800a0c0                malloc
 .text._malloc_r
                0x0800a0d0      0x55c d:/program/gcc-arm/gcc-arm-none-eabi-9-2020-q2-update-win32/bin/../lib/gcc/arm-none-eabi/9.3.1/../../../../arm-none-eabi/lib/thumb/v7-m/nofp\libg.a(lib_a-mallocr.o)
                0x0800a0d0                _malloc_r
 .text.memchr   0x0800a62c       0x80 d:/program/gcc-arm/gcc-arm-none-eabi-9-2020-q2-update-win32/bin/../lib/gcc/arm-none-eabi/9.3.1/../../../../arm-none-eabi/lib/thumb/v7-m/nofp\libg.a(lib_a-memchr-stub.o)
                0x0800a62c                memchr
 .text.memmove  0x0800a6ac       0xd4 d:/program/gcc-arm/gcc-arm-none-eabi-9-2020-q2-update-win32/bin/../lib/gcc/arm-none-eabi/9.3.1/../../../../arm-none-eabi/lib/thumb/v7-m/nofp\libg.a(lib_a-memmove.o)
                0x0800a6ac                memmove
 .text.__malloc_lock
                0x0800a780        0xc d:/program/gcc-arm/gcc-arm-none-eabi-9-2020-q2-update-win32/bin/../lib/gcc/arm-none-eabi/9.3.1/../../../../arm-none-eabi/lib/thumb/v7-m/nofp\libg.a(lib_a-mlock.o)
                0x0800a780                __malloc_lock
 .text.__malloc_unlock
                0x0800a78c        0xc d:/program/gcc-arm/gcc-arm-none-eabi-9-2020-q2-update-win32/bin/../lib/gcc/arm-none-eabi/9.3.1/../../../../arm-none-eabi/lib/thumb/v7-m/nofp\libg.a(lib_a-mlock.o)
                0x0800a78c                __malloc_unlock
 .text._Balloc  0x0800a798       0x4c d:/program/gcc-arm/gcc-arm-none-eabi-9-2020-q2-update-win32/bin/../lib/gcc/arm-none-eabi/9.3.1/../../../../arm-none-eabi/lib/thumb/v7-m/nofp\libg.a(lib_a-mprec.o)
                0x0800a798                _Balloc
 .text._Bfree   0x0800a7e4       0x14 d:/program/gcc-arm/gcc-arm-none-eabi-9-2020-q2-update-win32/bin/../lib/gcc/arm-none-eabi/9.3.1/../../../../arm-none-eabi/lib/thumb/v7-m/nofp\libg.a(lib_a-mprec.o)
                0x0800a7e4                _Bfree
 .text.__multadd
                0x0800a7f8       0x9c d:/program/gcc-arm/gcc-arm-none-eabi-9-2020-q2-update-win32/bin/../lib/gcc/arm-none-eabi/9.3.1/../../../../arm-none-eabi/lib/thumb/v7-m/nofp\libg.a(lib_a-mprec.o)
                0x0800a7f8                __multadd
 .text.__hi0bits
                0x0800a894       0x40 d:/program/gcc-arm/gcc-arm-none-eabi-9-2020-q2-update-win32/bin/../lib/gcc/arm-none-eabi/9.3.1/../../../../arm-none-eabi/lib/thumb/v7-m/nofp\libg.a(lib_a-mprec.o)
                0x0800a894                __hi0bits
 .text.__lo0bits
                0x0800a8d4       0x60 d:/program/gcc-arm/gcc-arm-none-eabi-9-2020-q2-update-win32/bin/../lib/gcc/arm-none-eabi/9.3.1/../../../../arm-none-eabi/lib/thumb/v7-m/nofp\libg.a(lib_a-mprec.o)
                0x0800a8d4                __lo0bits
 .text.__i2b    0x0800a934       0x2c d:/program/gcc-arm/gcc-arm-none-eabi-9-2020-q2-update-win32/bin/../lib/gcc/arm-none-eabi/9.3.1/../../../../arm-none-eabi/lib/thumb/v7-m/nofp\libg.a(lib_a-mprec.o)
                0x0800a934                __i2b
 .text.__multiply
                0x0800a960      0x160 d:/program/gcc-arm/gcc-arm-none-eabi-9-2020-q2-update-win32/bin/../lib/gcc/arm-none-eabi/9.3.1/../../../../arm-none-eabi/lib/thumb/v7-m/nofp\libg.a(lib_a-mprec.o)
                0x0800a960                __multiply
 .text.__pow5mult
                0x0800aac0       0x98 d:/program/gcc-arm/gcc-arm-none-eabi-9-2020-q2-update-win32/bin/../lib/gcc/arm-none-eabi/9.3.1/../../../../arm-none-eabi/lib/thumb/v7-m/nofp\libg.a(lib_a-mprec.o)
                0x0800aac0                __pow5mult
 .text.__lshift
                0x0800ab58       0xe8 d:/program/gcc-arm/gcc-arm-none-eabi-9-2020-q2-update-win32/bin/../lib/gcc/arm-none-eabi/9.3.1/../../../../arm-none-eabi/lib/thumb/v7-m/nofp\libg.a(lib_a-mprec.o)
                0x0800ab58                __lshift
 .text.__mcmp   0x0800ac40       0x3c d:/program/gcc-arm/gcc-arm-none-eabi-9-2020-q2-update-win32/bin/../lib/gcc/arm-none-eabi/9.3.1/../../../../arm-none-eabi/lib/thumb/v7-m/nofp\libg.a(lib_a-mprec.o)
                0x0800ac40                __mcmp
 .text.__mdiff  0x0800ac7c      0x150 d:/program/gcc-arm/gcc-arm-none-eabi-9-2020-q2-update-win32/bin/../lib/gcc/arm-none-eabi/9.3.1/../../../../arm-none-eabi/lib/thumb/v7-m/nofp\libg.a(lib_a-mprec.o)
                0x0800ac7c                __mdiff
 .text.__d2b    0x0800adcc       0xc4 d:/program/gcc-arm/gcc-arm-none-eabi-9-2020-q2-update-win32/bin/../lib/gcc/arm-none-eabi/9.3.1/../../../../arm-none-eabi/lib/thumb/v7-m/nofp\libg.a(lib_a-mprec.o)
                0x0800adcc                __d2b
 .text._realloc_r
                0x0800ae90      0x3e0 d:/program/gcc-arm/gcc-arm-none-eabi-9-2020-q2-update-win32/bin/../lib/gcc/arm-none-eabi/9.3.1/../../../../arm-none-eabi/lib/thumb/v7-m/nofp\libg.a(lib_a-reallocr.o)
                0x0800ae90                _realloc_r
 .text.frexp    0x0800b270       0x70 d:/program/gcc-arm/gcc-arm-none-eabi-9-2020-q2-update-win32/bin/../lib/gcc/arm-none-eabi/9.3.1/../../../../arm-none-eabi/lib/thumb/v7-m/nofp\libg.a(lib_a-s_frexp.o)
                0x0800b270                frexp
 .text._sbrk_r  0x0800b2e0       0x24 d:/program/gcc-arm/gcc-arm-none-eabi-9-2020-q2-update-win32/bin/../lib/gcc/arm-none-eabi/9.3.1/../../../../arm-none-eabi/lib/thumb/v7-m/nofp\libg.a(lib_a-sbrkr.o)
                0x0800b2e0                _sbrk_r
 .text.__sread  0x0800b304       0x24 d:/program/gcc-arm/gcc-arm-none-eabi-9-2020-q2-update-win32/bin/../lib/gcc/arm-none-eabi/9.3.1/../../../../arm-none-eabi/lib/thumb/v7-m/nofp\libg.a(lib_a-stdio.o)
                0x0800b304                __sread
 .text.__swrite
                0x0800b328       0x40 d:/program/gcc-arm/gcc-arm-none-eabi-9-2020-q2-update-win32/bin/../lib/gcc/arm-none-eabi/9.3.1/../../../../arm-none-eabi/lib/thumb/v7-m/nofp\libg.a(lib_a-stdio.o)
                0x0800b328                __swrite
 .text.__sseek  0x0800b368       0x20 d:/program/gcc-arm/gcc-arm-none-eabi-9-2020-q2-update-win32/bin/../lib/gcc/arm-none-eabi/9.3.1/../../../../arm-none-eabi/lib/thumb/v7-m/nofp\libg.a(lib_a-stdio.o)
                0x0800b368                __sseek
 .text.__sclose
                0x0800b388        0x8 d:/program/gcc-arm/gcc-arm-none-eabi-9-2020-q2-update-win32/bin/../lib/gcc/arm-none-eabi/9.3.1/../../../../arm-none-eabi/lib/thumb/v7-m/nofp\libg.a(lib_a-stdio.o)
                0x0800b388                __sclose
 .text.strncpy  0x0800b390       0x68 d:/program/gcc-arm/gcc-arm-none-eabi-9-2020-q2-update-win32/bin/../lib/gcc/arm-none-eabi/9.3.1/../../../../arm-none-eabi/lib/thumb/v7-m/nofp\libg.a(lib_a-strncpy.o)
                0x0800b390                strncpy
 .text.__sprint_r.part.0
                0x0800b3f8       0x78 d:/program/gcc-arm/gcc-arm-none-eabi-9-2020-q2-update-win32/bin/../lib/gcc/arm-none-eabi/9.3.1/../../../../arm-none-eabi/lib/thumb/v7-m/nofp\libg.a(lib_a-vfiprintf.o)
 .text.__sprint_r
                0x0800b470       0x14 d:/program/gcc-arm/gcc-arm-none-eabi-9-2020-q2-update-win32/bin/../lib/gcc/arm-none-eabi/9.3.1/../../../../arm-none-eabi/lib/thumb/v7-m/nofp\libg.a(lib_a-vfiprintf.o)
                0x0800b470                __sprint_r
 .text._vfiprintf_r
                0x0800b484      0xd2c d:/program/gcc-arm/gcc-arm-none-eabi-9-2020-q2-update-win32/bin/../lib/gcc/arm-none-eabi/9.3.1/../../../../arm-none-eabi/lib/thumb/v7-m/nofp\libg.a(lib_a-vfiprintf.o)
                0x0800b484                _vfiprintf_r
 .text.__sbprintf
                0x0800c1b0       0x88 d:/program/gcc-arm/gcc-arm-none-eabi-9-2020-q2-update-win32/bin/../lib/gcc/arm-none-eabi/9.3.1/../../../../arm-none-eabi/lib/thumb/v7-m/nofp\libg.a(lib_a-vfiprintf.o)
 .text._write_r
                0x0800c238       0x2c d:/program/gcc-arm/gcc-arm-none-eabi-9-2020-q2-update-win32/bin/../lib/gcc/arm-none-eabi/9.3.1/../../../../arm-none-eabi/lib/thumb/v7-m/nofp\libg.a(lib_a-writer.o)
                0x0800c238                _write_r
 .text.__register_exitproc
                0x0800c264       0x8c d:/program/gcc-arm/gcc-arm-none-eabi-9-2020-q2-update-win32/bin/../lib/gcc/arm-none-eabi/9.3.1/../../../../arm-none-eabi/lib/thumb/v7-m/nofp\libg.a(lib_a-__atexit.o)
                0x0800c264                __register_exitproc
 .text.__assert_func
                0x0800c2f0       0x3c d:/program/gcc-arm/gcc-arm-none-eabi-9-2020-q2-update-win32/bin/../lib/gcc/arm-none-eabi/9.3.1/../../../../arm-none-eabi/lib/thumb/v7-m/nofp\libg.a(lib_a-assert.o)
                0x0800c2f0                __assert_func
 .text._calloc_r
                0x0800c32c       0x60 d:/program/gcc-arm/gcc-arm-none-eabi-9-2020-q2-update-win32/bin/../lib/gcc/arm-none-eabi/9.3.1/../../../../arm-none-eabi/lib/thumb/v7-m/nofp\libg.a(lib_a-callocr.o)
                0x0800c32c                _calloc_r
 .text._close_r
                0x0800c38c       0x24 d:/program/gcc-arm/gcc-arm-none-eabi-9-2020-q2-update-win32/bin/../lib/gcc/arm-none-eabi/9.3.1/../../../../arm-none-eabi/lib/thumb/v7-m/nofp\libg.a(lib_a-closer.o)
                0x0800c38c                _close_r
 .text._fclose_r
                0x0800c3b0       0xcc d:/program/gcc-arm/gcc-arm-none-eabi-9-2020-q2-update-win32/bin/../lib/gcc/arm-none-eabi/9.3.1/../../../../arm-none-eabi/lib/thumb/v7-m/nofp\libg.a(lib_a-fclose.o)
                0x0800c3b0                _fclose_r
 .text.fiprintf
                0x0800c47c       0x28 d:/program/gcc-arm/gcc-arm-none-eabi-9-2020-q2-update-win32/bin/../lib/gcc/arm-none-eabi/9.3.1/../../../../arm-none-eabi/lib/thumb/v7-m/nofp\libg.a(lib_a-fiprintf.o)
                0x0800c47c                fiprintf
 .text.__fputwc
                0x0800c4a4       0xa0 d:/program/gcc-arm/gcc-arm-none-eabi-9-2020-q2-update-win32/bin/../lib/gcc/arm-none-eabi/9.3.1/../../../../arm-none-eabi/lib/thumb/v7-m/nofp\libg.a(lib_a-fputwc.o)
                0x0800c4a4                __fputwc
 .text._fputwc_r
                0x0800c544       0x68 d:/program/gcc-arm/gcc-arm-none-eabi-9-2020-q2-update-win32/bin/../lib/gcc/arm-none-eabi/9.3.1/../../../../arm-none-eabi/lib/thumb/v7-m/nofp\libg.a(lib_a-fputwc.o)
                0x0800c544                _fputwc_r
 .text._fstat_r
                0x0800c5ac       0x2c d:/program/gcc-arm/gcc-arm-none-eabi-9-2020-q2-update-win32/bin/../lib/gcc/arm-none-eabi/9.3.1/../../../../arm-none-eabi/lib/thumb/v7-m/nofp\libg.a(lib_a-fstatr.o)
                0x0800c5ac                _fstat_r
 .text._isatty_r
                0x0800c5d8       0x24 d:/program/gcc-arm/gcc-arm-none-eabi-9-2020-q2-update-win32/bin/../lib/gcc/arm-none-eabi/9.3.1/../../../../arm-none-eabi/lib/thumb/v7-m/nofp\libg.a(lib_a-isattyr.o)
                0x0800c5d8                _isatty_r
 .text.__locale_mb_cur_max
                0x0800c5fc        0xc d:/program/gcc-arm/gcc-arm-none-eabi-9-2020-q2-update-win32/bin/../lib/gcc/arm-none-eabi/9.3.1/../../../../arm-none-eabi/lib/thumb/v7-m/nofp\libg.a(lib_a-locale.o)
                0x0800c5fc                __locale_mb_cur_max
 .text._lseek_r
                0x0800c608       0x2c d:/program/gcc-arm/gcc-arm-none-eabi-9-2020-q2-update-win32/bin/../lib/gcc/arm-none-eabi/9.3.1/../../../../arm-none-eabi/lib/thumb/v7-m/nofp\libg.a(lib_a-lseekr.o)
                0x0800c608                _lseek_r
 .text.__ascii_mbtowc
                0x0800c634       0x2c d:/program/gcc-arm/gcc-arm-none-eabi-9-2020-q2-update-win32/bin/../lib/gcc/arm-none-eabi/9.3.1/../../../../arm-none-eabi/lib/thumb/v7-m/nofp\libg.a(lib_a-mbtowc_r.o)
                0x0800c634                __ascii_mbtowc
 .text._read_r  0x0800c660       0x2c d:/program/gcc-arm/gcc-arm-none-eabi-9-2020-q2-update-win32/bin/../lib/gcc/arm-none-eabi/9.3.1/../../../../arm-none-eabi/lib/thumb/v7-m/nofp\libg.a(lib_a-readr.o)
                0x0800c660                _read_r
 .text.__swbuf_r
                0x0800c68c       0xb0 d:/program/gcc-arm/gcc-arm-none-eabi-9-2020-q2-update-win32/bin/../lib/gcc/arm-none-eabi/9.3.1/../../../../arm-none-eabi/lib/thumb/v7-m/nofp\libg.a(lib_a-wbuf.o)
                0x0800c68c                __swbuf_r
 .text._wcrtomb_r
                0x0800c73c       0x3c d:/program/gcc-arm/gcc-arm-none-eabi-9-2020-q2-update-win32/bin/../lib/gcc/arm-none-eabi/9.3.1/../../../../arm-none-eabi/lib/thumb/v7-m/nofp\libg.a(lib_a-wcrtomb.o)
                0x0800c73c                _wcrtomb_r
 .text.__ascii_wctomb
                0x0800c778       0x1c d:/program/gcc-arm/gcc-arm-none-eabi-9-2020-q2-update-win32/bin/../lib/gcc/arm-none-eabi/9.3.1/../../../../arm-none-eabi/lib/thumb/v7-m/nofp\libg.a(lib_a-wctomb_r.o)
                0x0800c778                __ascii_wctomb
 *(.glue_7)
 .glue_7        0x0800c794        0x0 linker stubs
 *(.glue_7t)
 .glue_7t       0x0800c794        0x0 linker stubs
 *(.eh_frame)
 .eh_frame      0x0800c794        0x0 d:/program/gcc-arm/gcc-arm-none-eabi-9-2020-q2-update-win32/bin/../lib/gcc/arm-none-eabi/9.3.1/thumb/v7-m/nofp/crtbegin.o
 *(.init)
 .init          0x0800c794        0x4 d:/program/gcc-arm/gcc-arm-none-eabi-9-2020-q2-update-win32/bin/../lib/gcc/arm-none-eabi/9.3.1/thumb/v7-m/nofp/crti.o
                0x0800c794                _init
 .init          0x0800c798        0x8 d:/program/gcc-arm/gcc-arm-none-eabi-9-2020-q2-update-win32/bin/../lib/gcc/arm-none-eabi/9.3.1/thumb/v7-m/nofp/crtn.o
 *(.fini)
 .fini          0x0800c7a0        0x4 d:/program/gcc-arm/gcc-arm-none-eabi-9-2020-q2-update-win32/bin/../lib/gcc/arm-none-eabi/9.3.1/thumb/v7-m/nofp/crti.o
                0x0800c7a0                _fini
 .fini          0x0800c7a4        0x8 d:/program/gcc-arm/gcc-arm-none-eabi-9-2020-q2-update-win32/bin/../lib/gcc/arm-none-eabi/9.3.1/thumb/v7-m/nofp/crtn.o
                0x0800c7ac                . = ALIGN (0x4)
                0x0800c7ac                _etext = .

.vfp11_veneer   0x0800c7ac        0x0
 .vfp11_veneer  0x0800c7ac        0x0 linker stubs

.v4_bx          0x0800c7ac        0x0
 .v4_bx         0x0800c7ac        0x0 linker stubs

.iplt           0x0800c7ac        0x0
 .iplt          0x0800c7ac        0x0 d:/program/gcc-arm/gcc-arm-none-eabi-9-2020-q2-update-win32/bin/../lib/gcc/arm-none-eabi/9.3.1/thumb/v7-m/nofp/crtbegin.o

.rodata         0x0800c7b0     0x1118
                0x0800c7b0                . = ALIGN (0x4)
 *(.rodata)
 *(.rodata*)
 .rodata.main.str1.4
                0x0800c7b0       0x17 CMakeFiles/mpu6050.elf.dir/Core/Src/main.cpp.obj
 *fill*         0x0800c7c7        0x1 
 .rodata._ZN13MPU6050Handle13run_self_testEv.str1.4
                0x0800c7c8       0x15 CMakeFiles/mpu6050.elf.dir/Core/Src/mpu6050.cpp.obj
 *fill*         0x0800c7dd        0x3 
 .rodata._ZN13MPU6050Handle12mpu_dmp_initEv.str1.4
                0x0800c7e0       0x14 CMakeFiles/mpu6050.elf.dir/Core/Src/mpu6050.cpp.obj
 .rodata.AHBPrescTable
                0x0800c7f4       0x10 CMakeFiles/mpu6050.elf.dir/Core/Src/system_stm32f1xx.c.obj
                0x0800c7f4                AHBPrescTable
 .rodata.APBPrescTable
                0x0800c804        0x8 CMakeFiles/mpu6050.elf.dir/Core/Src/system_stm32f1xx.c.obj
                0x0800c804                APBPrescTable
 .rodata.HAL_RCC_GetSysClockFreq.str1.4
                0x0800c80c       0x11 CMakeFiles/mpu6050.elf.dir/Drivers/STM32F1xx_HAL_Driver/Src/stm32f1xx_hal_rcc.c.obj
 *fill*         0x0800c81d        0x3 
 .rodata._ZL2hw
                0x0800c820        0xc CMakeFiles/mpu6050.elf.dir/dmp/Src/inv_mpu.cpp.obj
 .rodata._ZL3reg
                0x0800c82c       0x1b CMakeFiles/mpu6050.elf.dir/dmp/Src/inv_mpu.cpp.obj
 *fill*         0x0800c847        0x1 
 .rodata._ZL4test
                0x0800c848       0x28 CMakeFiles/mpu6050.elf.dir/dmp/Src/inv_mpu.cpp.obj
 .rodata._Z19dmp_set_orientationt.str1.4
                0x0800c870       0x10 CMakeFiles/mpu6050.elf.dir/dmp/Src/inv_mpu_dmp_motion_driver.cpp.obj
 .rodata._Z19dmp_enable_gyro_calh.str1.4
                0x0800c880       0x16 CMakeFiles/mpu6050.elf.dir/dmp/Src/inv_mpu_dmp_motion_driver.cpp.obj
 *fill*         0x0800c896        0x2 
 .rodata._ZL10dmp_memory
                0x0800c898      0xbf6 CMakeFiles/mpu6050.elf.dir/dmp/Src/inv_mpu_dmp_motion_driver.cpp.obj
 .rodata.asinf.str1.4
                0x0800d48e       0x16 d:/program/gcc-arm/gcc-arm-none-eabi-9-2020-q2-update-win32/bin/../lib/gcc/arm-none-eabi/9.3.1/../../../../arm-none-eabi/lib/thumb/v7-m/nofp\libm.a(lib_a-wf_asin.o)
                                  0x1 (size before relaxing)
 *fill*         0x0800d48e        0x2 
 .rodata.CSWTCH.8
                0x0800d490        0xc d:/program/gcc-arm/gcc-arm-none-eabi-9-2020-q2-update-win32/bin/../lib/gcc/arm-none-eabi/9.3.1/../../../../arm-none-eabi/lib/thumb/v7-m/nofp\libm.a(lib_a-ef_atan2.o)
 .rodata.CSWTCH.9
                0x0800d49c        0xc d:/program/gcc-arm/gcc-arm-none-eabi-9-2020-q2-update-win32/bin/../lib/gcc/arm-none-eabi/9.3.1/../../../../arm-none-eabi/lib/thumb/v7-m/nofp\libm.a(lib_a-ef_atan2.o)
 .rodata.atanhi
                0x0800d4a8       0x10 d:/program/gcc-arm/gcc-arm-none-eabi-9-2020-q2-update-win32/bin/../lib/gcc/arm-none-eabi/9.3.1/../../../../arm-none-eabi/lib/thumb/v7-m/nofp\libm.a(lib_a-sf_atan.o)
 .rodata.atanlo
                0x0800d4b8       0x10 d:/program/gcc-arm/gcc-arm-none-eabi-9-2020-q2-update-win32/bin/../lib/gcc/arm-none-eabi/9.3.1/../../../../arm-none-eabi/lib/thumb/v7-m/nofp\libm.a(lib_a-sf_atan.o)
 .rodata._global_impure_ptr
                0x0800d4c8        0x4 d:/program/gcc-arm/gcc-arm-none-eabi-9-2020-q2-update-win32/bin/../lib/gcc/arm-none-eabi/9.3.1/../../../../arm-none-eabi/lib/thumb/v7-m/nofp\libg.a(lib_a-impure.o)
                0x0800d4c8                _global_impure_ptr
 .rodata._puts_r.str1.4
                0x0800d4cc        0x2 d:/program/gcc-arm/gcc-arm-none-eabi-9-2020-q2-update-win32/bin/../lib/gcc/arm-none-eabi/9.3.1/../../../../arm-none-eabi/lib/thumb/v7-m/nofp\libg.a(lib_a-puts.o)
 *fill*         0x0800d4ce        0x2 
 .rodata._vfprintf_r.str1.4
                0x0800d4d0       0x42 d:/program/gcc-arm/gcc-arm-none-eabi-9-2020-q2-update-win32/bin/../lib/gcc/arm-none-eabi/9.3.1/../../../../arm-none-eabi/lib/thumb/v7-m/nofp\libg.a(lib_a-vfprintf.o)
 *fill*         0x0800d512        0x2 
 .rodata.blanks.7350
                0x0800d514       0x10 d:/program/gcc-arm/gcc-arm-none-eabi-9-2020-q2-update-win32/bin/../lib/gcc/arm-none-eabi/9.3.1/../../../../arm-none-eabi/lib/thumb/v7-m/nofp\libg.a(lib_a-vfprintf.o)
 .rodata.zeroes.7351
                0x0800d524       0x10 d:/program/gcc-arm/gcc-arm-none-eabi-9-2020-q2-update-win32/bin/../lib/gcc/arm-none-eabi/9.3.1/../../../../arm-none-eabi/lib/thumb/v7-m/nofp\libg.a(lib_a-vfprintf.o)
 .rodata._dtoa_r.str1.4
                0x0800d534       0xa0 d:/program/gcc-arm/gcc-arm-none-eabi-9-2020-q2-update-win32/bin/../lib/gcc/arm-none-eabi/9.3.1/../../../../arm-none-eabi/lib/thumb/v7-m/nofp\libg.a(lib_a-dtoa.o)
                                 0xa4 (size before relaxing)
 .rodata.__multadd.str1.4
                0x0800d5d4       0x7d d:/program/gcc-arm/gcc-arm-none-eabi-9-2020-q2-update-win32/bin/../lib/gcc/arm-none-eabi/9.3.1/../../../../arm-none-eabi/lib/thumb/v7-m/nofp\libg.a(lib_a-mprec.o)
                                 0x91 (size before relaxing)
 *fill*         0x0800d651        0x7 
 .rodata.__mprec_bigtens
                0x0800d658       0x28 d:/program/gcc-arm/gcc-arm-none-eabi-9-2020-q2-update-win32/bin/../lib/gcc/arm-none-eabi/9.3.1/../../../../arm-none-eabi/lib/thumb/v7-m/nofp\libg.a(lib_a-mprec.o)
                0x0800d658                __mprec_bigtens
 .rodata.__mprec_tens
                0x0800d680       0xc8 d:/program/gcc-arm/gcc-arm-none-eabi-9-2020-q2-update-win32/bin/../lib/gcc/arm-none-eabi/9.3.1/../../../../arm-none-eabi/lib/thumb/v7-m/nofp\libg.a(lib_a-mprec.o)
                0x0800d680                __mprec_tens
 .rodata.p05.6122
                0x0800d748        0xc d:/program/gcc-arm/gcc-arm-none-eabi-9-2020-q2-update-win32/bin/../lib/gcc/arm-none-eabi/9.3.1/../../../../arm-none-eabi/lib/thumb/v7-m/nofp\libg.a(lib_a-mprec.o)
 .rodata._vfiprintf_r.str1.4
                0x0800d754       0x2f d:/program/gcc-arm/gcc-arm-none-eabi-9-2020-q2-update-win32/bin/../lib/gcc/arm-none-eabi/9.3.1/../../../../arm-none-eabi/lib/thumb/v7-m/nofp\libg.a(lib_a-vfiprintf.o)
 .rodata.blanks.7328
                0x0800d754       0x10 d:/program/gcc-arm/gcc-arm-none-eabi-9-2020-q2-update-win32/bin/../lib/gcc/arm-none-eabi/9.3.1/../../../../arm-none-eabi/lib/thumb/v7-m/nofp\libg.a(lib_a-vfiprintf.o)
 .rodata.zeroes.7329
                0x0800d764       0x10 d:/program/gcc-arm/gcc-arm-none-eabi-9-2020-q2-update-win32/bin/../lib/gcc/arm-none-eabi/9.3.1/../../../../arm-none-eabi/lib/thumb/v7-m/nofp\libg.a(lib_a-vfiprintf.o)
 .rodata.__assert_func.str1.4
                0x0800d774       0x3f d:/program/gcc-arm/gcc-arm-none-eabi-9-2020-q2-update-win32/bin/../lib/gcc/arm-none-eabi/9.3.1/../../../../arm-none-eabi/lib/thumb/v7-m/nofp\libg.a(lib_a-assert.o)
                                 0x43 (size before relaxing)
 *fill*         0x0800d7b3        0x1 
 .rodata._setlocale_r.str1.4
                0x0800d7b4        0xa d:/program/gcc-arm/gcc-arm-none-eabi-9-2020-q2-update-win32/bin/../lib/gcc/arm-none-eabi/9.3.1/../../../../arm-none-eabi/lib/thumb/v7-m/nofp\libg.a(lib_a-locale.o)
                                  0xd (size before relaxing)
 *fill*         0x0800d7be        0x2 
 .rodata.str1.4
                0x0800d7c0        0x2 d:/program/gcc-arm/gcc-arm-none-eabi-9-2020-q2-update-win32/bin/../lib/gcc/arm-none-eabi/9.3.1/../../../../arm-none-eabi/lib/thumb/v7-m/nofp\libg.a(lib_a-locale.o)
 *fill*         0x0800d7c2        0x2 
 .rodata._ctype_
                0x0800d7c4      0x101 d:/program/gcc-arm/gcc-arm-none-eabi-9-2020-q2-update-win32/bin/../lib/gcc/arm-none-eabi/9.3.1/../../../../arm-none-eabi/lib/thumb/v7-m/nofp\libg.a(lib_a-ctype_.o)
                0x0800d7c4                _ctype_
                0x0800d8c8                . = ALIGN (0x4)
 *fill*         0x0800d8c5        0x3 

.ARM.extab      0x0800d8c8       0x24
 *(.ARM.extab* .gnu.linkonce.armextab.*)
 .ARM.extab.text._Z31dmp_load_motion_driver_firmwarev
                0x0800d8c8        0xc CMakeFiles/mpu6050.elf.dir/dmp/Src/inv_mpu_dmp_motion_driver.cpp.obj
 .ARM.extab     0x0800d8d4       0x18 d:/program/gcc-arm/gcc-arm-none-eabi-9-2020-q2-update-win32/bin/../lib/gcc/arm-none-eabi/9.3.1/thumb/v7-m/nofp\libgcc.a(pr-support.o)

.ARM            0x0800d8ec      0x218
                0x0800d8ec                __exidx_start = .
 *(.ARM.exidx*)
 .ARM.exidx.text.Error_Handler
                0x0800d9a4        0x0 CMakeFiles/mpu6050.elf.dir/Core/Src/main.cpp.obj
                                  0x8 (size before relaxing)
 .ARM.exidx.text._Z18SystemClock_Configv
                0x0800d9a4        0x8 CMakeFiles/mpu6050.elf.dir/Core/Src/main.cpp.obj
 .ARM.exidx.text.main
                0x0800d9ac        0x8 CMakeFiles/mpu6050.elf.dir/Core/Src/main.cpp.obj
 .ARM.exidx.text._ZL15inv_row_2_scalePKa
                0x0800d9b4        0x8 CMakeFiles/mpu6050.elf.dir/Core/Src/mpu6050.cpp.obj
 .ARM.exidx.text._ZL32inv_orientation_matrix_to_scalarPKa
                0x0800d9bc        0x0 CMakeFiles/mpu6050.elf.dir/Core/Src/mpu6050.cpp.obj
                                  0x8 (size before relaxing)
 .ARM.exidx.text._ZN13MPU6050Handle13run_self_testEv
                0x0800d9bc        0x8 CMakeFiles/mpu6050.elf.dir/Core/Src/mpu6050.cpp.obj
 .ARM.exidx.text._ZN13MPU6050Handle12mpu_dmp_initEv
                0x0800d9c4        0x8 CMakeFiles/mpu6050.elf.dir/Core/Src/mpu6050.cpp.obj
 .ARM.exidx.text._ZN13MPU6050Handle16mpu_dmp_get_dataEPfS0_S0_
                0x0800d9cc       0x10 CMakeFiles/mpu6050.elf.dir/Core/Src/mpu6050.cpp.obj
                                  0x8 (size before relaxing)
 .ARM.exidx.text._Z8delay_usm
                0x0800d9dc        0x0 CMakeFiles/mpu6050.elf.dir/IIC/Src/delay.cpp.obj
                                  0x8 (size before relaxing)
 .ARM.exidx.text._Z8delay_msm
                0x0800d9dc        0x0 CMakeFiles/mpu6050.elf.dir/IIC/Src/delay.cpp.obj
                                  0x8 (size before relaxing)
 .ARM.exidx.text._Z9IIC_Startv
                0x0800d9dc        0x8 CMakeFiles/mpu6050.elf.dir/IIC/Src/iic_drv.cpp.obj
 .ARM.exidx.text._Z8IIC_Stopv
                0x0800d9e4        0x0 CMakeFiles/mpu6050.elf.dir/IIC/Src/iic_drv.cpp.obj
                                  0x8 (size before relaxing)
 .ARM.exidx.text._Z12IIC_Wait_Ackv
                0x0800d9e4        0x8 CMakeFiles/mpu6050.elf.dir/IIC/Src/iic_drv.cpp.obj
 .ARM.exidx.text._Z7IIC_Askv
                0x0800d9ec        0x8 CMakeFiles/mpu6050.elf.dir/IIC/Src/iic_drv.cpp.obj
 .ARM.exidx.text._Z8IIC_NAckv
                0x0800d9f4        0x0 CMakeFiles/mpu6050.elf.dir/IIC/Src/iic_drv.cpp.obj
                                  0x8 (size before relaxing)
 .ARM.exidx.text._Z13IIC_Send_Byteh
                0x0800d9f4        0x8 CMakeFiles/mpu6050.elf.dir/IIC/Src/iic_drv.cpp.obj
 .ARM.exidx.text._Z13IIC_Read_Bytev
                0x0800d9fc        0x0 CMakeFiles/mpu6050.elf.dir/IIC/Src/iic_drv.cpp.obj
                                  0x8 (size before relaxing)
 .ARM.exidx.text._Z14IIC_Read_nBytehhPht
                0x0800d9fc        0x8 CMakeFiles/mpu6050.elf.dir/IIC/Src/iic_drv.cpp.obj
 .ARM.exidx.text._Z15IIC_Write_nBytehhPht
                0x0800da04        0x0 CMakeFiles/mpu6050.elf.dir/IIC/Src/iic_drv.cpp.obj
                                  0x8 (size before relaxing)
 .ARM.exidx.text._ZL20get_accel_prod_shiftPf
                0x0800da04        0x8 CMakeFiles/mpu6050.elf.dir/dmp/Src/inv_mpu.cpp.obj
 .ARM.exidx.text._ZL15accel_self_testPlS_
                0x0800da0c        0x8 CMakeFiles/mpu6050.elf.dir/dmp/Src/inv_mpu.cpp.obj
 .ARM.exidx.text._ZL14gyro_self_testPlS_
                0x0800da14        0x8 CMakeFiles/mpu6050.elf.dir/dmp/Src/inv_mpu.cpp.obj
 .ARM.exidx.text._ZL14set_int_enableh
                0x0800da1c        0x8 CMakeFiles/mpu6050.elf.dir/dmp/Src/inv_mpu.cpp.obj
 .ARM.exidx.text._ZL13get_st_biasesPlS_h
                0x0800da24        0x8 CMakeFiles/mpu6050.elf.dir/dmp/Src/inv_mpu.cpp.obj
 .ARM.exidx.text._Z14mpu_reset_fifov
                0x0800da2c        0x8 CMakeFiles/mpu6050.elf.dir/dmp/Src/inv_mpu.cpp.obj
 .ARM.exidx.text._Z16mpu_get_gyro_fsrPt
                0x0800da34        0x8 CMakeFiles/mpu6050.elf.dir/dmp/Src/inv_mpu.cpp.obj
 .ARM.exidx.text._Z16mpu_set_gyro_fsrt
                0x0800da3c        0x8 CMakeFiles/mpu6050.elf.dir/dmp/Src/inv_mpu.cpp.obj
 .ARM.exidx.text._Z17mpu_get_accel_fsrPh
                0x0800da44        0x8 CMakeFiles/mpu6050.elf.dir/dmp/Src/inv_mpu.cpp.obj
 .ARM.exidx.text._Z17mpu_set_accel_fsrh
                0x0800da4c        0x8 CMakeFiles/mpu6050.elf.dir/dmp/Src/inv_mpu.cpp.obj
 .ARM.exidx.text._Z11mpu_get_lpfPt
                0x0800da54        0x8 CMakeFiles/mpu6050.elf.dir/dmp/Src/inv_mpu.cpp.obj
 .ARM.exidx.text._Z11mpu_set_lpft
                0x0800da5c        0x8 CMakeFiles/mpu6050.elf.dir/dmp/Src/inv_mpu.cpp.obj
 .ARM.exidx.text._Z19mpu_get_sample_ratePt
                0x0800da64        0x8 CMakeFiles/mpu6050.elf.dir/dmp/Src/inv_mpu.cpp.obj
 .ARM.exidx.text._Z17mpu_get_gyro_sensPf
                0x0800da6c        0x0 CMakeFiles/mpu6050.elf.dir/dmp/Src/inv_mpu.cpp.obj
                                  0x8 (size before relaxing)
 .ARM.exidx.text._Z18mpu_get_accel_sensPt
                0x0800da6c        0x0 CMakeFiles/mpu6050.elf.dir/dmp/Src/inv_mpu.cpp.obj
                                  0x8 (size before relaxing)
 .ARM.exidx.text._Z19mpu_get_fifo_configPh
                0x0800da6c        0x0 CMakeFiles/mpu6050.elf.dir/dmp/Src/inv_mpu.cpp.obj
                                  0x8 (size before relaxing)
 .ARM.exidx.text._Z18mpu_configure_fifoh
                0x0800da6c        0x8 CMakeFiles/mpu6050.elf.dir/dmp/Src/inv_mpu.cpp.obj
 .ARM.exidx.text._Z20mpu_read_fifo_streamtPhS_
                0x0800da74        0x8 CMakeFiles/mpu6050.elf.dir/dmp/Src/inv_mpu.cpp.obj
 .ARM.exidx.text._Z14mpu_set_bypassh
                0x0800da7c        0x8 CMakeFiles/mpu6050.elf.dir/dmp/Src/inv_mpu.cpp.obj
 .ARM.exidx.text._Z19mpu_set_int_latchedh
                0x0800da84        0x0 CMakeFiles/mpu6050.elf.dir/dmp/Src/inv_mpu.cpp.obj
                                  0x8 (size before relaxing)
 .ARM.exidx.text._Z17mpu_lp_accel_modet
                0x0800da84        0x0 CMakeFiles/mpu6050.elf.dir/dmp/Src/inv_mpu.cpp.obj
                                  0x8 (size before relaxing)
 .ARM.exidx.text._Z19mpu_set_sample_ratet
                0x0800da84        0x0 CMakeFiles/mpu6050.elf.dir/dmp/Src/inv_mpu.cpp.obj
                                  0x8 (size before relaxing)
 .ARM.exidx.text._Z15mpu_set_sensorsh
                0x0800da84        0x0 CMakeFiles/mpu6050.elf.dir/dmp/Src/inv_mpu.cpp.obj
                                  0x8 (size before relaxing)
 .ARM.exidx.text._Z8mpu_initP11int_param_s
                0x0800da84        0x0 CMakeFiles/mpu6050.elf.dir/dmp/Src/inv_mpu.cpp.obj
                                  0x8 (size before relaxing)
 .ARM.exidx.text._Z13mpu_write_memttPh
                0x0800da84        0x8 CMakeFiles/mpu6050.elf.dir/dmp/Src/inv_mpu.cpp.obj
 .ARM.exidx.text._Z12mpu_read_memttPh
                0x0800da8c        0x0 CMakeFiles/mpu6050.elf.dir/dmp/Src/inv_mpu.cpp.obj
                                  0x8 (size before relaxing)
 .ARM.exidx.text._Z17mpu_load_firmwaretPKhtt
                0x0800da8c        0x8 CMakeFiles/mpu6050.elf.dir/dmp/Src/inv_mpu.cpp.obj
 .ARM.exidx.text._Z17mpu_set_dmp_stateh
                0x0800da94        0x8 CMakeFiles/mpu6050.elf.dir/dmp/Src/inv_mpu.cpp.obj
 .ARM.exidx.text._Z17mpu_run_self_testPlS_
                0x0800da9c        0x8 CMakeFiles/mpu6050.elf.dir/dmp/Src/inv_mpu.cpp.obj
 .ARM.exidx.text._ZL14decode_gesturePh
                0x0800daa4        0x8 CMakeFiles/mpu6050.elf.dir/dmp/Src/inv_mpu_dmp_motion_driver.cpp.obj
 .ARM.exidx.text._Z31dmp_load_motion_driver_firmwarev
                0x0800daac        0x8 CMakeFiles/mpu6050.elf.dir/dmp/Src/inv_mpu_dmp_motion_driver.cpp.obj
 .ARM.exidx.text._Z19dmp_set_orientationt
                0x0800dab4        0x8 CMakeFiles/mpu6050.elf.dir/dmp/Src/inv_mpu_dmp_motion_driver.cpp.obj
 .ARM.exidx.text._Z17dmp_set_gyro_biasPl
                0x0800dabc        0x8 CMakeFiles/mpu6050.elf.dir/dmp/Src/inv_mpu_dmp_motion_driver.cpp.obj
 .ARM.exidx.text._Z18dmp_set_accel_biasPl
                0x0800dac4        0x8 CMakeFiles/mpu6050.elf.dir/dmp/Src/inv_mpu_dmp_motion_driver.cpp.obj
 .ARM.exidx.text._Z18dmp_set_tap_threshht
                0x0800dacc        0x8 CMakeFiles/mpu6050.elf.dir/dmp/Src/inv_mpu_dmp_motion_driver.cpp.obj
 .ARM.exidx.text._Z16dmp_set_tap_axesh
                0x0800dad4        0x8 CMakeFiles/mpu6050.elf.dir/dmp/Src/inv_mpu_dmp_motion_driver.cpp.obj
 .ARM.exidx.text._Z17dmp_set_tap_counth
                0x0800dadc        0x0 CMakeFiles/mpu6050.elf.dir/dmp/Src/inv_mpu_dmp_motion_driver.cpp.obj
                                  0x8 (size before relaxing)
 .ARM.exidx.text._Z16dmp_set_tap_timet
                0x0800dadc        0x0 CMakeFiles/mpu6050.elf.dir/dmp/Src/inv_mpu_dmp_motion_driver.cpp.obj
                                  0x8 (size before relaxing)
 .ARM.exidx.text._Z22dmp_set_tap_time_multit
                0x0800dadc        0x0 CMakeFiles/mpu6050.elf.dir/dmp/Src/inv_mpu_dmp_motion_driver.cpp.obj
                                  0x8 (size before relaxing)
 .ARM.exidx.text._Z27dmp_set_shake_reject_threshlt
                0x0800dadc        0x0 CMakeFiles/mpu6050.elf.dir/dmp/Src/inv_mpu_dmp_motion_driver.cpp.obj
                                  0x8 (size before relaxing)
 .ARM.exidx.text._Z25dmp_set_shake_reject_timet
                0x0800dadc        0x0 CMakeFiles/mpu6050.elf.dir/dmp/Src/inv_mpu_dmp_motion_driver.cpp.obj
                                  0x8 (size before relaxing)
 .ARM.exidx.text._Z28dmp_set_shake_reject_timeoutt
                0x0800dadc        0x0 CMakeFiles/mpu6050.elf.dir/dmp/Src/inv_mpu_dmp_motion_driver.cpp.obj
                                  0x8 (size before relaxing)
 .ARM.exidx.text._Z19dmp_enable_gyro_calh
                0x0800dadc        0x8 CMakeFiles/mpu6050.elf.dir/dmp/Src/inv_mpu_dmp_motion_driver.cpp.obj
 .ARM.exidx.text._Z18dmp_enable_lp_quath
                0x0800dae4        0x8 CMakeFiles/mpu6050.elf.dir/dmp/Src/inv_mpu_dmp_motion_driver.cpp.obj
 .ARM.exidx.text._Z21dmp_enable_6x_lp_quath
                0x0800daec        0x0 CMakeFiles/mpu6050.elf.dir/dmp/Src/inv_mpu_dmp_motion_driver.cpp.obj
                                  0x8 (size before relaxing)
 .ARM.exidx.text._Z18dmp_enable_featuret
                0x0800daec        0x8 CMakeFiles/mpu6050.elf.dir/dmp/Src/inv_mpu_dmp_motion_driver.cpp.obj
 .ARM.exidx.text._Z13dmp_read_fifoPsS_PlPmS_Ph
                0x0800daf4       0x10 CMakeFiles/mpu6050.elf.dir/dmp/Src/inv_mpu_dmp_motion_driver.cpp.obj
                                  0x8 (size before relaxing)
 .ARM.exidx     0x0800d8ec        0x8 d:/program/gcc-arm/gcc-arm-none-eabi-9-2020-q2-update-win32/bin/../lib/gcc/arm-none-eabi/9.3.1/thumb/v7-m/nofp\libgcc.a(_udivmoddi4.o)
 .ARM.exidx     0x0800d8f4       0x78 d:/program/gcc-arm/gcc-arm-none-eabi-9-2020-q2-update-win32/bin/../lib/gcc/arm-none-eabi/9.3.1/thumb/v7-m/nofp\libgcc.a(unwind-arm.o)
                                 0xd8 (size before relaxing)
 .ARM.exidx     0x0800d96c       0x38 d:/program/gcc-arm/gcc-arm-none-eabi-9-2020-q2-update-win32/bin/../lib/gcc/arm-none-eabi/9.3.1/thumb/v7-m/nofp\libgcc.a(pr-support.o)
                0x0800db04                __exidx_end = .

.rel.dyn        0x0800db04        0x0
 .rel.iplt      0x0800db04        0x0 d:/program/gcc-arm/gcc-arm-none-eabi-9-2020-q2-update-win32/bin/../lib/gcc/arm-none-eabi/9.3.1/thumb/v7-m/nofp/crtbegin.o

.preinit_array  0x0800db04        0x0
                0x0800db04                PROVIDE (__preinit_array_start = .)
 *(.preinit_array*)
                0x0800db04                PROVIDE (__preinit_array_end = .)

.init_array     0x0800db04        0x8
                0x0800db04                PROVIDE (__init_array_start = .)
 *(SORT_BY_NAME(.init_array.*))
 .init_array.00000
                0x0800db04        0x4 d:/program/gcc-arm/gcc-arm-none-eabi-9-2020-q2-update-win32/bin/../lib/gcc/arm-none-eabi/9.3.1/../../../../arm-none-eabi/lib/thumb/v7-m/nofp\libg.a(lib_a-__call_atexit.o)
 *(.init_array*)
 .init_array    0x0800db08        0x4 d:/program/gcc-arm/gcc-arm-none-eabi-9-2020-q2-update-win32/bin/../lib/gcc/arm-none-eabi/9.3.1/thumb/v7-m/nofp/crtbegin.o
                0x0800db0c                PROVIDE (__init_array_end = .)

.fini_array     0x0800db0c        0x4
                0x0800db0c                PROVIDE (__fini_array_start = .)
 *(SORT_BY_NAME(.fini_array.*))
 *(.fini_array*)
 .fini_array    0x0800db0c        0x4 d:/program/gcc-arm/gcc-arm-none-eabi-9-2020-q2-update-win32/bin/../lib/gcc/arm-none-eabi/9.3.1/thumb/v7-m/nofp/crtbegin.o
                0x0800db10                PROVIDE (__fini_array_end = .)
                0x0800db10                _sidata = LOADADDR (.data)

.data           0x20000000      0xa00 load address 0x0800db10
                0x20000000                . = ALIGN (0x4)
                0x20000000                _sdata = .
 *(.data)
 *(.data*)
 .data._ZL16gyro_orientation
                0x20000000        0x9 CMakeFiles/mpu6050.elf.dir/Core/Src/mpu6050.cpp.obj
 *fill*         0x20000009        0x7 
 .data.q30      0x20000010        0x8 CMakeFiles/mpu6050.elf.dir/Core/Src/mpu6050.cpp.obj
                0x20000010                q30
 .data.SystemCoreClock
                0x20000018        0x4 CMakeFiles/mpu6050.elf.dir/Core/Src/system_stm32f1xx.c.obj
                0x20000018                SystemCoreClock
 .data.uwTickFreq
                0x2000001c        0x1 CMakeFiles/mpu6050.elf.dir/Drivers/STM32F1xx_HAL_Driver/Src/stm32f1xx_hal.c.obj
                0x2000001c                uwTickFreq
 *fill*         0x2000001d        0x3 
 .data.uwTickPrio
                0x20000020        0x4 CMakeFiles/mpu6050.elf.dir/Drivers/STM32F1xx_HAL_Driver/Src/stm32f1xx_hal.c.obj
                0x20000020                uwTickPrio
 .data._ZL2st   0x20000024       0x2c CMakeFiles/mpu6050.elf.dir/dmp/Src/inv_mpu.cpp.obj
 .data.__fdlib_version
                0x20000050        0x1 d:/program/gcc-arm/gcc-arm-none-eabi-9-2020-q2-update-win32/bin/../lib/gcc/arm-none-eabi/9.3.1/../../../../arm-none-eabi/lib/thumb/v7-m/nofp\libm.a(lib_a-s_lib_ver.o)
                0x20000050                __fdlib_version
 *fill*         0x20000051        0x3 
 .data._impure_ptr
                0x20000054        0x4 d:/program/gcc-arm/gcc-arm-none-eabi-9-2020-q2-update-win32/bin/../lib/gcc/arm-none-eabi/9.3.1/../../../../arm-none-eabi/lib/thumb/v7-m/nofp\libg.a(lib_a-impure.o)
                0x20000054                _impure_ptr
 .data.impure_data
                0x20000058      0x428 d:/program/gcc-arm/gcc-arm-none-eabi-9-2020-q2-update-win32/bin/../lib/gcc/arm-none-eabi/9.3.1/../../../../arm-none-eabi/lib/thumb/v7-m/nofp\libg.a(lib_a-impure.o)
 .data.__atexit_recursive_mutex
                0x20000480        0x4 d:/program/gcc-arm/gcc-arm-none-eabi-9-2020-q2-update-win32/bin/../lib/gcc/arm-none-eabi/9.3.1/../../../../arm-none-eabi/lib/thumb/v7-m/nofp\libg.a(lib_a-__call_atexit.o)
                0x20000480                __atexit_recursive_mutex
 .data.__malloc_av_
                0x20000484      0x408 d:/program/gcc-arm/gcc-arm-none-eabi-9-2020-q2-update-win32/bin/../lib/gcc/arm-none-eabi/9.3.1/../../../../arm-none-eabi/lib/thumb/v7-m/nofp\libg.a(lib_a-mallocr.o)
                0x20000484                __malloc_av_
 .data.__malloc_sbrk_base
                0x2000088c        0x4 d:/program/gcc-arm/gcc-arm-none-eabi-9-2020-q2-update-win32/bin/../lib/gcc/arm-none-eabi/9.3.1/../../../../arm-none-eabi/lib/thumb/v7-m/nofp\libg.a(lib_a-mallocr.o)
                0x2000088c                __malloc_sbrk_base
 .data.__malloc_trim_threshold
                0x20000890        0x4 d:/program/gcc-arm/gcc-arm-none-eabi-9-2020-q2-update-win32/bin/../lib/gcc/arm-none-eabi/9.3.1/../../../../arm-none-eabi/lib/thumb/v7-m/nofp\libg.a(lib_a-mallocr.o)
                0x20000890                __malloc_trim_threshold
 .data.__global_locale
                0x20000894      0x16c d:/program/gcc-arm/gcc-arm-none-eabi-9-2020-q2-update-win32/bin/../lib/gcc/arm-none-eabi/9.3.1/../../../../arm-none-eabi/lib/thumb/v7-m/nofp\libg.a(lib_a-locale.o)
                0x20000894                __global_locale
                0x20000a00                . = ALIGN (0x4)
                0x20000a00                _edata = .

.igot.plt       0x20000a00        0x0 load address 0x0800e510
 .igot.plt      0x20000a00        0x0 d:/program/gcc-arm/gcc-arm-none-eabi-9-2020-q2-update-win32/bin/../lib/gcc/arm-none-eabi/9.3.1/thumb/v7-m/nofp/crtbegin.o
                0x20000a00                . = ALIGN (0x4)

.bss            0x20000a00       0xd8 load address 0x0800e510
                0x20000a00                _sbss = .
                0x20000a00                __bss_start__ = _sbss
 *(.bss)
 .bss           0x20000a00       0x1c d:/program/gcc-arm/gcc-arm-none-eabi-9-2020-q2-update-win32/bin/../lib/gcc/arm-none-eabi/9.3.1/thumb/v7-m/nofp/crtbegin.o
 *(.bss*)
 .bss.gHuart    0x20000a1c        0x4 CMakeFiles/mpu6050.elf.dir/Core/Src/retarget.c.obj
                0x20000a1c                gHuart
 .bss.heap_end.6022
                0x20000a20        0x4 CMakeFiles/mpu6050.elf.dir/Core/Src/syscalls.c.obj
 .bss.huart1    0x20000a24       0x44 CMakeFiles/mpu6050.elf.dir/Core/Src/usart.c.obj
                0x20000a24                huart1
 .bss.uwTick    0x20000a68        0x4 CMakeFiles/mpu6050.elf.dir/Drivers/STM32F1xx_HAL_Driver/Src/stm32f1xx_hal.c.obj
                0x20000a68                uwTick
 .bss._ZL3dmp   0x20000a6c       0x10 CMakeFiles/mpu6050.elf.dir/dmp/Src/inv_mpu_dmp_motion_driver.cpp.obj
 .bss.__malloc_current_mallinfo
                0x20000a7c       0x28 d:/program/gcc-arm/gcc-arm-none-eabi-9-2020-q2-update-win32/bin/../lib/gcc/arm-none-eabi/9.3.1/../../../../arm-none-eabi/lib/thumb/v7-m/nofp\libg.a(lib_a-mallocr.o)
                0x20000a7c                __malloc_current_mallinfo
 .bss.__malloc_max_sbrked_mem
                0x20000aa4        0x4 d:/program/gcc-arm/gcc-arm-none-eabi-9-2020-q2-update-win32/bin/../lib/gcc/arm-none-eabi/9.3.1/../../../../arm-none-eabi/lib/thumb/v7-m/nofp\libg.a(lib_a-mallocr.o)
                0x20000aa4                __malloc_max_sbrked_mem
 .bss.__malloc_max_total_mem
                0x20000aa8        0x4 d:/program/gcc-arm/gcc-arm-none-eabi-9-2020-q2-update-win32/bin/../lib/gcc/arm-none-eabi/9.3.1/../../../../arm-none-eabi/lib/thumb/v7-m/nofp\libg.a(lib_a-mallocr.o)
                0x20000aa8                __malloc_max_total_mem
 .bss.__malloc_top_pad
                0x20000aac        0x4 d:/program/gcc-arm/gcc-arm-none-eabi-9-2020-q2-update-win32/bin/../lib/gcc/arm-none-eabi/9.3.1/../../../../arm-none-eabi/lib/thumb/v7-m/nofp\libg.a(lib_a-mallocr.o)
                0x20000aac                __malloc_top_pad
 *(COMMON)
 COMMON         0x20000ab0       0x21 d:/program/gcc-arm/gcc-arm-none-eabi-9-2020-q2-update-win32/bin/../lib/gcc/arm-none-eabi/9.3.1/../../../../arm-none-eabi/lib/thumb/v7-m/nofp\libg.a(lib_a-lock.o)
                0x20000ab0                __lock___atexit_recursive_mutex
                0x20000ab4                __lock___arc4random_mutex
                0x20000ab8                __lock___env_recursive_mutex
                0x20000abc                __lock___sinit_recursive_mutex
                0x20000ac0                __lock___malloc_recursive_mutex
                0x20000ac4                __lock___at_quick_exit_mutex
                0x20000ac8                __lock___dd_hash_mutex
                0x20000acc                __lock___tz_mutex
                0x20000ad0                __lock___sfp_recursive_mutex
 *fill*         0x20000ad1        0x3 
 COMMON         0x20000ad4        0x4 d:/program/gcc-arm/gcc-arm-none-eabi-9-2020-q2-update-win32/bin/../lib/gcc/arm-none-eabi/9.3.1/../../../../arm-none-eabi/lib/thumb/v7-m/nofp\libg.a(lib_a-reent.o)
                0x20000ad4                errno
                0x20000ad8                . = ALIGN (0x4)
                0x20000ad8                _ebss = .
                0x20000ad8                __bss_end__ = _ebss

._user_heap_stack
                0x20000ad8      0x600 load address 0x0800e510
                0x20000ad8                . = ALIGN (0x8)
                0x20000ad8                PROVIDE (end = .)
                [!provide]                PROVIDE (_end = .)
                0x20000cd8                . = (. + _Min_Heap_Size)
 *fill*         0x20000ad8      0x200 
                0x200010d8                . = (. + _Min_Stack_Size)
 *fill*         0x20000cd8      0x400 
                0x200010d8                . = ALIGN (0x8)

/DISCARD/
 libc.a(*)
 libm.a(*)
 libgcc.a(*)

.ARM.attributes
                0x00000000       0x29
 *(.ARM.attributes)
 .ARM.attributes
                0x00000000       0x1d d:/program/gcc-arm/gcc-arm-none-eabi-9-2020-q2-update-win32/bin/../lib/gcc/arm-none-eabi/9.3.1/thumb/v7-m/nofp/crti.o
 .ARM.attributes
                0x0000001d       0x2d d:/program/gcc-arm/gcc-arm-none-eabi-9-2020-q2-update-win32/bin/../lib/gcc/arm-none-eabi/9.3.1/thumb/v7-m/nofp/crtbegin.o
 .ARM.attributes
                0x0000004a       0x2d CMakeFiles/mpu6050.elf.dir/Core/Src/gpio.c.obj
 .ARM.attributes
                0x00000077       0x2d CMakeFiles/mpu6050.elf.dir/Core/Src/main.cpp.obj
 .ARM.attributes
                0x000000a4       0x2d CMakeFiles/mpu6050.elf.dir/Core/Src/mpu6050.cpp.obj
 .ARM.attributes
                0x000000d1       0x2d CMakeFiles/mpu6050.elf.dir/Core/Src/retarget.c.obj
 .ARM.attributes
                0x000000fe       0x2d CMakeFiles/mpu6050.elf.dir/Core/Src/stm32f1xx_hal_msp.c.obj
 .ARM.attributes
                0x0000012b       0x2d CMakeFiles/mpu6050.elf.dir/Core/Src/stm32f1xx_it.c.obj
 .ARM.attributes
                0x00000158       0x2d CMakeFiles/mpu6050.elf.dir/Core/Src/syscalls.c.obj
 .ARM.attributes
                0x00000185       0x2d CMakeFiles/mpu6050.elf.dir/Core/Src/system_stm32f1xx.c.obj
 .ARM.attributes
                0x000001b2       0x2d CMakeFiles/mpu6050.elf.dir/Core/Src/usart.c.obj
 .ARM.attributes
                0x000001df       0x2d CMakeFiles/mpu6050.elf.dir/Drivers/STM32F1xx_HAL_Driver/Src/stm32f1xx_hal.c.obj
 .ARM.attributes
                0x0000020c       0x2d CMakeFiles/mpu6050.elf.dir/Drivers/STM32F1xx_HAL_Driver/Src/stm32f1xx_hal_cortex.c.obj
 .ARM.attributes
                0x00000239       0x2d CMakeFiles/mpu6050.elf.dir/Drivers/STM32F1xx_HAL_Driver/Src/stm32f1xx_hal_gpio.c.obj
 .ARM.attributes
                0x00000266       0x2d CMakeFiles/mpu6050.elf.dir/Drivers/STM32F1xx_HAL_Driver/Src/stm32f1xx_hal_rcc.c.obj
 .ARM.attributes
                0x00000293       0x2d CMakeFiles/mpu6050.elf.dir/Drivers/STM32F1xx_HAL_Driver/Src/stm32f1xx_hal_uart.c.obj
 .ARM.attributes
                0x000002c0       0x2d CMakeFiles/mpu6050.elf.dir/IIC/Src/delay.cpp.obj
 .ARM.attributes
                0x000002ed       0x2d CMakeFiles/mpu6050.elf.dir/IIC/Src/iic_drv.cpp.obj
 .ARM.attributes
                0x0000031a       0x2d CMakeFiles/mpu6050.elf.dir/dmp/Src/inv_mpu.cpp.obj
 .ARM.attributes
                0x00000347       0x2d CMakeFiles/mpu6050.elf.dir/dmp/Src/inv_mpu_dmp_motion_driver.cpp.obj
 .ARM.attributes
                0x00000374       0x21 CMakeFiles/mpu6050.elf.dir/startup/startup_stm32f103xb.s.obj
 .ARM.attributes
                0x00000395       0x2d d:/program/gcc-arm/gcc-arm-none-eabi-9-2020-q2-update-win32/bin/../lib/gcc/arm-none-eabi/9.3.1/../../../../arm-none-eabi/lib/thumb/v7-m/nofp\libm.a(lib_a-wf_asin.o)
 .ARM.attributes
                0x000003c2       0x2d d:/program/gcc-arm/gcc-arm-none-eabi-9-2020-q2-update-win32/bin/../lib/gcc/arm-none-eabi/9.3.1/../../../../arm-none-eabi/lib/thumb/v7-m/nofp\libm.a(lib_a-wf_atan2.o)
 .ARM.attributes
                0x000003ef       0x2d d:/program/gcc-arm/gcc-arm-none-eabi-9-2020-q2-update-win32/bin/../lib/gcc/arm-none-eabi/9.3.1/../../../../arm-none-eabi/lib/thumb/v7-m/nofp\libm.a(lib_a-ef_asin.o)
 .ARM.attributes
                0x0000041c       0x2d d:/program/gcc-arm/gcc-arm-none-eabi-9-2020-q2-update-win32/bin/../lib/gcc/arm-none-eabi/9.3.1/../../../../arm-none-eabi/lib/thumb/v7-m/nofp\libm.a(lib_a-ef_atan2.o)
 .ARM.attributes
                0x00000449       0x2d d:/program/gcc-arm/gcc-arm-none-eabi-9-2020-q2-update-win32/bin/../lib/gcc/arm-none-eabi/9.3.1/../../../../arm-none-eabi/lib/thumb/v7-m/nofp\libm.a(lib_a-ef_sqrt.o)
 .ARM.attributes
                0x00000476       0x2d d:/program/gcc-arm/gcc-arm-none-eabi-9-2020-q2-update-win32/bin/../lib/gcc/arm-none-eabi/9.3.1/../../../../arm-none-eabi/lib/thumb/v7-m/nofp\libm.a(lib_a-s_lib_ver.o)
 .ARM.attributes
                0x000004a3       0x2d d:/program/gcc-arm/gcc-arm-none-eabi-9-2020-q2-update-win32/bin/../lib/gcc/arm-none-eabi/9.3.1/../../../../arm-none-eabi/lib/thumb/v7-m/nofp\libm.a(lib_a-sf_atan.o)
 .ARM.attributes
                0x000004d0       0x2d d:/program/gcc-arm/gcc-arm-none-eabi-9-2020-q2-update-win32/bin/../lib/gcc/arm-none-eabi/9.3.1/../../../../arm-none-eabi/lib/thumb/v7-m/nofp\libm.a(lib_a-sf_fabs.o)
 .ARM.attributes
                0x000004fd       0x2d d:/program/gcc-arm/gcc-arm-none-eabi-9-2020-q2-update-win32/bin/../lib/gcc/arm-none-eabi/9.3.1/../../../../arm-none-eabi/lib/thumb/v7-m/nofp\libm.a(lib_a-sf_nan.o)
 .ARM.attributes
                0x0000052a       0x1d d:/program/gcc-arm/gcc-arm-none-eabi-9-2020-q2-update-win32/bin/../lib/gcc/arm-none-eabi/9.3.1/thumb/v7-m/nofp\libgcc.a(_arm_addsubdf3.o)
 .ARM.attributes
                0x00000547       0x1d d:/program/gcc-arm/gcc-arm-none-eabi-9-2020-q2-update-win32/bin/../lib/gcc/arm-none-eabi/9.3.1/thumb/v7-m/nofp\libgcc.a(_arm_muldivdf3.o)
 .ARM.attributes
                0x00000564       0x1d d:/program/gcc-arm/gcc-arm-none-eabi-9-2020-q2-update-win32/bin/../lib/gcc/arm-none-eabi/9.3.1/thumb/v7-m/nofp\libgcc.a(_arm_truncdfsf2.o)
 .ARM.attributes
                0x00000581       0x1d d:/program/gcc-arm/gcc-arm-none-eabi-9-2020-q2-update-win32/bin/../lib/gcc/arm-none-eabi/9.3.1/thumb/v7-m/nofp\libgcc.a(_arm_addsubsf3.o)
 .ARM.attributes
                0x0000059e       0x1d d:/program/gcc-arm/gcc-arm-none-eabi-9-2020-q2-update-win32/bin/../lib/gcc/arm-none-eabi/9.3.1/thumb/v7-m/nofp\libgcc.a(_arm_muldivsf3.o)
 .ARM.attributes
                0x000005bb       0x1d d:/program/gcc-arm/gcc-arm-none-eabi-9-2020-q2-update-win32/bin/../lib/gcc/arm-none-eabi/9.3.1/thumb/v7-m/nofp\libgcc.a(_arm_cmpsf2.o)
 .ARM.attributes
                0x000005d8       0x1d d:/program/gcc-arm/gcc-arm-none-eabi-9-2020-q2-update-win32/bin/../lib/gcc/arm-none-eabi/9.3.1/thumb/v7-m/nofp\libgcc.a(_arm_unordsf2.o)
 .ARM.attributes
                0x000005f5       0x1d d:/program/gcc-arm/gcc-arm-none-eabi-9-2020-q2-update-win32/bin/../lib/gcc/arm-none-eabi/9.3.1/thumb/v7-m/nofp\libgcc.a(_arm_fixsfsi.o)
 .ARM.attributes
                0x00000612       0x1d d:/program/gcc-arm/gcc-arm-none-eabi-9-2020-q2-update-win32/bin/../lib/gcc/arm-none-eabi/9.3.1/thumb/v7-m/nofp\libgcc.a(_arm_fixunssfsi.o)
 .ARM.attributes
                0x0000062f       0x1d d:/program/gcc-arm/gcc-arm-none-eabi-9-2020-q2-update-win32/bin/../lib/gcc/arm-none-eabi/9.3.1/thumb/v7-m/nofp\libgcc.a(_aeabi_ldivmod.o)
 .ARM.attributes
                0x0000064c       0x2d d:/program/gcc-arm/gcc-arm-none-eabi-9-2020-q2-update-win32/bin/../lib/gcc/arm-none-eabi/9.3.1/thumb/v7-m/nofp\libgcc.a(_udivmoddi4.o)
 .ARM.attributes
                0x00000679       0x1d d:/program/gcc-arm/gcc-arm-none-eabi-9-2020-q2-update-win32/bin/../lib/gcc/arm-none-eabi/9.3.1/thumb/v7-m/nofp\libgcc.a(_dvmd_tls.o)
 .ARM.attributes
                0x00000696       0x2d d:/program/gcc-arm/gcc-arm-none-eabi-9-2020-q2-update-win32/bin/../lib/gcc/arm-none-eabi/9.3.1/../../../../arm-none-eabi/lib/thumb/v7-m/nofp\libg.a(lib_a-abort.o)
 .ARM.attributes
                0x000006c3       0x2d d:/program/gcc-arm/gcc-arm-none-eabi-9-2020-q2-update-win32/bin/../lib/gcc/arm-none-eabi/9.3.1/../../../../arm-none-eabi/lib/thumb/v7-m/nofp\libg.a(lib_a-errno.o)
 .ARM.attributes
                0x000006f0       0x2d d:/program/gcc-arm/gcc-arm-none-eabi-9-2020-q2-update-win32/bin/../lib/gcc/arm-none-eabi/9.3.1/../../../../arm-none-eabi/lib/thumb/v7-m/nofp\libg.a(lib_a-impure.o)
 .ARM.attributes
                0x0000071d       0x2d d:/program/gcc-arm/gcc-arm-none-eabi-9-2020-q2-update-win32/bin/../lib/gcc/arm-none-eabi/9.3.1/../../../../arm-none-eabi/lib/thumb/v7-m/nofp\libg.a(lib_a-init.o)
 .ARM.attributes
                0x0000074a       0x2d d:/program/gcc-arm/gcc-arm-none-eabi-9-2020-q2-update-win32/bin/../lib/gcc/arm-none-eabi/9.3.1/../../../../arm-none-eabi/lib/thumb/v7-m/nofp\libg.a(lib_a-memcmp.o)
 .ARM.attributes
                0x00000777       0x1b d:/program/gcc-arm/gcc-arm-none-eabi-9-2020-q2-update-win32/bin/../lib/gcc/arm-none-eabi/9.3.1/../../../../arm-none-eabi/lib/thumb/v7-m/nofp\libg.a(lib_a-memcpy.o)
 .ARM.attributes
                0x00000792       0x2d d:/program/gcc-arm/gcc-arm-none-eabi-9-2020-q2-update-win32/bin/../lib/gcc/arm-none-eabi/9.3.1/../../../../arm-none-eabi/lib/thumb/v7-m/nofp\libg.a(lib_a-memset.o)
 .ARM.attributes
                0x000007bf       0x2d d:/program/gcc-arm/gcc-arm-none-eabi-9-2020-q2-update-win32/bin/../lib/gcc/arm-none-eabi/9.3.1/../../../../arm-none-eabi/lib/thumb/v7-m/nofp\libg.a(lib_a-printf.o)
 .ARM.attributes
                0x000007ec       0x2d d:/program/gcc-arm/gcc-arm-none-eabi-9-2020-q2-update-win32/bin/../lib/gcc/arm-none-eabi/9.3.1/../../../../arm-none-eabi/lib/thumb/v7-m/nofp\libg.a(lib_a-puts.o)
 .ARM.attributes
                0x00000819       0x2d d:/program/gcc-arm/gcc-arm-none-eabi-9-2020-q2-update-win32/bin/../lib/gcc/arm-none-eabi/9.3.1/../../../../arm-none-eabi/lib/thumb/v7-m/nofp\libg.a(lib_a-setvbuf.o)
 .ARM.attributes
                0x00000846       0x2d d:/program/gcc-arm/gcc-arm-none-eabi-9-2020-q2-update-win32/bin/../lib/gcc/arm-none-eabi/9.3.1/../../../../arm-none-eabi/lib/thumb/v7-m/nofp\libg.a(lib_a-signal.o)
 .ARM.attributes
                0x00000873       0x2d d:/program/gcc-arm/gcc-arm-none-eabi-9-2020-q2-update-win32/bin/../lib/gcc/arm-none-eabi/9.3.1/../../../../arm-none-eabi/lib/thumb/v7-m/nofp\libg.a(lib_a-signalr.o)
 .ARM.attributes
                0x000008a0       0x2d d:/program/gcc-arm/gcc-arm-none-eabi-9-2020-q2-update-win32/bin/../lib/gcc/arm-none-eabi/9.3.1/../../../../arm-none-eabi/lib/thumb/v7-m/nofp\libg.a(lib_a-strlen-stub.o)
 .ARM.attributes
                0x000008cd       0x2d d:/program/gcc-arm/gcc-arm-none-eabi-9-2020-q2-update-win32/bin/../lib/gcc/arm-none-eabi/9.3.1/../../../../arm-none-eabi/lib/thumb/v7-m/nofp\libg.a(lib_a-vfprintf.o)
 .ARM.attributes
                0x000008fa       0x2d d:/program/gcc-arm/gcc-arm-none-eabi-9-2020-q2-update-win32/bin/../lib/gcc/arm-none-eabi/9.3.1/../../../../arm-none-eabi/lib/thumb/v7-m/nofp\libg.a(lib_a-wsetup.o)
 .ARM.attributes
                0x00000927       0x2d d:/program/gcc-arm/gcc-arm-none-eabi-9-2020-q2-update-win32/bin/../lib/gcc/arm-none-eabi/9.3.1/../../../../arm-none-eabi/lib/thumb/v7-m/nofp\libg.a(lib_a-__call_atexit.o)
 .ARM.attributes
                0x00000954       0x2d d:/program/gcc-arm/gcc-arm-none-eabi-9-2020-q2-update-win32/bin/../lib/gcc/arm-none-eabi/9.3.1/../../../../arm-none-eabi/lib/thumb/v7-m/nofp\libg.a(lib_a-atexit.o)
 .ARM.attributes
                0x00000981       0x2d d:/program/gcc-arm/gcc-arm-none-eabi-9-2020-q2-update-win32/bin/../lib/gcc/arm-none-eabi/9.3.1/../../../../arm-none-eabi/lib/thumb/v7-m/nofp\libg.a(lib_a-dtoa.o)
 .ARM.attributes
                0x000009ae       0x2d d:/program/gcc-arm/gcc-arm-none-eabi-9-2020-q2-update-win32/bin/../lib/gcc/arm-none-eabi/9.3.1/../../../../arm-none-eabi/lib/thumb/v7-m/nofp\libg.a(lib_a-fflush.o)
 .ARM.attributes
                0x000009db       0x2d d:/program/gcc-arm/gcc-arm-none-eabi-9-2020-q2-update-win32/bin/../lib/gcc/arm-none-eabi/9.3.1/../../../../arm-none-eabi/lib/thumb/v7-m/nofp\libg.a(lib_a-findfp.o)
 .ARM.attributes
                0x00000a08       0x2d d:/program/gcc-arm/gcc-arm-none-eabi-9-2020-q2-update-win32/bin/../lib/gcc/arm-none-eabi/9.3.1/../../../../arm-none-eabi/lib/thumb/v7-m/nofp\libg.a(lib_a-fini.o)
 .ARM.attributes
                0x00000a35       0x2d d:/program/gcc-arm/gcc-arm-none-eabi-9-2020-q2-update-win32/bin/../lib/gcc/arm-none-eabi/9.3.1/../../../../arm-none-eabi/lib/thumb/v7-m/nofp\libg.a(lib_a-freer.o)
 .ARM.attributes
                0x00000a62       0x2d d:/program/gcc-arm/gcc-arm-none-eabi-9-2020-q2-update-win32/bin/../lib/gcc/arm-none-eabi/9.3.1/../../../../arm-none-eabi/lib/thumb/v7-m/nofp\libg.a(lib_a-fvwrite.o)
 .ARM.attributes
                0x00000a8f       0x2d d:/program/gcc-arm/gcc-arm-none-eabi-9-2020-q2-update-win32/bin/../lib/gcc/arm-none-eabi/9.3.1/../../../../arm-none-eabi/lib/thumb/v7-m/nofp\libg.a(lib_a-fwalk.o)
 .ARM.attributes
                0x00000abc       0x2d d:/program/gcc-arm/gcc-arm-none-eabi-9-2020-q2-update-win32/bin/../lib/gcc/arm-none-eabi/9.3.1/../../../../arm-none-eabi/lib/thumb/v7-m/nofp\libg.a(lib_a-localeconv.o)
 .ARM.attributes
                0x00000ae9       0x2d d:/program/gcc-arm/gcc-arm-none-eabi-9-2020-q2-update-win32/bin/../lib/gcc/arm-none-eabi/9.3.1/../../../../arm-none-eabi/lib/thumb/v7-m/nofp\libg.a(lib_a-lock.o)
 .ARM.attributes
                0x00000b16       0x2d d:/program/gcc-arm/gcc-arm-none-eabi-9-2020-q2-update-win32/bin/../lib/gcc/arm-none-eabi/9.3.1/../../../../arm-none-eabi/lib/thumb/v7-m/nofp\libg.a(lib_a-makebuf.o)
 .ARM.attributes
                0x00000b43       0x2d d:/program/gcc-arm/gcc-arm-none-eabi-9-2020-q2-update-win32/bin/../lib/gcc/arm-none-eabi/9.3.1/../../../../arm-none-eabi/lib/thumb/v7-m/nofp\libg.a(lib_a-malloc.o)
 .ARM.attributes
                0x00000b70       0x2d d:/program/gcc-arm/gcc-arm-none-eabi-9-2020-q2-update-win32/bin/../lib/gcc/arm-none-eabi/9.3.1/../../../../arm-none-eabi/lib/thumb/v7-m/nofp\libg.a(lib_a-mallocr.o)
 .ARM.attributes
                0x00000b9d       0x2d d:/program/gcc-arm/gcc-arm-none-eabi-9-2020-q2-update-win32/bin/../lib/gcc/arm-none-eabi/9.3.1/../../../../arm-none-eabi/lib/thumb/v7-m/nofp\libg.a(lib_a-memchr-stub.o)
 .ARM.attributes
                0x00000bca       0x2d d:/program/gcc-arm/gcc-arm-none-eabi-9-2020-q2-update-win32/bin/../lib/gcc/arm-none-eabi/9.3.1/../../../../arm-none-eabi/lib/thumb/v7-m/nofp\libg.a(lib_a-memmove.o)
 .ARM.attributes
                0x00000bf7       0x2d d:/program/gcc-arm/gcc-arm-none-eabi-9-2020-q2-update-win32/bin/../lib/gcc/arm-none-eabi/9.3.1/../../../../arm-none-eabi/lib/thumb/v7-m/nofp\libg.a(lib_a-mlock.o)
 .ARM.attributes
                0x00000c24       0x2d d:/program/gcc-arm/gcc-arm-none-eabi-9-2020-q2-update-win32/bin/../lib/gcc/arm-none-eabi/9.3.1/../../../../arm-none-eabi/lib/thumb/v7-m/nofp\libg.a(lib_a-mprec.o)
 .ARM.attributes
                0x00000c51       0x2d d:/program/gcc-arm/gcc-arm-none-eabi-9-2020-q2-update-win32/bin/../lib/gcc/arm-none-eabi/9.3.1/../../../../arm-none-eabi/lib/thumb/v7-m/nofp\libg.a(lib_a-reallocr.o)
 .ARM.attributes
                0x00000c7e       0x2d d:/program/gcc-arm/gcc-arm-none-eabi-9-2020-q2-update-win32/bin/../lib/gcc/arm-none-eabi/9.3.1/../../../../arm-none-eabi/lib/thumb/v7-m/nofp\libg.a(lib_a-reent.o)
 .ARM.attributes
                0x00000cab       0x2d d:/program/gcc-arm/gcc-arm-none-eabi-9-2020-q2-update-win32/bin/../lib/gcc/arm-none-eabi/9.3.1/../../../../arm-none-eabi/lib/thumb/v7-m/nofp\libg.a(lib_a-s_frexp.o)
 .ARM.attributes
                0x00000cd8       0x2d d:/program/gcc-arm/gcc-arm-none-eabi-9-2020-q2-update-win32/bin/../lib/gcc/arm-none-eabi/9.3.1/../../../../arm-none-eabi/lib/thumb/v7-m/nofp\libg.a(lib_a-sbrkr.o)
 .ARM.attributes
                0x00000d05       0x2d d:/program/gcc-arm/gcc-arm-none-eabi-9-2020-q2-update-win32/bin/../lib/gcc/arm-none-eabi/9.3.1/../../../../arm-none-eabi/lib/thumb/v7-m/nofp\libg.a(lib_a-stdio.o)
 .ARM.attributes
                0x00000d32       0x2d d:/program/gcc-arm/gcc-arm-none-eabi-9-2020-q2-update-win32/bin/../lib/gcc/arm-none-eabi/9.3.1/../../../../arm-none-eabi/lib/thumb/v7-m/nofp\libg.a(lib_a-strncpy.o)
 .ARM.attributes
                0x00000d5f       0x2d d:/program/gcc-arm/gcc-arm-none-eabi-9-2020-q2-update-win32/bin/../lib/gcc/arm-none-eabi/9.3.1/../../../../arm-none-eabi/lib/thumb/v7-m/nofp\libg.a(lib_a-vfiprintf.o)
 .ARM.attributes
                0x00000d8c       0x2d d:/program/gcc-arm/gcc-arm-none-eabi-9-2020-q2-update-win32/bin/../lib/gcc/arm-none-eabi/9.3.1/../../../../arm-none-eabi/lib/thumb/v7-m/nofp\libg.a(lib_a-writer.o)
 .ARM.attributes
                0x00000db9       0x2d d:/program/gcc-arm/gcc-arm-none-eabi-9-2020-q2-update-win32/bin/../lib/gcc/arm-none-eabi/9.3.1/../../../../arm-none-eabi/lib/thumb/v7-m/nofp\libg.a(lib_a-__atexit.o)
 .ARM.attributes
                0x00000de6       0x2d d:/program/gcc-arm/gcc-arm-none-eabi-9-2020-q2-update-win32/bin/../lib/gcc/arm-none-eabi/9.3.1/../../../../arm-none-eabi/lib/thumb/v7-m/nofp\libg.a(lib_a-assert.o)
 .ARM.attributes
                0x00000e13       0x2d d:/program/gcc-arm/gcc-arm-none-eabi-9-2020-q2-update-win32/bin/../lib/gcc/arm-none-eabi/9.3.1/../../../../arm-none-eabi/lib/thumb/v7-m/nofp\libg.a(lib_a-callocr.o)
 .ARM.attributes
                0x00000e40       0x2d d:/program/gcc-arm/gcc-arm-none-eabi-9-2020-q2-update-win32/bin/../lib/gcc/arm-none-eabi/9.3.1/../../../../arm-none-eabi/lib/thumb/v7-m/nofp\libg.a(lib_a-closer.o)
 .ARM.attributes
                0x00000e6d       0x2d d:/program/gcc-arm/gcc-arm-none-eabi-9-2020-q2-update-win32/bin/../lib/gcc/arm-none-eabi/9.3.1/../../../../arm-none-eabi/lib/thumb/v7-m/nofp\libg.a(lib_a-fclose.o)
 .ARM.attributes
                0x00000e9a       0x2d d:/program/gcc-arm/gcc-arm-none-eabi-9-2020-q2-update-win32/bin/../lib/gcc/arm-none-eabi/9.3.1/../../../../arm-none-eabi/lib/thumb/v7-m/nofp\libg.a(lib_a-fiprintf.o)
 .ARM.attributes
                0x00000ec7       0x2d d:/program/gcc-arm/gcc-arm-none-eabi-9-2020-q2-update-win32/bin/../lib/gcc/arm-none-eabi/9.3.1/../../../../arm-none-eabi/lib/thumb/v7-m/nofp\libg.a(lib_a-fputwc.o)
 .ARM.attributes
                0x00000ef4       0x2d d:/program/gcc-arm/gcc-arm-none-eabi-9-2020-q2-update-win32/bin/../lib/gcc/arm-none-eabi/9.3.1/../../../../arm-none-eabi/lib/thumb/v7-m/nofp\libg.a(lib_a-fstatr.o)
 .ARM.attributes
                0x00000f21       0x2d d:/program/gcc-arm/gcc-arm-none-eabi-9-2020-q2-update-win32/bin/../lib/gcc/arm-none-eabi/9.3.1/../../../../arm-none-eabi/lib/thumb/v7-m/nofp\libg.a(lib_a-isattyr.o)
 .ARM.attributes
                0x00000f4e       0x2d d:/program/gcc-arm/gcc-arm-none-eabi-9-2020-q2-update-win32/bin/../lib/gcc/arm-none-eabi/9.3.1/../../../../arm-none-eabi/lib/thumb/v7-m/nofp\libg.a(lib_a-locale.o)
 .ARM.attributes
                0x00000f7b       0x2d d:/program/gcc-arm/gcc-arm-none-eabi-9-2020-q2-update-win32/bin/../lib/gcc/arm-none-eabi/9.3.1/../../../../arm-none-eabi/lib/thumb/v7-m/nofp\libg.a(lib_a-lseekr.o)
 .ARM.attributes
                0x00000fa8       0x2d d:/program/gcc-arm/gcc-arm-none-eabi-9-2020-q2-update-win32/bin/../lib/gcc/arm-none-eabi/9.3.1/../../../../arm-none-eabi/lib/thumb/v7-m/nofp\libg.a(lib_a-mbtowc_r.o)
 .ARM.attributes
                0x00000fd5       0x2d d:/program/gcc-arm/gcc-arm-none-eabi-9-2020-q2-update-win32/bin/../lib/gcc/arm-none-eabi/9.3.1/../../../../arm-none-eabi/lib/thumb/v7-m/nofp\libg.a(lib_a-readr.o)
 .ARM.attributes
                0x00001002       0x2d d:/program/gcc-arm/gcc-arm-none-eabi-9-2020-q2-update-win32/bin/../lib/gcc/arm-none-eabi/9.3.1/../../../../arm-none-eabi/lib/thumb/v7-m/nofp\libg.a(lib_a-wbuf.o)
 .ARM.attributes
                0x0000102f       0x2d d:/program/gcc-arm/gcc-arm-none-eabi-9-2020-q2-update-win32/bin/../lib/gcc/arm-none-eabi/9.3.1/../../../../arm-none-eabi/lib/thumb/v7-m/nofp\libg.a(lib_a-wcrtomb.o)
 .ARM.attributes
                0x0000105c       0x2d d:/program/gcc-arm/gcc-arm-none-eabi-9-2020-q2-update-win32/bin/../lib/gcc/arm-none-eabi/9.3.1/../../../../arm-none-eabi/lib/thumb/v7-m/nofp\libg.a(lib_a-wctomb_r.o)
 .ARM.attributes
                0x00001089       0x2d d:/program/gcc-arm/gcc-arm-none-eabi-9-2020-q2-update-win32/bin/../lib/gcc/arm-none-eabi/9.3.1/../../../../arm-none-eabi/lib/thumb/v7-m/nofp\libg.a(lib_a-ctype_.o)
 .ARM.attributes
                0x000010b6       0x1d d:/program/gcc-arm/gcc-arm-none-eabi-9-2020-q2-update-win32/bin/../lib/gcc/arm-none-eabi/9.3.1/thumb/v7-m/nofp\libgcc.a(_arm_cmpdf2.o)
 .ARM.attributes
                0x000010d3       0x1d d:/program/gcc-arm/gcc-arm-none-eabi-9-2020-q2-update-win32/bin/../lib/gcc/arm-none-eabi/9.3.1/thumb/v7-m/nofp\libgcc.a(_arm_unorddf2.o)
 .ARM.attributes
                0x000010f0       0x1d d:/program/gcc-arm/gcc-arm-none-eabi-9-2020-q2-update-win32/bin/../lib/gcc/arm-none-eabi/9.3.1/thumb/v7-m/nofp\libgcc.a(_arm_fixdfsi.o)
 .ARM.attributes
                0x0000110d       0x1d d:/program/gcc-arm/gcc-arm-none-eabi-9-2020-q2-update-win32/bin/../lib/gcc/arm-none-eabi/9.3.1/thumb/v7-m/nofp\libgcc.a(_aeabi_uldivmod.o)
 .ARM.attributes
                0x0000112a       0x1d d:/program/gcc-arm/gcc-arm-none-eabi-9-2020-q2-update-win32/bin/../lib/gcc/arm-none-eabi/9.3.1/thumb/v7-m/nofp/crtn.o
OUTPUT(mpu6050.elf elf32-littlearm)
LOAD linker stubs
LOAD d:/program/gcc-arm/gcc-arm-none-eabi-9-2020-q2-update-win32/bin/../lib/gcc/arm-none-eabi/9.3.1/../../../../arm-none-eabi/lib/thumb/v7-m/nofp\libc.a
LOAD d:/program/gcc-arm/gcc-arm-none-eabi-9-2020-q2-update-win32/bin/../lib/gcc/arm-none-eabi/9.3.1/../../../../arm-none-eabi/lib/thumb/v7-m/nofp\libm.a
LOAD d:/program/gcc-arm/gcc-arm-none-eabi-9-2020-q2-update-win32/bin/../lib/gcc/arm-none-eabi/9.3.1/thumb/v7-m/nofp\libgcc.a

.debug_info     0x00000000    0x26ef3
 .debug_info    0x00000000      0x3e2 CMakeFiles/mpu6050.elf.dir/Core/Src/gpio.c.obj
 .debug_info    0x000003e2     0x6c5d CMakeFiles/mpu6050.elf.dir/Core/Src/main.cpp.obj
 .debug_info    0x0000703f     0x69c5 CMakeFiles/mpu6050.elf.dir/Core/Src/mpu6050.cpp.obj
 .debug_info    0x0000da04     0x13ee CMakeFiles/mpu6050.elf.dir/Core/Src/retarget.c.obj
 .debug_info    0x0000edf2      0x2fd CMakeFiles/mpu6050.elf.dir/Core/Src/stm32f1xx_hal_msp.c.obj
 .debug_info    0x0000f0ef      0x239 CMakeFiles/mpu6050.elf.dir/Core/Src/stm32f1xx_it.c.obj
 .debug_info    0x0000f328      0xf91 CMakeFiles/mpu6050.elf.dir/Core/Src/syscalls.c.obj
 .debug_info    0x000102b9      0x2c9 CMakeFiles/mpu6050.elf.dir/Core/Src/system_stm32f1xx.c.obj
 .debug_info    0x00010582      0xaf2 CMakeFiles/mpu6050.elf.dir/Core/Src/usart.c.obj
 .debug_info    0x00011074      0x831 CMakeFiles/mpu6050.elf.dir/Drivers/STM32F1xx_HAL_Driver/Src/stm32f1xx_hal.c.obj
 .debug_info    0x000118a5      0xe46 CMakeFiles/mpu6050.elf.dir/Drivers/STM32F1xx_HAL_Driver/Src/stm32f1xx_hal_cortex.c.obj
 .debug_info    0x000126eb      0x75b CMakeFiles/mpu6050.elf.dir/Drivers/STM32F1xx_HAL_Driver/Src/stm32f1xx_hal_gpio.c.obj
 .debug_info    0x00012e46      0xaab CMakeFiles/mpu6050.elf.dir/Drivers/STM32F1xx_HAL_Driver/Src/stm32f1xx_hal_rcc.c.obj
 .debug_info    0x000138f1     0x1d5f CMakeFiles/mpu6050.elf.dir/Drivers/STM32F1xx_HAL_Driver/Src/stm32f1xx_hal_uart.c.obj
 .debug_info    0x00015650      0x26f CMakeFiles/mpu6050.elf.dir/IIC/Src/delay.cpp.obj
 .debug_info    0x000158bf      0xc73 CMakeFiles/mpu6050.elf.dir/IIC/Src/iic_drv.cpp.obj
 .debug_info    0x00016532     0x8eb4 CMakeFiles/mpu6050.elf.dir/dmp/Src/inv_mpu.cpp.obj
 .debug_info    0x0001f3e6     0x7aeb CMakeFiles/mpu6050.elf.dir/dmp/Src/inv_mpu_dmp_motion_driver.cpp.obj
 .debug_info    0x00026ed1       0x22 CMakeFiles/mpu6050.elf.dir/startup/startup_stm32f103xb.s.obj

.debug_abbrev   0x00000000     0x375f
 .debug_abbrev  0x00000000      0x17b CMakeFiles/mpu6050.elf.dir/Core/Src/gpio.c.obj
 .debug_abbrev  0x0000017b      0x6ad CMakeFiles/mpu6050.elf.dir/Core/Src/main.cpp.obj
 .debug_abbrev  0x00000828      0x6c5 CMakeFiles/mpu6050.elf.dir/Core/Src/mpu6050.cpp.obj
 .debug_abbrev  0x00000eed      0x2cc CMakeFiles/mpu6050.elf.dir/Core/Src/retarget.c.obj
 .debug_abbrev  0x000011b9      0x12e CMakeFiles/mpu6050.elf.dir/Core/Src/stm32f1xx_hal_msp.c.obj
 .debug_abbrev  0x000012e7       0xef CMakeFiles/mpu6050.elf.dir/Core/Src/stm32f1xx_it.c.obj
 .debug_abbrev  0x000013d6      0x308 CMakeFiles/mpu6050.elf.dir/Core/Src/syscalls.c.obj
 .debug_abbrev  0x000016de      0x151 CMakeFiles/mpu6050.elf.dir/Core/Src/system_stm32f1xx.c.obj
 .debug_abbrev  0x0000182f      0x229 CMakeFiles/mpu6050.elf.dir/Core/Src/usart.c.obj
 .debug_abbrev  0x00001a58      0x219 CMakeFiles/mpu6050.elf.dir/Drivers/STM32F1xx_HAL_Driver/Src/stm32f1xx_hal.c.obj
 .debug_abbrev  0x00001c71      0x367 CMakeFiles/mpu6050.elf.dir/Drivers/STM32F1xx_HAL_Driver/Src/stm32f1xx_hal_cortex.c.obj
 .debug_abbrev  0x00001fd8      0x213 CMakeFiles/mpu6050.elf.dir/Drivers/STM32F1xx_HAL_Driver/Src/stm32f1xx_hal_gpio.c.obj
 .debug_abbrev  0x000021eb      0x28d CMakeFiles/mpu6050.elf.dir/Drivers/STM32F1xx_HAL_Driver/Src/stm32f1xx_hal_rcc.c.obj
 .debug_abbrev  0x00002478      0x293 CMakeFiles/mpu6050.elf.dir/Drivers/STM32F1xx_HAL_Driver/Src/stm32f1xx_hal_uart.c.obj
 .debug_abbrev  0x0000270b      0x16f CMakeFiles/mpu6050.elf.dir/IIC/Src/delay.cpp.obj
 .debug_abbrev  0x0000287a      0x1bb CMakeFiles/mpu6050.elf.dir/IIC/Src/iic_drv.cpp.obj
 .debug_abbrev  0x00002a35      0x6a6 CMakeFiles/mpu6050.elf.dir/dmp/Src/inv_mpu.cpp.obj
 .debug_abbrev  0x000030db      0x672 CMakeFiles/mpu6050.elf.dir/dmp/Src/inv_mpu_dmp_motion_driver.cpp.obj
 .debug_abbrev  0x0000374d       0x12 CMakeFiles/mpu6050.elf.dir/startup/startup_stm32f103xb.s.obj

.debug_aranges  0x00000000      0xa08
 .debug_aranges
                0x00000000       0x20 CMakeFiles/mpu6050.elf.dir/Core/Src/gpio.c.obj
 .debug_aranges
                0x00000020       0x30 CMakeFiles/mpu6050.elf.dir/Core/Src/main.cpp.obj
 .debug_aranges
                0x00000050       0x40 CMakeFiles/mpu6050.elf.dir/Core/Src/mpu6050.cpp.obj
 .debug_aranges
                0x00000090       0x50 CMakeFiles/mpu6050.elf.dir/Core/Src/retarget.c.obj
 .debug_aranges
                0x000000e0       0x20 CMakeFiles/mpu6050.elf.dir/Core/Src/stm32f1xx_hal_msp.c.obj
 .debug_aranges
                0x00000100       0x60 CMakeFiles/mpu6050.elf.dir/Core/Src/stm32f1xx_it.c.obj
 .debug_aranges
                0x00000160       0x78 CMakeFiles/mpu6050.elf.dir/Core/Src/syscalls.c.obj
 .debug_aranges
                0x000001d8       0x28 CMakeFiles/mpu6050.elf.dir/Core/Src/system_stm32f1xx.c.obj
 .debug_aranges
                0x00000200       0x48 CMakeFiles/mpu6050.elf.dir/Core/Src/usart.c.obj
 .debug_aranges
                0x00000248       0xe0 CMakeFiles/mpu6050.elf.dir/Drivers/STM32F1xx_HAL_Driver/Src/stm32f1xx_hal.c.obj
 .debug_aranges
                0x00000328       0x90 CMakeFiles/mpu6050.elf.dir/Drivers/STM32F1xx_HAL_Driver/Src/stm32f1xx_hal_cortex.c.obj
 .debug_aranges
                0x000003b8       0x58 CMakeFiles/mpu6050.elf.dir/Drivers/STM32F1xx_HAL_Driver/Src/stm32f1xx_hal_gpio.c.obj
 .debug_aranges
                0x00000410       0x90 CMakeFiles/mpu6050.elf.dir/Drivers/STM32F1xx_HAL_Driver/Src/stm32f1xx_hal_rcc.c.obj
 .debug_aranges
                0x000004a0      0x200 CMakeFiles/mpu6050.elf.dir/Drivers/STM32F1xx_HAL_Driver/Src/stm32f1xx_hal_uart.c.obj
 .debug_aranges
                0x000006a0       0x28 CMakeFiles/mpu6050.elf.dir/IIC/Src/delay.cpp.obj
 .debug_aranges
                0x000006c8       0x78 CMakeFiles/mpu6050.elf.dir/IIC/Src/iic_drv.cpp.obj
 .debug_aranges
                0x00000740      0x1a8 CMakeFiles/mpu6050.elf.dir/dmp/Src/inv_mpu.cpp.obj
 .debug_aranges
                0x000008e8       0xf8 CMakeFiles/mpu6050.elf.dir/dmp/Src/inv_mpu_dmp_motion_driver.cpp.obj
 .debug_aranges
                0x000009e0       0x28 CMakeFiles/mpu6050.elf.dir/startup/startup_stm32f103xb.s.obj

.debug_ranges   0x00000000      0x9a8
 .debug_ranges  0x00000000       0x10 CMakeFiles/mpu6050.elf.dir/Core/Src/gpio.c.obj
 .debug_ranges  0x00000010       0x20 CMakeFiles/mpu6050.elf.dir/Core/Src/main.cpp.obj
 .debug_ranges  0x00000030       0x30 CMakeFiles/mpu6050.elf.dir/Core/Src/mpu6050.cpp.obj
 .debug_ranges  0x00000060       0x40 CMakeFiles/mpu6050.elf.dir/Core/Src/retarget.c.obj
 .debug_ranges  0x000000a0       0x10 CMakeFiles/mpu6050.elf.dir/Core/Src/stm32f1xx_hal_msp.c.obj
 .debug_ranges  0x000000b0       0x50 CMakeFiles/mpu6050.elf.dir/Core/Src/stm32f1xx_it.c.obj
 .debug_ranges  0x00000100       0x68 CMakeFiles/mpu6050.elf.dir/Core/Src/syscalls.c.obj
 .debug_ranges  0x00000168       0x18 CMakeFiles/mpu6050.elf.dir/Core/Src/system_stm32f1xx.c.obj
 .debug_ranges  0x00000180       0x38 CMakeFiles/mpu6050.elf.dir/Core/Src/usart.c.obj
 .debug_ranges  0x000001b8       0xd0 CMakeFiles/mpu6050.elf.dir/Drivers/STM32F1xx_HAL_Driver/Src/stm32f1xx_hal.c.obj
 .debug_ranges  0x00000288       0xe0 CMakeFiles/mpu6050.elf.dir/Drivers/STM32F1xx_HAL_Driver/Src/stm32f1xx_hal_cortex.c.obj
 .debug_ranges  0x00000368       0x48 CMakeFiles/mpu6050.elf.dir/Drivers/STM32F1xx_HAL_Driver/Src/stm32f1xx_hal_gpio.c.obj
 .debug_ranges  0x000003b0       0xa0 CMakeFiles/mpu6050.elf.dir/Drivers/STM32F1xx_HAL_Driver/Src/stm32f1xx_hal_rcc.c.obj
 .debug_ranges  0x00000450      0x1f0 CMakeFiles/mpu6050.elf.dir/Drivers/STM32F1xx_HAL_Driver/Src/stm32f1xx_hal_uart.c.obj
 .debug_ranges  0x00000640       0x18 CMakeFiles/mpu6050.elf.dir/IIC/Src/delay.cpp.obj
 .debug_ranges  0x00000658       0x68 CMakeFiles/mpu6050.elf.dir/IIC/Src/iic_drv.cpp.obj
 .debug_ranges  0x000006c0      0x1c8 CMakeFiles/mpu6050.elf.dir/dmp/Src/inv_mpu.cpp.obj
 .debug_ranges  0x00000888      0x100 CMakeFiles/mpu6050.elf.dir/dmp/Src/inv_mpu_dmp_motion_driver.cpp.obj
 .debug_ranges  0x00000988       0x20 CMakeFiles/mpu6050.elf.dir/startup/startup_stm32f103xb.s.obj

.debug_line     0x00000000     0xb33f
 .debug_line    0x00000000      0x285 CMakeFiles/mpu6050.elf.dir/Core/Src/gpio.c.obj
 .debug_line    0x00000285      0x863 CMakeFiles/mpu6050.elf.dir/Core/Src/main.cpp.obj
 .debug_line    0x00000ae8      0x967 CMakeFiles/mpu6050.elf.dir/Core/Src/mpu6050.cpp.obj
 .debug_line    0x0000144f      0x517 CMakeFiles/mpu6050.elf.dir/Core/Src/retarget.c.obj
 .debug_line    0x00001966      0x250 CMakeFiles/mpu6050.elf.dir/Core/Src/stm32f1xx_hal_msp.c.obj
 .debug_line    0x00001bb6      0x31c CMakeFiles/mpu6050.elf.dir/Core/Src/stm32f1xx_it.c.obj
 .debug_line    0x00001ed2      0x493 CMakeFiles/mpu6050.elf.dir/Core/Src/syscalls.c.obj
 .debug_line    0x00002365      0x304 CMakeFiles/mpu6050.elf.dir/Core/Src/system_stm32f1xx.c.obj
 .debug_line    0x00002669      0x5a7 CMakeFiles/mpu6050.elf.dir/Core/Src/usart.c.obj
 .debug_line    0x00002c10      0x594 CMakeFiles/mpu6050.elf.dir/Drivers/STM32F1xx_HAL_Driver/Src/stm32f1xx_hal.c.obj
 .debug_line    0x000031a4      0x6ea CMakeFiles/mpu6050.elf.dir/Drivers/STM32F1xx_HAL_Driver/Src/stm32f1xx_hal_cortex.c.obj
 .debug_line    0x0000388e      0x696 CMakeFiles/mpu6050.elf.dir/Drivers/STM32F1xx_HAL_Driver/Src/stm32f1xx_hal_gpio.c.obj
 .debug_line    0x00003f24      0xcb1 CMakeFiles/mpu6050.elf.dir/Drivers/STM32F1xx_HAL_Driver/Src/stm32f1xx_hal_rcc.c.obj
 .debug_line    0x00004bd5     0x2159 CMakeFiles/mpu6050.elf.dir/Drivers/STM32F1xx_HAL_Driver/Src/stm32f1xx_hal_uart.c.obj
 .debug_line    0x00006d2e      0x2a0 CMakeFiles/mpu6050.elf.dir/IIC/Src/delay.cpp.obj
 .debug_line    0x00006fce      0x752 CMakeFiles/mpu6050.elf.dir/IIC/Src/iic_drv.cpp.obj
 .debug_line    0x00007720     0x26d5 CMakeFiles/mpu6050.elf.dir/dmp/Src/inv_mpu.cpp.obj
 .debug_line    0x00009df5     0x14b1 CMakeFiles/mpu6050.elf.dir/dmp/Src/inv_mpu_dmp_motion_driver.cpp.obj
 .debug_line    0x0000b2a6       0x99 CMakeFiles/mpu6050.elf.dir/startup/startup_stm32f103xb.s.obj

.debug_str      0x00000000     0xabf5
 .debug_str     0x00000000      0x30e CMakeFiles/mpu6050.elf.dir/Core/Src/gpio.c.obj
                                0x38a (size before relaxing)
 .debug_str     0x0000030e     0x7825 CMakeFiles/mpu6050.elf.dir/Core/Src/main.cpp.obj
                               0x7c70 (size before relaxing)
 .debug_str     0x00007b33      0x378 CMakeFiles/mpu6050.elf.dir/Core/Src/mpu6050.cpp.obj
                               0x78fe (size before relaxing)
 .debug_str     0x00007eab      0x19a CMakeFiles/mpu6050.elf.dir/Core/Src/retarget.c.obj
                                0xc54 (size before relaxing)
 .debug_str     0x00008045       0x73 CMakeFiles/mpu6050.elf.dir/Core/Src/stm32f1xx_hal_msp.c.obj
                                0x32c (size before relaxing)
 .debug_str     0x000080b8       0xd0 CMakeFiles/mpu6050.elf.dir/Core/Src/stm32f1xx_it.c.obj
                                0x343 (size before relaxing)
 .debug_str     0x00008188      0x112 CMakeFiles/mpu6050.elf.dir/Core/Src/syscalls.c.obj
                                0x818 (size before relaxing)
 .debug_str     0x0000829a       0x6b CMakeFiles/mpu6050.elf.dir/Core/Src/system_stm32f1xx.c.obj
                                0x323 (size before relaxing)
 .debug_str     0x00008305       0xc2 CMakeFiles/mpu6050.elf.dir/Core/Src/usart.c.obj
                                0x81e (size before relaxing)
 .debug_str     0x000083c7      0x571 CMakeFiles/mpu6050.elf.dir/Drivers/STM32F1xx_HAL_Driver/Src/stm32f1xx_hal.c.obj
                                0x8a0 (size before relaxing)
 .debug_str     0x00008938      0x3d4 CMakeFiles/mpu6050.elf.dir/Drivers/STM32F1xx_HAL_Driver/Src/stm32f1xx_hal_cortex.c.obj
                                0x9bc (size before relaxing)
 .debug_str     0x00008d0c      0x120 CMakeFiles/mpu6050.elf.dir/Drivers/STM32F1xx_HAL_Driver/Src/stm32f1xx_hal_gpio.c.obj
                                0x50d (size before relaxing)
 .debug_str     0x00008e2c      0x202 CMakeFiles/mpu6050.elf.dir/Drivers/STM32F1xx_HAL_Driver/Src/stm32f1xx_hal_rcc.c.obj
                                0x6ef (size before relaxing)
 .debug_str     0x0000902e      0x627 CMakeFiles/mpu6050.elf.dir/Drivers/STM32F1xx_HAL_Driver/Src/stm32f1xx_hal_uart.c.obj
                                0xd89 (size before relaxing)
 .debug_str     0x00009655       0x53 CMakeFiles/mpu6050.elf.dir/IIC/Src/delay.cpp.obj
                                0x32a (size before relaxing)
 .debug_str     0x000096a8      0x1ec CMakeFiles/mpu6050.elf.dir/IIC/Src/iic_drv.cpp.obj
                                0x519 (size before relaxing)
 .debug_str     0x00009894      0xd38 CMakeFiles/mpu6050.elf.dir/dmp/Src/inv_mpu.cpp.obj
                               0x84b4 (size before relaxing)
 .debug_str     0x0000a5cc      0x5e1 CMakeFiles/mpu6050.elf.dir/dmp/Src/inv_mpu_dmp_motion_driver.cpp.obj
                               0x7e68 (size before relaxing)
 .debug_str     0x0000abad       0x48 CMakeFiles/mpu6050.elf.dir/startup/startup_stm32f103xb.s.obj
                                 0x76 (size before relaxing)

.comment        0x00000000       0x4c
 .comment       0x00000000       0x4c CMakeFiles/mpu6050.elf.dir/Core/Src/gpio.c.obj
                                 0x4d (size before relaxing)
 .comment       0x0000004c       0x4d CMakeFiles/mpu6050.elf.dir/Core/Src/main.cpp.obj
 .comment       0x0000004c       0x4d CMakeFiles/mpu6050.elf.dir/Core/Src/mpu6050.cpp.obj
 .comment       0x0000004c       0x4d CMakeFiles/mpu6050.elf.dir/Core/Src/retarget.c.obj
 .comment       0x0000004c       0x4d CMakeFiles/mpu6050.elf.dir/Core/Src/stm32f1xx_hal_msp.c.obj
 .comment       0x0000004c       0x4d CMakeFiles/mpu6050.elf.dir/Core/Src/stm32f1xx_it.c.obj
 .comment       0x0000004c       0x4d CMakeFiles/mpu6050.elf.dir/Core/Src/syscalls.c.obj
 .comment       0x0000004c       0x4d CMakeFiles/mpu6050.elf.dir/Core/Src/system_stm32f1xx.c.obj
 .comment       0x0000004c       0x4d CMakeFiles/mpu6050.elf.dir/Core/Src/usart.c.obj
 .comment       0x0000004c       0x4d CMakeFiles/mpu6050.elf.dir/Drivers/STM32F1xx_HAL_Driver/Src/stm32f1xx_hal.c.obj
 .comment       0x0000004c       0x4d CMakeFiles/mpu6050.elf.dir/Drivers/STM32F1xx_HAL_Driver/Src/stm32f1xx_hal_cortex.c.obj
 .comment       0x0000004c       0x4d CMakeFiles/mpu6050.elf.dir/Drivers/STM32F1xx_HAL_Driver/Src/stm32f1xx_hal_gpio.c.obj
 .comment       0x0000004c       0x4d CMakeFiles/mpu6050.elf.dir/Drivers/STM32F1xx_HAL_Driver/Src/stm32f1xx_hal_rcc.c.obj
 .comment       0x0000004c       0x4d CMakeFiles/mpu6050.elf.dir/Drivers/STM32F1xx_HAL_Driver/Src/stm32f1xx_hal_uart.c.obj
 .comment       0x0000004c       0x4d CMakeFiles/mpu6050.elf.dir/IIC/Src/delay.cpp.obj
 .comment       0x0000004c       0x4d CMakeFiles/mpu6050.elf.dir/IIC/Src/iic_drv.cpp.obj
 .comment       0x0000004c       0x4d CMakeFiles/mpu6050.elf.dir/dmp/Src/inv_mpu.cpp.obj
 .comment       0x0000004c       0x4d CMakeFiles/mpu6050.elf.dir/dmp/Src/inv_mpu_dmp_motion_driver.cpp.obj

.debug_frame    0x00000000     0x359c
 .debug_frame   0x00000000       0x30 CMakeFiles/mpu6050.elf.dir/Core/Src/gpio.c.obj
 .debug_frame   0x00000030       0x5c CMakeFiles/mpu6050.elf.dir/Core/Src/main.cpp.obj
 .debug_frame   0x0000008c       0xa8 CMakeFiles/mpu6050.elf.dir/Core/Src/mpu6050.cpp.obj
 .debug_frame   0x00000134       0xb8 CMakeFiles/mpu6050.elf.dir/Core/Src/retarget.c.obj
 .debug_frame   0x000001ec       0x28 CMakeFiles/mpu6050.elf.dir/Core/Src/stm32f1xx_hal_msp.c.obj
 .debug_frame   0x00000214       0xa8 CMakeFiles/mpu6050.elf.dir/Core/Src/stm32f1xx_it.c.obj
 .debug_frame   0x000002bc      0x118 CMakeFiles/mpu6050.elf.dir/Core/Src/syscalls.c.obj
 .debug_frame   0x000003d4       0x30 CMakeFiles/mpu6050.elf.dir/Core/Src/system_stm32f1xx.c.obj
 .debug_frame   0x00000404       0xb8 CMakeFiles/mpu6050.elf.dir/Core/Src/usart.c.obj
 .debug_frame   0x000004bc      0x1cc CMakeFiles/mpu6050.elf.dir/Drivers/STM32F1xx_HAL_Driver/Src/stm32f1xx_hal.c.obj
 .debug_frame   0x00000688      0x12c CMakeFiles/mpu6050.elf.dir/Drivers/STM32F1xx_HAL_Driver/Src/stm32f1xx_hal_cortex.c.obj
 .debug_frame   0x000007b4       0xe8 CMakeFiles/mpu6050.elf.dir/Drivers/STM32F1xx_HAL_Driver/Src/stm32f1xx_hal_gpio.c.obj
 .debug_frame   0x0000089c      0x190 CMakeFiles/mpu6050.elf.dir/Drivers/STM32F1xx_HAL_Driver/Src/stm32f1xx_hal_rcc.c.obj
 .debug_frame   0x00000a2c      0x5c4 CMakeFiles/mpu6050.elf.dir/Drivers/STM32F1xx_HAL_Driver/Src/stm32f1xx_hal_uart.c.obj
 .debug_frame   0x00000ff0       0x3c CMakeFiles/mpu6050.elf.dir/IIC/Src/delay.cpp.obj
 .debug_frame   0x0000102c      0x158 CMakeFiles/mpu6050.elf.dir/IIC/Src/iic_drv.cpp.obj
 .debug_frame   0x00001184      0x6bc CMakeFiles/mpu6050.elf.dir/dmp/Src/inv_mpu.cpp.obj
 .debug_frame   0x00001840      0x36c CMakeFiles/mpu6050.elf.dir/dmp/Src/inv_mpu_dmp_motion_driver.cpp.obj
 .debug_frame   0x00001bac       0x34 d:/program/gcc-arm/gcc-arm-none-eabi-9-2020-q2-update-win32/bin/../lib/gcc/arm-none-eabi/9.3.1/../../../../arm-none-eabi/lib/thumb/v7-m/nofp\libm.a(lib_a-wf_asin.o)
 .debug_frame   0x00001be0       0x20 d:/program/gcc-arm/gcc-arm-none-eabi-9-2020-q2-update-win32/bin/../lib/gcc/arm-none-eabi/9.3.1/../../../../arm-none-eabi/lib/thumb/v7-m/nofp\libm.a(lib_a-wf_atan2.o)
 .debug_frame   0x00001c00       0x34 d:/program/gcc-arm/gcc-arm-none-eabi-9-2020-q2-update-win32/bin/../lib/gcc/arm-none-eabi/9.3.1/../../../../arm-none-eabi/lib/thumb/v7-m/nofp\libm.a(lib_a-ef_asin.o)
 .debug_frame   0x00001c34       0x3c d:/program/gcc-arm/gcc-arm-none-eabi-9-2020-q2-update-win32/bin/../lib/gcc/arm-none-eabi/9.3.1/../../../../arm-none-eabi/lib/thumb/v7-m/nofp\libm.a(lib_a-ef_atan2.o)
 .debug_frame   0x00001c70       0x30 d:/program/gcc-arm/gcc-arm-none-eabi-9-2020-q2-update-win32/bin/../lib/gcc/arm-none-eabi/9.3.1/../../../../arm-none-eabi/lib/thumb/v7-m/nofp\libm.a(lib_a-ef_sqrt.o)
 .debug_frame   0x00001ca0       0x30 d:/program/gcc-arm/gcc-arm-none-eabi-9-2020-q2-update-win32/bin/../lib/gcc/arm-none-eabi/9.3.1/../../../../arm-none-eabi/lib/thumb/v7-m/nofp\libm.a(lib_a-sf_atan.o)
 .debug_frame   0x00001cd0       0x20 d:/program/gcc-arm/gcc-arm-none-eabi-9-2020-q2-update-win32/bin/../lib/gcc/arm-none-eabi/9.3.1/../../../../arm-none-eabi/lib/thumb/v7-m/nofp\libm.a(lib_a-sf_fabs.o)
 .debug_frame   0x00001cf0       0x20 d:/program/gcc-arm/gcc-arm-none-eabi-9-2020-q2-update-win32/bin/../lib/gcc/arm-none-eabi/9.3.1/../../../../arm-none-eabi/lib/thumb/v7-m/nofp\libm.a(lib_a-sf_nan.o)
 .debug_frame   0x00001d10       0xac d:/program/gcc-arm/gcc-arm-none-eabi-9-2020-q2-update-win32/bin/../lib/gcc/arm-none-eabi/9.3.1/thumb/v7-m/nofp\libgcc.a(_arm_addsubdf3.o)
 .debug_frame   0x00001dbc       0x50 d:/program/gcc-arm/gcc-arm-none-eabi-9-2020-q2-update-win32/bin/../lib/gcc/arm-none-eabi/9.3.1/thumb/v7-m/nofp\libgcc.a(_arm_muldivdf3.o)
 .debug_frame   0x00001e0c       0x24 d:/program/gcc-arm/gcc-arm-none-eabi-9-2020-q2-update-win32/bin/../lib/gcc/arm-none-eabi/9.3.1/thumb/v7-m/nofp\libgcc.a(_arm_truncdfsf2.o)
 .debug_frame   0x00001e30       0x4c d:/program/gcc-arm/gcc-arm-none-eabi-9-2020-q2-update-win32/bin/../lib/gcc/arm-none-eabi/9.3.1/thumb/v7-m/nofp\libgcc.a(_arm_addsubsf3.o)
 .debug_frame   0x00001e7c       0x38 d:/program/gcc-arm/gcc-arm-none-eabi-9-2020-q2-update-win32/bin/../lib/gcc/arm-none-eabi/9.3.1/thumb/v7-m/nofp\libgcc.a(_arm_muldivsf3.o)
 .debug_frame   0x00001eb4       0xc8 d:/program/gcc-arm/gcc-arm-none-eabi-9-2020-q2-update-win32/bin/../lib/gcc/arm-none-eabi/9.3.1/thumb/v7-m/nofp\libgcc.a(_arm_cmpsf2.o)
 .debug_frame   0x00001f7c       0x24 d:/program/gcc-arm/gcc-arm-none-eabi-9-2020-q2-update-win32/bin/../lib/gcc/arm-none-eabi/9.3.1/thumb/v7-m/nofp\libgcc.a(_arm_unordsf2.o)
 .debug_frame   0x00001fa0       0x24 d:/program/gcc-arm/gcc-arm-none-eabi-9-2020-q2-update-win32/bin/../lib/gcc/arm-none-eabi/9.3.1/thumb/v7-m/nofp\libgcc.a(_arm_fixsfsi.o)
 .debug_frame   0x00001fc4       0x24 d:/program/gcc-arm/gcc-arm-none-eabi-9-2020-q2-update-win32/bin/../lib/gcc/arm-none-eabi/9.3.1/thumb/v7-m/nofp\libgcc.a(_arm_fixunssfsi.o)
 .debug_frame   0x00001fe8       0x44 d:/program/gcc-arm/gcc-arm-none-eabi-9-2020-q2-update-win32/bin/../lib/gcc/arm-none-eabi/9.3.1/thumb/v7-m/nofp\libgcc.a(_aeabi_ldivmod.o)
 .debug_frame   0x0000202c       0x34 d:/program/gcc-arm/gcc-arm-none-eabi-9-2020-q2-update-win32/bin/../lib/gcc/arm-none-eabi/9.3.1/thumb/v7-m/nofp\libgcc.a(_udivmoddi4.o)
 .debug_frame   0x00002060       0x28 d:/program/gcc-arm/gcc-arm-none-eabi-9-2020-q2-update-win32/bin/../lib/gcc/arm-none-eabi/9.3.1/../../../../arm-none-eabi/lib/thumb/v7-m/nofp\libg.a(lib_a-abort.o)
 .debug_frame   0x00002088       0x20 d:/program/gcc-arm/gcc-arm-none-eabi-9-2020-q2-update-win32/bin/../lib/gcc/arm-none-eabi/9.3.1/../../../../arm-none-eabi/lib/thumb/v7-m/nofp\libg.a(lib_a-errno.o)
 .debug_frame   0x000020a8       0x2c d:/program/gcc-arm/gcc-arm-none-eabi-9-2020-q2-update-win32/bin/../lib/gcc/arm-none-eabi/9.3.1/../../../../arm-none-eabi/lib/thumb/v7-m/nofp\libg.a(lib_a-init.o)
 .debug_frame   0x000020d4       0x3c d:/program/gcc-arm/gcc-arm-none-eabi-9-2020-q2-update-win32/bin/../lib/gcc/arm-none-eabi/9.3.1/../../../../arm-none-eabi/lib/thumb/v7-m/nofp\libg.a(lib_a-memcmp.o)
 .debug_frame   0x00002110       0x38 d:/program/gcc-arm/gcc-arm-none-eabi-9-2020-q2-update-win32/bin/../lib/gcc/arm-none-eabi/9.3.1/../../../../arm-none-eabi/lib/thumb/v7-m/nofp\libg.a(lib_a-memset.o)
 .debug_frame   0x00002148       0x74 d:/program/gcc-arm/gcc-arm-none-eabi-9-2020-q2-update-win32/bin/../lib/gcc/arm-none-eabi/9.3.1/../../../../arm-none-eabi/lib/thumb/v7-m/nofp\libg.a(lib_a-printf.o)
 .debug_frame   0x000021bc       0x4c d:/program/gcc-arm/gcc-arm-none-eabi-9-2020-q2-update-win32/bin/../lib/gcc/arm-none-eabi/9.3.1/../../../../arm-none-eabi/lib/thumb/v7-m/nofp\libg.a(lib_a-puts.o)
 .debug_frame   0x00002208       0x48 d:/program/gcc-arm/gcc-arm-none-eabi-9-2020-q2-update-win32/bin/../lib/gcc/arm-none-eabi/9.3.1/../../../../arm-none-eabi/lib/thumb/v7-m/nofp\libg.a(lib_a-setvbuf.o)
 .debug_frame   0x00002250       0xe0 d:/program/gcc-arm/gcc-arm-none-eabi-9-2020-q2-update-win32/bin/../lib/gcc/arm-none-eabi/9.3.1/../../../../arm-none-eabi/lib/thumb/v7-m/nofp\libg.a(lib_a-signal.o)
 .debug_frame   0x00002330       0x3c d:/program/gcc-arm/gcc-arm-none-eabi-9-2020-q2-update-win32/bin/../lib/gcc/arm-none-eabi/9.3.1/../../../../arm-none-eabi/lib/thumb/v7-m/nofp\libg.a(lib_a-signalr.o)
 .debug_frame   0x0000236c       0x20 d:/program/gcc-arm/gcc-arm-none-eabi-9-2020-q2-update-win32/bin/../lib/gcc/arm-none-eabi/9.3.1/../../../../arm-none-eabi/lib/thumb/v7-m/nofp\libg.a(lib_a-strlen-stub.o)
 .debug_frame   0x0000238c       0x8c d:/program/gcc-arm/gcc-arm-none-eabi-9-2020-q2-update-win32/bin/../lib/gcc/arm-none-eabi/9.3.1/../../../../arm-none-eabi/lib/thumb/v7-m/nofp\libg.a(lib_a-vfprintf.o)
 .debug_frame   0x00002418       0x2c d:/program/gcc-arm/gcc-arm-none-eabi-9-2020-q2-update-win32/bin/../lib/gcc/arm-none-eabi/9.3.1/../../../../arm-none-eabi/lib/thumb/v7-m/nofp\libg.a(lib_a-wsetup.o)
 .debug_frame   0x00002444       0x5c d:/program/gcc-arm/gcc-arm-none-eabi-9-2020-q2-update-win32/bin/../lib/gcc/arm-none-eabi/9.3.1/../../../../arm-none-eabi/lib/thumb/v7-m/nofp\libg.a(lib_a-__call_atexit.o)
 .debug_frame   0x000024a0       0x20 d:/program/gcc-arm/gcc-arm-none-eabi-9-2020-q2-update-win32/bin/../lib/gcc/arm-none-eabi/9.3.1/../../../../arm-none-eabi/lib/thumb/v7-m/nofp\libg.a(lib_a-atexit.o)
 .debug_frame   0x000024c0       0x8c d:/program/gcc-arm/gcc-arm-none-eabi-9-2020-q2-update-win32/bin/../lib/gcc/arm-none-eabi/9.3.1/../../../../arm-none-eabi/lib/thumb/v7-m/nofp\libg.a(lib_a-dtoa.o)
 .debug_frame   0x0000254c       0x5c d:/program/gcc-arm/gcc-arm-none-eabi-9-2020-q2-update-win32/bin/../lib/gcc/arm-none-eabi/9.3.1/../../../../arm-none-eabi/lib/thumb/v7-m/nofp\libg.a(lib_a-fflush.o)
 .debug_frame   0x000025a8      0x154 d:/program/gcc-arm/gcc-arm-none-eabi-9-2020-q2-update-win32/bin/../lib/gcc/arm-none-eabi/9.3.1/../../../../arm-none-eabi/lib/thumb/v7-m/nofp\libg.a(lib_a-findfp.o)
 .debug_frame   0x000026fc       0x34 d:/program/gcc-arm/gcc-arm-none-eabi-9-2020-q2-update-win32/bin/../lib/gcc/arm-none-eabi/9.3.1/../../../../arm-none-eabi/lib/thumb/v7-m/nofp\libg.a(lib_a-fini.o)
 .debug_frame   0x00002730       0x8c d:/program/gcc-arm/gcc-arm-none-eabi-9-2020-q2-update-win32/bin/../lib/gcc/arm-none-eabi/9.3.1/../../../../arm-none-eabi/lib/thumb/v7-m/nofp\libg.a(lib_a-freer.o)
 .debug_frame   0x000027bc       0x64 d:/program/gcc-arm/gcc-arm-none-eabi-9-2020-q2-update-win32/bin/../lib/gcc/arm-none-eabi/9.3.1/../../../../arm-none-eabi/lib/thumb/v7-m/nofp\libg.a(lib_a-fvwrite.o)
 .debug_frame   0x00002820       0x54 d:/program/gcc-arm/gcc-arm-none-eabi-9-2020-q2-update-win32/bin/../lib/gcc/arm-none-eabi/9.3.1/../../../../arm-none-eabi/lib/thumb/v7-m/nofp\libg.a(lib_a-fwalk.o)
 .debug_frame   0x00002874       0x40 d:/program/gcc-arm/gcc-arm-none-eabi-9-2020-q2-update-win32/bin/../lib/gcc/arm-none-eabi/9.3.1/../../../../arm-none-eabi/lib/thumb/v7-m/nofp\libg.a(lib_a-localeconv.o)
 .debug_frame   0x000028b4       0xb0 d:/program/gcc-arm/gcc-arm-none-eabi-9-2020-q2-update-win32/bin/../lib/gcc/arm-none-eabi/9.3.1/../../../../arm-none-eabi/lib/thumb/v7-m/nofp\libg.a(lib_a-lock.o)
 .debug_frame   0x00002964       0x6c d:/program/gcc-arm/gcc-arm-none-eabi-9-2020-q2-update-win32/bin/../lib/gcc/arm-none-eabi/9.3.1/../../../../arm-none-eabi/lib/thumb/v7-m/nofp\libg.a(lib_a-makebuf.o)
 .debug_frame   0x000029d0       0x30 d:/program/gcc-arm/gcc-arm-none-eabi-9-2020-q2-update-win32/bin/../lib/gcc/arm-none-eabi/9.3.1/../../../../arm-none-eabi/lib/thumb/v7-m/nofp\libg.a(lib_a-malloc.o)
 .debug_frame   0x00002a00       0x4c d:/program/gcc-arm/gcc-arm-none-eabi-9-2020-q2-update-win32/bin/../lib/gcc/arm-none-eabi/9.3.1/../../../../arm-none-eabi/lib/thumb/v7-m/nofp\libg.a(lib_a-mallocr.o)
 .debug_frame   0x00002a4c       0x44 d:/program/gcc-arm/gcc-arm-none-eabi-9-2020-q2-update-win32/bin/../lib/gcc/arm-none-eabi/9.3.1/../../../../arm-none-eabi/lib/thumb/v7-m/nofp\libg.a(lib_a-memchr-stub.o)
 .debug_frame   0x00002a90       0x40 d:/program/gcc-arm/gcc-arm-none-eabi-9-2020-q2-update-win32/bin/../lib/gcc/arm-none-eabi/9.3.1/../../../../arm-none-eabi/lib/thumb/v7-m/nofp\libg.a(lib_a-memmove.o)
 .debug_frame   0x00002ad0       0x30 d:/program/gcc-arm/gcc-arm-none-eabi-9-2020-q2-update-win32/bin/../lib/gcc/arm-none-eabi/9.3.1/../../../../arm-none-eabi/lib/thumb/v7-m/nofp\libg.a(lib_a-mlock.o)
 .debug_frame   0x00002b00      0x260 d:/program/gcc-arm/gcc-arm-none-eabi-9-2020-q2-update-win32/bin/../lib/gcc/arm-none-eabi/9.3.1/../../../../arm-none-eabi/lib/thumb/v7-m/nofp\libg.a(lib_a-mprec.o)
 .debug_frame   0x00002d60       0x48 d:/program/gcc-arm/gcc-arm-none-eabi-9-2020-q2-update-win32/bin/../lib/gcc/arm-none-eabi/9.3.1/../../../../arm-none-eabi/lib/thumb/v7-m/nofp\libg.a(lib_a-reallocr.o)
 .debug_frame   0x00002da8       0x60 d:/program/gcc-arm/gcc-arm-none-eabi-9-2020-q2-update-win32/bin/../lib/gcc/arm-none-eabi/9.3.1/../../../../arm-none-eabi/lib/thumb/v7-m/nofp\libg.a(lib_a-reent.o)
 .debug_frame   0x00002e08       0x30 d:/program/gcc-arm/gcc-arm-none-eabi-9-2020-q2-update-win32/bin/../lib/gcc/arm-none-eabi/9.3.1/../../../../arm-none-eabi/lib/thumb/v7-m/nofp\libg.a(lib_a-s_frexp.o)
 .debug_frame   0x00002e38       0x2c d:/program/gcc-arm/gcc-arm-none-eabi-9-2020-q2-update-win32/bin/../lib/gcc/arm-none-eabi/9.3.1/../../../../arm-none-eabi/lib/thumb/v7-m/nofp\libg.a(lib_a-sbrkr.o)
 .debug_frame   0x00002e64       0x8c d:/program/gcc-arm/gcc-arm-none-eabi-9-2020-q2-update-win32/bin/../lib/gcc/arm-none-eabi/9.3.1/../../../../arm-none-eabi/lib/thumb/v7-m/nofp\libg.a(lib_a-stdio.o)
 .debug_frame   0x00002ef0       0x38 d:/program/gcc-arm/gcc-arm-none-eabi-9-2020-q2-update-win32/bin/../lib/gcc/arm-none-eabi/9.3.1/../../../../arm-none-eabi/lib/thumb/v7-m/nofp\libg.a(lib_a-strncpy.o)
 .debug_frame   0x00002f28       0xd0 d:/program/gcc-arm/gcc-arm-none-eabi-9-2020-q2-update-win32/bin/../lib/gcc/arm-none-eabi/9.3.1/../../../../arm-none-eabi/lib/thumb/v7-m/nofp\libg.a(lib_a-vfiprintf.o)
 .debug_frame   0x00002ff8       0x30 d:/program/gcc-arm/gcc-arm-none-eabi-9-2020-q2-update-win32/bin/../lib/gcc/arm-none-eabi/9.3.1/../../../../arm-none-eabi/lib/thumb/v7-m/nofp\libg.a(lib_a-writer.o)
 .debug_frame   0x00003028       0x34 d:/program/gcc-arm/gcc-arm-none-eabi-9-2020-q2-update-win32/bin/../lib/gcc/arm-none-eabi/9.3.1/../../../../arm-none-eabi/lib/thumb/v7-m/nofp\libg.a(lib_a-__atexit.o)
 .debug_frame   0x0000305c       0x40 d:/program/gcc-arm/gcc-arm-none-eabi-9-2020-q2-update-win32/bin/../lib/gcc/arm-none-eabi/9.3.1/../../../../arm-none-eabi/lib/thumb/v7-m/nofp\libg.a(lib_a-assert.o)
 .debug_frame   0x0000309c       0x28 d:/program/gcc-arm/gcc-arm-none-eabi-9-2020-q2-update-win32/bin/../lib/gcc/arm-none-eabi/9.3.1/../../../../arm-none-eabi/lib/thumb/v7-m/nofp\libg.a(lib_a-callocr.o)
 .debug_frame   0x000030c4       0x2c d:/program/gcc-arm/gcc-arm-none-eabi-9-2020-q2-update-win32/bin/../lib/gcc/arm-none-eabi/9.3.1/../../../../arm-none-eabi/lib/thumb/v7-m/nofp\libg.a(lib_a-closer.o)
 .debug_frame   0x000030f0       0x3c d:/program/gcc-arm/gcc-arm-none-eabi-9-2020-q2-update-win32/bin/../lib/gcc/arm-none-eabi/9.3.1/../../../../arm-none-eabi/lib/thumb/v7-m/nofp\libg.a(lib_a-fclose.o)
 .debug_frame   0x0000312c       0x70 d:/program/gcc-arm/gcc-arm-none-eabi-9-2020-q2-update-win32/bin/../lib/gcc/arm-none-eabi/9.3.1/../../../../arm-none-eabi/lib/thumb/v7-m/nofp\libg.a(lib_a-fiprintf.o)
 .debug_frame   0x0000319c       0x98 d:/program/gcc-arm/gcc-arm-none-eabi-9-2020-q2-update-win32/bin/../lib/gcc/arm-none-eabi/9.3.1/../../../../arm-none-eabi/lib/thumb/v7-m/nofp\libg.a(lib_a-fputwc.o)
 .debug_frame   0x00003234       0x2c d:/program/gcc-arm/gcc-arm-none-eabi-9-2020-q2-update-win32/bin/../lib/gcc/arm-none-eabi/9.3.1/../../../../arm-none-eabi/lib/thumb/v7-m/nofp\libg.a(lib_a-fstatr.o)
 .debug_frame   0x00003260       0x2c d:/program/gcc-arm/gcc-arm-none-eabi-9-2020-q2-update-win32/bin/../lib/gcc/arm-none-eabi/9.3.1/../../../../arm-none-eabi/lib/thumb/v7-m/nofp\libg.a(lib_a-isattyr.o)
 .debug_frame   0x0000328c       0x54 d:/program/gcc-arm/gcc-arm-none-eabi-9-2020-q2-update-win32/bin/../lib/gcc/arm-none-eabi/9.3.1/../../../../arm-none-eabi/lib/thumb/v7-m/nofp\libg.a(lib_a-locale.o)
 .debug_frame   0x000032e0       0x30 d:/program/gcc-arm/gcc-arm-none-eabi-9-2020-q2-update-win32/bin/../lib/gcc/arm-none-eabi/9.3.1/../../../../arm-none-eabi/lib/thumb/v7-m/nofp\libg.a(lib_a-lseekr.o)
 .debug_frame   0x00003310       0x4c d:/program/gcc-arm/gcc-arm-none-eabi-9-2020-q2-update-win32/bin/../lib/gcc/arm-none-eabi/9.3.1/../../../../arm-none-eabi/lib/thumb/v7-m/nofp\libg.a(lib_a-mbtowc_r.o)
 .debug_frame   0x0000335c       0x30 d:/program/gcc-arm/gcc-arm-none-eabi-9-2020-q2-update-win32/bin/../lib/gcc/arm-none-eabi/9.3.1/../../../../arm-none-eabi/lib/thumb/v7-m/nofp\libg.a(lib_a-readr.o)
 .debug_frame   0x0000338c       0x40 d:/program/gcc-arm/gcc-arm-none-eabi-9-2020-q2-update-win32/bin/../lib/gcc/arm-none-eabi/9.3.1/../../../../arm-none-eabi/lib/thumb/v7-m/nofp\libg.a(lib_a-wbuf.o)
 .debug_frame   0x000033cc       0x60 d:/program/gcc-arm/gcc-arm-none-eabi-9-2020-q2-update-win32/bin/../lib/gcc/arm-none-eabi/9.3.1/../../../../arm-none-eabi/lib/thumb/v7-m/nofp\libg.a(lib_a-wcrtomb.o)
 .debug_frame   0x0000342c       0x3c d:/program/gcc-arm/gcc-arm-none-eabi-9-2020-q2-update-win32/bin/../lib/gcc/arm-none-eabi/9.3.1/../../../../arm-none-eabi/lib/thumb/v7-m/nofp\libg.a(lib_a-wctomb_r.o)
 .debug_frame   0x00003468       0xc4 d:/program/gcc-arm/gcc-arm-none-eabi-9-2020-q2-update-win32/bin/../lib/gcc/arm-none-eabi/9.3.1/thumb/v7-m/nofp\libgcc.a(_arm_cmpdf2.o)
 .debug_frame   0x0000352c       0x20 d:/program/gcc-arm/gcc-arm-none-eabi-9-2020-q2-update-win32/bin/../lib/gcc/arm-none-eabi/9.3.1/thumb/v7-m/nofp\libgcc.a(_arm_unorddf2.o)
 .debug_frame   0x0000354c       0x24 d:/program/gcc-arm/gcc-arm-none-eabi-9-2020-q2-update-win32/bin/../lib/gcc/arm-none-eabi/9.3.1/thumb/v7-m/nofp\libgcc.a(_arm_fixdfsi.o)
 .debug_frame   0x00003570       0x2c d:/program/gcc-arm/gcc-arm-none-eabi-9-2020-q2-update-win32/bin/../lib/gcc/arm-none-eabi/9.3.1/thumb/v7-m/nofp\libgcc.a(_aeabi_uldivmod.o)

.debug_loc      0x00000000     0x67c6
 .debug_loc     0x00000000       0x72 CMakeFiles/mpu6050.elf.dir/Core/Src/main.cpp.obj
 .debug_loc     0x00000072      0x440 CMakeFiles/mpu6050.elf.dir/Core/Src/mpu6050.cpp.obj
 .debug_loc     0x000004b2      0x389 CMakeFiles/mpu6050.elf.dir/Core/Src/retarget.c.obj
 .debug_loc     0x0000083b       0x15 CMakeFiles/mpu6050.elf.dir/Core/Src/stm32f1xx_hal_msp.c.obj
 .debug_loc     0x00000850      0x333 CMakeFiles/mpu6050.elf.dir/Core/Src/syscalls.c.obj
 .debug_loc     0x00000b83       0xff CMakeFiles/mpu6050.elf.dir/Core/Src/system_stm32f1xx.c.obj
 .debug_loc     0x00000c82      0x259 CMakeFiles/mpu6050.elf.dir/Core/Src/usart.c.obj
 .debug_loc     0x00000edb      0x141 CMakeFiles/mpu6050.elf.dir/Drivers/STM32F1xx_HAL_Driver/Src/stm32f1xx_hal.c.obj
 .debug_loc     0x0000101c      0x71f CMakeFiles/mpu6050.elf.dir/Drivers/STM32F1xx_HAL_Driver/Src/stm32f1xx_hal_cortex.c.obj
 .debug_loc     0x0000173b      0x468 CMakeFiles/mpu6050.elf.dir/Drivers/STM32F1xx_HAL_Driver/Src/stm32f1xx_hal_gpio.c.obj
 .debug_loc     0x00001ba3      0x610 CMakeFiles/mpu6050.elf.dir/Drivers/STM32F1xx_HAL_Driver/Src/stm32f1xx_hal_rcc.c.obj
 .debug_loc     0x000021b3     0x2037 CMakeFiles/mpu6050.elf.dir/Drivers/STM32F1xx_HAL_Driver/Src/stm32f1xx_hal_uart.c.obj
 .debug_loc     0x000041ea       0x7f CMakeFiles/mpu6050.elf.dir/IIC/Src/delay.cpp.obj
 .debug_loc     0x00004269      0x353 CMakeFiles/mpu6050.elf.dir/IIC/Src/iic_drv.cpp.obj
 .debug_loc     0x000045bc     0x1992 CMakeFiles/mpu6050.elf.dir/dmp/Src/inv_mpu.cpp.obj
 .debug_loc     0x00005f4e      0x878 CMakeFiles/mpu6050.elf.dir/dmp/Src/inv_mpu_dmp_motion_driver.cpp.obj
