:020000040800F2
:1000000000500020E15D0008892A00088B2A0008C2
:100010008D2A00088F2A0008912A0008000000009D
:10002000000000000000000000000000932A00080B
:10003000952A000800000000972A0008992A000865
:10004000295E0008295E0008295E0008295E000874
:10005000295E0008295E0008295E0008295E000864
:10006000295E0008295E0008295E0008295E000854
:10007000295E0008295E0008295E0008295E000844
:10008000295E0008295E0008295E0008295E000834
:10009000295E0008295E0008295E0008295E000824
:1000A000295E0008295E0008295E0008295E000814
:1000B000295E0008295E0008295E0008295E000804
:1000C000295E0008295E0008295E0008295E0008F4
:1000D000295E0008295E0008295E0008295E0008E4
:1000E000295E0008295E0008295E00080000000063
:1000F0000000000000000000000000000000000000
:0C01000000000000000000005FF808F1A3
:1001100010B5054C237833B9044B13B10448AFF341
:1001200000800123237010BD000A002000000000A1
:1001300094C7000808B5034B1BB103490348AFF34C
:10014000008008BD00000000040A002094C70008D9
:1001500081F0004102E000BF83F0004330B54FEA78
:1001600041044FEA430594EA050F08BF90EA020FE5
:100170001FBF54EA000C55EA020C7FEA645C7FEA78
:10018000655C00F0E2804FEA5454D4EB5555B8BF9B
:100190006D420CDD2C4480EA020281EA030382EA0C
:1001A000000083EA010180EA020281EA0303362D9E
:1001B00088BF30BD11F0004F4FEA01314FF4801C71
:1001C0004CEA113102D0404261EB410113F0004F83
:1001D0004FEA03334CEA133302D0524263EB43033A
:1001E00094EA050F00F0A780A4F10104D5F1200ED8
:1001F0000DDB02FA0EFC22FA05F2801841F1000133
:1002000003FA0EF2801843FA05F359410EE0A5F106
:1002100020050EF1200E012A03FA0EFC28BF4CF037
:10022000020C43FA05F3C01851EBE37101F00045ED
:1002300007D54FF0000EDCF1000C7EEB00006EEBFA
:100240000101B1F5801F1BD3B1F5001F0CD3490884
:100250005FEA30004FEA3C0C04F101044FEA4452DB
:1002600012F5800F80F09A80BCF1004F08BF5FEA62
:10027000500C50F1000041EB045141EA050130BD42
:100280005FEA4C0C404141EB0101013C28BFB1F554
:10029000801FE9D291F0000F04BF01460020B1FA9F
:1002A00081F308BF2033A3F10B03B3F120020CDA72
:1002B0000C3208DD02F1140CC2F10C0201FA0CF050
:1002C00021FA02F10CE002F11402D8BFC2F1200CB5
:1002D00001FA02F120FA0CFCDCBF41EA0C0190406B
:1002E000E41AA2BF01EB0451294330BD6FEA0404B4
:1002F0001F3C1CDA0C340EDC04F11404C4F120029F
:1003000020FA04F001FA02F340EA030021FA04F3B0
:1003100045EA030130BDC4F10C04C4F1200220FA07
:1003200002F001FA04F340EA0300294630BD21FA45
:1003300004F0294630BD94F0000F83F4801306BF0B
:1003400081F480110134013D4EE77FEA645C18BFFF
:100350007FEA655C29D094EA050F08BF90EA020F96
:1003600005D054EA000C04BF1946104630BD91EA8E
:10037000030F1EBF0021002030BD5FEA545C05D191
:100380004000494128BF41F0004130BD14F58004D0
:100390003CBF01F5801130BD01F0004545F0FE4144
:1003A00041F470014FF0000030BD7FEA645C1ABF79
:1003B000194610467FEA655C1CBF0B46024650EAB0
:1003C000013406BF52EA033591EA030F41F40021DC
:1003D00030BD00BF90F0000F04BF0021704730B562
:1003E0004FF4806404F132044FF000054FF0000137
:1003F00050E700BF90F0000F04BF0021704730B5F8
:100400004FF4806404F1320410F0004548BF4042CC
:100410004FF000013EE700BF42004FEAE2014FEA21
:1004200031014FEA02701FBF12F07F4393F07F4FFC
:1004300081F06051704732F07F4208BF704793F0FF
:100440007F4F04BF41F40021704730B54FF4607412
:1004500001F0004521F000411CE700BF50EA010215
:1004600008BF704730B54FF000050AE050EA0102BE
:1004700008BF704730B511F0004502D5404261EB2E
:1004800041014FF4806404F132045FEA915C3FF46F
:10049000D8AE4FF003025FEADC0C18BF03325FEA0C
:1004A000DC0C18BF033202EBDC02C2F1200300FABD
:1004B00003FC20FA02F001FA03FE40EA0E0021FAE2
:1004C00002F11444BDE600BF70B54FF0FF0C4CF4D0
:1004D000E06C1CEA11541DBF1CEA135594EA0C0F82
:1004E00095EA0C0F00F0DEF82C4481EA030621EABD
:1004F0004C5123EA4C5350EA013518BF52EA0335F8
:1005000041F4801143F4801338D0A0FB02CE4FF0A9
:100510000005E1FB02E506F00042E0FB03E54FF0D9
:100520000006E1FB03569CF0000F18BF4EF0010ED1
:10053000A4F1FF04B6F5007F64F5407404D25FEACD
:100540004E0E6D4146EB060642EAC62141EA555180
:100550004FEAC52040EA5E504FEACE2EB4F1FD0CC2
:1005600088BFBCF5E06F1ED8BEF1004F08BF5FEA40
:10057000500E50F1000041EB045170BD06F00046F2
:1005800046EA010140EA020081EA0301B4EB5C049F
:10059000C2BFD4EB0C0541EA045170BD41F4801197
:1005A0004FF0000E013C00F3AB8014F1360FDEBFBC
:1005B000002001F0004170BDC4F10004203C35DA98
:1005C0000C341BDC04F11404C4F1200500FA05F31B
:1005D00020FA04F001FA05F240EA020001F00042BC
:1005E00021F0004110EBD37021FA04F642EB060132
:1005F0005EEA430E08BF20EAD37070BDC4F10C045C
:10060000C4F1200500FA04F320FA05F001FA04F21F
:1006100040EA020001F0004110EBD37041F100010B
:100620005EEA430E08BF20EAD37070BDC4F1200516
:1006300000FA05F24EEA020E20FA04F301FA05F27E
:1006400043EA020321FA04F001F0004121FA04F226
:1006500020EA020000EBD3705EEA430E08BF20EAF6
:10066000D37070BD94F0000F0FD101F00046400030
:1006700041EB010111F4801F08BF013CF7D041EAB2
:10068000060195F0000F18BF704703F000465200B6
:1006900043EB030313F4801F08BF013DF7D043EA87
:1006A0000603704794EA0C0F0CEA135518BF95EA3D
:1006B0000C0F0CD050EA410618BF52EA4306D1D1C4
:1006C00081EA030101F000414FF0000070BD50EAE3
:1006D000410606BF1046194652EA430619D094EA6D
:1006E0000C0F02D150EA013613D195EA0C0F05D157
:1006F00052EA03361CBF104619460AD181EA0301AB
:1007000001F0004141F0FE4141F470014FF0000062
:1007100070BD41F0FE4141F4780170BD70B54FF0FD
:10072000FF0C4CF4E06C1CEA11541DBF1CEA13557D
:1007300094EA0C0F95EA0C0F00F0A7F8A4EB05045F
:1007400081EA030E52EA03354FEA013100F0888056
:100750004FEA03334FF0805545EA131343EA12631F
:100760004FEA022245EA111545EA10654FEA0026D4
:100770000EF000419D4208BF964244F1FD0404F58D
:10078000407402D25B084FEA3202B61A65EB0305E9
:100790005B084FEA32024FF480104FF4002CB6EBA6
:1007A000020E75EB030E22BFB61A754640EA0C0026
:1007B0005B084FEA3202B6EB020E75EB030E22BF66
:1007C000B61A754640EA5C005B084FEA3202B6EBA7
:1007D000020E75EB030E22BFB61A754640EA9C0066
:1007E0005B084FEA3202B6EB020E75EB030E22BF36
:1007F000B61A754640EADC0055EA060E18D04FEAF4
:10080000051545EA16754FEA06164FEAC30343EA93
:1008100052734FEAC2025FEA1C1CC0D111F4801F60
:100820000BD141EA00014FF000004FF0004CB6E759
:1008300011F4801F04BF01430020B4F1FD0C88BFF8
:10084000BCF5E06F3FF6AFAEB5EB030C04BFB6EB03
:10085000020C5FEA500C50F1000041EB045170BDF6
:100860000EF0004E4EEA113114EB5C04C2BFD4EB23
:100870000C0541EA045170BD41F480114FF0000EA7
:10088000013C90E645EA060E8DE60CEA135594EA23
:100890000C0F08BF95EA0C0F3FF43BAF94EA0C0F26
:1008A0000AD150EA01347FF434AF95EA0C0F7FF49B
:1008B00025AF104619462CE795EA0C0F06D152EAEF
:1008C00003353FF4FDAE1046194622E750EA4106D3
:1008D00018BF52EA43067FF4C5AE50EA41047FF4E4
:1008E0000DAF52EA43057FF4EBAE12E74FEA410247
:1008F000B2F1E04324BFB3F5001CDCF1FE5C0DD97E
:1009000001F0004C4FEAC0024CEA5070B2F1004FC7
:1009100040EB830008BF20F00100704711F0804FCA
:1009200021D113F13872BCBF01F00040704741F48F
:1009300080114FEA5252C2F11802C2F1200C10FA93
:100940000CF320FA02F018BF40F001004FEAC12377
:100950004FEAD32303FA0CFC40EA0C0023FA02F31B
:100960004FEA4303CCE77FEA625307D150EA0133F1
:100970001EBF4FF0FE4040F44000704701F00040C1
:1009800040F0FE4040F40000704700BF80F000409F
:1009900002E000BF81F0004142001FBF5FEA410357
:1009A00092EA030F7FEA226C7FEA236C6AD04FEA57
:1009B0001262D2EB1363C1BFD2184140484041409C
:1009C000B8BF5B42192B88BF704710F0004F40F44E
:1009D000000020F07F4018BF404211F0004F41F46A
:1009E000000121F07F4118BF494292EA030F3FD036
:1009F000A2F1010241FA03FC10EB0C00C3F1200349
:100A000001FA03F100F0004302D5494260EB4000D7
:100A1000B0F5000F13D3B0F1807F06D340084FEA42
:100A2000310102F10102FE2A51D2B1F1004F40EB37
:100A3000C25008BF20F0010040EA0300704749009F
:100A400040EB0000013A28BFB0F5000FEDD2B0FA3C
:100A500080FCACF1080CB2EB0C0200FA0CF0AABF5F
:100A600000EBC25052421843BCBFD04018437047FD
:100A700092F0000F81F4000106BF80F40000013203
:100A8000013BB5E74FEA41037FEA226C18BF7FEADA
:100A9000236C21D092EA030F04D092F0000F08BF1C
:100AA0000846704790EA010F1CBF0020704712F003
:100AB0007F4F04D1400028BF40F00040704712F142
:100AC00000723CBF00F50000704700F0004343F0A7
:100AD000FE4040F4000070477FEA226216BF0846DD
:100AE0007FEA23630146420206BF5FEA412390EAA0
:100AF000010F40F4800070474FF0000304E000BF96
:100B000010F0004348BF40425FEA000C08BF704746
:100B100043F0964301464FF000001CE050EA01020A
:100B200008BF70474FF000030AE000BF50EA01021F
:100B300008BF704711F0004302D5404261EB41010C
:100B40005FEA010C02BF84460146002043F0B64331
:100B500008BFA3F18053A3F50003BCFA8CF2083A56
:100B6000A3EBC25310DB01FA02FC634400FA02FC5F
:100B7000C2F12002BCF1004F20FA02F243EB020066
:100B800008BF20F00100704702F1200201FA02FCC8
:100B9000C2F1200250EA4C0021FA02F243EB0200BB
:100BA00008BF20EADC7070474FF0FF0C1CEAD052FF
:100BB0001EBF1CEAD15392EA0C0F93EA0C0F6FD0C0
:100BC0001A4480EA010C400218BF5FEA41211ED09E
:100BD0004FF0006343EA501043EA5111A0FB01318A
:100BE0000CF00040B1F5000F3EBF490041EAD3715F
:100BF0005B0040EA010062F17F02FD2A1DD8B3F1DB
:100C0000004F40EBC25008BF20F00100704790F049
:100C1000000F0CF0004C08BF49024CEA502040EA9B
:100C200051207F3AC2BFD2F1FF0340EAC250704761
:100C300040F400004FF00003013A5DDC12F1190F9F
:100C4000DCBF00F000407047C2F10002410021FA11
:100C500002F1C2F1200200FA02FC5FEA310040F129
:100C6000000053EA4C0308BF20EADC70704792F0A2
:100C7000000F00F0004C02BF400010F4000F013ADA
:100C8000F9D040EA0C0093F0000F01F0004C02BFD5
:100C9000490011F4000F013BF9D041EA0C018FE744
:100CA0000CEAD15392EA0C0F18BF93EA0C0F0AD04A
:100CB00030F0004C18BF31F0004CD8D180EA010070
:100CC00000F00040704790F0000F17BF90F0004F09
:100CD000084691F0000F91F0004F14D092EA0C0FEB
:100CE00001D142020FD193EA0C0F03D14B0218BF7E
:100CF000084608D180EA010000F0004040F0FE40C4
:100D000040F40000704740F0FE4040F4400070475F
:100D10004FF0FF0C1CEAD0521EBF1CEAD15392EADE
:100D20000C0F93EA0C0F69D0A2EB030280EA010CCE
:100D300049024FEA402037D04FF0805343EA111167
:100D400043EA10130CF000408B4238BF5B0042F1C5
:100D50007D024FF4000C8B4224BF5B1A40EA0C006A
:100D6000B3EB510F24BFA3EB510340EA5C00B3EB9C
:100D7000910F24BFA3EB910340EA9C00B3EBD10F8A
:100D800024BFA3EBD10340EADC001B0118BF5FEADC
:100D90001C1CE0D1FD2A3FF650AF8B4240EBC25005
:100DA00008BF20F0010070470CF0004C4CEA5020C6
:100DB0007F32C2BFD2F1FF0340EAC250704740F415
:100DC00000004FF00003013A37E792F0000F00F007
:100DD000004C02BF400010F4000F013AF9D040EA85
:100DE0000C0093F0000F01F0004C02BF490011F419
:100DF000000F013BF9D041EA0C0195E70CEAD15311
:100E000092EA0C0F08D142027FF47DAF93EA0C0FF7
:100E10007FF470AF084676E793EA0C0F04D14B02DB
:100E20003FF44CAF08466EE730F0004C18BF31F08D
:100E3000004CCAD130F000427FF45CAF31F0004387
:100E40007FF43CAF5FE700BF4FF0FF3C06E000BF20
:100E50004FF0010C02E000BF4FF0010C4DF804CD43
:100E60004FEA40024FEA41037FEA226C18BF7FEA53
:100E7000236C11D001B052EA530C18BF90EA010F55
:100E800058BFB2EB030088BFC81738BF6FEAE170E4
:100E900018BF40F0010070477FEA226C02D15FEA80
:100EA000402C05D17FEA236CE4D15FEA412CE1D0EC
:100EB0005DF8040B704700BF844608466146FFE7B3
:100EC0000FB5FFF7C9FF002848BF10F1000F0FBD95
:100ED0004DF808EDFFF7F4FF0CBF012000205DF88E
:100EE00008FB00BF4DF808EDFFF7EAFF34BF012013
:100EF00000205DF808FB00BF4DF808EDFFF7E0FFAC
:100F000094BF012000205DF808FB00BF4DF808EDFC
:100F1000FFF7D2FF94BF012000205DF808FB00BF5F
:100F20004DF808EDFFF7C8FF34BF012000205DF841
:100F300008FB00BF4FEA40024FEA41037FEA226C00
:100F400002D15FEA402C08D17FEA236C02D15FEA2C
:100F5000412C02D14FF0000070474FF00100704764
:100F60004FEA4002B2F1FE4F0FD34FF09E03B3EBB6
:100F700012620DD94FEA002343F0004310F0004FF6
:100F800023FA02F018BF404270474FF0000070474C
:100F900012F1610F01D1420205D110F0004008BFEB
:100FA0006FF0004070474FF00000704742000ED2D3
:100FB000B2F1FE4F0BD34FF09E03B3EB126209D494
:100FC0004FEA002343F0004323FA02F070474FF04A
:100FD0000000704712F1610F01D1420202D14FF0BF
:100FE000FF3070474FF00000704700BF7BB972B907
:100FF0000029BEBF00204FF0004106E008BF0028D6
:101000001CBF6FF000414FF0FF3001F0E9B8ADF1C7
:10101000080C6DE904CE002909DB002B1ADB00F077
:1010200035F8DDF804E0DDE9022304B07047404202
:1010300061EB4101002B1BDB00F028F8DDF804E038
:10104000DDE9022304B0404261EB4101524263EB0F
:1010500043037047524263EB430300F017F8DDF897
:1010600004E0DDE9022304B0404261EB4101704736
:10107000524263EB430300F009F8DDF804E0DDE9D8
:10108000022304B0524263EB430370472DE9F0475B
:10109000089E0D4604468E46002B40F083808A420F
:1010A000174647D9B2FA82F34BB1C3F1200105FAD2
:1010B00003FE20FA01F19F4041EA0E0E9C404FEAE8
:1010C0001748BEFBF8FC1FFA87F908FB1CE20CFB73
:1010D00009F0210C41EA024290420AD9BA180CF1F7
:1010E000FF3180F01881904240F21581ACF1020C82
:1010F0003A44121AB2FBF8F008FB102200FB09F187
:10110000A4B244EA0244A14209D93C1900F1FF32D9
:1011100080F00381A14240F2008102383C44641A0D
:10112000002140EA0C401EB10022DC40C6E900422A
:10113000BDE8F08702B9FFDEB2FA82F3002B4FD18F
:101140008D1A01214FEA124E1FFA82F8B5FBFEFC00
:101150000EFB1C5508FB0CF0220C42EA0545A84288
:1011600007D97D190CF1FF3202D2A84200F2E980C2
:1011700094462D1AB5FBFEF00EFB105508FB00F847
:10118000A4B244EA0544A04507D93C1900F1FF3256
:1011900002D2A04500F2D9801046A4EB080440EA30
:1011A0000C40C0E78B4208D9002E00F0B18000212E
:1011B000C6E900050846BDE8F087B3FA83F10029C7
:1011C0004BD1AB4202D3824200F2B980841A65EB64
:1011D000030301209E46002EAAD0C6E9004EA7E7D1
:1011E0009F40C3F12002D1404FEA174EB1FBFEF001
:1011F0001FFA87F80EFB101124FA02F29D4000FB43
:1012000008FC2A43150C45EA0145AC4504FA03F4F1
:1012100009D97D1900F1FF3180F08F80AC4540F293
:101220008C8002383D44A5EB0C05B5FBFEF10EFBAE
:10123000115C01FB08F995B245EA0C45A94507D9AF
:101240007D1901F1FF3274D2A94572D902393D44AA
:10125000A5EB090541EA004178E7C1F120078B4081
:1012600022FA07FC4CEA030C25FA07F44FEA1C4E5D
:10127000B4FBFEF91FFA8CF80EFB194420FA07F3B1
:1012800009FB08FA8D401D432B0C43EA0444A24598
:1012900002FA01F200FA01F309D91CEB040409F186
:1012A000FF3048D2A24546D9A9F102096444A4EB13
:1012B0000A04B4FBFEF00EFB104400FB08FAADB2CA
:1012C00045EA0444A24508D91CEB040400F1FF35AB
:1012D0002DD2A2452BD90238644440EA0940A0FB34
:1012E0000289A4EB0A044C45C6464D4619D316D0D4
:1012F0005EB1B3EB0E0264EB050404FA07F722FAC1
:1013000001F31F43CC40C6E900740021BDE8F0871B
:10131000314630460CE78C46EBE61046FFE6434587
:10132000E6D2B8EB020E69EB0C050138E0E728467F
:10133000D3E711468CE78146B9E7084673E70846CC
:1013400049E7ACF1020C3D4413E702383C4424E782
:1013500003685A004CBF43F0004323F00043184495
:10136000704700BF2DE9F84329B34F1E04461546C8
:101370003E464FF0000808EB060101EBD171491021
:1013800004EBC1094846FFF7E3FF0346C8000830F5
:101390008F42204409D0AB4209D8FFF7D9FF01386A
:1013A000A8420AD201F10108E5E7AB4205D9884518
:1013B00001D04E1EDFE74FF000094846BDE8F88334
:1013C000012807D0022807D0044B00280CBF18467C
:1013D000002070470248704702487047851A00088D
:1013E000891A00088D1A000830B5244B044683B0D2
:1013F0008D1E3BB3284601A9AFF30080E8B10199E7
:101400002A46FFF7AFFF0146B8B1FFF7A1FF4B68CF
:10141000A064012B2DD0002B26DB081DFFF798FFC1
:101420000023C4E913030368002B12DBFFF790FFCE
:1014300003460020236103B030BD0023092023614F
:1014400003B030BD0E4B0F491846C91AC91001919F
:10145000D6E7C3F30360FFF7B3FF0028206114BF92
:101460000020092003B030BD0123081DC4E9130387
:10147000D9E7002305202361DDE700BF000000005D
:10148000ECD8000804DB0008036810B5DA0704464E
:1014900006D49B0700F1480009D500F041FC236801
:1014A000590709D51A070ED5DB0613D510BD00F074
:1014B0002FFC23685907F5D404F1D00000F038FC64
:1014C00023681A07F0D404F5A87000F039FC2368EB
:1014D000DB06EBD404F5E870BDE8104000F074BC06
:1014E0000346006800B11844704700BF09207047E8
:1014F000704700BF70B504460E462046316CFFF7BA
:1015000073FF054688B9326C21466261012032467C
:10151000236998470828F0D0072806D12846316C5F
:10152000FFF7E6FF301D00F0E7FB04F0F1FF00BF1E
:101530002DE9F04706464FF0000CADF5727D03AD86
:101540000C1D91460FCC0FC50FCC0FC50FCC0FC58E
:1015500094E80F00F768D6F8188085E80F0002AD10
:10156000C5F800C021E02B6C4FF4F072736129467E
:101570007AA800F037FE314634697AAA5046A0476F
:10158000889BCDE9005804466B6449463346324691
:101590000120B8470346F0B94FF4F07228467AA903
:1015A000994600F01FFE082C1BD13046296CFFF72E
:1015B0001BFF09F1090904465FFA89FA0028D2D015
:1015C000AB6B3246CDE9005801206B644AF0100144
:1015D0003346B84700B1092420460DF5727DBDE8B9
:1015E000F087072CF7D14846296CFFF781FF03A845
:1015F00000F082FB406C70474FF0FF3CF0B5CB6BC6
:10160000F9B00B640E1D01AC0F4605460FCE0FC49A
:101610000FCE0FC40FCE0FC496E80F0084E80F0062
:10162000CDF800C006E06A4629462B69984708288D
:10163000044608D128461099FFF7D6FE0028F2D0BC
:10164000092079B0F0BD6846FFF71EFF062CF7D1E0
:1016500039462846FFF74EFF30B4DD6BC16082612A
:1016600019461D64002230BC62E700BF70B54369B3
:10167000C6680B64AEB90A46036904460D460146C6
:1016800002209847072805D008280FD12946204670
:10169000FFF730FF3046296CFFF72AFF281D00F0C6
:1016A0002BFB0122FFF744FF04F032FF04F030FF70
:1016B000C2682AB110B4CC6B00220C6410BC37E7AE
:1016C0009AE700BF704700BF836801460BB1012055
:1016D00018477047012912D009D873B90F2A0CD8BE
:1016E00000EB820042681846009B1A60704703397D
:1016F000012994BF0120022070470220704708464C
:10170000704700BF002310B584B003AC0A460094B4
:101710001946FFF7DFFF039804B010BD012912D06E
:1017200009D873B90F2A0CD8009900EB8202096816
:101730001846516070470339012994BF01200220E7
:101740007047022070470846704700BF30B500233D
:101750000D4685B003AC039219462A460094FFF764
:10176000DDFF05B030BD00BF4FF0FF3CF0B5D36BDF
:10177000ADF50F7D1364151D17AC07460E460FCD52
:101780000FC40FCD0FC40FCD0FC495E80F0084E830
:101790000F00CDF858C012E00C2116A86A46FFF7DA
:1017A000D5FF314616A8B84778B969460820049B8A
:1017B00016AA98470528044608D0092805D0684687
:1017C0002699FFF711FE0028E6D0092416A8FFF796
:1017D0005BFE20460DF50F7DF0BD00BF2DE9F04FFB
:1017E000CC6C174654F8042B89B00D461E4600F009
:1017F00003080694002B79D00221130C8DF81D30BC
:101800001204DBB204EB830405928DF81C102B6DDF
:10181000B8F1020F08BFAC6B13F001030CD03846CF
:1018200005A900F06BFB18B9082009B0BDE8F08FDE
:10183000092009B0BDE8F08FD4F800A0BAF1000F7C
:10184000EDD0019300F008030293022E4AD0B4F8C1
:1018500000A0B4F802900434AA6C0F21384629F095
:10186000010B9344FFF74EFF834539D82AF001025C
:101870005A44824294BF002001204FEA490303F0FA
:1018800002030AF0010A43EA0A03012B49D0022BA2
:1018900032D0002BCCD1B8F1000F02D0002840F09C
:1018A000CD800434D4F800A0BAF1000FCDD1384671
:1018B00005A900F023FB0028BAD1019B002BB3D06F
:1018C0000F213846FFF71EFF0E2102463846FFF76C
:1018D0003DFF38460F216A4AFFF738FF0720A8E787
:1018E0000020CAE7D4F804900834B5E703231202B5
:1018F0000592ADF81C308AE7236823F0004BB8F15D
:10190000000F45D128B1029A002A5CD0BBF1000F2C
:1019100074D0002B00DA04340BF1010B04EB8B04C0
:10192000C0E7B8F1000F19D1B0B1D4E90023991C78
:101930004FEAD2723FF47CAF05F1580101330491B4
:1019400000F09080201DFFF7CBFD04AB0146284638
:10195000AFF3008000285BD10834A3E70D2138469F
:10196000D5F82090FFF7CEFE8145F5D1AB6A9C42B9
:10197000F2D12046FFF7ECFC0F2102463846FFF774
:10198000E5FE38462A460021FFF7E0FE072050E733
:101990000D213846D5F82090FFF7B4FE814501D0DF
:1019A0002368B6E7AB6A9C42FAD104220021C5E95C
:1019B0000B12A318C5F828B06B6323688B4259DB60
:1019C00001230193A8E705F15803CDF80C80914657
:1019D000B04604F1040A1E460EE050460496FFF796
:1019E0007FFD0022014604AB2846AFF3008009F1D9
:1019F00001090AF1040AE0B9D945EED138460D21B2
:101A0000FFF780FE049B2862C5E90934062010E731
:101A100081460D213846FFF775FEB9F1020F2862A5
:101A200025D12B46049A43F82C2F6B620620AC621A
:101A3000FFE646462368DDF80C806AE72046FFF79C
:101A400087FC02460434AC6328461446AFF300809A
:101A500000283FF4EDAE384622460F21FFF776FE10
:101A60000720E6E638460D21FFF74CFE2862049B6E
:101A70006B62DBE70BF1010004EB80007AE700BF4B
:101A8000000000000023A9E60123A7E60223A5E643
:101A90002DE9F043064615461C46C3B0042900F262
:101AA000B280DFE801F09650B0270300002C40F030
:101AB000AA80102A00F2A7800368D80600F1EB8004
:101AC00020AF384600F08AF900230120B26B00FAFB
:101AD00003F129421CBF52F8041B47F823100133BD
:101AE000042BF4D13846B26300F06EF9002043B005
:101AF000BDE8F083032C40F0868094B204EB1243DF
:101B0000102B4FEA12457ED803681F0700F1CB80E7
:101B100020AF384600F036F907EBC501B56B54B17C
:101B20000B4601EBC401E81AE4001A5843F8042BF1
:101B30008B42FAD125443846B56300F001F9002004
:101B400043B0BDE8F083012C4FEA124895B256D05D
:101B5000052C58D108EB0509B9F1200F53D8B8F17D
:101B60000F0F73D9A946002D40F08480B36B65B385
:101B700020AF4FF0000907EBC807043F03EBC50592
:101B800053F8041BAB4247F8041FF9D1B9F1000F19
:101B90000FD06F464146102938BF102107EBC10115
:101BA000843903EBC90553F8040BAB4241F8040F29
:101BB000F9D1012C7FD0B8F10F0FB56342D9B9F13B
:101BC000000F02D0684600F0B3F8002043B0BDE833
:101BD000F083C4B923460124826B371DA8B204FAEE
:101BE00003F101421CBF52F8041B47F823100133D4
:101BF000102BF4D115F40050E7D1B26304E008EBE8
:101C00000503102B03D9022043B0BDE8F083B8F1DF
:101C10000F0FF8D83368DA0706D5304623F00303F0
:101C200040F8483B00F078F820AF384600F074F8F0
:101C3000B36B002D9DD11D4604353846B56300F0C9
:101C400067F8C2E720A800F06BF8B8E7B9F1100F09
:101C50003FD9A9F110093368D90708D5304623F0D8
:101C6000010343F0020340F8483B00F05DF8B9F18E
:101C7000000F31D033685A071FD4B8F10F0F24D9A1
:101C80006F46C8F11005384600F056F8002DB36BCA
:101C900080DD20AF6FE723F01003336006F5E870B6
:101CA00000F09CF80CE723F00803036000F5A8702F
:101CB00000F068F82CE720AFBEE7304623F00403BD
:101CC00040F8D03B00F038F8D7E720A800F02CF817
:101CD000D6E74FF00009BEE7B8F10F0F3FF646AF69
:101CE00020AF384600F020F8B36B002D7FF441AFF1
:101CF000384600F015F868E700F1340191E8380043
:101D00009C46A6464CF8045D90E8FF0FE54600BDF2
:101D100090EC210B704700BF80EC210B704700BF97
:101D200090EC200B704700BF80EC200B704700BF89
:101D3000D0EC200B704700BFC0EC200B704700BFF9
:101D4000F0EC0201F0EC0211F0EC0221F0EC0231B7
:101D5000F0EC0241F0EC0251F0EC0261F0EC0271A7
:101D6000F0EC0281F0EC0291F0EC02A1F0EC02B197
:101D7000F0EC02C1F0EC02D1F0EC02E1F0EC02F187
:101D8000704700BFE0EC0201E0EC0211E0EC022140
:101D9000E0EC0231E0EC0241E0EC0251E0EC0261E7
:101DA000E0EC0271E0EC0281E0EC0291E0EC02A1D7
:101DB000E0EC02B1E0EC02C1E0EC02D1E0EC02E1C7
:101DC000E0EC02F1704700BFB0FC0181B0FC019172
:101DD000B0FC01A1B0FC01B1704700BFA0FC0181C3
:101DE000A0FC0191A0FC01A1A0FC01B1704700BFC3
:101DF000EC4600B52DE900502DE9FF1F4FF0000320
:101E00002DE90C0001A9FFF7F7FBDDF840E012B067
:101E1000704700BFEC4600B52DE900502DE9FF1FCB
:101E20004FF000032DE90C0001A9FFF71FFCDDF8BE
:101E300040E012B0704700BFEC4600B52DE90050FD
:101E40002DE9FF1F4FF000032DE90C0001A9FFF75A
:101E50002FFCDDF840E012B0704700BFEC4600B543
:101E60002DE900502DE9FF1F4FF000032DE90C0074
:101E700001ABFFF7F1FBDDF840E012B0704700BFA7
:101E8000EC4600B52DE900502DE9FF1F4FF000038F
:101E90002DE90C0001AAFFF767FCDDF840E012B065
:101EA000704700BF027A7AB9437AA3B1032142682E
:101EB000013B10B443721368141D01721A0244608E
:101EC000026010BC180E70470368013A02721A02D1
:101ED0000260180E7047B020704700BF002300B5A5
:101EE00085B003AA009219460C22FFF7F3FB039872
:101EF00005B05DF804FB00BFF0E700BF2DE9F0433B
:101F000005460E464FF0000885B03046FFF7CAFF81
:101F1000B028044600F0B180070620D500F0F00399
:101F2000802B4DD0902B36D0A02B60D0B02B73D00F
:101F3000C02B00F08A8000F0F803D02B0BD100F00A
:101F40000702013242F40022052301212846FFF74F
:101F50009FFD0028D9D0092005B0BDE8F0830023FB
:101F60000DF10C0919460D228700CDF80090284686
:101F7000FFF7B0FBFFB2039B043760064CBFDF1BCB
:101F8000FF1800230D2219462846CDF8009003972C
:101F9000FFF7C4FBB9E700F00D030D2BDBD00023E6
:101FA00003AF194600F00F0200972846FFF792FB97
:101FB00000230D22194628460097FFF7AFFBA4E740
:101FC0003046FFF76FFF24022043B0F5004FC2D028
:101FD0000023040119462846A2B2FFF759FD002844
:101FE000B9D114F4004F18BF4FF001088DE7C34377
:101FF0004FF47F6203F007031A410023010702F444
:102000007F6248BF42F4804219462846FFF740FDF0
:1020100000283FF47AAF9EE7B12833D0B22800F011
:102020008B80B32839D000F0FC03B42B93D001236C
:1020300000F007021A4442F4002219462846FFF72E
:1020400027FD00283FF461AF85E7C62842D0C728A6
:102050004CD000F0F803C02B5BD0C82860D0C92852
:102060007FF479AF3046FFF71DFF020300F00F0049
:1020700002F470220130024366E7B8F1000F18D075
:10208000002069E73046FFF70DFF024600283FF4C5
:1020900062AF10F0F003D0D05DE73046FFF702FFEB
:1020A0000123010300F00F0001F47021C2180A435C
:1020B000C3E703AC43460E22414628460094FFF78F
:1020C00009FB284643460F2241460094FFF726FBB2
:1020D000404641E73046FFF7E5FE010300F00F0000
:1020E00001F47021421C03230A43A6E73046FFF7A0
:1020F000D9FE024600283FF42EAF10F0F0037FF423
:102100002AAF04212846FFF7C3FC00283FF4FDAEA8
:1021100021E700F00F020132032342F420228CE772
:102120003046FFF7BFFE00F0F00200F00F03103260
:10213000013343EA023207E700230DF10C090D22B7
:1021400019462846CDF80090FFF7C4FA3046FFF74D
:10215000A9FE02064FF002040CD5039B00F07F009D
:10216000A040034430460393FFF79CFE030604F1AE
:102170000704F2D40023039A00F07F0000FA04F46D
:1021800002F50172144419460D222846CDF800903C
:102190000394FFF7C3FAB8E610B50324C36C84B008
:1021A0005A688DF80C40DC7912020833084601A900
:1021B00001928DF80D400293FFF7A0FE04B010BD10
:1021C00008B5FFF799FE806C08BD00BF08B5FFF7A2
:1021D00093FEC06CC379023300EB830008BD00BFDF
:1021E000704700BF844641EA000313F0030349D15E
:1021F000403A23D30B6803604B6843608B6883606D
:10220000CB68C3600B6903614B6943618B69836170
:10221000CB69C3610B6A03624B6A43628B6A836258
:10222000CB6AC3620B6B03634B6B43638B6B836340
:10223000CB6BC36340304031403ADBD230320BD3FA
:102240000B6803604B6843608B688360CB68C36036
:1022500010301031103AF3D20C3205D351F8043B50
:1022600040F8043B043AF9D2043208D0D2071CBF2C
:1022700011F8013B00F8013B01D30B880380604655
:10228000704700BF082A13D38B07B1D010F00303A7
:10229000AED0C3F10403D21ADB071CBF11F8013B17
:1022A00000F8013BA4D331F8023B20F8023B9FE742
:1022B000043AD9D3013A11F8013B00F8013BF9D2B5
:1022C0000B7803704B7843708B788370604670474F
:1022D0004FF0FF3C06E000BF4FF0010C02E000BFF2
:1022E0004FF0010C4DF804CD4FEA410C7FEA6C5CD5
:1022F0004FEA430C18BF7FEA6C5C1BD001B050EA78
:10230000410C0CBF52EA430C91EA030F02BF90EA62
:10231000020F0020704710F1000F91EA030F58BF21
:10232000994208BF90422CBFD8176FEAE37040F083
:10233000010070474FEA410C7FEA6C5C02D150EA21
:10234000013C07D14FEA430C7FEA6C5CD6D152EADC
:10235000033CD3D05DF8040B704700BF84461046A1
:1023600062468C461946634600E000BF01B5FFF7A0
:10237000B7FF002848BF10F1000F01BD4DF808ED70
:10238000FFF7F4FF0CBF012000205DF808FB00BF41
:102390004DF808EDFFF7EAFF34BF012000205DF89B
:1023A00008FB00BF4DF808EDFFF7E0FF94BF0120E8
:1023B00000205DF808FB00BF4DF808EDFFF7CEFFE9
:1023C00094BF012000205DF808FB00BF4DF808ED28
:1023D000FFF7C4FF34BF012000205DF808FB00BFF9
:1023E0004FEA410C7FEA6C5C02D150EA013C0AD111
:1023F0004FEA430C7FEA6C5C02D152EA033C02D103
:102400004FF0000070474FF0010070474FEA410263
:1024100012F5001215D211D56FF47873B3EB625236
:1024200012D94FEAC12343F0004343EA505311F05D
:10243000004F23FA02F018BF404270474FF00000EF
:10244000704750EA013005D111F0004008BF6FF02D
:10245000004070474FF00000704700BF53B94AB9C1
:10246000002908BF00281CBF4FF0FF314FF0FF309C
:10247000FFF7B6BEADF1080C6DE904CEFEF706FE1F
:10248000DDF804E0DDE9022304B0704730B589B01F
:1024900000240494059406940794184B9A6942F01A
:1024A00020029A619A6902F020020192019A9A69C7
:1024B00042F004029A619A6902F004020292029ABE
:1024C0009A6942F008029A619B6903F0080303933A
:1024D000039B0B4D22464FF44071284600F02BFD24
:1024E0004FF4407304930123059306940323079349
:1024F00004A9284600F008FC09B030BD00100240D5
:102500000008014072B6FEE700B591B000230993C0
:102510000B930C930193029303930493059301216E
:1025200006914FF48032079208930A9102230D938B
:102530000E924FF4E0130F9306A800F019FD80B936
:102540000F23019302210291002303934FF4806231
:102550000492059301A800F049FF20B911B05DF87D
:1025600004FBFFF7CFFFFFF7CDFF000030B591B0C0
:10257000254800F0F7F90023ADF836304FF4FA6340
:10258000ADF838300223ADF83A304FF47A73ADF835
:102590003C30ADF83E3000F037FBFFF7B5FFFFF7FA
:1025A00075FF00F0ADFA07A800F0ACF8044644B19E
:1025B00007A800F0A7F804464FF47A7001F092F9EA
:1025C000F5E7002306930593049305AB04AA06A937
:1025D00007A800F0E1F80698FDF71EFF04460D4637
:1025E0000598FDF719FFCDE902010498FDF714FFE6
:1025F000CDE9000122462B46044804F039F81420A6
:1026000001F070F9E1E700BF240A0020B0C700081C
:1026100090F90030002B01DD002070470FDB90F9AE
:102620000130002B01DD012070470ADB90F90230F8
:10263000002B08DC01DB07207047062070470420D0
:102640007047052070470220704738B50546FFF7F0
:10265000DFFF0446E81CFFF7DBFF44EAC00424B2B6
:10266000A81DFFF7D5FF44EA801080B238BD0000F6
:1026700010B588B002A905A802F092FD032805D084
:102680001F4804F057F8012008B010BD01A802F05F
:10269000F1F8019C0598FEF733FA2146FEF784FA1B
:1026A000FEF75EFC05900698FEF72AFA2146FEF733
:1026B0007BFAFEF755FC06900798FEF721FA2146B3
:1026C000FEF772FAFEF74CFC079005A802F0BAFE7E
:1026D0000DF1020002F0F4F8BDF80230029A03FB9B
:1026E00002F20292039A03FB02F20392049A03FBA2
:1026F00002F3049302A802F025FF0020C4E700BF04
:10270000C8C7000810B582B004460020019002F04E
:10271000B5FB002830D1782002F03EFB0190A08B61
:1027200001F076FF0190A07F01F0E0FF0190208C86
:1027300002F0E2FA0190C82002F0F0F8019002F0F5
:10274000D3FD01901148FFF780FF02F0D9FD019001
:1027500040F2731003F04AF901902046FFF788FF1A
:102760000190012002F0D2FC0190019BB3F1FF3FE8
:1027700007D0002002B010BD054803F0DBFF0120A8
:10278000F8E7044803F0D6FF0120F3E7000000203B
:10279000E0C70008E8C700082DE9F04F8DB00D46EE
:1027A00014469B460DF1290301930DF12A03009372
:1027B0000BAB06AA00F1140103F024FA002840F044
:1027C000C680BDF82A3013F4807F01D10120BFE01C
:1027D000634BD3E900890698FDF70CFE42464B4651
:1027E000FDF79CFFFEF782F882460798FDF702FE90
:1027F00042464B46FDF792FFFEF778F807460898E9
:10280000FDF7F8FD42464B46FDF788FFFEF76EF8F0
:1028100006460998FDF7EEFD42464B46FDF77EFF62
:10282000FEF764F880464FF040413846FEF7BCF9A9
:1028300003904146FEF7B8F9814651465046FEF7EF
:10284000ABF804903146FEF7AFF901464846FEF773
:10285000A3F803F0EBFAFDF7DFFD3FA3D3E9002374
:10286000FDF732FEFEF742F8286031463046FEF7AB
:1028700093F805904146FEF797F9054639460498C6
:10288000FEF792F901462846FEF786F805463946D6
:102890000398FEF789F9814631460598FEF784F9D9
:1028A00001464846FEF776F84FF07E51FEF774F881
:1028B0000146284603F0E2FAFDF7AEFD26A3D3E970
:1028C0000023FDF701FEFEF711F82060314638467F
:1028D000FEF76AF9044641465046FEF765F901469F
:1028E0002046FEF759F80146FEF756F804465146D1
:1028F0005046FEF759F9054639463846FEF754F971
:1029000001462846FEF748F8054631463046FEF7B0
:102910004BF901462846FEF73DF80546414640463C
:10292000FEF742F901462846FEF734F801462046F4
:1029300003F0A4FAFDF770FD07A3D3E90023FDF728
:10294000C3FDFDF7D3FFCBF80000002000E001201D
:102950000DB0BDE8F08F00BF6666666666A64C40A7
:102960001000002008B5054B1860054B18680023BF
:1029700002221946806803F0E5FE08BD1C0A00200B
:1029800054000020022801D80120704708B503F048
:10299000C7FD09230360002008BD000010B5013801
:1029A00001280AD814464FF0FF3392B20748006856
:1029B00000F0A3FE40B9204610BD03F0B1FD09238D
:1029C00003604FF0FF30F7E70520F5E71C0A002011
:1029D000022801D80020704708B503F0A1FD0923A3
:1029E00003604FF0FF3008BD08B503F099FD0923DF
:1029F00003604FF0FF3008BD08B548B94FF0FF3312
:102A000001220848006800F0E4FE40B9012008BD3A
:102A100003F086FD092303604FF0FF30F7E7052040
:102A2000F5E700BF1C0A002008B5022804D84FF4BF
:102A300000534B60002008BD03F072FD09230360C2
:102A4000F8E7000082B00E4B9A6942F001029A61E9
:102A50009A6902F001020092009ADA6942F080520B
:102A6000DA61DB6903F080530193019B054A5368E7
:102A700023F0E06343F00073536002B0704700BF7F
:102A80000010024000000140FEE7FEE7FEE7FEE71F
:102A9000FEE770477047704708B500F0C7F808BDFB
:102AA0000120704708B503F03BFD162303604FF08B
:102AB000FF3008BD08B54FF0FF31FFF7F3FFFEE729
:102AC00008B503460B4A126842B10A4A106803442B
:102AD0006A46934206D8074A136008BD054A06496C
:102AE0001160F2E703F01CFD0C2303604FF0FF3090
:102AF000F3E700BF200A0020D80A0020704700003A
:102B000008B50A480A4B03604FF4E13343600023E1
:102B10008360C36003610C2242618361C36100F082
:102B2000BDFD00B908BDFFF7EDFCFBE7240A00205E
:102B30000038014010B586B000230293039304933C
:102B4000059302681A4B9A4201D006B010BD03F5F6
:102B500058439A6942F480429A619A6902F4804229
:102B60000092009A9A6942F008029A619B6903F008
:102B700008030193019B4023029302230393032341
:102B800005930C4C02A9204600F0BEF88023029366
:102B900000230393049302A9204600F0B5F8064AE7
:102BA000536843F0E06343F004035360CDE700BF94
:102BB00000380140000C01400000014010B50446FF
:102BC0000E4B18784FF47A73B3FBF0F30C4A10688D
:102BD000B0FBF3F000F082F868B90F2C01D90120A6
:102BE0000AE0002221464FF0FF3000F043F8054B89
:102BF0001C60002000E0012010BD00BF1C00002070
:102C0000180000202000002008B5074A136843F090
:102C100010031360032000F01BF80F20FFF7CEFF16
:102C2000FFF710FF002008BD00200240034A116892
:102C3000034B1B780B441360704700BF680A0020E9
:102C40001C000020014B1868704700BF680A002074
:102C5000074AD36823F4E0631B041B0C000200F452
:102C6000E060034343F0BF6343F40033D360704735
:102C700000ED00E030B4174BDB68C3F30223C3F16F
:102C80000704042C28BF04241D1D062D18D9033B5E
:102C90004FF0FF3505FA04F421EA0401994005FAE2
:102CA00003F322EA0303194300280BDB0901C9B22D
:102CB00000F1604000F5614080F8001330BC7047BF
:102CC0000023E5E700F00F000901C9B2024B1954D7
:102CD000F4E700BF00ED00E014ED00E00138B0F1D2
:102CE000807F0AD2064B5860064AF02182F82310F2
:102CF0000020986007221A6070470120704700BFCB
:102D000010E000E000ED00E0F0B482B000252C46B9
:102D1000A3E07F4FBB4210D007D97E4FBB420CD0FF
:102D200007F58037BB4208D013E0A7F58017BB42F8
:102D300003D007F57027BB4207D18B68002B58D012
:102D4000012B51D04261082503E0A7F58017BB4253
:102D5000F3D0FF2E4FD88446FF2E4FD8A200DCF8C8
:102D600000300F27974023EA070305FA02F21343C6
:102D7000CCF800304B6813F0805F6DD0664B9A69D9
:102D800042F001029A619B6903F001030193019BE8
:102D9000A208971C614B53F8273004F00307BF00CB
:102DA0004FF00F0C0CFA07FC23EA0C0C5C4B98421A
:102DB0002AD003F58063984200F08A8003F580638F
:102DC000984200F0878003F5806398421AD004236C
:102DD0001BE0CD68BDE7CD680435BAE7CD6808359E
:102DE000B7E7CD680C35B4E702610825B1E70025E7
:102DF000AFE70425ADE700F1040CADE7A4F108024C
:102E00009200ACE7032300E00023BB4043EA0C033D
:102E10000232424F47F822304B6813F4803F5BD0B8
:102E2000404A1368334313604B6813F4003F59D092
:102E30003C4A5368334353604B6813F4801F57D0A8
:102E4000384A9368334393604B6813F4001F55D09E
:102E5000344AD3681E43D66001340B6833FA04F257
:102E600052D00122A24003EA020632EA0303F3D160
:102E70004B68122B3FF64DAF122B3FF66AAF01A7FE
:102E800057F823F03B2D0008D32D0008DD2D000856
:102E9000EF2D0008532D0008532D0008532D000876
:102EA000532D0008532D0008532D0008532D000802
:102EB000532D0008532D0008532D0008532D0008F2
:102EC000532D0008532D0008D72D0008E32D0008CE
:102ED00001239AE7022398E7124A136823EA0603BC
:102EE0001360A1E70F4A536823EA06035360A3E780
:102EF0000C4A936823EA06039360A5E7094AD3685E
:102F000023EA0606D660A7E702B0F0BC704700BF10
:102F100000002210000031100010024000000140AB
:102F200000080140000401408368194201D00120DB
:102F30007047002070470AB10161704709040161C0
:102F40007047000082B0084B1B68084AA2FB0323AD
:102F50005B0A00FB03F3019300BF019B5A1E019221
:102F6000002BF9D102B0704718000020D34D621039
:102F7000002800F0F18170B582B00446036813F0B8
:102F8000010F2CD0AA4B5B6803F00C03042B1DD05F
:102F9000A74B5B6803F00C03082B12D06368B3F5F2
:102FA000803F41D0002B55D103F1804303F504331A
:102FB0001A6822F480321A601A6822F480221A6099
:102FC00037E09B4B5B6813F4803FE7D0984B1B685E
:102FD00013F4003F03D06368002B00F0BF81236827
:102FE00013F0020F75D0924B5B6813F00C0F5FD09B
:102FF0008F4B5B6803F00C03082B54D02369002B24
:1030000000F089808B4B01221A60FFF71BFE0546FA
:10301000874B1B6813F0020F74D1FFF713FE401BA0
:103020000228F5D903209EE1814A136843F48033D6
:103030001360636843B3FFF705FE05467C4B1B68CE
:1030400013F4003FCBD1FFF7FDFD401B6428F5D9F9
:10305000032088E1B3F5A02F09D0754B1A6822F43C
:1030600080321A601A6822F480221A60E1E703F1C4
:103070008043A3F53C331A6842F480221A601A6830
:1030800042F480321A60D4E7FFF7DCFD0546684B56
:103090001B6813F4003FA2D0FFF7D4FD401B642847
:1030A000F5D903205FE1624B5B6813F4803FA5D143
:1030B0005F4B1B6813F0020F03D02369012B40F014
:1030C0004F815B4A136823F0F803616943EAC10347
:1030D0001360236813F0080F32D0A369002B45D08A
:1030E000554B01221A60FFF7ADFD0546504B5B6A58
:1030F00013F0020F21D1FFF7A5FD401B0228F5D9DF
:10310000032030E14A4A136823F0F803616943EA77
:10311000C1031360DDE7474B00221A60FFF792FD01
:103120000546434B1B6813F0020FD2D0FFF78AFD10
:10313000401B0228F5D9032015E10120FFF702FF0B
:10314000236813F0040F00F09780394BDB6913F00C
:10315000805F1DD1364BDA6942F08052DA61DB695B
:1031600003F080530193019B012512E0324B0022B2
:103170001A60FFF767FD05462D4B5B6A13F0020FDF
:10318000DED0FFF75FFD401B0228F5D90320EAE0FF
:1031900000252A4B1B6813F4807F11D0E368012BB4
:1031A00022D0002B38D103F1804303F504331A6A8F
:1031B00022F001021A621A6A22F004021A6218E06E
:1031C0001E4A136843F480731360FFF73BFD064605
:1031D0001A4B1B6813F4807FE0D1FFF733FD801B8F
:1031E0006428F5D90320BEE0114A136A43F00103B5
:1031F0001362E36873B3FFF725FD06460C4B1B6AA9
:1032000013F0020F37D1FFF71DFD801B41F2883309
:103210009842F3D90320A6E0052B11D0044B1A6A7B
:1032200022F001021A621A6A22F004021A62E0E72E
:103230000010024000004242800442420070004000
:103240004D4B1A6A42F004021A621A6A42F00102F5
:103250001A62CEE7FFF7F6FC0646474B1B6A13F0EF
:10326000020F08D0FFF7EEFC801B41F28833984232
:10327000F3D9032077E0E5B9E369002B72D03E4A29
:10328000526802F00C02082A56D0022B17D03B4B92
:1032900000221A60FFF7D6FC0446374B1B6813F078
:1032A000007F47D0FFF7CEFC001B0228F5D9032092
:1032B00059E0314AD36923F08053D361DCE72F4BC7
:1032C00000221A60FFF7BEFC05462B4B1B6813F06B
:1032D000007F06D0FFF7B6FC401B0228F5D903207B
:1032E00041E0236AB3F5803F1AD023494B6823F4A9
:1032F0007413226A606A024313434B601F4B01221E
:103300001A60FFF79FFC04461B4B1B6813F0007FFD
:103310000ED1FFF797FC001B0228F5D9032022E00D
:10332000154A536823F40033A1680B435360DCE76C
:10333000002018E0002016E0012B16D00E4B5B6831
:1033400003F48031226A914211D103F47013626A4E
:1033500093420ED1002006E001207047012002E0D8
:10336000012000E0002002B070BD0120FBE7012039
:10337000F9E70120F7E700BF001002406000424279
:1033800086B0164B0FCB0DF1180C0CE90F0040F274
:103390000123ADF80430124B5B6803F00C02082ADD
:1033A00002D0104806B07047C3F38342624412F85B
:1033B000102C13F4803F0CD0094B5B68C3F34043DF
:1033C000634413F8143C074800FB02F0B0FBF3F031
:1033D000E8E7054800FB02F0E4E700BF0CC800087E
:1033E0000010024000127A0000093D00002800F0A1
:1033F000A08070B50D460446524B1B6803F00703CE
:103400008B420BD24F4A136823F007030B43136020
:10341000136803F007038B4240F08D80236813F09C
:10342000020F17D013F0040F04D0474A536843F437
:10343000E0635360236813F0080F04D0424A5368D6
:1034400043F460535360404A536823F0F003A1688B
:103450000B435360236813F0010F31D06368012BD5
:1034600020D0022B25D0384A126812F0020F64D007
:1034700035494A6822F0030213434B60FFF7E2FB31
:103480000646314B5B6803F00C036268B3EB820FB6
:1034900016D0FFF7D7FB801B41F288339842F0D952
:1034A000032045E0284A126812F4003FE0D10120D1
:1034B0003EE0254A126812F0007FD9D1012037E0A2
:1034C000204B1B6803F00703AB420AD91D4A13685F
:1034D00023F007032B431360136803F00703AB4289
:1034E0002DD1236813F0040F06D0174A536823F434
:1034F000E063E1680B435360236813F0080F07D0C3
:10350000114A536823F46053216943EAC1035360AD
:10351000FFF736FF0C4B5B68C3F303130B4AD35C16
:10352000D8400B4B18600B4B1868FFF747FB002087
:1035300070BD012070470120FAE70120F8E7012063
:10354000F6E700BF0020024000100240F4C7000868
:103550001800002020000020014B1868704700BFB1
:103560001800002008B5FFF7F7FF044B5B68C3F3B2
:103570000223034AD35CD84008BD00BF00100240BC
:1035800004C8000808B5FFF7E7FF044B5B68C3F306
:10359000C223034AD35CD84008BD00BF00100240DC
:1035A00004C8000810B504460268136923F44053A8
:1035B000C1680B43136183680269134342691A436C
:1035C0000168CB6823F4B05323F00C031343CB60A2
:1035D0000268536923F4407381690B4353610268A5
:1035E000124B9A421FD0FFF7BDFF00EB800303EBA5
:1035F000830362689200B3FBF2F20D48A0FB023134
:103600004909642303FB11231B013233A0FB03236D
:103610005B0903F0F00202EB011203F00F032168D3
:1036200013448B6010BDFFF7ADFFDEE700380140AB
:103630001F85EB512DE9F84305460F46164699467E
:10364000DDF820802C68246837EA04030CBF0124CD
:103650000024B4421FD1B8F1FF3FF3D0B8F1000FFE
:1036600005D0FFF7EFFAA0EB09004045EAD92A6838
:10367000D36823F4D073D3602A68536923F001031D
:103680005361202385F83D3085F83E30002385F8CE
:103690003C30032000E00020BDE8F88358B310B5AB
:1036A000044690F83D300BB3242384F83D30226863
:1036B000D36823F40053D3602046FFF773FF2268DA
:1036C000136923F4904313612268536923F02A039A
:1036D00053612268D36843F40053D3600020206410
:1036E000202384F83D3084F83E3010BD80F83C3013
:1036F000FFF720FAD8E7012070472DE9F04182B0AA
:103700001E4690F83D30DBB2202B54D104460D46C6
:103710009046002953D0002A53D090F83C30012B1A
:1037200051D0012380F83C3000230364212380F82A
:103730003D30FFF787FA0746A4F82480A4F82680D6
:10374000A368B3F5805F05D04FF00008002384F82C
:103750003C3012E0236913B14FF00008F6E7A846A9
:103760000025F3E738F8023B2268C3F308035360EF
:10377000E28C92B2013A92B2E284E38C9BB273B1D2
:1037800000963B46002280212046FFF753FFE0B918
:10379000002DE7D015F8012B23685A60E8E7009662
:1037A0003B46002240212046FFF744FF78B9202302
:1037B00084F83D3000E0022002B0BDE8F081012035
:1037C000FAE70120F8E70220F6E70320F4E70320F8
:1037D000F2E72DE9F04182B01E4690F83E30DBB2B0
:1037E000202B5CD104460D46904600295BD0002A70
:1037F0005BD090F83C30012B59D0012380F83C304D
:1038000000230364222280F83E200363FFF71AFAA4
:103810000746A4F82C80A4F82E80A368B3F5805F37
:1038200005D04FF00008002384F83C3017E02369EE
:1038300013B14FF00008F6E7A8460025F3E7236828
:103840005B68C3F3080328F8023B03E023685B6866
:103850002B700135E28D92B2013A92B2E285E38D8E
:103860009BB2BBB100963B46002220212046FFF7C9
:10387000E1FEF0B9002DE2D0A368B3F5805FE5D09A
:1038800013B92369002BE1D023685B6803F07F0341
:103890002B70DEE7202384F83E30002000E0022079
:1038A00002B0BDE8F0810120FAE70120F8E702202C
:1038B000F6E70320F4E7000000EBC000084B586077
:1038C00000229A6001221A60054B1B6803F0011365
:1038D000012BF9D0024B00221A609A60704700BF9A
:1038E00010E000E038B505460024AC4205D24FF4A4
:1038F0007A70FFF7E1FF0134F7E738BD10B5144CDB
:10390000636823F0F0036360636843F0100363604F
:1039100001224FF400712046FFF70DFB01224FF406
:1039200080712046FFF707FB0420FFF7C5FF002248
:103930004FF400712046FFF7FEFA0420FFF7BCFFAA
:1039400000224FF480712046FFF7F5FA10BD00BF4A
:103950000008014010B5144C636823F0F003636065
:10396000636843F01003636000224FF480712046C7
:10397000FFF7E1FA00224FF400712046FFF7DBFA6F
:103980000420FFF799FF01224FF480712046FFF7D2
:10399000D2FA0420FFF790FF01224FF40071204675
:1039A000FFF7C9FA10BD00BF0008014038B5194C37
:1039B000636823F0F0036360636843F0800363602F
:1039C00001224FF400712046FFF7B5FA0120FFF7FE
:1039D00073FF01224FF480712046FFF7ACFA0120FB
:1039E000FFF76AFF00244FF400710A48FFF79CFAC2
:1039F000054638B10134E4B2FA2CF4D9FFF7AAFF36
:103A0000012505E000224FF480710248FFF793FA88
:103A1000284638BD0008014010B5144C00224FF470
:103A200080712046FFF787FA636823F0F003636034
:103A3000636843F01003636000224FF40071204676
:103A4000FFF779FA0220FFF737FF01224FF4807168
:103A50002046FFF770FA0220FFF72EFF00224FF4F6
:103A600080712046FFF767FA10BD00BF00080140D3
:103A700010B5144C00224FF480712046FFF75BFA1A
:103A8000636823F0F0036360636843F010036360CE
:103A900001224FF400712046FFF74DFA0220FFF794
:103AA0000BFF01224FF480712046FFF744FA0220F9
:103AB000FFF702FF00224FF480712046FFF73BFA28
:103AC00010BD00BF0008014070B504461E484368A1
:103AD00023F0F0034360436843F010034360002287
:103AE0004FF48071FFF727FA00251FE001224FF401
:103AF00000711548FFF71FFA6400E4B20220FFF7D7
:103B0000DBFE114E01224FF480713046FFF713FAAD
:103B10000220FFF7D1FE00224FF480713046FFF7FC
:103B20000AFA0220FFF7C8FE0135EDB2072D09D8C9
:103B300014F0800FDAD100224FF400710248FFF731
:103B4000FAF9D9E770BD00BF0008014070B51D4B00
:103B50005A6822F0F0025A605A6842F080025A60B5
:103B60000024254604E00420FFF7A6FE0135EDB24F
:103B7000072D1ED86400E4B2124E00224FF480716B
:103B80003046FFF7D8F90420FFF796FE01224FF4E4
:103B900080713046FFF7CFF90420FFF78DFE4FF418
:103BA00000713046FFF7C0F90028DCD044F0010472
:103BB000D9E700224FF480710248FFF7BCF9204694
:103BC00070BD00BF000801402DE9F04106460F46D8
:103BD00015461C46FFF792FE3046FFF775FFFFF7CC
:103BE000E5FE88B980463846FFF76EFFFFF7DEFE38
:103BF0000520FFF761FEFFF781FE46F00100FFF7A9
:103C000063FFFFF7D3FE09E0FFF7A4FE4FF00108C2
:103C10000FE0FFF72DFF0135013CA4B23CB1FFF7E7
:103C200095FF2870012CF4D0FFF7F6FEF3E7FFF7BD
:103C300091FE4046BDE8F0812DE9F04104460F4673
:103C400016461D46FFF75AFE2046FFF73DFFFFF7D9
:103C5000ADFE88B980463846FFF736FFFFF7A6FE6F
:103C60004446AC4214DA305DFFF72EFFFFF79EFEAC
:103C700048B90134E4B2F4E7FFF76CFE4FF00108F5
:103C80004046BDE8F081FFF765FE4FF00108F7E719
:103C9000FFF760FEF4E70000F0B583B007462A4B5B
:103CA000586804230DEB03020D210078FFF78CFF09
:103CB000002844D104469DF80420D21002F01C02D2
:103CC0009DF80710C1F301131A438DF800209DF8E9
:103CD0000520D21002F01C02C1F381031A438DF8B3
:103CE00001209DF80630DB1003F01C0301F00301F6
:103CF0000B438DF8023015E007EB8405134B47F8B2
:103D0000243002AB9A1912F8083C013BDBB202F8EE
:103D1000083C2BB10E492868FCF746FF2860F0E705
:103D20000134E4B2022C0CD8264602AB234413F82B
:103D3000083C002BE0D1002347F82430F0E70720AF
:103D400000E0002003B0F0BD240000207B14AE3E54
:103D50001D5A843F2DE9F04385B08146884601A86D
:103D6000FFF79AFF00273C460DE020493046FDF75B
:103D7000B9F820B91E493046FDF7D2F810B1012339
:103D8000A3401F430134022C2CDCA50059F8240069
:103D900058F82430C01A0028B8BF4042FCF7B0FEE3
:103DA0004FF05E51FCF700FF064604AB1D4455F88A
:103DB0000C5C00212846FDF78BF80028D5D1294658
:103DC0003046FCF7A5FF4FF07E51FCF7E3FD20F0F5
:103DD00000400849FDF7A4F80028D3D00123A340F0
:103DE0001F43CFE7384605B0BDE8F0839A99993E66
:103DF0003333733F295C0F3E2DE9F04182B0074613
:103E00008846364B5868032301AA0D210078FFF736
:103E1000DBFE00285CD19DF8043003F01F038DF811
:103E200004309DF8053003F01F038DF805309DF830
:103E3000063003F01F038DF806300026344624E0D8
:103E4000274802E02749FCF7AFFE02AB1A1912F827
:103E5000043C013BDBB202F8043C002BF2D10146EA
:103E60002846FCF755FF4FF07E51FCF793FD20F0FC
:103E700000401D49FDF754F830B10123A3401E4313
:103E800002E00123A3401E430134022C21DC57F839
:103E9000240058F82430C01A0028B8BF4042FCF76C
:103EA0002FFE4FF05E51FCF77FFE054602AB234428
:103EB00013F8043C002BC3D10C49FDF713F800287C
:103EC000DFD10B492846FDF72BF80028DCD0D8E7D6
:103ED0000726304602B0BDE8F08100BF2400002074
:103EE0000000C84154E3853F295C0F3E000020419B
:103EF0000000D24200B583B0234B93F82430CBB1FD
:103F0000A0B102238DF807301F4B586819680123B0
:103F10000DF10702C97B0078FFF78EFE48BB9DF8C4
:103F20000720194B5A7403B05DF804FB00238DF889
:103F30000730E9E7144B9B7AF3B110B1124B5B7C6D
:103F4000EBB990B101238DF807300F4B5868196811
:103F500001230DF10702C97B0078FFF76DFE80B9E0
:103F60009DF80720084B5A74DDE700238DF80730D1
:103F7000EBE74FF0FF30D6E74FF0FF30D3E70020FC
:103F8000D1E74FF0FF30CEE7240000202DE9F043C9
:103F900085B004460D46164601238DF804300023F3
:103FA0008DF80530AC4B58681968022301AA897C4A
:103FB0000078FFF741FE002840F0DD81C820FFF7C0
:103FC00091FC00238DF80430A34B58681968012335
:103FD00001AAC97B0078FFF72FFE002840F0CE81B0
:103FE0009D4B58681968012301AA49790078FFF7A9
:103FF00023FE002840F0C581974B586819680123BB
:1040000001AA897C0078FFF717FE002840F0BC81E8
:10401000914B58681968012301AAC97D0078FFF700
:104020000BFE002840F0B3818B4B586819680123C0
:1040300001AA09790078FFF7FFFD002840F0AA8166
:104040000C238DF80430844B58681968012301AAA9
:1040500009790078FFF7F0FD002840F09E810F20DD
:10406000FFF740FC7C4B9A6A527A8DF8042058681E
:104070001968012301AA89780078FFF7DDFD00287F
:1040800040F08E81744B9A6A127A8DF80420586839
:104090001968012301AA49780078FFF7CDFD0028AF
:1040A00040F08181002E00F0C8806B4B9B6A9B7AA8
:1040B00043F0E0038DF80430674B5868196801231A
:1040C00001AA89790078FFF7B7FD002840F06E81DA
:1040D000002E00F0B880604B9B6ADB7A43F0E0036F
:1040E0008DF804305C4B58681968012301AAC9791E
:1040F0000078FFF7A1FD002840F05B81002E40F022
:10410000A68040238DF80430534B5868196801236A
:1041100001AA09790078FFF78FFD002840F04C8153
:1041200078238DF804304C4B58681968012301AA94
:1041300049790078FFF780FD002840F04081322067
:10414000FFF7D0FB00238DF80430434B5868196803
:10415000012301AA49790078FFF76EFD002840F09D
:1041600031813D4B58681968022301AA897A007889
:10417000FFF72AFD0646002840F027819DF804300D
:104180009DF8057047EA0327344BA3FB0737C7F3B5
:10419000C7070023A36063602360AB606B602B6084
:1041A000BE425DD22C4B586819680C2301AAC97A0B
:1041B0000078FFF709FD002840F00A819DF80430DF
:1041C0009DF8051041EA032109B29DF806309DF8DB
:1041D000072042EA032212B29DF808009DF8093038
:1041E00043EA00231BB228680144296069680A4435
:1041F0006A60AA681344AB609DF80A309DF80B20F2
:1042000042EA032212B29DF80C309DF80D1041EAEB
:10421000032109B29DF80E009DF80F3043EA0023F8
:104220001BB2206802442260626811446160A26887
:104230001344A3600136F6B2B2E7074B9B6A9B7A40
:104240008DF8043038E718238DF804304AE7C82089
:10425000FFF748FB55E700BF24000020ABAAAAAA3D
:1042600021688322002308040914FCF7BFFEFEB274
:10427000002732463B46FCF7B9FE20606168832286
:10428000002308040914FCF7B1FE32463B46FCF754
:10429000ADFE6060A1688322002308040914FCF7C6
:1042A000A5FE32463B46FCF7A1FEA0602B684FEA14
:1042B00003484FEA2349B8F1000F79F100033ADBD4
:1042C0004FEAD82032463B4640EA49504FEAE921BE
:1042D000FCF78CFE28606B684FEA03484FEA2349DD
:1042E000B8F1000F79F100032EDB4FEAD8203246F7
:1042F0003B4640EA49504FEAE921FCF777FE686007
:10430000AB684FEA03484FEA2349B8F1000F79F14F
:10431000000322DB4FEAD82032463B4640EA4950B0
:104320004FEAE921FCF762FE00281FDDA0F580308E
:10433000A86000204EE040F2FF7318EB03084FF036
:10434000000349EB0309BBE740F2FF7318EB0308D6
:104350004FF0000349EB0309C7E740F2FF7318EB86
:1043600003084FF0000349EB0309D3E700F5803061
:10437000A86000202EE04FF0FF302BE04FF0FF3020
:1043800028E04FF0FF3025E04FF0FF3022E04FF003
:10439000FF301FE04FF0FF301CE04FF0FF3019E01E
:1043A0004FF0FF3016E04FF0FF3013E04FF0FF30DA
:1043B00010E04FF0FF300DE04FF0FF300AE04FF01B
:1043C000FF3007E04FF0FF3004E04FF0FF3001E036
:1043D0004FF0FF3005B0BDE8F08300BF7C4B9B7A07
:1043E000002B00F0D48000B583B000238DF8073097
:1043F000774B5868196801230DF10702C97B0078D3
:10440000FFF71AFC002840F0C580714B5868196806
:1044100001230DF1070249790078FFF70DFC002810
:1044200040F0BB806A4B5868196801230DF1070200
:1044300009790078FFF700FC002840F0B180644B58
:1044400093F82430002B52D00C238DF80730604BAA
:104450005868196801230DF1070209790078FFF700
:10446000EBFB002840F09F803220FFF73BFAC0238F
:104470008DF80730564B9B7A13F0010F02D0E023E2
:104480008DF80730524B5868196801230DF1070267
:1044900009790078FFF7D0FB002840F087804C4B6B
:1044A0005B7C03B302238DF80730494B58681968C9
:1044B00001230DF10702C97B0078FFF7BDFB00283F
:1044C00077D100238DF80730414B586819680123D4
:1044D0000DF1070249790078FFF7AEFB00286BD198
:1044E00003B05DF804FB00238DF80730DDE70423FB
:1044F0008DF80730364B5868196801230DF1070213
:1045000009790078FFF798FB002858D1304B9B7C45
:1045100023B92F4B9B7A13F0010F30D140238DF834
:1045200007302B4B5868196801230DF107020979F0
:104530000078FFF781FB002844D13220FFF7D2F941
:10454000234B5B7CFBB101238DF80730204B58686F
:10455000196801230DF10702C97B0078FFF76CFB96
:1045600098BB1B4A506852F8101B01234979007808
:10457000FFF762FB0028B3D04FF0FF30B0E76023B5
:104580008DF80730CDE700238DF80730DEE74FF0D8
:10459000FF3070474FF0FF30A2E74FF0FF309FE74A
:1045A0004FF0FF309CE74FF0FF3099E74FF0FF30BE
:1045B00096E74FF0FF3093E74FF0FF3090E74FF072
:1045C000FF308DE74FF0FF308AE74FF0FF3087E78D
:1045D000240000200D4B1B7A032B13D8DFE803F0D7
:1045E00002060A0EFA230380002070474FF4FA7384
:1045F0000380F9E74FF47A730380F5E74FF4FA6329
:104600000380F1E700230380EEE700BF24000020D1
:10461000244B9B7A002B3CD000B583B0B0F57A7F59
:1046200033D00BD8FA2813D0B0F5FA7F03D1082382
:104630008DF807300FE04FF0FF3023E0B0F5FA6F50
:1046400003D118238DF8073005E04FF0FF3019E053
:1046500000238DF80730134B1B7A9DF80720B3EB2E
:10466000E20F19D00F4B5868196801230DF10702AA
:1046700089790078FFF7E0FA80B99DF80730DB1000
:10468000084A137203B05DF804FB10238DF807305D
:10469000E1E74FF0FF3070470020F3E74FF0FF30C5
:1046A000F0E700BF240000200F4B5B7A032B16D8E5
:1046B000DFE803F0020C0F12022303700A4BDB7CCD
:1046C00083B103785B0003700020704704230370FC
:1046D000F4E708230370F1E710230370EEE74FF0CF
:1046E000FF3070470020704724000020234B9B7A46
:1046F000002B37D000B583B002380E2835D8DFE85C
:1047000000F0083425343434293434343434343427
:104710002D0000238DF80730184B5B7A9DF8072099
:10472000B3EBE20F24D0154B5868196801230DF143
:104730000702C9790078FFF77FFAD8B99DF80730EA
:10474000DB100E4A537203B05DF804FB08238DF8AA
:104750000730E1E710238DF80730DDE718238DF8E7
:104760000730D9E74FF0FF3070474FF0FF30EAE7EE
:104770000020E8E74FF0FF30E5E700BF240000200D
:104780000F4BDB7A013B052B17D8DFE803F003075B
:104790000A0D1013BC23038000207047622303809E
:1047A000FAE72A230380F7E714230380F4E70A23B8
:1047B0000380F1E705230380EEE700230380EBE7A6
:1047C00024000020234B9B7A002B3AD000B583B005
:1047D000BB281AD901238DF807301E4BDA7A9DF8D1
:1047E00007309A4230D01B4B5868196801230DF1ED
:1047F000070289780078FFF71FFA38BB9DF8072079
:10480000144BDA7203B05DF804FB612803D902236C
:104810008DF80730E1E7292803D903238DF8073005
:10482000DBE7132803D904238DF80730D5E70928DF
:1048300003D905238DF80730CFE706238DF807301D
:10484000CBE74FF0FF3070470020DBE74FF0FF3041
:10485000D8E700BF24000020054B93F8243023B98B
:10486000034BDB890380002070474FF0FF30704717
:10487000240000200D4B1B7A032B13D8DFE803F034
:1048800002060A0E0A4B036000207047094B0360C2
:1048900000207047084B036000207047074B0360FF
:1048A000002070474FF0FF30704700BF2400002009
:1048B0000000034300008342333303423333834118
:1048C000114B5B7A032B1AD8DFE803F0020D1115A8
:1048D0004FF4804303800C4BDB7C9BB103885B105F
:1048E0000380002070474FF400530380F3E74FF438
:1048F00080530380EFE74FF400630380EBE74FF052
:10490000FF3070470020704724000020024B1B7CC2
:1049100003700020704700BF2400002070B5174BC3
:1049200093F824302BBB00F0FE04144B9B7A13B396
:10493000124A167C23401374A3420BD04FF0FF356C
:1049400014B90E4B1B7D3BB10120FFF7D3FA3CB9E4
:10495000284670BD0025F3E70020FFF7CBFAF6E705
:10496000FFF73CFD0028F3D0044B1E744FF0FF35D9
:10497000EEE70025ECE74FF0FF35E9E724000020E3
:104980002E4B93F82430002B49D0F0B583B0054668
:104990000F461646294B9B7A002B43D0274B58686D
:1049A0001968022301AA897A0078FFF70DF9002817
:1049B0003BD19DF804009DF8054044EA0024AC4238
:1049C00023D31E4B58684388B4EB630F0DDD1B4B9C
:1049D0001968012301AA497C0078FFF7F5F838BB74
:1049E0009DF8043013F0100F14D1144B5868196857
:1049F0002B463A46C97A0078FFF7E6F8D8B9B4FBF7
:104A0000F5F4013C347003B0F0BD002333704FF077
:104A1000FF30F8E7FFF7E2FC6FF00100F3E74FF03B
:104A2000FF3070474FF0FF30EDE74FF0FF30EAE71F
:104A30004FF0FF30E7E74FF0FF30E4E724000020BD
:104A4000584B9B7C834200F09C8010B582B004469A
:104A5000002844D0534B5868196801230DF1070210
:104A600009790078FFF7B0F8002840F08C809DF8B5
:104A7000073023F020038DF807304A4B5868196837
:104A800001230DF1070209790078FFF7D5F8002816
:104A90007CD10320FEF726FF02238DF80730414B1F
:104AA00093F8223013B182238DF807303D4B93F8F1
:104AB00023302BB19DF8073043F030038DF80730D9
:104AC000384B5868196801230DF10702097D0078F9
:104AD000FFF7B2F8002844D04FF0FF3044E0314BEC
:104AE0005868196801230DF1070209790078FFF76A
:104AF0006BF800284DD12B4B9B7A13F0010F35D06A
:104B00009DF8073043F020038DF80730254B586897
:104B1000196801230DF1070209790078FFF78CF875
:104B2000002839D10320FEF7DDFE1E4B93F822301A
:104B30001BB380238DF807301A4B93F823302BB129
:104B40009DF8073043F030038DF80730154B586857
:104B5000196801230DF10702097D0078FFF76CF851
:104B6000E8B9104B9C74002002B010BD9DF80730CE
:104B700023F020038DF80730C8E700238DF80730B5
:104B8000DAE7002070474FF0FF30EDE74FF0FF30DD
:104B9000EAE74FF0FF30E7E74FF0FF30E4E74FF090
:104BA000FF30E1E7240000201B4B93F823308342C1
:104BB0002DD010B582B0044628B330238DF80730CD
:104BC000154B9B7C2BB19DF8073043F002038DF809
:104BD0000730114B93F822302BB19DF8073063F06A
:104BE0007F038DF807300C4B5868196801230DF1CD
:104BF0000702097D0078FFF71FF850B9064B83F8CC
:104C0000234002B010BD00238DF80730D8E7002004
:104C100070474FF0FF30F4E72400002028285FD8C9
:104C200010B582B00446B8B90020FFF7BDFF0023DD
:104C30008DF8043007238DF805302E4B586819681D
:104C4000022301AA897C0078FEF7F6FF00284AD1EA
:104C5000284B187502B010BD0120FFF7A5FF2023D7
:104C60008DF80430012C26D0052C2BD9142C30D8EB
:104C700002238DF805300A20FFF7A4FD9DF80530CA
:104C80009B0143F007038DF805301A4B58681968EB
:104C9000022301AA897C0078FEF7CEFF30BB154BBA
:104CA00008229A7200241C7301221A752046FFF70D
:104CB00035FE2046CEE700238DF805300520FFF7AE
:104CC00081FDDBE701238DF805300520FFF77AFD34
:104CD000D4E703238DF805301420FFF773FDCDE7EB
:104CE0004FF0FF3070474FF0FF30B3E74FF0FF3029
:104CF000B0E700BF24000020264B9B7A002B3FD05A
:104D000010B582B00446234B93F82430002B3AD1DF
:104D1000204B1B7D33B1431E9BB2272B0AD90020A9
:104D2000FFF77CFF032C09D9B4F57A7F07D94FF43C
:104D30007A7404E0FFF772FF00201FE004244FF4B0
:104D40007A7090FBF4F4013C8DF80740114B5868E1
:104D5000196801230DF1070249780078FEF76CFF0E
:104D6000A0B99DF80700431C4FF47A7090FBF3F054
:104D7000084BD8814008FFF725FD002002B010BD88
:104D80004FF0FF3070474FF0FF30F7E74FF0FF3044
:104D9000F4E700BF2400002010B582B0044610F0F4
:104DA000700F50D001238DF80730334B58681968C5
:104DB00001230DF10702897C0078FEF73DFF0028F2
:104DC0004AD19DF8073003F0BF032B4A1373002329
:104DD0008DF8073014F0400F02D104238DF807300E
:104DE00014F0200F05D19DF8073043F002038DF831
:104DF000073014F0100F05D19DF8073043F0010380
:104E00008DF8073014F0080F05D19DF8073043F0F6
:104E100038038DF80730184B5868196801230DF1D5
:104E20000702C97C0078FEF707FFD8B90CB1082C3F
:104E30001ED1114B9C7200241C753220FEF752FDCE
:104E4000204602B010BD18B100238DF80730ACE742
:104E500040238DF80730A8E7074B00229A724FF0E5
:104E6000FF30EEE7044B00229A724FF0FF30E8E784
:104E70000020FFF799FEDCE72400002010B582B087
:104E800080238DF80030384B5868196801236A4632
:104E9000897C0078FEF7D0FE00284DD16420FEF713
:104EA00021FD00238DF800302F4B5868196801232D
:104EB0006A46897C0078FEF7BFFE00283FD12A4B66
:104EC0000022DA74FF21997219725972D9724FF661
:104ED000FF70D881197499740121197383F8221015
:104EE00083F823205A751A75C3F81620C3F81A20C0
:104EF000C3F81E2083F8242083F82520DA844FF499
:104F0000FA60FFF785FBE8B90220FFF7EFFBE0B995
:104F10002A20FFF757FCD8B93220FFF7EDFED0B9B1
:104F2000FFF7FCFCD0B9FFF78BFD0446C8B9FFF7CB
:104F300033FF204602B010BD4FF0FF34F9E74FF0C9
:104F4000FF34F6E74FF0FF34F3E74FF0FF34F0E7BC
:104F50004FF0FF34EDE74FF0FF34EAE74FF0FF3456
:104F6000E7E74FF0FF34E4E7240000203AB370B5E0
:104F700082B00C461646194B9B7A1BB303128DF870
:104F80000430C0B28DF805000844144B5D686B898D
:104F900098421ADC114B1968022301AA097E28786D
:104FA000FEF74AFEA0B90D4B5868196823463246F1
:104FB000497D0078FEF740FE68B902B070BD4FF041
:104FC000FF3070474FF0FF30F7E74FF0FF30F4E766
:104FD0004FF0FF30F1E74FF0FF30EEE72400002004
:104FE0003AB370B582B00C461646194B9B7A1BB388
:104FF00003128DF80430C0B28DF805000844144B3C
:105000005D686B8998421ADC114B1968022301AA6A
:10501000097E2878FEF710FEA0B90D4B5868196874
:1050200023463246497D0078FEF7CEFD68B902B0CE
:1050300070BD4FF0FF3070474FF0FF30F7E74FF093
:10504000FF30F4E74FF0FF30F1E74FF0FF30EEE7CD
:10505000240000202DE9F04F87B09A462A4B93F8A0
:105060002530002B40D107468846914600293ED086
:10507000002401E02C44A4B2BC421CD23E1B102EE2
:10508000A8BF1026B5B208EB040B5A4629462046A5
:10509000FFF76CFF70BB02AA29462046FFF7A0FF6E
:1050A00058BB2A4602A9584601F064FA0028E1D00C
:1050B0006FF0010015E04FEA29238DF804308DF8D8
:1050C0000590114B58681968022301AA897E00785F
:1050D000FEF7B2FDA0B90C4B012283F82520A3F8FE
:1050E00026A007B0BDE8F08F4FF0FF30F9E74FF092
:1050F000FF30F6E74FF0FF30F3E74FF0FF30F0E717
:105100004FF0FF30EDE700BF24000020234B93F861
:10511000243083423CD030B583B018B31F4B93F892
:105120002530002B36D00020FEF7E4FE0020FFF7EC
:1051300087FC1A4DE88CFFF7DFFD00248DF807404F
:10514000686801230DF1070223210078FEF774FD42
:10515000012085F82400FEF7CDFEFFF73FF9204639
:1051600003B030BD0020FEF7C5FE0C4D2B7C8DF842
:105170000730686801230DF1070223210078FEF74C
:105180005BFD002485F82440FFF728F92046E7E777
:10519000002070474FF0FF30E2E700BF24000020FE
:1051A0002DE9F04188B005460E463E4B93F8247039
:1051B000FFB901A8FFF70EFA0DF10700FFF774FA27
:1051C0006846FFF7DDFA0DF10200FFF745FB354BAE
:1051D00093F80A800DF10600FFF798FB0024012CDC
:1051E0000CDC002231462846FEF7D0FE30B10134F7
:1051F000F5E70020FFF78AFF0127DAE7022C28D124
:105200000024284BFF221A725A72DA724FF6FF718D
:10521000D9819A721A7401221A73BDF80400FFF73B
:10522000F7F99DF80700FFF761FABDF80000FFF7F6
:10523000C9FABDF80200FFF75FFD4046FFF7ACFD7D
:105240009DF80600FFF76AFB47BB204608B0BDE8A3
:10525000F081002400E00134012C06DC012202A9C7
:1052600005A8FEF793FE0028F5D1022C14D002A960
:105270003046FEF76FFDC6B205A92846FEF7BCFD15
:1052800010F0FF0F06D000240EB944F0020444F0E1
:105290000404B6E70124F7E70024B2E70120FFF792
:1052A00035FFD2E72400002038B50446C17801F06C
:1052B000C005437813F0010F09D001F03F00C0088A
:1052C00001F007010131074B1B6803B19847637870
:1052D00013F0080F04D0034B5B680BB1A809984783
:1052E000002038BD6C0A002008B5C8234FF4806246
:1052F000024940F6F630FFF7ADFE08BD98C8000839
:1053000010B586B004464A4B1B68ADF80C301B0C38
:105310008DF80E30474B1B68ADF808301B0C8DF82C
:105320000A30454B1B68ADF804301B0C8DF8063075
:10533000424B1B68ADF800301B0C8DF8023000F0BA
:10534000030106AB194411F80C3C8DF81430C0F37E
:10535000C10206AB1A4412F80C3C8DF81530C0F3AC
:10536000811306A8034413F80C0C8DF8160011F8ED
:10537000101C8DF8101012F8102C8DF8112013F855
:10538000103C8DF8123005AA032140F22640FFF7A9
:10539000EDFD002840D104AA032140F22A40FFF786
:1053A000E5FD00283BD1019BADF814301B0C8DF8B6
:1053B0001630009BADF810301B0C8DF8123014F035
:1053C000040F05D037238DF8143027238DF81030C3
:1053D00014F0200F05D057238DF8153047238DF892
:1053E000113014F4807F05D077238DF816306723B1
:1053F0008DF8123005AA03214FF48860FFF7B6FD3F
:1054000080B904AA032140F23140FFF7AFFD60B933
:105410000B4B1C8106B010BD4FF0FF30FAE74FF088
:10542000FF30F7E74FF0FF30F4E74FF0FF30F1E7E0
:1054300070C8000874C8000878C800087CC8000854
:105440006C0A0020F0B585B03C4B1B8903F00302C9
:1054500050F82220019213F0040F01D05242019221
:10546000C3F3C10250F82220029213F0200F01D0A2
:1054700052420292C3F3811250F82220039213F495
:10548000807F01D052420392019AD117DFF8B0C059
:10549000A2FB0C230CFB0133910F41EA8301029A1A
:1054A000D517A2FB0C230CFB0533940F44EA8304AD
:1054B000039AD717A2FB0C230CFB0733950F45EA81
:1054C00083050B0E8DF800300B148DF801300B1294
:1054D0008DF802308DF803106A4604214FF4747081
:1054E000FFF744FD20BB230E8DF8003023148DF808
:1054F000013023128DF802308DF803406A460421F2
:105500004FF47570FFF732FDA8B92B0E8DF80030FF
:105510002B148DF801302B128DF802308DF80350CA
:105520006A4604214FF47670FFF720FD05B0F0BD08
:105530004FF0FF30FAE74FF0FF30F7E76C0A00203A
:1055400009E3CA02F0B589B004460DF10600FFF781
:10555000B7F9BDF80620D303314A128902F00301DE
:1055600054F82110059112F0040F01D04942059121
:10557000C2F3C10154F82110069112F0200F01D09E
:1055800049420691C2F3811154F82110079112F497
:10559000807F01D0494207910598C517A0FB030100
:1055A00003FB0511840F44EA81040698C717A0FB8A
:1055B000030103FB0711820F42EA81020798C71714
:1055C000A0FB030103FB0711830F43EA8103210EB4
:1055D0008DF8081021148DF8091021128DF80A1089
:1055E0008DF80B40110E8DF80C1011148DF80D1064
:1055F00011128DF80E108DF80F201A0E8DF8102054
:105600001A148DF811201A128DF812208DF813300B
:1056100002AA0C214FF42570FFF7A8FC09B0F0BDD9
:105620006C0A002070B582B0044610F0070F00F03D
:10563000AC800846B1F5C86F00F2AA80FBF75CFAAF
:105640005B49FBF765FB05460DF10300FFF72CF8FE
:105650009DF80330023B0E2B00F29D80DFE803F043
:10566000089B2C9B9B9B3C9B9B9B9B9B9B9B4C00D5
:105670004FF08D412846FBF797FAFBF797FC86B26F
:105680004C492846FBF790FAFBF790FC80B23312A6
:105690008DF804308DF8056003128DF806308DF812
:1056A000070014F0010F37D114F0020F48D114F0A5
:1056B000040F58D1002070E04FF08C412846FBF7D2
:1056C00073FAFBF773FC86B23B492846FBF76CFA8A
:1056D000FBF76CFC80B2DAE74FF08B412846FBF712
:1056E00063FAFBF763FC86B234492846FBF75CFAA1
:1056F000FBF75CFC80B2CAE74FF08A412846FBF713
:1057000053FAFBF753FC86B22D492846FBF74CFAB7
:10571000FBF74CFC80B2BAE701AA02214FF4EA7011
:10572000FFF724FC00283AD10DF1060202214FF4C4
:105730009270FFF71BFC0028B6D04FF0FF302CE032
:1057400001AA02214FF4EC70FFF710FC50BB0DF1E1
:10575000060202214FF49470FFF708FC0028A6D03F
:105760004FF0FF3019E001AA02214FF4EE70FFF76D
:10577000FDFBD0B90DF1060202214FF49670FFF740
:10578000F5FB50B14FF0FF3007E04FF0FF3004E081
:105790004FF0FF3001E04FF0FF3002B070BD4FF02E
:1057A000FF30FAE74FF0FF30F7E74FF0FF30F4E754
:1057B00000004843000040460000C045000040454E
:1057C0000000C04400B583B000238DF8073010F00E
:1057D000010F02D030238DF8073010F0020F05D0F2
:1057E0009DF8073043F00C038DF8073010F0040FDC
:1057F00005D09DF8073043F003038DF807300DF115
:10580000070201214FF4A470FFF7B0FB03B05DF86D
:1058100004FB00B583B020B10346042802D9042359
:1058200000E00123013B8DF807300DF10702012153
:1058300040F24F10FFF79AFB03B05DF804FB000045
:1058400000B583B0084B83FB00304310400A8DF84D
:1058500004008DF8053001AA02214FF4EF70FFF724
:1058600085FB03B05DF804FB6766666600B583B030
:10587000084B83FB00304310400A8DF804008DF87C
:10588000053001AA02214FF4ED70FFF76FFB03B062
:105890005DF804FB6766666600B583B00D4B83FB5D
:1058A0000023C017C0EBA31001FB00F0030E8DF81E
:1058B000043003148DF8053003128DF806308DF88E
:1058C000070001AA04214FF4AE70FFF74FFB03B0AD
:1058D0005DF804FBD34D621000B583B0084B83FB29
:1058E00000304310400A8DF804008DF8053001AAFD
:1058F00002214FF4AD70FFF739FB03B05DF804FBF4
:105900006766666600B583B0084B83FB00304310C2
:10591000400A8DF804008DF8053001AA02214FF4E9
:10592000AC70FFF723FB03B05DF804FB67666666A7
:1059300000B585B068B10D4A01AB07CA03C31A7040
:1059400001AA09214FF49760FFF710FB05B05DF83D
:1059500004FB074A01AB07CA03C31A7001AA092155
:105960004FF49760FFF702FBF0E700BF80C8000824
:105970008CC8000800B583B0B0B1C0238DF80430E6
:10598000C2238DF80530C4238DF80630C6238DF868
:10599000073001AA042140F69820FFF7E7FAFEF746
:1059A0001DFD03B05DF804FB4FF08B330193F0E76E
:1059B00000B583B0B0B120238DF8043028238DF8D2
:1059C000053030238DF8063038238DF8073001AAD2
:1059D000042140F69E20FFF7C9FAFEF7FFFC03B052
:1059E0005DF804FB4FF0A3330193F0E72DE9F0419C
:1059F00084B0044602238DF80430CA238DF80530A4
:105A0000E3238DF8063009238DF8073001AA04211D
:105A10006820FFF7ABFAA3238DF8043014F0400898
:105A200000F0B080C0238DF80530C8238DF8063013
:105A3000C2238DF8073014F4C07500F0AB80C42386
:105A40008DF80830CC238DF80930C6238DF80A3044
:105A5000A3238DF80B308DF80C308DF80D3001AA92
:105A60000A2140F6A720FFF781FA14F0030700F09F
:105A7000998020238DF8043001AA012140F6B62038
:105A8000FFF774FA14F0200F00F090800120FFF768
:105A90004FFFADB114F4807F00F08C80B2238DF8FD
:105AA00004308B238DF80530B6238DF806309B2308
:105AB0008DF8073001AA042140F6A220FFF756FA1C
:105AC00014F0010F00F08380F8238DF8043001AA50
:105AD00001214FF40B60FFF749FAFA210720FFF785
:105AE000A1FD0720FFF76EFE0120FFF792FE642064
:105AF000FFF7A6FE4FF4FA70FFF7B8FEC8213F4843
:105B0000FFF7CAFE2820FFF7E7FE0A20FFF7FAFE9C
:105B100014F0020F65D0D9238DF8043001AA0121B9
:105B200040F23D70FFF722FA14F0040F5DD001201F
:105B3000FFF720FF14F0100F5BD00120FFF738FFB4
:105B400044F008032E4E7381FEF748FC0023B37324
:105B5000B8F1000F01D00622B2731DB1284A937B21
:105B60000633937314F0140F03D0254A937B10333C
:105B700093731FB1224A937B04339373002004B0C4
:105B8000BDE8F081A3238DF805308DF806308DF83F
:105B9000073050E7A3238DF808308DF809308DF8D1
:105BA0000A3055E7D8238DF8043065E70020FFF769
:105BB000BFFE6EE7B0238DF8043080238DF80530EA
:105BC000B4238DF8063090238DF8073072E7D82380
:105BD0008DF8043001AA01214FF40B60FFF7C6F9DC
:105BE00096E7D8238DF8043098E70020FFF7C2FE2F
:105BF000A0E70020FFF7DCFEA2E700BF09E3CA022E
:105C00006C0A00202DE9F04788B006460F46924600
:105C10009846109D00232B80119A69466F4B987B04
:105C2000FEF7AEFE002840F0D58081466B4B5B89C5
:105C300013F0140F5FD09DF800209DF801000004C0
:105C400040EA02609DF8022040EA02209DF803200D
:105C50001043CAF800009DF804109DF805201204B6
:105C600042EA01629DF8061042EA01229DF80710FF
:105C70000A43CAF804209DF808409DF80910090459
:105C800041EA04619DF80A4041EA04219DF80B4075
:105C90002143CAF808109DF80CC09DF80D4024045B
:105CA00044EA0C649DF80EC044EA0C249DF80FC031
:105CB00044EA0C04CAF80C4000144FEA224C0914C0
:105CC00022140CFB0CFC00FB00C001FB010102FBD9
:105CD000021202F17142B2F1007F05D82A8842F423
:105CE00080722A80102207E0FEF778FB00232B80C9
:105CF0004FF0FF3965E0002213F0400F2BD008A9C8
:105D0000114411F8204C501C08A9084410F8201C1C
:105D100041EA04213980911C08A8014411F8204C63
:105D2000D01C08A9084410F8201C41EA04217980FD
:105D3000111D08A8014411F8204C501D08A9084461
:105D400010F8201C41EA0421B9800632D2B2298819
:105D500041F00801298013F4C07F2BD008A9114419
:105D600011F8204C501C08A9084410F8201C41EAE6
:105D700004213180911C08A8014411F8204CD01C4A
:105D800008A9084410F8201C41EA04217180111D63
:105D900008A8014411F8204C501D08A9084410F827
:105DA000201C41EA0421B1800632D2B2298841F098
:105DB0007001298013F0030F07D1FCF743FFC8F8E7
:105DC0000000484608B0BDE8F0870DEB0200FFF781
:105DD0006BFAF2E74FF0FF39F3E700BF6C0A0020DF
:105DE0000C480D490D4A002302E0D458C450043336
:105DF000C4188C42F9D30A4A0A4C002301E013600C
:105E00000432A242FBD3FCF779FE00F08FFBFCF7D3
:105E1000ADFB704700000020000A002010DB0008E6
:105E2000000A0020D80A0020FEE7000038B504462A
:105E300000F026F80F4B054693F9003001330CD0E3
:105E400021462046FBF776F838B9204600F058FB8B
:105E50004FF07E51FBF764F808B9284638BD00F0D2
:105E60005FFB2122034604481A60BDE8384000F079
:105E70004BBB00BF50000020DCC7000800F04CB94D
:105E80002DE9F84320F00045B5F17E5F044600F0AF
:105E9000B18000F3A780B5F17C5F06460DDAB5F15D
:105EA000485F80F2CC808C49FAF776FD4FF07E5146
:105EB000FBF736F8002840F0C080204600F020FBB9
:105EC00001464FF07E50FAF765FD4FF07C51FAF72E
:105ED0006BFE04468149FAF767FE8149FAF75CFDDB
:105EE0002146FAF761FE7F49FAF754FD2146FAF799
:105EF0005BFE7D49FAF750FD2146FAF755FE7B49D6
:105F0000FAF748FD2146FAF74FFE7949FAF744FDC2
:105F10002146FAF749FE774980462046FAF744FEC3
:105F20007549FAF737FD2146FAF73EFE7349FAF74D
:105F300033FD2146FAF738FE7149FAF72BFD214669
:105F4000FAF732FE4FF07E51FAF726FD81462046E1
:105F500000F06AF96B4B07469D4259DC0146FAF79F
:105F60001BFD494605464046FAF7D2FE0146284643
:105F7000FAF71AFE27F47F6525F00F0580462946BB
:105F80002846FAF711FE01462046FAF703FD294696
:105F900004463846FAF700FD01462046FAF7B8FEF7
:105FA0000146FAF7F9FC01465748FAF7F3FC0146B7
:105FB0004046FAF7EFFC294604462846FAF7ECFC7F
:105FC00001465248FAF7E6FC01462046FAF7E2FCA1
:105FD00001464E48FAF7DEFC002E09DC00F10040D5
:105FE000BDE8F8830146FAF7D5FC0146FAF790FEC2
:105FF000BDE8F8834649FAF7D7FD434905462046F0
:10600000FAF7D2FD01462846FAF7C6FCBDE8F88348
:1060100049464046FAF77CFE3946FAF7C5FD39464F
:10602000FAF7BAFC0146FAF7B7FC3A49FAF7B4FCBA
:1060300001463748FAF7AEFCCEE72046D8E70146DE
:10604000FAF7B2FD05462549FAF7AEFD2449FAF7FD
:10605000A3FC2946FAF7A8FD2249FAF79BFC29463A
:10606000FAF7A2FD2049FAF797FC2946FAF79CFDBA
:106070001E49FAF78FFC2946FAF796FD1C49FAF7F4
:106080008BFC2946FAF790FD1A4906462846FAF78E
:106090008BFD1949FAF77EFC2946FAF785FD174969
:1060A000FAF77AFC2946FAF77FFD1549FAF772FCF0
:1060B0002946FAF779FD4FF07E51FAF76DFC01465B
:1060C0003046FAF725FE2146FAF76EFD2146FAF72B
:1060D00063FCBDE8F88300BFCAF2497108EF1138CC
:1060E000047F4F3A4611243DA80A4E3E90B0A63E8A
:1060F000ABAA2A3E2EC69D3D6133303F2D5701404D
:1061000039D119409999793F2EBD3BB3DB0F493FF7
:10611000DB0FC93F2EBD3B33F8B521F00045B5F18B
:10612000FF4F0A4603462CDC20F00046B6F1FF4F35
:10613000074626DCB1F17E5F34D08C1704F00204F0
:1061400044EAD07416B33DB3B5F1FF4F32D0B6F187
:10615000FF4F21D0751BB5F1F45F4FEAE55027DA08
:10616000002932DA3C3030DA0020012C3ED0022CFB
:1061700034D02CB12449FAF70FFC2449FAF70AFC71
:10618000F8BD19461046FAF707FCF8BD022C07D0F7
:10619000032CF5D11E48F8BD002F07DB1D48F8BDC4
:1061A0001A48F8BDBDE8F84000F092B81A48F8BDAA
:1061B0001848DAE7B6F1FF4F04F1FF3419D0022C8A
:1061C0001DD8164B53F82400F8BD11461846FAF7AF
:1061D0009FFD00F095F900F07BF8C6E70A49FAF751
:1061E000DBFB01460948FAF7D5FBF8BD00F100409A
:1061F000F8BD022C05D80A4B53F82400F8BD002046
:10620000F8BD0848F8BD00BF2EBDBB33DB0F4940C9
:10621000DB0F49C0DB0FC93FDB0FC9BF9CD40008AF
:1062200090D40008DB0F493F20F00042B2F1FF4F4D
:10623000F8B504462FD26AB3002803463DDB10F0C0
:10624000FF4F4FEAE0542DD00026E207A4F17F0073
:1062500031464FF019044FF08072C3F3160343F434
:10626000000358BF5B0047105B008D189D4202DCA5
:106270005B1BA9181644013C4FEA43034FEA520244
:10628000F3D113B1013626F00106701000F17C50F5
:1062900000EBC750F8BD0146FAF786FC2146FAF735
:1062A0007BFBF8BD10F400020ED15B001802114612
:1062B00002F10102F9D5641AC6E70146FAF76AFB52
:1062C0000146FAF725FDF8BD4FF0FF31F3E700BFB7
:1062D0002DE9F04120F00045B5F1A14F04460746F5
:1062E00008DBB5F1FF4F72DC002840F39F80704857
:1062F000BDE8F0816F4B9D4279DCB5F1445F6BDB0B
:106300004FF0FF3821462046FAF74EFC014606467C
:10631000FAF74AFC05466849FAF746FC6749FAF776
:106320003BFB2946FAF740FC6549FAF735FB29465D
:10633000FAF73AFC6349FAF72FFB2946FAF734FCDF
:106340006149FAF729FB2946FAF72EFC5F49FAF76B
:1063500023FB3146FAF728FC5D4906462846FAF742
:1063600023FC5C49FAF716FB2946FAF71DFC5A494B
:10637000FAF710FB2946FAF717FC5849FAF70AFB17
:106380002946FAF711FC5649FAF704FB2946FAF7B1
:106390000BFCB8F1FF3F014630464AD0FAF7FCFA51
:1063A0002146FAF701FC4F4B4F4D53F82810FAF7EE
:1063B000F1FA2146FAF7EEFA014655F82800FAF705
:1063C000E9FA002F94DA00F10040BDE8F0810146BF
:1063D000FAF7E2FABDE8F0814449FAF7DDFA4FF046
:1063E0007E51FAF79DFD00288AD0204680E700F014
:1063F00087F83F4B04469D4226DCA3F5D0039D421F
:1064000044DC0146FAF7C8FA4FF07E51FAF7C2FAB7
:106410004FF0804105462046FAF7BEFA014628466D
:10642000FAF776FC4FF0000804466BE73148BDE808
:10643000F081FAF7B1FA2146FAF7B6FB0146204699
:10644000FAF7A8FABDE8F0812B4B9D4216DC4FF01D
:106450007F51FAF79FFA03464FF07F5120461C46C2
:10646000FAF7A2FB4FF07E51FAF796FA0146204662
:10647000FAF74EFC4FF00208044643E701461F4876
:10648000FAF746FC4FF0030804463BE74FF07E5115
:10649000FAF780FA4FF07E5105462046FAF77CFA6B
:1064A00001462846FAF734FC4FF00108044629E774
:1064B000DB0FC93FFFFFDF3ED769853C59DA4B3D13
:1064C000356B883D6E2EBA3D2549123EABAAAA3ED9
:1064D00021A215BD6BF16E3D95879D3D388EE33D44
:1064E000CDCC4C3EB8D40008A8D40008CAF24971FB
:1064F000FFFF973FDB0FC9BFFFFF1B40000080BFBE
:1065000020F00040704700BF004870470000C07F87
:10651000062008B500F012FA0120FCF7CBFA00BF04
:10652000014B1868704700BF5400002070B50D4E35
:106530000D4D761BB61006D0002455F8043B0134EF
:106540009847A642F9D1094E094D06F023F9761B6A
:10655000B61006D0002455F8043B01349847A642F3
:10656000F9D170BD04DB000804DB00080CDB000877
:1065700004DB0008032A70B412D940EA0105AD0714
:1065800004460B461DD11946204653F8045B54F8C7
:10659000046BAE4215D1043A032A20461946F2D8BC
:1065A000561E9AB10139441E01E0C3180BD014F8ED
:1065B000015F11F8012F331B9542F6D0A81A70BC69
:1065C0007047561EEEE7184670BC70471046F6E757
:1065D000F0B4860746D0541E002A3CD00346CAB207
:1065E00001E0013C37D303F8012B9D07F9D1032CBF
:1065F0002AD9CDB245EA05250F2C45EA054534D9FF
:10660000A4F1100222F00F0C03F1200716096744D1
:1066100003F1100242E9045542E902551032BA4230
:10662000F8D1721C14F00C0F03EB021204F00F06E9
:1066300013D0331F23F003030433134442F8045BE5
:106640009342FBD106F003042CB1CAB21C4403F8F8
:10665000012B9C42FBD1F0BC704734461346002C02
:10666000F3D1F8E714460346C1E71A462646E0E7A9
:106670000FB400B5074983B004AB086853F8042B86
:106680008168019300F0A8F903B05DF804EB04B051
:10669000704700BF54000020F0B5054689B0084699
:1066A0000C46012700F06AF902262149AA6B0590E1
:1066B00004AB384404940390AC68079702960691A3
:1066C000019322B3636E13F0010FB4F90C309AB248
:1066D00001D1980525D5910406D4626E43F4005388
:1066E00022F40052A3816266284601AA214603F0E3
:1066F000C9FA636E002814BF4FF0FF350A25DA0788
:1067000002D4A3899B0506D5284609B0F0BD2846CA
:1067100003F012F9D6E7A06D03F058FC284609B043
:10672000F0BDA06D03F050FCB4F90C309AB2D2E782
:10673000CCD40008024B01461868FFF7ADBF00BF7C
:10674000540000202DE9F043654D0446D5F8009033
:106750000F4690461E4683B0B9F1000F03D0D9F81A
:106760003830002B79D0B8F1020F06D0B8F1010F04
:1067700000F2A380002EC0F2A080636ED90752D52C
:106780002146484603F07CF8216B41B104F14003F7
:10679000994202D0484603F06FF900232363002397
:1067A000B4F90C50A36163602B0665D425F44A65E7
:1067B00025F00305B8F1020FA58164D001AB6A464C
:1067C0002146484603F004FCA3891843A081002E0B
:1067D00030D0002F2FD0D9F83830002B39D0009B83
:1067E000C4E90476B342B4F90C3027601CBF43F40B
:1067F0000063A381B8F1010F04BF43F00103A3813B
:106800009AB213F008032CD0D10754D50021764258
:10681000A661666EA16016F0010627D000263046FC
:1068200003B0BDE8F083A3899A05A9D4A06D03F055
:10683000CBFBA5E7009E304603F042FC074600284C
:106840003ED0A38943F08003A381D9F83830002BD0
:10685000C5D1484603F070F8C1E7484603F06CF82C
:1068600081E7A360666E16F00106D7D193051BD5AC
:10687000304603B0BDE8F0834846216903F0FCF8D8
:10688000B4F90C5092E7002600230121626E45F016
:106890000205A360D70704F14303A581616123606A
:1068A0002361E5D4A805E3D4A06D03F08FFB304647
:1068B00003B0BDE8F083A660D4E74FF0FF36D7E71A
:1068C000009DB54204D0284603F0FAFB074620B9E4
:1068D0004FF0FF36B4F90C50D6E72E46B1E700BFB3
:1068E000540000201F2938B5054621D8D0F8DC22F5
:1068F0000C466AB152F8213053B1012B16D0591C05
:1069000010D00025204642F824509847284638BD2C
:10691000284600F031F8224601462846BDE83840B6
:1069200000F014B8162301202B6038BD002038BDBC
:1069300016234FF0FF302B6038BD00BF024B0146DD
:106940001868FFF7CFBF00BF5400002070B50C4699
:1069500003460026074D204611461C462E60FCF7D4
:10696000A1F8431C00D070BD2B68002BFBD0236026
:1069700070BD00BFD40A0020FCF792B820F00301DC
:1069800010F00300C0F1000051F8043B00F1040CCA
:106990004FEACC0C6FF000021CBF22FA0CF213433A
:1069A0004FF0010C4CEA0C2C4CEA0C4CA3EB0C0203
:1069B00022EA030212EACC1204BF51F8043B04306D
:1069C000F4D0C2F1000102EA0102B2FA82F2C2F18D
:1069D0001F0200EBD20070472DE9F04FD7B01C46E4
:1069E0008B461746814603F0E7FA03680E94184673
:1069F0001893FFF7C3FF1790B9F1000F04D0D9F82F
:106A00003830002B00F0EA81DBF8643013F0010F1E
:106A1000BBF90C309AB202D19D0540F1B5869004C5
:106A20000AD4DBF8642043F4005322F40051ABF89D
:106A30000C309AB2CBF86410110740F1BB80DBF840
:106A40001030002B00F0B68002F01A030A2B00F081
:106A5000BF80002300210022CDE92B33CDE91A337A
:106A6000CDE91C33139319930A932DAB98462A93BF
:106A70003B78DA46CDE91412002B00F060813C46E9
:106A800004E014F8013F002B00F0B980252BF8D169
:106A9000E51B40F0B7802378002B00F050810023E5
:106AA0000B938DF88B3007934FF0FF33667804F12A
:106AB000010B20212B2409930BF1010BA6F12003DC
:106AC0005A2B00F2BB80DFE813F0EA02B900B900EC
:106AD000E302B900B900B900BF02B900B9006A0009
:106AE0005202B90033025E02B90057025B005B003C
:106AF0005B005B005B005B005B005B005B00B90060
:106B0000B900B900B900B900B900B9004201B90033
:106B1000C1019401420142014201B900B900B9002A
:106B2000B900AF02B900B900FB01B900B900B90062
:106B3000D501B9007802B900B900B707B900B900AA
:106B4000B900B900B900B900B900B9004201B900F3
:106B5000C1019801420142014201A50298018D0143
:106B6000B9009B02B9003A02FF0189028D01B90008
:106B7000D50172009207B900B9009607B9007200FA
:106B80000022A6F130031BF8016B02EB820203EB3B
:106B90004202A6F13003092BF5D90B928EE70E9B2A
:106BA00053F8042B002A0B920E93C0F2BE819BF87F
:106BB000006081E75946484601F05EFD002841F03B
:106BC0009B83BBF80C2002F01A030A2B7FF441AF21
:106BD000BBF90E30002BFFF63CAFDBF86430DE076C
:106BE00002D4950541F1808123463A4659464846EC
:106BF00001F0FEFC0A900A9857B0BDE8F08FE51B43
:106C000000F09D80DDE92B3201332A44072BC8E9CF
:106C10000075CDE92B3206DC08F108080A9A2378C2
:106C20002A440A9238E7514648462AAA04F020FC32
:106C3000002841F00E840DF1B408EFE7002E7ED05D
:106C4000002301211A4608918DF8F4608DF88B30ED
:106C50000D9309931293169310930C913DAF079BDC
:106C600013F0020302D0089902310891079911F03C
:106C700084010F9105D10B9908980D1A002D00F38E
:106C80009C832C9C72B101202B9A044402440DF188
:106C90008B01072ACDE92B24C8E9001000F30B84EF
:106CA00008F108086BB102212B9B0C44013323AA85
:106CB000072BCDE92B34C8E9002100F30B8408F140
:106CC00008080F9B802B00F07882099B0C9A9D1A74
:106CD000002D00F3B282079BDD0500F119822B9B8A
:106CE0000C9A01331444072BC8E900722C942B939F
:106CF00000F3D58308F10808079B5D0705D50B9BBA
:106D0000089A9D1A002D00F3F283DDE90A320899F2
:106D10008A42ACBF9B185B180A93002C40F0C182DA
:106D200000232B930D9B1BB148460D9902F0A4FE46
:106D30005F460DF1B4083B78002B7FF4A0AE2C9B8E
:106D4000D346002B40F0FB8700232B93B7E20E9B2A
:106D5000073323F007031946F1E80223CDE9142392
:106D6000DDE9143424F000441D4618460E914FF01E
:106D7000FF322146B04BFBF733FB002840F06F8514
:106D8000284621464FF0FF32AB4BFBF70BFB0028A8
:106D900040F06585DDE9140100220023FBF7F8FAD5
:106DA000002841F0E9809DF88B2003200021A34FAB
:106DB000A34B08900D91472EC8BF1F46079C0C900F
:106DC00024F0800407940991129116911091002AE1
:106DD0003FF445AF089B0133089340E7484602F073
:106DE000ABFD11E6079B9BF8006043F0200307937F
:106DF00062E6079B43F010030793079B9C0640F154
:106E00008E840E9B073323F007031946F1E8022313
:106E100014461D460E91002A73F10003C0F2F88457
:106E2000099B0133079B00F0098323F0800354EA98
:106E30000502089340F00383099A002A40F0048376
:106E40000793002356AF09930C9353E100210124CB
:106E50000E9B0A4653F8040B0894CDE90D138DF8E8
:106E60008B108DF8F40009911291169110910C94E9
:106E70003DAFF4E600250E9C8DF88B5054F8047B52
:106E8000002F00F02386099A1346013300F016877D
:106E90002946384603F0CAFB0D90002801F0A68170
:106EA0002B460D9A0995D21B0C9222EAE2720892A7
:106EB0000E949DF88B200D9312931693109386E7F2
:106EC000079B43F010030793079B9A0640F1488401
:106ED0000E9B073323F00703F3E802450E93079B4D
:106EE00023F480630893002300228DF88B20099AF5
:106EF0001146013100F0DF80089921F080010791EF
:106F000054EA050140F0D580002A40F03882002B79
:106F100097D1089B13F001030C9300F06584302394
:106F20000DF257178DF85731E4E00B9B5B420B9342
:106F3000079B9BF8006043F004030793BCE5079BA5
:106F40009D0600F17084079BDC0600F17B86079BA1
:106F5000580600F10687079B990540F173860E9B42
:106F60000A9953F8042B5F4611700E93E3E69BF8E1
:106F700000608DF88B409FE5079B9BF8006043F015
:106F80008003079398E55A4612F8016B2A2E01F008
:106F90000783A6F13003092B934698BF002201F224
:106FA0006F811BF8016B02EB820203EB4202A6F138
:106FB0003003092BF5D9099280E5079B43F01003B4
:106FC0000893089B9D0640F1BB830E9B073323F07B
:106FD0000703F3E802450E93012385E747F63002E5
:106FE0000E9B079953F8044B41F002010E93154B89
:106FF00000251993782602230891ADF88C2073E7B9
:107000009BF80060079B6C2E00F0418543F0100355
:10701000079351E59BF80060079B682E00F04D85B3
:1070200043F04003079347E5079B9BF8006043F05C
:107030000803079340E500BFFFFFEF7FD0D40008AF
:10704000D4D40008E0D40008484602F0B5FF4368F5
:1070500018461C93FFF792FC034648461D461D93B5
:1070600002F0AAFF826820211A92002D3FF49FAD02
:107070001A9B002B3FF49BAD1A9B1B78002B3FF40F
:1070800096AD079B9BF8006043F48063079313E57C
:10709000079B9BF8006043F0010307930CE59DF804
:1070A0008B30002B7FF483AD9BF800608DF88B1044
:1070B00002E5079A0892012B00F0C181022B00F033
:1070C000668156AFE20842EA4572E90804F0070318
:1070D0000D461446303354EA05013A4607F8013D9F
:1070E000F0D108990846C00700F1D38256ABDB1BEC
:1070F00007910C93002309990D9312931693109303
:107100000C9B9DF88B208B42B8BF0B4608935EE624
:10711000652E40F3E580DDE9140100220023FBF732
:107120002DF9002800F01B8201212B9BCB4A0B4438
:107130000C44072BCDE92B34C8E9002100F3678507
:1071400008F10808249B139A934280F218832B9B22
:10715000179A013318991444072BC8E900122C948C
:107160002B9300F39D8408F10808139B5D1E002DEE
:107170007FF7C2AD102D40F35785B94F10262B9BDA
:107180000F9705E008F10808103D102D40F34F85DA
:1071900001331034072BCDE92B34C8E90076F1DD3B
:1071A000514648462AAA04F063F9002840F081803D
:1071B000DDE92B340DF1B408E6E70B9B089A9D1A24
:1071C000002D7FF782AD102D41F3A780A448214602
:1071D000102304462B9A0F9004E0103D102D08F167
:1071E000080817DD01321031072ACDE92B21C8E943
:1071F0000043F2DD514648462AAA04F039F9002836
:1072000057D1DDE92B21103D102D4FF010030DF16A
:10721000B408E7DC0C4601320F9B2C44072ACDE969
:107220002B24C8E9003500F30A84099B0C9A08F165
:1072300008089D1A002D7FF74EAD102D40F37A857A
:1072400087482146102304462B9A0F9004E0103DF6
:10725000102D08F1080816DD01321031072ACDE99A
:107260002B21C8E90043F2DD514648462AAA04F022
:10727000FFF8F0B9DDE92B21103D102D4FF0100380
:107280000DF1B408E8DC0C4601320F9B2C44072AB0
:10729000CDE92B24C8E9003500F3348208F1080851
:1072A00019E5514648462AAA04F0E2F800283FF4BE
:1072B00037ADD3460D9911B1484602F0DDFBDBF83E
:1072C000643013F0010FBBF80C3002D1980540F187
:1072D0007784590601F11C800A9857B0BDE8F08FF9
:1072E000139B012B40F3B78101232B9D1C441D44AC
:1072F000072D2C94C8F800702B95C8F8043000F3C3
:10730000FF8308F10808179B0135189A1C44072DC4
:10731000CDE92B54C8E9002300F3008408F10808E4
:107320000023DDE914010022FBF728F8139B002855
:1073300040F0BD81013B013501371C44072DCDE9EB
:107340002B54C8F80070C8F8043000F3938308F198
:1073500008081B9A0135144426AB072DCDE92B54A0
:10736000C8E900327FF7C6AC514648462AAA04F065
:107370007FF800289DD12C9C0DF1B408BCE4012BB2
:1073800000F0D087022B079B08937FF49AAE1998E0
:1073900056AF230943EA0573290904F00F020D468D
:1073A0001C46835C07F8013D54EA0503F1D1089BB4
:1073B000079356ABDB1B0C939CE6102D40F33887EC
:1073C000DDE92B211E930B463946102437465646DD
:1073D000CA46894604E0103D102D08F1080817DD63
:1073E000013220491033072ACDE92B23C8E90014C4
:1073F000F1DD314650462AAA04F03AF8002840F060
:10740000F883DDE92B23103D102D0DF1B408E7DCE6
:107410004846D146B2463E46074619461E9B6C1862
:1074200001321049072ACDE92B24C8E9001500F3E1
:10743000CF839DF88B2008F1080823E40893002DE2
:1074400008BF0A2C80F07883089B3034079301230F
:107450008DF857410C930DF257174BE610D50008E5
:1074600024D5000814D500082B9B179901331898D0
:107470000C44072BC8E900012C942B9300F32585BD
:1074800008F10808002AC0F2FF86139A0133144459
:10749000072BCDE92B34C8E900727FF72BAC51469E
:1074A00048462AAA03F0E4FF00287FF402AF2C9C90
:1074B0000DF1B40820E4514648462AAA1E9303F071
:1074C000D7FF00287FF4F5AE2C9C1E9B0DF1B4086D
:1074D000FFF7E8BB514648462AAA03F0C9FF002837
:1074E0007FF4E7AE2C9C0DF1B408FFF7EABB102D3A
:1074F00040F3FF8610262B9B04E0103D102D08F171
:10750000080817DD0133B94A1034072BCDE92B34B5
:10751000C8E90026F1DD514648462AAA03F0A8FF33
:1075200000287FF4C6AEDDE92B34103D102D0DF19F
:10753000B408E7DC0133AD4A2C44072BCDE92B34EA
:10754000C8E900257FF7E1AB514648462AAA03F077
:107550008FFF00287FF4ADAE2C9CFFF7D6BB249A9A
:10756000002A40F31A81109B139A9342A8BF134636
:10757000002B1D460BDD2B9B2C440133072BC8E948
:1075800000752C942B9300F3DB8508F10808109B01
:10759000002DA8BF5B1B002B1D4600F36783109BCB
:1075A0003B441E46079B590500F10185249B139A15
:1075B000934203DB079AD20740F1CB832B9A1799AA
:1075C000013218980C44072AC8E900012C942B9228
:1075D00000F3C38508F10808139ABD18AD1BD31A30
:1075E0009D42A8BF1D46002D0BDD2B9A2C44013275
:1075F000072AC8E900652C942B9200F31D8608F138
:107600000808002DB4BF1D465D1B002D7FF774AB2D
:10761000102D40F30983764F10262B9B0F9705E022
:1076200008F10808103D102D40F301830133103498
:10763000072BCDE92B34C8E90076F1DD51464846E9
:107640002AAA03F015FF00287FF433AEDDE92B34BE
:107650000DF1B408E6E7079BDE073FF545AE0123D1
:107660002B9D1C441D44072D2C94C8F800702B95AD
:10767000C8F804307FF76BAE514648462AAA03F09B
:10768000F7FE00287FF415AEDDE92B540DF1B408A8
:107690005FE6302B3FF48BAE3023023A07F8013C13
:1076A000089956AB9B1A174607910C9322E55E1E6C
:1076B000002E7FF74EAE102E40F34F874C4BCDF887
:1076C00024B01027D3460F93CA46994605E008F127
:1076D0000808103E102E40F3BF8101351034072DED
:1076E000CDE92B54C8E90097F1DD594650462AAA46
:1076F00003F0BEFE002840F0EC85DDE92B540DF1CF
:10770000B408E6E7514648462AAA03F0B1FE00282D
:107710007FF4CFAD2C9C0DF1B408FFF7DCBA079BCA
:10772000D80669D4079B590640F1F6820E9B53F8A0
:10773000044B24B2E5170E9322462B46FFF76BBB92
:10774000089BDC067CD4089B580640F1CA820E9A3E
:10775000012352F8044B00250E92A4B2FFF7C4BBDC
:10776000079BDB0674D4079B5F0640F1C9820E9B22
:10777000002553F8044B0E93A4B2FFF7B0BB079B50
:10778000D8077FF5B9AAE2E4DBF8580002F01CFC48
:10779000BBF90C309AB2FFF742B901202B9B154977
:1077A00003440444072BCDE92B34C8E9001000F34F
:1077B000AC8408F10808002A7FF456AE079B139AA0
:1077C00003F0010313433FF497AA2B9B179A01334D
:1077D00018991444072BC8E900122C942B9300F33A
:1077E000748308F1080850E656AF83E414D5000806
:1077F00024D5000810D500080E9B53F8044B2246F0
:10780000E5170E932B46002A73F10003BFF608AB71
:107810002D23079A64428DF88B3065EB45050123D3
:107820000892FFF764BB0E9B5F4653F8041B0E9350
:107830000A9BDD171A462B46C1E90023FFF77BBAE6
:107840000E9A012352F8044B00250E92FFF74CBB11
:107850000E9B002553F8044B0E93FFF740BBDDE968
:1078600014010B460246FAF7BBFD0146002840F022
:10787000DD85612E00F08285412E00F07B82099B20
:1078800026F020055A1C089500F0CC85472D00F005
:10789000A385DDE91401079B43F4807312930B4623
:1078A000002BC0F2398600220F931E920D920C908D
:1078B000462D0C9A00F07A84452D4FF002000F9B64
:1078C00040F05984099900904C1C28A925A80491DE
:1078D00024A9CDE902100194484600F0D5FF0746DF
:1078E0000444129B079D0793002200230C980F99D4
:1078F000FAF744FD002800F02B832346DB1B13938B
:10790000089B472B00F0F682089B462B00F07A84F8
:10791000249B1093109B089A013B412A249300F06A
:10792000F5850021F2B2002B8DF89820B6BF2D22EC
:107930002B22109B8DF89920B8BFC3F10103092BAE
:1079400040F3D5850DF1A70E72469C46C24C6046A9
:10795000114684FB0C234FEAEC72C2EBA30202EB4C
:107960008203ACEB430330336328944601F8013CB7
:1079700001F1FF32EBDC63463033D8B28B1E9E45FB
:1079800002F8010C40F228860DF19A0301E012F88A
:10799000010B964503F8010BF9D10DF1A9030DF187
:1079A0009A025B1A134426AA9B1A1B93139B1B9AD9
:1079B000012B1A440C9240F3B2850C9B179A134486
:1079C0000C9300231293169310930C9B25F480655F
:1079D00045F4807223EAE373079208931E9B002B01
:1079E00040F0AF829DF88B200993FFF7F0B9079B19
:1079F0000893FFF7E6BA994B1993079B990675D53B
:107A00000E9B073323F00703F3E802450E93079A12
:107A1000D7070AD554EA050307D0302342F0020203
:107A20008DF88D6007928DF88C30079A022322F42E
:107A300080620892FFF758BA894B1993DDE75146E7
:107A400048462AAA03F014FD00287FF432AC2C9C8F
:107A50000DF1B408FFF739B9D146DA46DDF824B0A4
:107A600001350F9B3444072DCDE92B54C8E900366E
:107A70007FF76DAC514648462AAA03F0F9FC00286E
:107A80007FF417ACDDE92B540DF1B40861E443F049
:107A900020039BF8016007930BF1010BFFF70CB873
:107AA000514648462AAA03F0E3FC00287FF401ACC3
:107AB0002C9C0DF1B408FFF758BB43F400739BF8FE
:107AC000016007930BF1010BFEF7F6BF099B3A46E5
:107AD000062B28BF062309971297169710970D9724
:107AE0000893604F0E940C93FFF771B9079BDA0669
:107AF00040F183800E9B002553F8044B0E9386E7DC
:107B0000514648462AAA03F0B3FC00287FF4D1ABC3
:107B1000DDE92B540DF1B408FFF7F5BB514648469B
:107B20002AAA03F0A5FC00287FF4C3ABDDE92B549F
:107B30000DF1B408FFF7F4BB0022089BCDF81CB090
:107B400003F480630C96CDF834A09346CA461E46D3
:107B5000C14656AFDDF868800BE00A2200232046BC
:107B60002946FAF77BFC002D08BF0A2C1BD30446DC
:107B70000D460A22002320462946FAF76FFC3032D0
:107B800007F8012C0BF1010B013F002EE5D098F80E
:107B900000309B45E1D1BBF1FF0FDED0002D08BFC7
:107BA0000A2C80F0EF81CDF86880CDF84CB0C84643
:107BB0000C9ED146DDF81CB0DDF834A0FFF7F7BB12
:107BC000DBF8580002F002FABBF80C30FFF781BB7B
:107BD000514648462AAA1E9303F04AFC00287FF427
:107BE00068AB9DF88B202C9C1E9B0DF1B408FFF711
:107BF00049B8D146B346FFF75DBB079B5B0665D529
:107C00000E9B002553F8044B0E93A4B2FFE6514699
:107C100048462AAA03F02CFC00287FF44AAB2C9C8F
:107C20000DF1B408FFF78EBA0F4A2B9B0F92013368
:107C30000F9A2C44072BCDE92B34C8E900257FF798
:107C400059A82CE40E9B0A9953F8042B5F46116047
:107C50000E93FFF770B800BF67666666E0D4000851
:107C6000F4D4000808D5000824D50008102B40F3F0
:107C700093845146BC4ACA4609971026174689463E
:107C80002B9B0F9205E008F10808103D102D40F3E2
:107C90002A8201331034072BCDE92B34C8E9007652
:107CA000F1DD494650462AAA03F0E2FB002840F0E5
:107CB0001383DDE92B340DF1B408E6E73846FEF70F
:107CC0005DFE2B4602460995FFF7EEB8079B00259F
:107CD00013F4007F0E9B53F8044B0E9318BFE4B2CD
:107CE00095E60E9A089B52F8044B13F4007F4FF070
:107CF00000054FF001030E9218BFE4B2FFF7F4B88D
:107D0000079B002513F4007F0E9B53F8044B0E9342
:107D100018BFE4B2FFF7E3B8079B13F4007F0E9B94
:107D200053F8044B18BF64B2E5170E9322462B4656
:107D3000FFF771B88C4B2B9A0F93FFF7A5BA484603
:107D400051462AAA03F094FB00283EF4FDAFFFF74A
:107D5000B6BA139ABD18AD1BD31A9D42A8BF1D46D3
:107D60004FE40E9B0A9953F8042B5F4611800E9343
:107D7000FEF7E1BF30238DF88C3058238DF88D301D
:107D8000079B43F00204099B632B00F3ED82002361
:107D90003DAF0D93079BDDE9141243F481731293F9
:107DA0001346002B26F020050794C0F255820F934E
:107DB000002308950C911E93612E00F07B83412EC9
:107DC0007FF476AD24AA0C980F9903F051FA0022A3
:107DD0004FF07F53F8F778FB04460D46002200234E
:107DE000CDE91045FAF7CAFA08B1012324935F4B95
:107DF0000C93099BCDF83CB0013B1396CDF87C90D9
:107E0000CDF880A02197BA46DDE910679946DDF8E4
:107E100030B0CDF8588006E000220023FAF7AEFA21
:107E200009F1FF39E8B90022514B30463946F8F7DD
:107E30004BFB0D460446FAF7E9FA8046F8F7DAFA02
:107E40000B46024629462046F8F786F91BF808300B
:107E5000B9F1FF3F554606460F464C460AF8013B2E
:107E6000DAD1304639460022424BDDF83CB0139E51
:107E7000CDF83CA0CDF84C80CDE91001DDE91F9A8A
:107E8000DDF85880219FFAF7A1FA002840F05082CF
:107E9000DDE910010022374BFAF770FA18B1139B95
:107EA000DB0700F14582002C08DB30220F99631CB0
:107EB0000B4401F8012B8B42FBD10F910F9B079DC7
:107EC000DB1B1393129B07931AE5514648462AAAD7
:107ED00003F0CEFA00287FF4ECA9DDE92B34249AD4
:107EE0000DF1B408FFF7CEBADBF8580002F06EF8D7
:107EF000FEF77ABE249BD81C109302DB099A9342AA
:107F000004DD023E26F02003089303E5109B13993D
:107F10008B42C0F2AB81EA0740F1E482179A134426
:107F20000C936E0540F1E182109B002B00F39482CC
:107F300067260C9B23EAE37308930023129316939E
:107F40004CE52D2200238DF88B200993FEF742BFCC
:107F5000289BA342BFF4D2AC30215A1C289219703E
:107F6000289B9C42F9D8C9E424D50008F4D4000821
:107F7000000030400000E03F2D231A468DF88B3082
:107F8000FEF713BF1D9B1C99FF1A1A46384603F0D3
:107F9000FFF998F801300BB108F101080A2200231B
:107FA00020462946FAF75AFA4FF0000BDFE5139BFB
:107FB0004246DDF85880FB180993CDF830B00F9792
:107FC0002046DDF874B01A9F129BB8F1000F2DD037
:107FD000002B6DD1013F08F1FF382B9B1C99013319
:107FE0005844072BC2E9001B2C902B9364DC083209
:107FF00009993B788D1B9D42A8BF1D46002D0ADDC7
:108000002B9B28440133072BC2E900652C902B934E
:108010005DDC3B780832002DB4BF1D465D1B002D92
:1080200015DC1E44129BB8F1000FD1D1002B3FD1BB
:10803000139B1A970F9F9046FB189E42324628BF0B
:108040001A4604461646DDF830B0FFF7AFBA102DD9
:1080500040F36A822B9910240B4604E0103D102D4A
:1080600002F1080216DD0133B0491030072BCDE9CB
:108070002B30C2E90014F1DD514648462AAA03F02C
:10808000F7F900287FF415A9DDE92B30103D102DFC
:108090002DAAE8DC19464B1CA4492844072BCDE93E
:1080A0002B30C2E900153EDC3B7808321E44B9E7AC
:1080B000129B013B129390E7514648462AAA03F0CF
:1080C000D7F900287FF4F5A82C982DAA90E75146FF
:1080D00048462AAA03F0CCF900287FF4EAA83B78A6
:1080E0002C982DAA97E74A46D1469246099F01331C
:1080F0000F9A2C44072BCDE92B34C8E9002500F357
:10810000428108F10808FFF74ABA514648462AAAB0
:1081100003F0AEF900287FF4CCA8249A2C9C0DF132
:10812000B408FFF748BB514648462AAA03F0A0F915
:1081300000287FF4BEA83B782C982DAA1E4471E736
:10814000514648462AAA03F093F900287FF4B1A8C3
:108150002C9C0DF1B408FFF71ABA514648462AAADA
:1081600003F086F900287FF4A4A8249B2C9C0DF131
:10817000B408FFF731BA099C28A9CDE9000404919D
:1081800025A824A9CDE90210484600F07DFB472D23
:1081900007461AD1079D2B46DB0700F1A180129AF2
:1081A000289B079247220892FFF7A8BB0320099C4F
:1081B00028A9CDE90004049125A824A9CDE902103D
:1081C0000F9B484600F060FB0746099B462D07EBD6
:1081D00003047FF486AB3B78302B00F0B081249B06
:1081E000129A079D1C440792FFF77EBB099B9DF8DE
:1081F0008B2008930C9309900E9412901690109077
:10820000FEF7E5BD249A002A109240F3AF81099948
:1082100005F001030B4340F047816626109B0C9349
:108220006A0500F11A810C9B23EAE373089384E644
:10823000DDE92B21FFF7F3B8514648462AAA03F09F
:1082400017F900287FF435A8249B139A2C9C0DF174
:10825000B408D31AFFF7D5B908952D23DDE9141218
:108260001E9302F100430C910F93A5E5139B179AFF
:108270009A18109B0C92002B40F358816726CFE789
:1082800000230993FEF71ABC5542103280F2A181F7
:108290005146264ACA4609971026174689460F9224
:1082A00004E008F10808103D102D79DD0133103489
:1082B000072BCDE92B34C8E90076F2DD494650465C
:1082C0002AAA03F0D5F838B9DDE92B340DF1B4084A
:1082D000E9E7D146FEF7EEBFCB46D146FEF7EABF4F
:1082E000099B079DFC18129B079347230893FFF7F0
:1082F000FBBA2B9BFFF71EB9DBF86430DB0707D412
:10830000BBF80C309F0503D4DBF8580001F05EFE8B
:108310004FF0FF330A93FEF7DFBF044B2B9A0F9306
:10832000FEF779BF079B0893FFF78EB824D50008A6
:108330000F9B0C99289513F8012CC97B8A4240F0B9
:108340002981302003F8010C289B5A1E289213F82B
:10835000012C9142F6D0392A0BBF0C9A0132927A45
:10836000D2B203F8012CA9E54846591C01F0B0FE31
:108370000746002800F024810D900BE530238DF88E
:108380008C307823FAE4514648462AAA03F070F864
:1083900000287EF48EAF2C9C0DF1B408FFF7FFB8D7
:1083A0004A46D1469246099F01330F9A2C44072B27
:1083B000CDE92B34C8E900257FF713AA514648467A
:1083C0002AAA03F055F800287EF473AFDDE92B34B8
:1083D0000DF1B408FFF759B8002B08BF012309932A
:1083E000079B43F480731293159B002B0C93C0F2F0
:1083F000BB800224099D28A825AA24ABCDE903202F
:10840000CDE90045DDE91445029322462B46484656
:108410000D9100F039FA0C9B07460F930D9B0C94BD
:108420001E93B7E606230993FFF733BA159B032083
:10843000002BB8BF2D234FF00001BABF1A468DF8AC
:108440008B309DF88B20664F664B08900D91FEF7A0
:10845000B2BCD346FEF733BF67261A990B78FF2BC1
:1084600000F0AA800024109A204603E00130013178
:10847000FF2B08D0934206DAD21A4B78002BF5D1A5
:108480000B780134F4E71A91109216901294129A14
:10849000169B0C9913441D9A02FB03130C9323EAB9
:1084A000E3730893FFF79ABA179B6626D31819440B
:1084B0000C91B5E624AA0C980F9902F0D9FE00227F
:1084C0004FF07F53F8F700F804460D4600220023D2
:1084D000CDE91045F9F752FF08B101232493424B2F
:1084E0000C9386E4109B0C931BE567269BE6002902
:1084F00037D130228DF89A200DF19B02303302F8EB
:10850000013B26ABD31A1B93FFF750BA06F10F02BB
:108510000121D2B2FFF707BA00230D939DE6E907C8
:108520007FF54FAAFFF749BA2B99B4E5C3F10103D0
:108530001A4422EAE27367260C920893FDE40022B3
:1085400000230C980F99F9F719FF00287FF447AE24
:10855000099BC3F10103249342E6244B0F93FFF7D9
:108560007FBA0DF19A02C9E70D9076E6099A05F0F7
:10857000010513462B4304D10123662608930C936F
:10858000DBE4179B662601331A4422EAE2730C925D
:108590000893D2E40F9BDEE6144A2B9B0F92A6E5CC
:1085A0000E9B9BF8016053F8040B934640EAE07081
:1085B00009900E93FEF780BA00231293169366E794
:1085C000BAF80C30D34643F04003AAF80C30FEF75B
:1085D00076BE064A0F92E7E602231B93FFF7E6B941
:1085E000D8D40008DCD40008E0D4000824D5000862
:1085F000F0B50C464FF4806C4FF0000E1546064661
:108600001F46636EADF26C4DE28989891993E36967
:10861000ADF80E20626A21F00201079316A81AAB8A
:10862000ADF80C10CDF818E0099200930493CDF842
:1086300008C0CDF814C001F0C3FC2A463B46694689
:108640003046FEF7C9F9051E07DB3046694601F0E2
:1086500017F9002818BF4FF0FF35BDF80C305B0646
:1086600003D5A38943F04003A381169801F0AAFC27
:1086700028460DF26C4DF0BD38B5324B05461868F2
:108680000C4610B1836B002B3CD0B4F90C301807AA
:108690009AB20CD52169A9B112F0010022D00025AF
:1086A0006069A5604042A06111B3002038BDD106C9
:1086B0003FD5520729D4216943F00803A3819AB218
:1086C0000029E9D102F42070B0F5007FE4D02846FB
:1086D000214601F0ABFCB4F90C3021699AB212F0DA
:1086E0000100DCD1950758BF6069A0600029DCD18A
:1086F000120658BF0846D9D543F040034FF0FF306B
:10870000A38138BD01F018F9BFE7216B51B104F125
:108710004002914204D0284601F0AEF9B4F90C3081
:10872000002222630022216923F02403C4E90012FD
:10873000C2E7092243F040032A604FF0FF30A381D3
:1087400038BD00BF54000020024B13B1024800F0B6
:1087500005B8704700000000AD99000800230146ED
:108760001A46184603F07EBD2DE9F04F03690D69E6
:1087700083B0AB42C0F28480013D01F1140600F1E8
:10878000140956F8253059F8252001338E46A900E2
:1087900000919A4209EB85018246B2FBF3F706EBA2
:1087A0008508019137D30022B446144648465CF848
:1087B000043B01681FFA83FB07FB0B221B0C4FEAEB
:1087C000124B07FB03BB93B2E31A8AB21FFA8BF476
:1087D0001344C4EB114404EB23449BB243EA044327
:1087E000E04540F8043B4FEA24444FEA1B42DED206
:1087F000009B59F8033073B9019B043B994504D39E
:1088000007E0994505F1FF3503D253F80429002A02
:10881000F7D0CAF810507146504602F011FA0028FD
:108820002ADB48460023013756F8041B04688AB245
:108830009A1A0B0CA1B20A44C3EB144303EB224374
:1088400092B242EA0342B04540F8042B4FEA234378
:10885000EAD259F8252009EB85036AB9043B99450A
:1088600004D307E0994505F1FF3503D253F80429F5
:10887000002AF7D0CAF81050384603B0BDE8F08F90
:10888000002003B0BDE8F08F2DE9F04F16461F46DB
:10889000016C9BB00446CDE90467279D41B10123DB
:1088A000426C9340C1E9012301F09CFF0023236443
:1088B000B7F10009B4BF012300232B60764BBCBF86
:1088C00029F00049CDF8149033EA090300F0AB8099
:1088D000DDE904231046194600220023CDE90801F2
:1088E000F9F74CFD804670B10123269A1360289B4E
:1088F000002B00F0C28269481860431E039303985E
:108900001BB0BDE8F08F18AA19ABCDE90032DDE944
:108910000823204602F05AFA5FEA1955824640F0D1
:108920009880DDE91885454405F23240202840F35F
:108930009083C0F1400305F2124009FA03F926FAC8
:1089400000F049EA0000F7F745FD0122013D0F92D2
:10895000A1F1F8710022524BF7F7FEFB48A3D3E9CF
:108960000023F7F7B1FD48A3D3E90023F7F7F6FB9F
:10897000064628460F46F7F73DFD45A3D3E90023F9
:10898000F7F7A2FD02460B4630463946F7F7E6FBFD
:1089900006460F46F9F73AFD00228346002330468B
:1089A0003946F9F7F5FC002840F05A82BBF1160F62
:1089B00000F24882DDE908013A4B03EBCB03D3E92F
:1089C0000023F9F7E5FC002872D00023A8EB050589
:1089D0000E936B1E0BF1FF3B069300F13B820023CD
:1089E0000B93BBF1000F6BDA0B9BCDF81CB0A3EB24
:1089F0000B030B93CBF100030D93249B4FF0000B63
:108A0000092B66D8052B40F322830025043B2493D1
:108A1000249B023B032B00F26E86DFE813F03B043D
:108A200038042F04120442F20F73269AC9F3130973
:108A3000136059EA06031CD1289B002B00F05786CF
:108A4000194B03930833289A039813601BB0BDE8B1
:108A5000F08FDDE90812C2F31303084643F07F519B
:108A6000CDF83C80A5F2FF35DDF8608041F440117F
:108A700070E7289B002B40F0C8830C4B03933EE724
:108A800061436F63A787D23FB3C8608B288AC63F14
:108A9000FB799F501344D33F0000F07F11D50008AD
:108AA0000000F83F80D6000838D5000834D500080B
:108AB000A8EB05056B1E069300F1A9840E900B90A0
:108AC000069B5B44CDE9063B00230D93249B092BB9
:108AD00098D900230125249325934FF0FF330C955B
:108AE0000A9300210A9B61641293204601F054FE10
:108AF0000390002800F00786039B23640A9B0E2B3B
:108B000000F2E980002D00F0E6800799002940F38B
:108B10005284B54B01F00F0203EBC203C8054FEAC4
:108B20002115D3E9006740F1EE83DDE90801AF4B81
:108B30004FF00309D3E90823F7F7F0FDCDE9100161
:108B400005F00F058DB1DFF8A482E90709D5D8E952
:108B5000002330463946F7F7B7FC06460F4609F1C1
:108B600001096D1008F10808EFD1DDE91001324666
:108B70003B46F7F7D3FD06460F460E9B43B1002256
:108B8000304639469A4BF9F703FC002840F03B8504
:108B90004846F7F72FFC32463B46F7F795FC954BD6
:108BA0000022F7F7DBFA0A9B8046A1F15079002BEF
:108BB00000F0CE83079B13930A9B10930C9B002B12
:108BC00000F0B784109A884B002003EBC20353E9EE
:108BD00002238949F7F7A2FD42464B46F7F7BCFA54
:108BE00002460B4630463946CDE91423F9F70EFC10
:108BF0008046F7F7FFFB02460B4630463946F7F74B
:108C0000ABFA039D08F1300306460F46024605F80D
:108C1000013B0B46DDE91401F9F7D8FB002840F0D1
:108C20003B85CDE916ABDDE914ABDDF840804FF0B4
:108C3000000910942AE009F10109C14548DA5046BB
:108C4000594600226D4BF7F73FFC00226B4B8246E2
:108C50008B4630463946F7F737FC0F460646F9F79C
:108C6000D5FB0446F7F7C6FB02460B4630463946AD
:108C7000F7F772FA303452465B4605F8014B064668
:108C80000F46F9F785FB002840F0038532463B4646
:108C900000205749F7F760FA52465B46F9F778FB30
:108CA0000028C8D0139BDDF858A0109C039A0793A6
:108CB00002E0954200F0D284A94615F8013D392B17
:108CC000F7D00133DBB22B70079B01330793A0E190
:108CD000109CDDE916AB199B002BC0F29380079A1C
:108CE0000E2A00F38F80404B03EBC203D3E900232D
:108CF000CDE90423259B002B1ADA0A9B002B17DCF5
:108D000040F03F83DDE9040100223D4BF7F7DCFB37
:108D100002460B46DDE90801F9F744FBDDF828803F
:108D20004546002800F0CD82259B039FDE43D0E21C
:108D3000DDE90467DDE9080132463B46F7F7EEFC62
:108D4000F9F764FB8046F7F755FB32463B46F7F7E9
:108D5000BBFB0B460246DDE90801F7F7FDF9039D71
:108D600008F1300305F8013B0A9B012B00F07F83DB
:108D7000CDF818A04FF001099B46AA4608941DE0C3
:108D800032463B4620462946F7F7C8FCF9F73EFB3A
:108D90008046F7F72FFB32463B46F7F795FB09F184
:108DA00001090B46024629462046F7F7D5F908F196
:108DB0003003CB450AF8013B00F0558300220F4BEE
:108DC000F7F782FB0022002304460D46F9F7D6FA96
:108DD0000028D5D05546089CDDF818A0079BA94669
:108DE0000133079315E100BF80D6000858D600086C
:108DF0000000F03F00001C400000E03F0000244065
:108E0000000014400C9A002A3DD0249A012A40F315
:108E1000BC820A9B5F1E0D9BBB42C0F26E82DF1BB1
:108E20000A9B002BC0F25483069A11460B9A1944F0
:108E300016461A4406910B920121204601F07AFD54
:108E4000054623E00123A8EB05050E936B1E069350
:108E50007FF5C5ADC5F101030B9300230693C0E573
:108E60005846F7F7C7FA32463B46F9F787FA002823
:108E70007FF49CAD0BF1FF3B98E5C74B0393039840
:108E80001BB0BDE8F08F0D9FDDE90B65002E0CDDFA
:108E9000069A002A09DDB2421346A8BF33460B9951
:108EA000F61AC91AD31A0B9106930D9BD3B10C9BDA
:108EB000002B00F0A381002F10DD29463A46204602
:108EC00001F0FEFD524601460546204601F048FDF0
:108ED0000346514620469A4601F084FC0D9BDA1B5E
:108EE00040F08D810121204601F024FDBBF1000FEF
:108EF000804600F3B380249B012B40F38A814FF01E
:108F000000090120BBF1000F40F0B480069A104424
:108F100010F01F0000F09280C0F12003042B40F3FA
:108F2000F9830B9BC0F11C00034402440B930644DD
:108F300006920B9B002B05DD51461A46204601F098
:108F40000BFE8246069B002B05DD41461A46204655
:108F500001F002FE80460E9B002B40F035810A9BFB
:108F6000002B40F31B810C9B002B40F09A80079B49
:108F7000013307930126039FDDF8289007E051464F
:108F800000230A22204601F037FC82460136414682
:108F90005046FFF7E9FB4E4500F1300307F8013B6F
:108FA000EDDB0A9A0026002ACCBF93464FF0010B56
:108FB000039A9344514601222046049301F0CCFDCC
:108FC0004146824601F03CFE002840F3A8811BF890
:108FD000013C039A0BF1FF3B04E05A4500F0E481A9
:108FE0001BF8013D392B0BF10109F6D001338BF849
:108FF00000304146204601F0F5FB55B12EB1AE429E
:1090000003D03146204601F0EDFB2946204601F011
:10901000E9FB5146204601F0E5FB002389F80030CA
:10902000269B1A46079B1360289B002B3FF467ACD6
:109030000398C3F800901BB0BDE8F08F1C200B9B79
:10904000064403440B93069B0344069371E70125F2
:10905000DEE4C0F1200006FA00F074E401465A464E
:10906000204601F02DFD249B8046012B40F3D18149
:109070004FF00009D8F8103008EB8303186901F0AD
:1090800009FCC0F1200041E7294600230A222046BE
:1090900001F0B2FB129B0546002B40F315830797A6
:1090A0000A93002E00F32281B9F1000F40F0F981FC
:1090B0002F460399049B0E4603F001024B1E249990
:1090C0000C920A430B920A9A1A440A92414650465D
:1090D000FFF74AFB29468346504601F0B1FD3A4668
:1090E00041468146204601F0C9FDC26801460BF1A8
:1090F0003003002A42D106905046089301F0A0FDAB
:1091000006990490204601F06DFB049A089B1AB959
:109110000B99002900F0CB82B9F1000FC0F28581D4
:10912000249941EA09090C9951EA090100F07D816D
:10913000002A00F3D1810A9A06F101099642CB4632
:10914000337000F0E381514600230A22204601F0EB
:1091500053FBBD42824629464FF000034FF00A02FE
:10916000204612D001F048FB3946054600230A226A
:10917000204601F041FB4E460746A7E720460493F0
:1091800001F030FB0122049BC6E701F035FB4E469F
:10919000054607469AE700BF10D50008249B022B1E
:1091A0007EDC0C9B002B7FF47CAF41465046FFF7E2
:1091B000DBFA079ADDF80CB000F13003013200262B
:1091C00007920BF8013BF5E64146504601F038FDA9
:1091D0000028BFF6C4AE514600230A22204601F003
:1091E0000BFB079B82465F1E0C9B002B7FF44CAF52
:1091F000129B002B40F362820A93BBE60D9A514604
:10920000204601F05DFC82466CE6BA4B03930333C3
:1092100019E4DDE9041200297FF471AEC2F31303EF
:10922000002B7FF46CAEB44B1340002B00F02A826D
:109230000B9B4FF0010901330B93069B01330693FF
:109240005FE601230C93259B079A13441293013385
:10925000012B1E46B8BF01260A930021172E616418
:109260007FF743AC012204235B0003F11400B042FA
:10927000114602F10102F7D9616436E401230C932F
:10928000259B002B46DD1E4612930A93E5E700233B
:109290000C93D8E700230C93F2E7129B07970A93ED
:1092A0000A9B002B7FF440AD41460522204601F089
:1092B000A3FA80465046414601F0C2FC00287FF7E1
:1092C00033AD039F31223B46079E03F8012B013645
:1092D00003934146204601F085FA731CDDF80C909B
:1092E00007930397002D7FF490AE92E6294632460D
:1092F000204601F031FC0546D6E60D9B0D97FB1A82
:109300009B4400278CE5DDE908234FF00209CDE9F5
:10931000102317E4012325930A93FFF7E2BB03D13F
:10932000049BDB073FF553AED9461BF8013D302BBC
:10933000FAD05EE64846F7F75DF832463B46F7F767
:10934000C3F800226D4BF6F709FF8046A1F1507972
:109350003046394600226A4BF6F7FEFE42464B463F
:1093600006460F46F9F732F8002840F0878142465A
:109370003046394609F10043F9F70AF800283FF46E
:10938000AAAC4FF000084546CEE40F9A002A00F040
:10939000C380069A03F233431A4406920B9A0D9F38
:1093A00016461A440B9247E53123079A0132079279
:1093B000039A13701DE600F04B81DDE90801079B5D
:1093C0005D42504B05F00F0203EBC203D3E90023CB
:1093D000F7F77AF82D1106460F4600F07D8100233D
:1093E0004FF00209DFF82081EA0705D5D8E900230C
:1093F000F7F76AF8012399446D1008F10808F3D1D2
:10940000002B3FF4BAAB06460F46FFF7B6BB0E90F3
:1094100020E5049B002B7FF42BAEDDE90412C2F3A0
:109420001303002B3FF4FFAE22E6002A12DD514663
:1094300001222046049301F08FFB4146824601F051
:10944000FFFB0028049B40F32C81392B00F00C819A
:109450000BF13103B14609F8013B079B2E4601335E
:109460003D460793C5E55546089CDDF818A0024621
:109470000B46F6F773FEDDE9042306460F46F8F7C0
:10948000A5FF60B9DDE9042330463946F8F776FFD9
:1094900000283FF4A3AC18F0010F3FF49FAC039AEF
:1094A0000AE42046696801F077F90646002800F0D2
:1094B00017812B6905F10C0102339A000C30F8F783
:1094C00091FE31460122204601F046FB0746F0E5B9
:1094D000DDE90A239E1AAFE4392B00F0C580B146BE
:1094E000013309F8013B079B2E4601333D460793A4
:1094F0007FE500BF34D500080000F07F00001C406D
:109500000000144080D6000858D60008079A2E465E
:1095100001323D4607924DE5189B069A0B99C3F11F
:1095200036031A4406920A461A440E460D9F0B92C1
:1095300082E410987F49424601EBC0014B4651E955
:109540000201F6F7C1FF02460B4630463946CDE927
:109550001423F8F75BFF8046F6F74CFF0B460246F4
:1095600039463046F6F7F8FD06461098039D08F197
:10957000300301280F4605F8013B1ED0109B039ACB
:109580001344984600226C4B30463946F6F79CFF50
:109590000F460646F8F73AFF8146F6F72BFF0246DC
:1095A0000B4630463946F6F7D7FD09F1300905F884
:1095B000019B454506460F46E4D1DDE914890022AA
:1095C0005E4B40464946F6F7C9FD32463B46F8F742
:1095D000DFFE002858D142464B4600205749F6F797
:1095E000BBFD32463B46F8F7F1FE00283FF473AB73
:1095F00015F8013CA946302B05F1FF35F8D0139B37
:109600000133079305E50A9B002B3FF493AE129DAF
:10961000002D7FF760AB0022474B30463946F6F706
:1096200053FF06460F4609F10100F6F7E3FE324606
:109630003B46F6F749FF0022414BF6F78FFD079AAC
:109640008046013A1392A1F150791095FFF7B6BA0E
:109650004FF00209DDE90867FFF78FBA079B013376
:1096600007933123FFF72FBBB3463923079A2E46C2
:1096700001323D4607920BF8013BAAE44FF0000887
:1096800045461EE699463CE4139B039A0793FFF771
:1096900013BBDDF858A0109C139BA9460133079318
:1096A000B7E47FF4D7AEDA077FF5D4AECDE6392B39
:1096B000DAD0B9F1000F3FF7CBAECBE6249B022BFB
:1096C0003FF7EBAD079770E5249B022B3FF7E5AD25
:1096D000129B07970A93E4E44FF00209FFF74DBA93
:1096E000024640F2EA21174B174802F001FE174BE1
:1096F0000393FFF704B9002520462946656401F06D
:109700004BF8039058B900224FF4D5710D4B0E4819
:1097100002F0EEFD3FF40DACC0F13C008FE44FF0E1
:10972000FF3312930A930123039A259522640C9325
:10973000FFF7D1BA80D60008000024400000E03FC7
:1097400000001C4044D5000858D5000838D5000852
:10975000B1F90C202DE9F0410D461107804647D4A0
:109760006B6842F40062002BAA815EDDAC6A002CBB
:1097700058D00023D8F80060C8F8003093B212F433
:10978000805256D101234046E969A047431C67D067
:10979000AB89AC6A5F0705D56A682B6B801A0BB181
:1097A000EB6BC01A0246E96900234046A047411C02
:1097B00041D1D8F80030002B3DD01D2B01D0162B05
:1097C00056D100212A69AB89C5E9002123F4006341
:1097D000AB81296BC8F8006021B305F140039942C1
:1097E00002D0404600F048F900202863BDE8F0812F
:1097F0002F69BFB193B29A0718BF00232E6808BF24
:109800006B692F60F61BAB600AE033463A466C6A20
:109810004046E969A047041EA6EB0406274417DD6D
:10982000002EF2DC0020BDE8F081EB6B002B9DDC0C
:10983000F8E7286DAEE70021B5F90C302A6923F46A
:109840000063AB81DB04C5E90021C2D52865C0E710
:10985000AB894FF0FF3043F04003AB81BDE8F081AE
:10986000D8F80030002B93D01D2B06D0162B04D037
:10987000AB8943F04003AB81D5E7C8F80060D1E77E
:1098800038B50C46054608B1836BA3B1B4F90C009A
:10989000B8B1636EDB0701D4810515D52846214692
:1098A000FFF756FF636E0546DA0702D4A3899B05CE
:1098B0000ED5284638BD00F03FF8B4F90C0000285A
:1098C000E7D10546284638BDA06D00F07DFBE5E7F1
:1098D000A06D00F07BFB284638BD00BF002310B50B
:1098E0000446C0E90033C0E904338181C2811946CE
:1098F00083604366836108225C30FCF769FE074899
:109900000749084A084BC4E90740C4E90912E36261
:1099100004F15800BDE8104000F052BB05B3000848
:1099200029B3000869B3000889B30008014900F0B1
:109930001FBB00BFB1C3000810B50446134800F0B8
:1099400043FBA26BEAB90320114904F53B73C4F849
:10995000E832C4E9B820E16360680421FFF7BEFF84
:10996000A06801220921FFF7B9FFE0680222122155
:10997000FFF7B4FF01230548A363BDE8104000F0E2
:1099800025BB0248BDE8104000F020BBBC0A002007
:109990002D990008014800F017BB00BFD00A002035
:1099A000014800F013BB00BFD00A002038B5084BB7
:1099B000084D5B1B9C1007D0043B1D44013C55F82F
:1099C00004399847002CF9D1BDE8384002F0E8BED0
:1099D00010DB00080CDB0008F8B50C46234F0646E8
:1099E00000F0CEFEBB68C4F57E615D680F3125F0E6
:1099F00003054B1923F47F6323F00F03A3F5805471
:109A0000B4F5805F07DB0021304601F069FCBB68DC
:109A10002B44984204D0304600F0B8FE0020F8BD38
:109A20003046614201F05CFC01300DD0104AB9684B
:109A300013682D1B45F0010530461B1B4D6013605C
:109A400000F0A4FE0120F8BD0021304601F048FCE2
:109A5000BA68831A0F2BDEDD064943F001030C6858
:109A60000349001B53600860D5E700BF8404002051
:109A70007C0A00208C08002000295FD0F8B50C4635
:109A8000064600F07DFE54F8043CDFF8F4C1A4F172
:109A9000080023F001014218DCF80870556897426D
:109AA00025F0030500F08980DF07556034D454F8B1
:109AB000087C0CF10804C01B83683944A3426AD0B7
:109AC00057197F68D0F80CE0C3F80CE0CEF80830E6
:109AD000FB0740F1978041F0010343601160B1F54D
:109AE000007F34D20122DCF80440CB08490913443A
:109AF00002FA01F121430CEBC3025CF83340083A4F
:109B0000C0E90242CCF804104CF83300E060304663
:109B1000BDE8F84000F03ABE53195B68DF070ED489
:109B200029440CF108049368A34273D0D46841F02F
:109B30000102DC60A36042604150D0E7704741F011
:109B40000103B1F5007F44F8043C1160CAD3B1F5BC
:109B5000206F4FEA51234AD28B0903F13905ED00FA
:109B600003F138025CF805300CEB0504083C9C421C
:109B700059D05A6822F003028A4202D99B689C425B
:109B8000F7D1DC68C0E90234A060D8603046BDE897
:109B9000F84000F0FBBD53195B68DB0766D4D2E9DF
:109BA0000223294441F00104D3609A60446041508B
:109BB0003046BDE8F84000F0E9BDDB07294407D492
:109BC00054F8084C001BD0E902232144D3609A606A
:109BD000294B41F001021B6842608B42CCF808001F
:109BE00095D8264B30461968FFF7F6FE8FE7142B01
:109BF0000AD9542B21D80B0B03F16F05ED0003F1AB
:109C00006E02AFE729448EE703F15C05ED0003F136
:109C10005B02A7E741F00103CCE90400C0E902447C
:109C20004360415073E70125DCF80410921005FAF7
:109C300002F20A43CCF80420A4E7B3F5AA7F06D8C1
:109C4000CB0B03F17805ED0003F177028AE740F2D0
:109C50005452934206D88B0C03F17D05ED0003F1BD
:109C60007C027FE74FF47E757E227BE741F00103A3
:109C7000436011604BE700BF90080020AC0A002051
:109C8000840400209368002B00F0BD802DE9F04F84
:109C90009046B1F90C200C461107814683B093B26F
:109CA00027D522692AB313F00207D8F800502FD025
:109CB0004FF0000B5F46DFF8B4A2002F00F0898060
:109CC00057453B465A4628BF53464846E169666AAF
:109CD000B047002840F38D80D8F8083083441B1A21
:109CE0003F1AC8F80830002BE7D1002003B0BDE8C8
:109CF000F08F21464846FEF7BFFC002840F0328135
:109D0000B4F90C20D8F8005093B213F00207CFD169
:109D100013F0010A79D15646002E56D09A05A7684D
:109D200040F1BD80B742BB4600F2D28013F4906F81
:109D300000F0D080D4E90417226807EB4707A2EBB4
:109D4000010B07EBD7770BF101007F103044B842CD
:109D50003A4684BF07463A465B0540F1E780114624
:109D6000484600F0B5F9002800F0F6805A4621690F
:109D70000090F8F737FAA289009B22F4906242F033
:109D80008002A281A7EB0B0203EB0B006761B346D5
:109D9000374623612060A2605A46514600F086FC97
:109DA000A2682368D21B374600265B44A26023606A
:109DB000D8F80820BA44D71BC8F80870002F94D0F0
:109DC000B4F90C309BB2002EA8D1D5E900A6083515
:109DD000A2E7D5E900B708356FE729465A4600F0F3
:109DE00065FC236821465B4448462360FFF748FD35
:109DF00058B3B4F90C304FF0FF3043F04003A38167
:109E000003B0BDE8F08F002070473E46AA463846B2
:109E10003D4600976EB3002835D0009A206821692E
:109E2000B24228BF32468842636904D9A16803EB75
:109E3000010B5A45D1DC93426BDC2A464846E16966
:109E4000676AB847B0F1000BD3DD009BB3EB0B039F
:109E5000009357D00120D8F808305D44A3EB0B03E2
:109E6000A6EB0B06C8F80830002B3FF43EAF002EDF
:109E7000D1D10AF1080353F8046C9A4653F8085CF0
:109E80000833002EF7D032460A21284600F0CEFBD8
:109E900000285ED00130431B1A460093BEE72068BD
:109EA0002369984218D86269B24215D86FF000430E
:109EB000B34228BF334693FBF2F3676A02FB03F316
:109EC00048465246E169B847071E92DDF61B6FE728
:109ED0003746B34620685FE7B74228BF374651464A
:109EE0003A4600F0E3FBA3682268DB1B3A44A36018
:109EF0002260002BEAD121464846FFF7C1FC00282A
:109F0000E4D076E721464846FFF7BAFC0028A2D005
:109F10006FE729469346019200F0C8FBA1682368C9
:109F2000019A891A1A44A16022608EE7484600F01F
:109F3000AFFF034600287FF425AF48462169FFF7AD
:109F40009BFD0C22B4F90C30C9F8002023F08003EB
:109F500051E7721C009261E70C22B4F90C30C9F889
:109F6000002048E74FF0FF30C0E600BF00FCFF7F55
:109F70002DE9F843074688464FF0000900F538768A
:109F8000D6E90154013D10D4A389013D012B08D924
:109F9000B4F90E30013304D021463846C04749EAAF
:109FA00000096B1C04F16804EED13668002EE7D17D
:109FB0004846BDE8F88300BF004870478409002088
:109FC000704700BF704700BF704700BF704700BFB9
:109FD00070B50C46B1F90E10154600291E4696B014
:109FE00014DB6A4602F0E2FA00280FDB019A4FF414
:109FF000806302F47042A2F50052B2FA82F24FF48A
:10A000000060520932602B6016B070BD0023A18938
:10A01000336011F0800004D0402218462A6016B048
:10A0200070BD4FF480632B6016B070BD70B58B8926
:10A030000C469D0782B007D5012201F143034A6116
:10A040000B600B6102B070BD01AB6A460646FFF7BC
:10A05000BFFF00990546304600F03AF8B4F90C30DD
:10A0600070B11649009AF163019943F08003C4E985
:10A070000402A381206089B92B43A38102B070BD83
:10A080009A05DFD4012123F0030304F1430243F0D6
:10A090000203A381616122602261D3E73046B4F9F3
:10A0A0000E1002F099FA10B9B4F90C30E4E7A28965
:10A0B00022F0030242F0010213B2DDE72D990008FD
:10A0C000024B0146186800F003B800BF540000209E
:10A0D0002DE9F04F01F10B05162D064683B024D86B
:10A0E000102900F2B68000F04BFB10250220182347
:10A0F000DFF8E88443445C68A3F10802944200F06E
:10A10000B4806368E16823F0030323445A68A568B8
:10A1100042F00102E96030468D6008345A6000F078
:10A1200035FB204603B0BDE8F08F35F0070500F1A0
:10A130009080A94200F28D8000F022FBB5F5FC7FF3
:10A14000C0F085816B0A00F08B80042B00F25B81EC
:10A15000AB0903F1390003F13807C100DFF87C8453
:10A1600041444C680839A14206D10CE0002A80F233
:10A170002281E468A14206D0636823F003035A1BDE
:10A180000F2AF3DD3846D8F81040DFF854C4644590
:10A1900077D0626822F00302531B0F2B00F3658116
:10A1A000002BC8E904CC80F25681B2F5007F80F024
:10A1B00006810121D30852090B4401FA02F2D8F8B2
:10A1C000041058F8337008EBC30E0A43AEF10801CF
:10A1D000C4E90271C8F8042048F83340FC6001214A
:10A1E00083109940914253D8114206D120F00300C8
:10A1F0004900114200F10400FAD008EBC0094C46B6
:10A200008646E768BC4207D109E1002B80F2108145
:10A21000FF68BC4200F003817A6822F00302531BFE
:10A220000F2BF2DD45F0010E3046D7E902413D44E7
:10A2300043F00106C7F804E0E1608C60C8E904550A
:10A24000C5E902CC6E60BB5000F0A0FA07F108042B
:10A2500002E00C2300243360204603B0BDE8F08FF9
:10A260004FF4007140203F2778E7DC68A34208BF25
:10A2700002307FF446AFD8F81040DFF864C364457D
:10A2800087D10121D8F80420831099409142ABD99D
:10A29000D8F80840676827F00307BD4202D87B1B47
:10A2A0000F2B77DCDFF83C93C84BD9F800201B68F4
:10A2B00001322B4404EB070A00F0248103F580539C
:10A2C0000F3323F47F6B2BF00F0B5946304601F010
:10A2D00007F8411C024600F0E180824500F2DC8074
:10A2E000BB4B196859440846196000F04181D9F800
:10A2F0000010019301311BBFA2EB0A0A5044C9F8B8
:10A300000020186012F0070A00F00A81CAF1080163
:10A310000A44CAF5805193440831A1EB0B01C1F303
:10A320000B0949463046009200F0DAFF421CDDE995
:10A33000002300F04381801A00EB090B19684BF0F1
:10A34000010049444445C8F808201960506000F0F5
:10A350001C810F2F40F21B814FF0050C60680C3FF1
:10A3600027F0070700F00100384304EB070E0F2F1A
:10A370006060CEE901CC00F2378114465068954BFD
:10A380001A688A4238BF1960934B1A688A4238BFEC
:10A39000196086E045F0010243F001032544626044
:10A3A0003046C8F8085008346B6000F0EFF92046DA
:10A3B00003B0BDE8F08F23445A68E168A7E6B2F520
:10A3C000206F4FEA522361D3142B00F2BA8003F1BD
:10A3D0005C01C9005B3308EB010758F80110083F26
:10A3E0008F4200F092804B6823F00303934202D91E
:10A3F00089688F42F7D1CF68D8F80420C4E90217E2
:10A40000BC60CC60EBE6142B59D9542B00F2A18030
:10A410002B0B03F16F0003F16E07C1009EE60EF1F6
:10A42000010E1EF0030F04F108047FF4EAAE51E0C0
:10A430003C463A445368F96854F8085F43F0010316
:10A4400053603046E9608D6000F0A0F904E7E80849
:10A4500005F108034CE622445368304643F00103FB
:10A460005360083400F092F9F6E645F0010743F036
:10A470000101254467603046C8E90455C5E902CCAE
:10A480006960A35000F082F90834E5E6930903F10E
:10A490003901C90038339EE7444564D0D8F80840F4
:10A4A000606820F0030B5D45ABEB050302D80F2B72
:10A4B0003FF770AF304600F069F90024CCE603F1B5
:10A4C0005C0003F15B07C10048E659F808394B45C9
:10A4D00040F0A98010F0030F00F1FF30F5D1D8F85B
:10A4E000043023EA0103C8F80430490099423FF6DA
:10A4F000CFAE19B9CCE649000EF1040E1942FAD0DC
:10A5000070467AE603F1100BDFE64FF0010E9A1069
:10A51000D8F804300EFA02F21A43C8F804206DE7A6
:10A5200002EB0B014942C1F30B0949463046009248
:10A5300000F0D6FE431CDDE900237FF4FCAED146DB
:10A54000FCE6542B26D8130B03F16F01C9006E33C0
:10A5500041E7B3F5AA7F26D8EB0B03F1780003F1AE
:10A560007707C100FAE51A4B186858441860BEE630
:10A57000CAF30B0CBCF1000F7FF4B9AED8F8084059
:10A58000BB444BF001006060F9E61446F7E6012396
:10A5900053608FE7B3F5AA7F32D8D30B03F178016C
:10A5A000C900773317E740F25452934232D8AB0CCC
:10A5B00003F17D0003F17C07C100CFE5AAF1080A91
:10A5C000D3444FF00009ABEB020BB7E6AC0A002016
:10A5D0007C0A0020A40A0020A80A0020840400208D
:10A5E0008C0400208C08002004F108013046009300
:10A5F000FFF742FAD8F80840009B60681968BEE689
:10A6000040F254518B420AD8930C03F17D01C900EA
:10A610007C33E0E64FF47E717F207E279EE54FF489
:10A620007E717E23D7E6D8F804305EE770B48407E5
:10A63000CDB212D00346541E2AB90BE09A07184631
:10A640000CD0013C06D3184613F8012BAA42F5D1D1
:10A6500070BC7047002070BC70471446032C0DD8A6
:10A66000002CF7D00246031901E09A42F2D01046BE
:10A6700012F8011BA942F8D170BC704706460A02C5
:10A6800092B22A4342EA0242336830465340A3F171
:10A69000013121EA030313F0803F06F10406E1D102
:10A6A000043C032C3046EFD8DAE700BF8842F0B410
:10A6B0000DD98B1883420AD9841832B1224613F877
:10A6C000014D994202F8014DF9D1F0BC70470F2AB3
:10A6D0000ED80346541E002AF7D001340C44013B27
:10A6E00011F8012BA14203F8012FF9D1F0BC7047FA
:10A6F00040EA01039B073ED1A2F1100323F00F04AF
:10A7000001F1200727441B0901F1100400F1100595
:10A7100054F8106C103445F8106C54F81C6C10355B
:10A7200045F81C6C54F8186C45F8186C54F8146C07
:10A73000BC4245F8146CEBD1013312F00C0F01EB65
:10A74000031102F00F0400EB031317D00E46043C74
:10A7500024F0030CA5089C441C1F56F8047B44F805
:10A76000047F6445F9D16C1C03EB840301EB840185
:10A7700002F00302AEE70346541EAEE72246A9E705
:10A780000148FFF721BC00BFC00A00200148FFF7C5
:10A790001DBC00BFC00A0020C36C70B505460C4646
:10A7A0004BB153F8240080B1026843F82420002301
:10A7B000C0E9033370BD2122042101F0B7FD034637
:10A7C000E8640028EDD1002070BD012101FA04F6F3
:10A7D000721D2846920001F0A9FD0028F3D0C0E9BF
:10A7E0000146E4E731B1C36C4A6853F822000860BF
:10A7F00043F82210704700BF2DE9F04180461C4607
:10A8000000200F460E6914310D680130ABB202FB17
:10A8100003432C0C1D0C02FB04549BB203EB0443BA
:10A82000864241F8043B4FEA1444EDDC3CB1BB687E
:10A83000B34207DD07EB860301365C613E613846B3
:10A84000BDE8F081796840460131FFF7A5FF054674
:10A85000B0B13A6907F10C01023292000C30F7F7FF
:10A86000C1FCD8F84C307A6853F82210396043F8AC
:10A8700022702F4607EB860301365C613E61DEE7FE
:10A880000246B521014B024801F032FD44D50008D3
:10A89000D4D50008020C12040346CAB903041020E0
:10A8A00013F07F4F04BF1B02083013F0704F04BF3A
:10A8B0001B01043013F0404F04BF9B000230002BFB
:10A8C00005DB13F0804F00F1010008BF2020704726
:10A8D0000020E5E70368014613F0070207D0DA0716
:10A8E00020D4980722D55B0801200B60704798B2EE
:10A8F000A8B1104613F0FF0F04BF1B0A08301A0757
:10A9000004BF1B0904309A0704BF9B080230DA0712
:10A9100003D45B0800F1010006D00B6070471020E3
:10A920001B0CE7E700207047202070479B0802209F
:10A930000B60704710B50C460121FFF72DFF024652
:10A9400018B10123C0E9043410BD4FF4A071024BCB
:10A95000024801F0CDFC00BF44D50008D4D5000862
:10A960002DE9F04F0D6917690E46BD42144685B0BA
:10A9700005DB3A4623462F460C4615461E46A3687D
:10A98000616807EB05084345B8BF0131FFF704FFD5
:10A990000190002800F08880019B03F1140909EB65
:10A9A000880AD14505D24B46002243F8042B9A452C
:10A9B000FBD806F1140E0EEB850B04F11403DE45F3
:10A9C0001A4603EB87073ED23B1B153B23F00303DC
:10A9D00004331534A74238BF0423CDE902A89846B2
:10A9E000924603E0F34509F104092AD95EF8040B05
:10A9F00086B2002E38D1000CF4D0D9F8003054467D
:10AA00001E464D464FF0000C2288360C00FB0266B5
:10AA10009BB2B44443EA0C4345F8043B54F8043B6E
:10AA20002E681B0CB2B200FB0323A74203EB1C43AE
:10AA30004FEA134CE8D8F34549F8083009F1040906
:10AA4000D4D8DDE902A8B8F1000F03DC06E0B8F1C4
:10AA5000010803D05AF8043D002BF8D00198C0F843
:10AA6000108005B0BDE8F08F55464C46002355F8E0
:10AA7000041B20688AB21FFA80FC06FB02C2090C84
:10AA8000000C06FB0101134401EB13429BB243EAA5
:10AA90000243AF4244F8043B4FEA1243E7D849F877
:10AAA00008305EF8040CA6E7024640F25D11024B46
:10AAB000024801F01DFC00BF44D50008D4D50008B1
:10AAC00012F003032DE9F041144607462ED10E463D
:10AAD000A4101CD0BD6C95B3E3074FF0000806D45A
:10AAE000641014D02868A8B10546E307F8D52A46B3
:10AAF00031463846FFF734FFB6B17168FB6C64101D
:10AB000053F82120326043F821600646EAD13046EE
:10AB1000BDE8F0812A4629463846FFF721FF286024
:10AB20000546C0F80080E0E70646D9E7094A013B40
:10AB300052F823200023FFF75FFE0646C8E740F2E5
:10AB400071213846FFF7F6FE0023B864054603601E
:10AB5000C2E700BF48D700082DE9F0470F698B68AE
:10AB600007EB62177E1C9E420D469146804649685F
:10AB70004FEA621404DD5B009E4201F10101FADC40
:10AB80004046FFF709FE00284FD0002C00F11401C9
:10AB90000DDD0B46002205344FEA840C00EB8404E3
:10ABA00043F8042BA342FBD1ACF1140319442C69E4
:10ABB00005F1140319F01F0903EB840C2DD08E4608
:10ABC0004FF0000AC9F120021C6804FA09F444EAB3
:10ABD0000A044EF8044B53F8044B9C4524FA02FA3D
:10ABE000F2D8ACEB0503153B23F00303043305F166
:10ABF0001502944538BF0423BAF1000F18BF374639
:10AC000041F803A0D8F84C306A68076153F8221065
:10AC1000296043F82250BDE8F087043953F8042B2B
:10AC20009C4541F8042FF9D8ECE7024640F2D911CF
:10AC3000014B024801F05CFB44D50008D4D5000864
:10AC400030B40B6905460069C01A11D114351431AE
:10AC500001EB830205EB830301E09D4208D253F828
:10AC6000044D52F8041D8C42F7D003D24FF0FF3050
:10AC700030BC7047012030BC704700BF2DE9F84F51
:10AC80000B690C4611699046A3EB010BBBF1000F59
:10AC90007CD104F11406143206EB810302EB81022D
:10ACA00001E09E4276D253F8045D52F8041D8D42B5
:10ACB000F7D065D36168FFF76FFD002874D000F10D
:10ACC0001406B44600232769D8F8102004F1140AAA
:10ACD00008F11405C0F80CB010340AEB870E05EB30
:10ACE000820954F8042F55F804BB91B20B441FFAA3
:10ACF0008BF14FEA1B4B591ACBEB124303EB214369
:10AD000089B241EA0341A9454CF8041B4FEA2343A9
:10AD1000E7D8A9EB0802153A08F11508C14522F059
:10AD2000030404F1040438BF042422F0030238BFF2
:10AD30000022A244D6453444164418D9254652462A
:10AD400052F8046BB1B219440B1403EB164389B2E9
:10AD500041EA0341964545F8041B4FEA2343EFD8E7
:10AD60000EF1FF36A6EB0A0626F00306264421B9AB
:10AD700056F8043D013F002BFAD00761BDE8F88F7B
:10AD800023464FF0010B4446984693E7F8DB4FF01B
:10AD9000000B8FE70021FFF7FFFC60B101220023C9
:10ADA000C0E90423BDE8F88F02464FF41071054B4B
:10ADB000054801F09DFA024640F23221014B02485B
:10ADC00001F096FA44D50008D4D5000870B50121E9
:10ADD00082B016461D46FFF7DFFC044600284CD023
:10ADE0002B46C5F30A55C3F313030DB143F4801387
:10ADF000002E019322D068460096FFF76BFD0028D5
:10AE000037D0019B0099C0F1200203FA02F20A43F5
:10AE1000C34001936261002B14BF02210121A36191
:10AE20002161B5B1069AA5F2334303441360079B31
:10AE3000C0F135001860204602B070BD01A8FFF7D0
:10AE400049FD0123019A1946C4E904322030002D3E
:10AE5000E8D1069A04EB8103A0F232401060186931
:10AE6000FFF718FDC0EB41112046079B196002B0A7
:10AE700070BDDDE900236261CDE7024640F20A3190
:10AE8000014B024801F034FA44D50008D4D500083B
:10AE90002DE9F84F1646002900F0BD8006F10B059C
:10AEA0000C468046FFF76CFC162D5FD810252A460D
:10AEB000AE4260D854F8041CA4F1080921F003073D
:10AEC000974280F28680C94B09EB0700D3F808C08F
:10AED000844500F0B980D0F804C02CF0010303448D
:10AEE0005B68DB0700F18C802CF0030C07EB0C0394
:10AEF000934280F21581CB070FD454F8083CA9EB9C
:10AF0000030ADAF8043023F003018C44BC4494456E
:10AF100038DA7B18934280F20F8131464046FFF7C2
:10AF2000D7F80646E0B154F8043CA0F1080223F03B
:10AF300001034B44934200F0F9803A1F242A00F2A7
:10AF40001C81132A00F2CD80034622461168196045
:10AF50005168596092689A6021464046FEF78CFD20
:10AF60004046FFF713FC3046BDE8F88F25F0070593
:10AF7000002D2A469CDA0C230026C8F80030304603
:10AF8000BDE8F88F5646D0E90213CB60996056F8B9
:10AF9000081FDAF80C303A1F242ACB60996000F2BF
:10AFA0000781132A40F2028123681B2ACAF808305D
:10AFB0006368CAF80C3000F21B8108340AF11003F0
:10AFC000226867461A606268D1465A60A2683446B1
:10AFD0009A607B1B0F2BD9F8042021D802F00102C4
:10AFE0003A4309EB0701C9F804204B6843F0010319
:10AFF0004B6026464046FFF7C9FB3046BDE8F88F58
:10B00000C9078AD454F8083CA9EB030ADAF80410FB
:10B0100021F003017DE71146BDE8F84FFFF758B86E
:10B0200002F0010209EB050143F001032A43C9F8CC
:10B0300004204F444B607B68404643F001030831D5
:10B040007B60FEF719FDD4E7DCF804B005F11000D1
:10B050002BF0030B07EB0B0C84454DDAC9073FF5CA
:10B060005CAF54F8081CA9EB010ADAF8041021F0CF
:10B0700003018B44BB4458453FF74BAF5646DAF8C3
:10B080000C1056F8080F3A1F242AC160886000F29D
:10B09000BD80132A40F2B88021681B2ACAF8081024
:10B0A0006168CAF80C1000F2C18008340AF110027D
:10B0B0002168116061685160A1689160ABEB050285
:10B0C0000AEB050142F0010299604A60DAF80430A7
:10B0D000404603F001031D43CAF80450FFF756FB36
:10B0E0004DE723681B2A03606368436049D804F175
:10B0F000080200F1080329E7ACEB050209EB0501A2
:10B1000042F0010299604A6054F8043C404603F062
:10B1100001031D4344F8045CFFF738FB26462EE785
:10B12000D0E902121F46CA60916052E750F8043C11
:10B1300023F003031F444CE75646DAF80C1056F888
:10B14000080F3A1F242AC160886027D8132A23D900
:10B1500021681B2ACAF808106168CAF80C102FD899
:10B1600008340AF1100221681F4611606368D14655
:10B170005360A368344693602BE72146FFF796FAA5
:10B18000EAE6A368242A8360E368C36024D004F15C
:10B19000100200F11003D9E63246E4E721463046BA
:10B1A0001F46D146FFF782FA344612E7334607E7D7
:10B1B000214630466746D146FFF778FA344608E71D
:10B1C000A168242ACAF81010E168CAF8141023D024
:10B1D00010340AF11802C6E7236904F1180203616A
:10B1E000616900F118034161B0E600BF84040020EA
:10B1F000A368242ACAF81030E368CAF8143021D0B2
:10B2000010340AF11803DBE6324651E72146304696
:10B21000FFF74CFA154B51E721690AF12002CAF8F1
:10B22000181061691834CAF81C109CE7A168242A18
:10B23000CAF81010E168CAF814100DD010340AF1E1
:10B24000180235E722690AF12003CAF8182062695A
:10B250001834CAF81C20B3E621690AF12002CAF8A2
:10B26000181061691834CAF81C1021E78404002002
:10B27000F8B517460022DFF860C021F000436345AF
:10B2800004460D463A6022DC844653EA0C0C1ED07C
:10B29000DFF848C00E4601EA0C0CBCF1000F09D1E2
:10B2A00000220C4BF5F710F96FF0350204460E46FC
:10B2B00021F0004326F0FF461B1526F4E006A3F21A
:10B2C000FE3346F07F55134445F400153B6020469D
:10B2D0002946F8BD00005043FFFFEF7F0000F07FDC
:10B2E000002238B5064D044608462A60F7F7E8FB09
:10B2F000431C00D038BD2B68002BFBD0236038BD29
:10B30000D40A002010B50C46B1F90E1001F0A8F9CE
:10B31000002803DB236D0344236510BDA38923F4B8
:10B320008053A38110BD00BF2DE9F0410C46B1F957
:10B330000C101F46CB05164605460BD421F4805150
:10B34000A1813B4632462846B4F90E10BDE8F041D3
:10B3500000F072BFB4F90E100223002201F054F97C
:10B36000B4F90C10EAE700BF10B50C46B1F90E10A5
:10B3700001F04AF9A389421C0EBF23F4805343F421
:10B3800080532065A38110BDB1F90E1000F0FEBFFF
:10B3900070B440EA0104A30722D1032A20D90B4646
:10B3A0000446194653F8046BA6F1013525EA060553
:10B3B00015F0803F15D1043A032A194644F8046B6E
:10B3C000EFD84D1E52B1234615F8011F561E03F843
:10B3D000011B41B132461C46002AF4D170BC7047B3
:10B3E00004464D1EEEE72244002EF7D003F8011B61
:10B3F0009342FBD170BC70472DE9F84F4B6E9046DD
:10B400009C042DD59368126843B38B46064602F11F
:10B41000080959E9025A5FEA9A0715D00024043D49
:10B4200001E0A7420ED05A46304655F8041F01F0FD
:10B4300089F8431C04F10104F3D10023C8E9013366
:10B44000BDE8F88FD8F808302AF0030AA3EB0A0306
:10B45000C8F8083009F10809002BDAD10020ECE720
:10B46000FEF710FC0023C8E90133BDE8F88F00BFE8
:10B4700010B4946814B110BCFFF7BEBF20465460EE
:10B4800010BC70472DE9F04FBBB01C468946904672
:10B49000CDE9043018B1836B002B00F07A82D9F823
:10B4A0006430B9F90C10DE078AB202D48D0540F180
:10B4B0001A8590040AD4D9F8643041F4005223F478
:10B4C0000053A9F80C20C9F8643092B2110740F17A
:10B4D000F680D9F81030002B00F0F18002F01A034A
:10B4E0000A2B00F0FA800023CB46CDE90833CDE9E2
:10B4F0000A33CDE90F330DF1440A0393CDF838A098
:10B5000098F80030002B00F0ED81444604E014F878
:10B51000013F002B00F02781252BF8D1B4EB080563
:10B5200040F025812378002B00F0DC814FF00002F1
:10B5300000238DF833204FF0FF322B251F46029356
:10B54000637804F10108009208F10108A3F12002D8
:10B550005A2A00F24181DFE812F072023F013F01F6
:10B560006D023F013F013F014B023F013F016A0075
:10B5700027023F01220231023F012C025B005B00E7
:10B580005B005B005B005B005B005B005B003F01FE
:10B590003F013F013F013F013F013F013F013F01AB
:10B5A0000E027A003F013F013F013F013F013F0191
:10B5B0003F013F013F013F01D7003F013F013F01F4
:10B5C000F2013F0197023F013F0100053F013F01AA
:10B5D0003F013F013F013F013F013F013F013F016B
:10B5E0000E027C003F013F013F018A027C00750092
:10B5F0003F017D023F01B602D900A60275003F015E
:10B60000F2017200FE043F013F011C053F01720080
:10B610000021A3F1300218F8013B01EB810102EB9C
:10B620004101A3F13002092AF5D902918EE7049B6A
:10B6300053F8042B002A02920493C0F2AD8198F8CB
:10B64000003081E798F8003047F020077CE747F0AA
:10B650001007BC0640F15881049C073424F007030E
:10B660001946F1E8022314461D460491002A73F19D
:10B670000003C0F21E84009B013300F0F08454EA02
:10B68000050327F0800900F0FC83002D08BF0A2C79
:10B6900080F0A98401234F4630348DF8E7400193B0
:10B6A0000DF1E706DDE900218A42B8BF0A469DF8A0
:10B6B00033301546002B00F09D8001359AE0494655
:10B6C0000598FCF7D9FF002840F04A85B9F80C200E
:10B6D00002F01A030A2B7FF406AFB9F90E30002BE3
:10B6E000FFF601AFD9F86430DE0702D4950540F1CA
:10B6F0000E85234642464946059800F059FD0390C1
:10B7000003983BB0BDE8F08F47F01007B806049CE3
:10B7100040F10981073424F00703F3E8024504935C
:10B72000002327F480694FF000028DF83320009A3F
:10B730001146013100F0DB8154EA050129F0800750
:10B7400040F0D481002A40F08D84002B40F09E838D
:10B7500019F00103019300F0C38330230DF1E706D4
:10B760008DF8E7309EE7B4EB080500F0BB80DDE91B
:10B770000F3201332A44072BCAE90085CDE90F3285
:10B7800006DC0AF1080A039A23782A440392CAE6DF
:10B79000002A00F07283594605980EAAFFF72CFE86
:10B7A00050B90DF1440AEEE7594605980EAAFFF785
:10B7B00023FE002800F08D80D946D9F8643013F0BC
:10B7C000010FB9F80C3000F095805B0600F1D484CD
:10B7D00003983BB0BDE8F08F002B00F0838001257B
:10B7E0008DF884304FF0000301958DF8333021AE91
:10B7F0000023009317F00203079318BF023517F0D8
:10B800008403069304D1029B5C1B002C00F374821A
:10B81000DDE90F12481C9DF8334074B101210DF190
:10B8200033040A440728CDE90F02CAE9004100F3B6
:10B83000468201460AF1080A0130079BC3B1022182
:10B840000DAB0A440728CDE90F02CAE9003140F3E5
:10B850004E82002A00F00C83594605980EAAFFF785
:10B86000CBFD0028A8D1DDE90F120DF1440A481CD8
:10B87000069B802B00F07E81DDE900341C1B002C30
:10B8800000F3D381019B07281A44CAE90063109290
:10B890000F9040F36C81002A00F07682594605989B
:10B8A0000EAAFFF7A9FD002886D1109A0DF1440ACF
:10B8B000790704D5029B5C1B002C00F36E82DDE946
:10B8C0000213A942ACBF5B185B190393002A7FF4F3
:10B8D0006BAF00230F9398F800300DF1440A002B52
:10B8E0007FF413AE109BD946002B40F02684002332
:10B8F0000F9362E79A053FF568AFD9F85800FEF755
:10B9000065FBB9F80C3060E7049BF80653F8044B6C
:10B9100000F10883790640F1028324B2E51704930D
:10B9200022462B46A2E654F8043BF906049400F1A3
:10B93000F3827A0640F1ED8200259CB2F0E64FF0EA
:10B940000003049C8DF8333054F8046B002E00F093
:10B950009783009A1346013300F01E83002130467E
:10B96000FEF764FE002800F0D883831B01930023B8
:10B970000494009396E601254FF00002049C8DF894
:10B98000332054F8043B01958DF88430049421AEA3
:10B990002EE7FDF7D1FF82E5029B5B42029398F808
:10B9A000003047F00407CFE598F800308DF83350A9
:10B9B000CAE598F8003047F08007C5E5414611F820
:10B9C000013B2A2B00F0DD83A3F13002092A8846CF
:10B9D00098BF002100F2AD8318F8013B01EB810113
:10B9E00002EB4101A3F13002092AF5D90091ADE53E
:10B9F000059C2046FEF7E0FA436818460A93FAF7DA
:10BA0000BDFF034620460B931C46FEF7D5FA82681D
:10BA10000992002C3FF413AE099B002B3FF40FAEAC
:10BA2000099B1B78002B3FF40AAE98F8003047F4CE
:10BA3000806789E598F8003047F0010784E59DF8B4
:10BA40003330002B7FF4FBAD20238DF8333098F892
:10BA5000003079E598F800306C2B03BF98F801307E
:10BA600047F0200708F1010847F010076CE598F847
:10BA70000030682B03BF98F8013047F4007708F1D5
:10BA8000010847F040075FE547F0100919F0200F63
:10BA9000049C00F00082073424F00703F3E8024519
:10BAA000049301233FE647F63003049CADF834309D
:10BAB00054F8042BBF4B049408931446002502232A
:10BAC00047F002092FE6BB0600F13282FE0600F1C4
:10BAD000CF827D0600F10183BC0540F1C982049C40
:10BAE000039A54F8043B1A70049409E5B946012BF3
:10BAF0003FF4CBAD022B3AAE13D10898230943EAA9
:10BB00000573290904F00F020D461C46835C06F8F4
:10BB1000013D54EA0503F1D13AAB9B1B4F4601931B
:10BB2000C0E5E20842EA4572E90804F007030D4661
:10BB30001446303354EA0501324606F8013DF0D18F
:10BB400019F0010FE8D0302BE6D03023023A06F886
:10BB5000013C3AAB9B1A4F4616460193A2E50123DE
:10BB6000019A0F93CDE9102612920DF1440A0AF1C1
:10BB7000080A9DE6029B5C1B002C7FF77DAE102C13
:10BB800040F3EA82DFF8309250460697B2464E46BE
:10BB9000C146A846059D06E001F1020C1946083091
:10BBA000103C102C1ADD10274B1C1032072B109262
:10BBB000066047600F93EFDD002A7BD05946284688
:10BBC0000EAAFFF719FC00287FF4F6ADDDE90F128D
:10BBD000103C102C11A801F1010CE4DC4546C846CC
:10BBE000B14656468246069F2244BCF1070FCAE979
:10BBF00000941092CDF83CC040F37E81002A00F002
:10BC00005C82594605980EAAFFF7F6FB00287FF4E0
:10BC1000D3ADDDE90034DDE90F121C1B002C0DF162
:10BC2000440A01F101007FF72DAE102CDFF8889156
:10BC30002FDDD446B2464E46C146A846059D06E0D5
:10BC4000881C19460CF1080C103C102C1CDD10202F
:10BC50004B1C1032072B1092CCF80060CCF804007B
:10BC60000F93EDDD0AB3594628460EAAFFF7C4FB31
:10BC700000287FF4A1ADDDE90F12103C102C0DF16E
:10BC8000440C01F10100E2DC4546C846B146564687
:10BC9000E24622440728CAE9009410920F9000F36C
:10BCA000D3800AF1080A0130ECE5012011460DF1BC
:10BCB000440CC9E74FF0010C114611A870E7002AA7
:10BCC00000F0D380594605980EAAFFF795FB00288F
:10BCD0007FF472ADDDE90F120DF1440A481CACE5AA
:10BCE000022201200DABCDE911320DF1440A0146CB
:10BCF0000AF1080A481CBBE5102C40F31482DDE968
:10BD00000F32DFF8B890D446B2464E46C146A84638
:10BD1000059D06E0991C03460CF1080C103C102C04
:10BD20001CDD1021581C103207281092CCF800603E
:10BD3000CCF804100F90EDDD0AB3594628460EAA40
:10BD4000FFF75AFB00287FF437ADDDE90F32103CD6
:10BD5000102C0DF1440C03F10101E2DC4546C8460C
:10BD6000B1465646E24622440729CAE90094109299
:10BD70000F9100F3A8800AF1080A481C4BE513460E
:10BD800001210DF1440CC9E778070F9254D5029BAD
:10BD90005C1B002C50DD0DF1440A102C40F3D781C0
:10BDA000DFF8189010264B460F99A946059F1D46AF
:10BDB0000DE000BFE0D4000864D7000854D70008A5
:10BDC000881C19460AF1080A103C102C19DD4B1C7E
:10BDD0001032072BCAE9005610920F93F0DD32B3F0
:10BDE000594638460EAAFFF707FB00287FF4E4AC5B
:10BDF000DDE90F12103C102C0DF1440A01F1010095
:10BE0000E5DC2B464D46994622440728CAE90094B2
:10BE100010920F907FF753AD72B1594605980EAA54
:10BE2000FFF7EAFA00287FF4C7AC109A47E5012033
:10BE300011460DF1440AC7E7DDE90223AA42ACBF6F
:10BE40009B185B19039344E5002A3FF488AE5946DA
:10BE500005980EAAFFF7D0FA00287FF4ADACDDE913
:10BE60000F020DF1440A01300CE5079B002B6BD14A
:10BE7000012011460DF1440AFAE40F920DF1440A33
:10BE800081E4009B002B7FF405AC4F4600233AAEC3
:10BE90000093019306E454F8042B19F0100F4FF0AF
:10BEA0000103049432D119F0400F2BD0002594B235
:10BEB00039E42D2364428DF83330B9464FF0010345
:10BEC00065EB450533E4002A6FD0594605980EAA64
:10BED000FFF792FA00287FF46FAC0DF1440A97E463
:10BEE0003AAEFFF7DFBBD9F85800FEF76DF8B9F9A5
:10BEF0000C108AB2FFF7DDBA61460AF1080A0CF1AC
:10BF00000100B9E419F4007F40F0EF8014460025E9
:10BF100009E4BE0500F1F7801C46002500E4BA05DF
:10BF200000F1EA80E517049322462B46FFF79EBBFB
:10BF3000039B049CDD171A462B4654F8041BC1E9E9
:10BF400000230494FFF7DCBA02220DABCDE91132D5
:10BF50000DF1440ACCE6B94698E5904A0892BD0630
:10BF6000049C30D5073424F00702F2E8024504921D
:10BF7000FE0709D554EA050206D030228DF8353087
:10BF800047F002078DF83420022327F48069FFF779
:10BF9000CABB834A0892E2E73046FAF7EFFC002377
:10BFA000049401900093FFF77DBB9DF833100029A6
:10BFB00040F08980079B002B7FF492AE1146012050
:10BFC0000DF1440A58E454F8042B0494FC0607D4F9
:10BFD000780602D5002594B2CAE7B90500F1898038
:10BFE00014460025C4E709F48063CDF80490CDF829
:10BFF000188000279846DDF824903AAE0BE00A221C
:10C00000002320462946F6F729FA002D08BF0A2CFE
:10C0100019D304460D460A22002320462946F6F786
:10C020001DFA303206F8012C0137013EB8F1000F3D
:10C03000E5D099F80030BB42E1D1FF2FDFD0002DD1
:10C0400008BF0A2C25D2CDF824903AABDDF8049035
:10C050009B1B4F46DDF818800193FFF723BBB946C1
:10C06000FFF713BB012BB9467FF444ADFFF712BBBA
:10C07000049C039A54F8043B1A600494FFF740BAF6
:10C08000009D484E062D28BF062504940195FFF714
:10C09000AFBB0B9B0A99F61A1A463046FFF778F9A0
:10C0A00099F801300BB109F101090A220023204659
:10C0B0002946F6F7D3F90027ABE7012011460DF129
:10C0C000440AFFF7D9BB01220DF133011046CDE937
:10C0D00011120DF1440AFFF7ACBB049C039A54F80B
:10C0E000043B1A800494FFF70BBA0025D4B2FFF783
:10C0F0001ABB0025D4B23BE764B2E517049322468D
:10C100002B46FFF7B3BA0025DCB2FFF709BBD9F81D
:10C110005800FDF75BFFFFF7ECBA009B0494019316
:10C120000090FFF7BFBADDE90F12DFF87C90013114
:10C1300019E600220092FFF709BA594605980EAA9F
:10C14000FFF75AF900283FF4D2ABFFF736BB0F9840
:10C15000DFF85490013057E68446DFF8509043E50D
:10C16000D9F86430DB0707D4B9F80C309F0503D445
:10C17000D9F85800FDF72AFF4FF0FF330393FFF77C
:10C1800027BB049A98F8013052F8040B884640EA1D
:10C19000E07000900492FFF7D7B900BFF4D4000814
:10C1A000E0D4000808D5000854D7000864D7000878
:10C1B000F0B50C464FF4806C4FF0000E1546064665
:10C1C0001F46636EADF26C4DE28989891993E3696C
:10C1D000ADF80E20626A21F00201079316A81AAB8F
:10C1E000ADF80C10CDF818E0099200930493CDF847
:10C1F00008C0CDF814C0FDF7E3FE2A463B46694669
:10C200003046FFF73FF9051E07DB30466946FDF76C
:10C2100037FB002818BF4FF0FF35BDF80C305B0628
:10C2200003D5A38943F04003A3811698FDF7CAFE06
:10C2300028460DF26C4DF0BDF8B50F460026084DAE
:10C24000114604461A4638462E60F6F7A7FB431CF3
:10C2500000D0F8BD2B68002BFBD02360F8BD00BFD9
:10C26000D40A00202DE9F047DFF880A00646DAF86E
:10C27000000098460F469146FDF7A6FE1A4B1B6834
:10C28000D3F8484124B365681F2D26DC5EB96B1CCA
:10C290000235DAF80000636044F82570FDF796FE79
:10C2A0000020BDE8F087012304EB8501C1F88890E8
:10C2B000D4F88821AB401A43022EC4F88821C1F873
:10C2C0000881E4D1D4F88C211343C4F88C31DEE723
:10C2D00003F5A674C3F84841D5E7DAF80000FDF786
:10C2E00075FE4FF0FF30DCE7C8D400088004002062
:10C2F000144600B5094D1A460346286885B0C06843
:10C3000044B1074D0091CDE90154064900F0B6F85B
:10C31000FAF7FEF8044D2C46F4E700BF5400002065
:10C3200074D7000884D70008DCC7000810B502FBEA
:10C3300001F1FDF7CDFE044668B150F8042C22F05F
:10C340000302043A242A18D8132A06D802460023E6
:10C35000C2E900339360204610BD00231B2AC0E9C8
:10C3600000330FD9242AC0E902330ABFC0E90433DD
:10C3700000F1100200F11802E9E70021FAF728F9AC
:10C38000204610BD00F10802E1E700BF002238B5E9
:10C39000064D044608462A60F6F71AFB431C00D0F7
:10C3A00038BD2B68002BFBD0236038BDD40A002099
:10C3B00070B500294BD00C46054610B1836B002B9D
:10C3C00048D0636ED80734D5B4F90C30002B3ED07A
:10C3D00021462846FDF7BCF9E36A064633B12846F4
:10C3E000E16998470028B8BF4FF0FF36A3891A06C5
:10C3F0003BD4216B41B104F14003994202D028465D
:10C40000FDF73AFB00232363616C21B12846FDF759
:10C4100033FB00236364FDF7BDFA0022636EA28143
:10C42000DB0727D5A06DFDF7CDFDFDF7B9FA304646
:10C4300070BDA3899905CBD4A06DFDF7C5FDB4F9F6
:10C440000C30002BC4D1666E16F0010608D0002611
:10C45000304670BDFDF770FA636ED807B4D4E8E7D4
:10C46000A06DFDF7B3FD304670BD28462169FDF78C
:10C4700003FBBEE7A06DFDF7A9FDD3E70EB410B531
:10C4800083B005AB064C53F8042B0146206801939A
:10C49000FEF7F8FF03B0BDE8104003B0704700BFDF
:10C4A000540000202DE9F04383B007468846144627
:10C4B00000F0A4F8012803D108F1FF33FE2B33D993
:10C4C0004246384604F15C0301A900F037F9421CEA
:10C4D00006462FD018B39DF8041000250DF104096D
:10C4E00008E023685A1C226019700135B54216D243
:10C4F00015F80910A368013B002BA360F1DAA269CB
:10C50000934201DB0A29ECD12246384600F0BEF8FE
:10C51000431CEAD10646304603B0BDE8F0834646E8
:10C52000304603B0BDE8F0835FFA88F106468DF827
:10C530000410D2E73046A38943F04003A38103B03F
:10C54000BDE8F08330B5536E144613F0010FB2F915
:10C550000C30054683B09AB201D198051CD59004E1
:10C5600006D4626E43F4005342F40052A381626623
:10C5700028462246FFF796FF636E0546DA0702D487
:10C58000A3899B0502D5284603B030BDA06DFDF7F9
:10C590001DFD284603B030BDA06D0191FDF714FDCF
:10C5A000B4F90C3001999AB2D9E700BF70B50C46C6
:10C5B00003460026074D204611461C462E60F6F71E
:10C5C00033FA431C00D070BD2B68002BFBD02360D6
:10C5D00070BD00BFD40A0020002238B5064D0446C5
:10C5E00008462A60F6F7CEF9431C00D038BD2B6808
:10C5F000002BFBD0236038BDD40A0020014B93F8F8
:10C600002801704794080020F8B50F460026084D11
:10C61000114604461A4638462E60F6F7E5F9431CE3
:10C6200000D0F8BD2B68002BFBD02360F8BD00BF05
:10C63000D40A002082B049B15AB16BB113780B60B3
:10C640001278101E18BF012002B0704701A9002AFD
:10C65000F3D1104602B070476FF00100F4E700BF5D
:10C66000F8B50F460026084D114604461A463846CE
:10C670002E60F6F7C1F9431C00D0F8BD2B68002BE3
:10C68000FBD02360F8BD00BFD40A0020F8B50D46EA
:10C690001446064610B1836B002B43D0B4F90C202E
:10C6A000A3691707A36090B21BD52369CBB1EDB284
:10C6B00081042F4622D522686169D31A994229DD67
:10C6C0000133A168501C0139A160206015706269B6
:10C6D0009A422AD0A389DB0701D50A2D25D03846F6
:10C6E000F8BD21463046FBF7C7FF20BBB4F90C204C
:10C6F000EDB290B281042F462369DCD4616E42F41E
:10C70000005221F40051A281226861666169D31A46
:10C710009942D5DC21463046FDF7B2F858B90123DD
:10C720002268CEE7FDF708F9B8E721463046FDF765
:10C73000A7F80028D3D04FF0FF37D0E770B50646F2
:10C740001D4684B039B10B4CD4F8E040A047431CDF
:10C750000AD004B070BD0C4606492246D1F8E0402C
:10C7600001A9A047431CF4D100228A232A60336028
:10C7700004B070BD94080020034649B1FF2A02D8D6
:10C7800001200A7070478A224FF0FF301A6070470C
:10C7900008467047F8B500BFF8BC08BC9E46704715
:0CC7A000F8B500BFF8BC08BC9E4670470E
:10C7B0006D7075206461746120783A25662C256659
:10C7C0002C2566200D0A000072756E207465737446
:10C7D0002073656C66206572726F720D0000000038
:10C7E0006572726F720D0000696E697420657272F5
:10C7F0006F720D0000000000000000000102030441
:10C8000006070809000000000102030402030405F2
:10C81000060708090A0B0C0D0E0F1010000000008F
:10C82000D000000476005401F7FD000175191A0CC0
:10C830006A231B1C1F207274433B4138393A6B6CCE
:10C84000376F06246D6E7000830000000008000042
:10C850000001001832000500000020410000D24213
:10C86000295C0F3E9A99993E3333733F295C0F3E02
:10C870004CCD6C000CC92C0036567600264666005E
:10C88000B8AAB38DB4980D355D000000B8AAAAAA65
:10C89000B088C3C5C700000000007000000000247D
:10C8A000000000020003000000650054FFEF0000DC
:10C8B000FA80000B12820001030C30C30E8C8CE94D
:10C8C00014D5400213710F8E3883F8833000F8833B
:10C8D000258EF8833000F883FFFFFFFF0FFEA9D6F7
:10C8E000240004001A8279A10000003CFFFF000030
:10C8F0000010000038836FA2003E033040000000AB
:10C9000002CAE3093E800000200000000000000091
:10C910004000000060000000000C0000000C186ED9
:10C92000000006920A16C0DFFFFF0256FD8CD37787
:10C93000FFE1C496E0C5BEAA00000000FFFF0B2B7C
:10C9400000001657000003594000000000001DFAC7
:10C9500000026C1D000000003FFFDFEB003EB3B69D
:10C96000000D227800002F3C00000000001942B5A5
:10C97000000039A20000B365D90E9FC91DCF4C3409
:10C9800030000000500000003BB67AE80064000070
:10C9900000C8000000000000100000001000FA9223
:10C9A0001000225E000D229F0001000000320000F6
:10C9B000FF46000063D400001000000004D6000011
:10C9C00004CC000004CC0000000010720000004005
:10C9D0000000000000000000000600020005000743
:10C9E00000000000006400000000000000000005DE
:10C9F00000050064002000000000000000000000AE
:10CA0000000040000000030000000032F898000021
:10CA1000FF650000830F0000FF9BFC00000000008A
:10CA20000000000000000000000000000000000006
:10CA300000000000000000000000000000000000F6
:10CA40000000000000001000400000000000000690
:10CA50000000B26A000200000001FB8300680000D1
:10CA600000D9FC007CF1FF8300000000006500009D
:10CA7000006403E8006400280000002500000000B6
:10CA800016A000000000100000001000002F0000A1
:10CA9000000001F40000100000280000FFFF4581A5
:10CAA000FFFFFA72000000000000000000440005D3
:10CAB0000005BAC6004778A200000001000000008F
:10CAC00000000600000000140000254D002F706DCE
:10CAD000000005AE000C02D00000000000000000C5
:10CAE0000000000000000000001B0000000000002B
:10CAF00000000000000000000064000000080000CA
:10CB00000000000000000000000000000000000025
:10CB10000000000000000000000000000000000015
:10CB20000000000000000000000000000000000005
:10CB300000000000000000000000000000000000F5
:10CB400000000000000000000000000000000000E5
:10CB50000000000000000000001B000000000000BA
:10CB600000000000000E000E00000AC700040000D4
:10CB700000000032FFFFFF9C00000B2B00000002B2
:10CB80000000000100000064FFE50000000000005C
:10CB90000000000000000000000000010000000094
:10CBA0000001000000000000000180000001800082
:10CBB00000018000002426D30000000000000000D7
:10CBC000000600100096003C00000000000000007D
:10CBD00000000000000000000C0A4E68CDCF77096D
:10CBE00050166759C619CE820000000000000000F0
:10CBF0000000000000000000000000000000000035
:10CC000017D78400030000000000000000000000AF
:10CC1000C7938F9D1E1B1C19000000000000000020
:10CC20000000000000000000000000000000000004
:10CC3000020318850000400000000003000000030C
:10CC400000000000000000004000000000000000A4
:10CC500000000000000000000000000000000000D4
:10CC600000000000000000000000000000000000C4
:10CC7000000000000000000000000000677DDF7E73
:10CC800072902E554CF6E68800000000000000006F
:10CC90000000000000000000D8DCB4B8B0D8B9AB88
:10CCA000F3F8FAB3B7BB8E9EAEF132F51BF1B4B810
:10CCB000B08097F1A9DFDFDFAADFDFDFF2AAC5CD01
:10CCC000C7A90CC92C97F1A989264666B28999A9EA
:10CCD0002D557DB0B08AA896365676F1BAA3B4B277
:10CCE00080C0B8A89711B28398BAA3F02408441062
:10CCF0006418B2B9B49883F1A329557DBAB5B1A32C
:10CD00008393F0002850F5B2B6AA839328547CF19F
:10CD1000B9A3829361BAA2DADEDFDB819AB9AEF5FC
:10CD2000606870F1DABAA2DFD9BAA2FAB9A3829226
:10CD3000DB31BAA2D9BAA2F8DF85A4D0C1BBAD83DA
:10CD4000C2C5C7B8A2DFDFDFBAA0DFDFDFD8D8F106
:10CD5000B8AAB38DB4980D355DB2B6BAAF8C96193A
:10CD60008F9FA70E161EB49AB8AA872C547CBAA41B
:10CD7000B08AB691325676B28494A4C808CDD8B899
:10CD8000B4B0F19982A82D557D98A80E161EA22C3C
:10CD9000547C92A4F02C5078F184A898C4CDFCD88F
:10CDA0000DDBA8FC2DF3D9BAA6F8DABAA6DED8BAFC
:10CDB000B2B68696A6D0F3C841DAA6C8F8D8B0B401
:10CDC000B882A892F52C548898F135D9F418D8F186
:10CDD000A2D0F8F9A884D9C7DFF8F883C5DADF69EB
:10CDE000DF83C1D8F40114F1A8824EA884F311D1D5
:10CDF00082F5D992289788F109F41C1CD884A8F3ED
:10CE0000C0F9D1D99782F129F40DD8F3F9F9D1D924
:10CE100082F4C203D8DEDF1AD8F1A2FAF9A8849806
:10CE2000D9C7DFF8F8F883C7DADF69DFF883C3D83A
:10CE3000F40114F198A8822EA884F311D182F5D9B7
:10CE400092509788F109F41CD884A8F3C0F8F9D15E
:10CE5000D99782F149F40DD8F3F9F9D1D982F4C404
:10CE600003D8DEDFD8F1AD8898CCA809F9D9829231
:10CE7000A8F57CF1883ACF944A6E98DB6931DAAD37
:10CE8000F2DEF9D88795A8F221D1DAA5F9F417D9FD
:10CE9000F1AE8ED0C0C3AE82C684C3A88595C8A5A6
:10CEA00088F2C0F1F4010EF18E9EA8C63E56F554EC
:10CEB000F18872F40115F19845856EF58E9E04880F
:10CEC000F142985A8E9E068869F4011CF1981E1151
:10CED00008D0F504F11E970202983625DBF9D985B2
:10CEE000A5F3C1DA85A5F3DFD88595A8F309DAA5FE
:10CEF000FAD88292A8F578F1881A849F268898211A
:10CF0000DAF41DF3D8879F39D1AFD9DFDFFBF9F40D
:10CF10000CF3D8FAD0F8DAF9F9D0DFD9F9D8F40B54
:10CF2000D8F3879F39D1AFD9DFDFF41DF3D8FAFCEE
:10CF3000A869F9F9AFD0DADEFAD9F88F9FA8F1CC59
:10CF4000F398DB45D9AFDFD0F8D8F18F9FA8CAF3AB
:10CF50008809DAAF8FCBF8D8F2AD978D0CD9A5DF61
:10CF6000F9BAA6F3FAF412F2D8950DD1D9BAA6F30C
:10CF7000FADAA5F2C1BAA6F3DFD8F1BAB2B686964C
:10CF8000A6D0CAF349DAA6CBF8D8B0B4B8D8AD84E5
:10CF9000F2C0DFF18FCBC3A8B2B68696C8C1CBC3AF
:10CFA000F3B0B48898A821DB718D9D71859521D946
:10CFB000ADF2FAD88597A828D9F408D8F28D29DAE5
:10CFC000F405D9F285A4C2F2D8A88D9401D1D9F480
:10CFD00011F2D88721D8F40AD8F28498A8C801D1D0
:10CFE000D9F411D8F3A4C8BBAFD0F2DEF8F8F8F842
:10CFF000F8F8F8F8D8F1B8F6B5B9B08A95A3DE3CE0
:10D00000A3D9F8D85CA3D9F8D87CA3D9F8D8F8F973
:10D01000D1A5D9DFDAFAD8B18530F7D9DED8F83022
:10D02000ADDADED8F2B48C99A32D557DA083DFDF75
:10D03000DFB591A0F629D9FBD8A0FC29D9FAD8A050
:10D04000D051D9F8D8FC51D9F9D879D9FBD8A0D08A
:10D05000FC79D9FAD8A1F9F9F9F9F9A0DADFDFDF1B
:10D06000D8A1F8F8F8F8F8ACDEF8ADDE8393AC2C74
:10D07000547CF1A8DFDFDFF69D2CDAA0DFD9FADBE4
:10D080002DF8D8A850DAA0D0DED9D0F8F8F8DB55C2
:10D09000F8D8A878DAA0D0DFD9D0FAF8F8F8F8DB19
:10D0A0007DF8D89CA88CF530DB38D9D0DEDFA0D055
:10D0B000DEDFD8A848DB58D9DFD0DEA0DFD0DED84D
:10D0C000A868DB70D9DFDFA0DFDFD8F1A888902C5B
:10D0D000547C98A8D05C38D1DAF2AE8CDFF9D8B0A5
:10D0E00087A8C1C1B188A8C6F9F9DA36D8A8F9DA93
:10D0F00036D8A8F9DA36D8A8F9DA36D8A8F9DA365F
:10D10000D8F78D9DADF818DAF2AEDFD8F7ADFA306A
:10D11000D9A4DEF9D8F2AEDEFAF983A7D9C3C5C720
:10D12000F1889BA77AADF7DEDFA4F8849408A7976F
:10D13000F300AEF29819A488C6A39488F632DFF201
:10D140008393DB09D9F2AADFD8D8AEF8F9D1DAF3A4
:10D15000A4DEA7F1889B7AD8F38494AE19F9DAAAF1
:10D16000F1DFD8A881C0C3C5C7A39283F628ADDE7E
:10D17000D9F8D8A350ADD9F8D8A378ADD9F8D8F854
:10D18000F9D1A1DADEC3C5C7D8A18194F818F2B0ED
:10D1900089ACC3C5C7F1D8B8B4B09786A8319B068F
:10D1A0009907AB9728889BF00C201440B0B4B8F0D6
:10D1B000A88A9A285078B79BA82951792470594495
:10D1C0006938644831F1BBAB88002C547CF0B38BD8
:10D1D000B8A804285078F1B088B49726A85998BB0D
:10D1E000ABB38B02264666B0B8F08A9CA829517969
:10D1F0008B2951798A2470598B2058718A44693857
:10D200008B3940688A6448318B30496088F1AC00C2
:10D210002C547CF08CA804285078F1889726A859C3
:10D2200098AC8C02264666F0899CA8295179247016
:10D2300059446938644831A98809205970AB1138BC
:10D240004069A8193148608CA83C415C207C00F101
:10D2500087981986A86E767EA999882D557DD8B1B4
:10D26000B5B9A3DFDFDFAED0DFAAD0DEF2ABF8F9CD
:10D27000D9B087C4AAF1DFDFBBAFDFDFB9D8B1F126
:10D28000A3978E60DFB084F2C8F8F9D9DED8938511
:10D29000F14AB183A308B5839A0810B79F10D8F15B
:10D2A000B0BAAEB08AC2B2B68E9EF1FBD9F41DD828
:10D2B000F9D90CF1D8F8F8AD61D9AEFBD8F40CF17E
:10D2C000D8F8F8AD19D9AEFBDFD8F416F1D8F8AD1F
:10D2D0008D61D9F4F4ACF59C9C8DDF2BBAB6AEFA17
:10D2E000F8F40BD8F1AED0F8AD51DAAEFAF8F1D8C7
:10D2F000B9B1B6A3839C08B9B1839AB5AAC0FD3071
:10D3000083B79F10B58B93F20202D1ABDADED8F16E
:10D31000B080BAABC0C3B284C1C3D8B1B9F38BA3D8
:10D3200091B609B4D9ABDEB0879CB9A3DDF1B38B5C
:10D330008B8B8B8BB087A3A3A3A3B28BB69BF2A3DB
:10D34000A3A3A3A3A3A3A3A3A3F1B087B59AA3F315
:10D350009BA3A3DCBAACDFB9A3A3A3A3A3A3A3A3FA
:10D36000A3A3A3A3A3A3A3A3D8D8D8BBB3B7F1AA5D
:10D37000F9DAFFD9809AAA28B48098A720B79787AE
:10D38000A86688F07951F1902C870CA78197629359
:10D39000F071716085940129517990A5F1284C6C48
:10D3A000870C95188578A38390284C6C886CD8F3EB
:10D3B000A28200F210A8921980A2F2D926D8F18890
:10D3C000A84DD948D896A83980D93CD89580A83995
:10D3D000A68698D92CDA87A72CD8A8899519A98070
:10D3E000D938D8A88939A980DA3CD8A82EA839908C
:10D3F000D90CD8A8953198D90CD8A809D9FFD8014B
:10D40000DAFFD89539A9DA26FFD890A80D8999A80E
:10D4100010809821DA2ED88999A83180DA2ED8A8E0
:10D4200086963180DA2ED8A8873180DA2ED8A88265
:10D4300092F34180F1D92ED8A882F31980F1D92E28
:10D44000D882ACF3C0A28022F1A62EA72EA92298E2
:10D45000A829DAACDEFFD8A2F22AF1A92E8292A87E
:10D46000F23180A696F1D900AC8C9C0C30ACDED0A9
:10D47000DEFFD88C9CACD010ACDE8092A2F24C8245
:10D48000A8F1CAF235F19688A6D900D8F1FF0000BC
:10D49000DB0F49BFE4CB1640E4CB16C00000008090
:10D4A000DB0F4940DB0F49C03863ED3EDA0F493FDF
:10D4B0005E987B3FDA0FC93F6937AC316821223370
:10D4C000B40F14336821A233580000200A00000072
:10D4D000494E4600696E66004E414E006E616E0018
:10D4E00030313233343536373839616263646566DA
:10D4F000000000003031323334353637383941429C
:10D500004344454600000000286E756C6C290000FD
:10D51000300000002020202020202020202020205B
:10D52000202020203030303030303030303030303B
:10D53000303030304E614E00496E66696E697479E4
:10D540000000000042616C6C6F632073756363655B
:10D5500065646564000000002F6D6E742F776F7234
:10D560006B73706163652F776F726B737061636546
:10D570002F4743432D392D706970656C696E652F97
:10D580006A656E6B696E732D4743432D392D706943
:10D5900070656C696E652D3230305F3230323030FC
:10D5A0003532315F313539303035333337342F73DD
:10D5B00072632F6E65776C69622F6E65776C696236
:10D5C0002F6C6962632F7374646C69622F64746F6B
:10D5D000612E63002F6D6E742F776F726B737061A5
:10D5E00063652F776F726B73706163652F47434379
:10D5F0002D392D706970656C696E652F6A656E6B6B
:10D60000696E732D4743432D392D706970656C69C0
:10D610006E652D3230305F32303230303532315F2E
:10D62000313539303035333337342F7372632F6EE1
:10D6300065776C69622F6E65776C69622F6C6962C1
:10D64000632F7374646C69622F6D707265632E63EF
:10D6500000000000000000000080E03779C3414373
:10D66000176E05B5B5B89346F5F93FE9034F384D48
:10D67000321D30F94877825A3CBF737FDD4F1575F4
:10D68000000000000000F03F000000000000244007
:10D6900000000000000059400000000000408F40E2
:10D6A000000000000088C34000000000006AF8404D
:10D6B0000000000080842E4100000000D012634171
:10D6C0000000000084D797410000000065CDCD41E7
:10D6D000000000205FA00242000000E876483742C8
:10D6E000000000A2941A6D42000040E59C30A24266
:10D6F0000000901EC4BCD64200003426F56B0C43DB
:10D700000080E03779C3414300A0D8855734764381
:10D7100000C84E676DC1AB43003D9160E458E143E2
:10D72000408CB5781DAF154450EFE2D6E41A4B4457
:10D7300092D54D06CFF08044F64AE1C7022DB5449C
:10D74000B49DD9794378EA4405000000190000002F
:10D750007D000000202020202020202020202020CC
:10D7600020202020303030303030303030303030F9
:10D77000303030302C2066756E6374696F6E3A20DD
:10D7800000000000617373657274696F6E2022255A
:10D790007322206661696C65643A2066696C652055
:10D7A000222573222C206C696E6520256425732543
:10D7B000730A000043000000504F53495800000016
:10D7C0002E000000002020202020202020202828BB
:10D7D0002828282020202020202020202020202031
:10D7E0002020202020881010101010101010101071
:10D7F00010101010100404040404040404040410A1
:10D80000101010101010414141414141010101012E
:10D8100001010101010101010101010101010101F8
:10D820001010101010104242424242420202020204
:10D8300002020202020202020202020202020202C8
:10D840001010101020000000000000000000000078
:10D8500000000000000000000000000000000000C8
:10D8600000000000000000000000000000000000B8
:10D8700000000000000000000000000000000000A8
:10D880000000000000000000000000000000000098
:10D890000000000000000000000000000000000088
:10D8A0000000000000000000000000000000000078
:10D8B0000000000000000000000000000000000068
:08D8C000000000000000000060
:10D8C80008B10181B0B000840000000008B10181F6
:10D8D800B0B000840000000008B10181B0B000843D
:04D8E800000000003C
:10D8EC00A037FF7F01000000F43AFF7FB0A902804F
:10D8FC008C3BFF7FB0B0A880DC3BFF7F01000000B9
:10D90C00E83BFF7FB0B0AA801C3CFF7FAE71B280B9
:10D91C00D83CFF7F01000000D43CFF7FAB3F388038
:10D92C002C3DFF7F01000000383DFF7FB0B0AA8086
:10D93C00743DFF7F01000000243EFF7FAB0EB280E0
:10D94C00903EFF7FB0AF08803041FF7F01000000A8
:10D95C003441FF7FAD3F02809443FF7F0100000004
:10D96C007045FF7F008404808445FF7F0100000028
:10D97C008045FF7FB0AD04801448FF7FB0A80380C2
:10D98C003448FF7F44FFFF7F3848FF7F48FFFF7F0D
:10D99C004448FF7F01000000644BFF7F008410802F
:10D9AC00C04BFF7FB0A910805C4CFF7F01000000D2
:10D9BC00B44CFF7FB0A80780404DFF7FB0A801801A
:10D9CC00CC4DFF7FB0AF0C80904FFF7F010000006B
:10D9DC00205FFF7FB0B0A880C85FFF7FA908B1802F
:10D9EC002C60FF7FB0B0A880D460FF7FB0B0AA805D
:10D9FC00CC61FF7FB0B0AC809462FF7FB0AB028093
:10DA0C004863FF7FB0AD0480E463FF7FB0AC01805E
:10DA1C00D864FF7F008402806865FF7FB0AD04800E
:10DA2C00B069FF7F00840280A06BFF7F01000000C3
:10DA3C00D46BFF7F00840280646CFF7F01000000C8
:10DA4C00A06CFF7F008402802C6DFF7F0100000022
:10DA5C00686DFF7F00840280F46DFF7F0100000081
:10DA6C00B06EFF7FB0B0AA800C6FFF7FB0AB0280AE
:10DA7C00C46FFF7FB0A80180E874FF7FB0AA01805B
:10DA8C00C875FF7FB0AF06807876FF7FB0A90280A3
:10DA9C000477FF7FB0AC07800478FF7FA908B180C2
:10DAAC003C78FF7F18FEFF7F4C78FF7FB0A8058085
:10DABC008879FF7FB0AB0480807AFF7FB0AB0880A1
:10DACC00587BFF7FB0AA0180F07CFF7F008402802E
:10DADC00547EFF7F00840480907EFF7F0084028050
:10DAEC00007FFF7FB0AC03801081FF7FB0AE07805A
:08DAFC00E482FF7F010000003D
:08DB0400498700083501000803
:04DB0C0011010008FB
:10DB10000100000001000000010000000000000002
:10DB2000000000000000D0410024F40001000000CB
:10DB3000100000002CC8000820C8000800000000E9
:10DB400000000000000000000000000000000000D5
:10DB500000000000000000000000000048C80008AD
:10DB6000FF000000580000200000000044030020D7
:10DB7000AC0300201404002000000000000000009E
:10DB80000000000000000000000000000000000095
:10DB90000000000000000000000000000000000085
:10DBA0000000000000000000000000000000000075
:10DBB0000000000000000000000000000000000065
:10DBC0000000000000000000000000000000000055
:10DBD0000000000000000000000000000000000045
:10DBE0000000000000000000000000000000000035
:10DBF0000000000000000000000000000000000025
:10DC00000000000000000000000000000000000014
:10DC100001000000000000000E33CDAB34126DE6B1
:10DC2000ECDE05000B00000000000000000000001A
:10DC300000000000000000000000000000000000E4
:10DC400000000000000000000000000000000000D4
:10DC500000000000000000000000000000000000C4
:10DC600000000000000000000000000000000000B4
:10DF9000B00A0020000000000000000084040020FF
:10DFA000840400208C0400208C04002094040020B1
:10DFB000940400209C0400209C040020A404002061
:10DFC000A4040020AC040020AC040020B404002011
:10DFD000B4040020BC040020BC040020C4040020C1
:10DFE000C4040020CC040020CC040020D404002071
:10DFF000D4040020DC040020DC040020E404002021
:10E00000E4040020EC040020EC040020F4040020D0
:10E01000F4040020FC040020FC040020040500207F
:10E02000040500200C0500200C050020140500202C
:10E03000140500201C0500201C05002024050020DC
:10E04000240500202C0500202C050020340500208C
:10E05000340500203C0500203C050020440500203C
:10E06000440500204C0500204C05002054050020EC
:10E07000540500205C0500205C050020640500209C
:10E08000640500206C0500206C050020740500204C
:10E09000740500207C0500207C05002084050020FC
:10E0A000840500208C0500208C05002094050020AC
:10E0B000940500209C0500209C050020A40500205C
:10E0C000A4050020AC050020AC050020B40500200C
:10E0D000B4050020BC050020BC050020C4050020BC
:10E0E000C4050020CC050020CC050020D40500206C
:10E0F000D4050020DC050020DC050020E40500201C
:10E10000E4050020EC050020EC050020F4050020CB
:10E11000F4050020FC050020FC050020040600207A
:10E12000040600200C0600200C0600201406002027
:10E13000140600201C0600201C06002024060020D7
:10E14000240600202C0600202C0600203406002087
:10E15000340600203C0600203C0600204406002037
:10E16000440600204C0600204C06002054060020E7
:10E17000540600205C0600205C0600206406002097
:10E18000640600206C0600206C0600207406002047
:10E19000740600207C0600207C06002084060020F7
:10E1A000840600208C0600208C06002094060020A7
:10E1B000940600209C0600209C060020A406002057
:10E1C000A4060020AC060020AC060020B406002007
:10E1D000B4060020BC060020BC060020C4060020B7
:10E1E000C4060020CC060020CC060020D406002067
:10E1F000D4060020DC060020DC060020E406002017
:10E20000E4060020EC060020EC060020F4060020C6
:10E21000F4060020FC060020FC0600200407002075
:10E22000040700200C0700200C0700201407002022
:10E23000140700201C0700201C07002024070020D2
:10E24000240700202C0700202C0700203407002082
:10E25000340700203C0700203C0700204407002032
:10E26000440700204C0700204C07002054070020E2
:10E27000540700205C0700205C0700206407002092
:10E28000640700206C0700206C0700207407002042
:10E29000740700207C0700207C07002084070020F2
:10E2A000840700208C0700208C07002094070020A2
:10E2B000940700209C0700209C070020A407002052
:10E2C000A4070020AC070020AC070020B407002002
:10E2D000B4070020BC070020BC070020C4070020B2
:10E2E000C4070020CC070020CC070020D407002062
:10E2F000D4070020DC070020DC070020E407002012
:10E30000E4070020EC070020EC070020F4070020C1
:10E31000F4070020FC070020FC0700200408002070
:10E32000040800200C0800200C080020140800201D
:10E33000140800201C0800201C08002024080020CD
:10E34000240800202C0800202C080020340800207D
:10E35000340800203C0800203C080020440800202D
:10E36000440800204C0800204C08002054080020DD
:10E37000540800205C0800205C080020640800208D
:10E38000640800206C0800206C080020740800203D
:10E39000740800207C0800207C080020FFFFFFFF9D
:10E3A0000000020043000000000000000000000028
:10E3B000000000000000000000000000000000005D
:10E3C000000000004300000000000000000000000A
:10E3D000000000000000000000000000000000003D
:10E3E00000000000430000000000000000000000EA
:10E3F000000000000000000000000000000000001D
:10E4000000000000430000000000000000000000C9
:10E4100000000000000000000000000000000000FC
:10E4200000000000430000000000000000000000A9
:10E4300000000000000000000000000000000000DC
:10E440000000000043000000000000000000000089
:10E4500000000000000000000000000000000000BC
:10E460000000000043000000000000000000000069
:10E47000000000000000000000000000000000009C
:10E480000000000079C7000835C600080000000041
:10E49000C4D70008C0D70008DCC70008DCC70008E4
:10E4A000DCC70008DCC70008DCC70008DCC70008C0
:10E4B000DCC70008DCC70008DCC70008FFFFFFFF5F
:10E4C000FFFFFFFFFFFFFFFFFFFF000001004153C1
:10E4D0004349490000000000000000000000000067
:10E4E0000000000000000000000000000000415398
:10E4F0004349490000000000000000000000000047
:10E50000000000000000000000000000000000000B
:0400000508005DE1B1
:00000001FF
